:020000040000FA
:1000000000400020C54300000144000003440000FC
:1000100000000000000000000000000000000000E0
:100020000000000000000000000000000544000087
:100030000000000000000000074400000944000028
:100040000B440000D12C00001D4A00000B440000AE
:100050000B440000000000003D4400000B44000081
:1000600065390000154C0000A54800000B44000055
:100070000B4400000B4400000B4400000B44000044
:100080000B4400000B4400000B4400000B44000034
:100090000B440000F9410000D54100000B44000072
:1000A0000B4400000B4400000000000000000000B2
:1000B0000000000000000000000000000000000040
:1000C00010B5064C2378002B07D1054B002B02D02E
:1000D000044800E000BF0123237010BDA0000020F1
:1000E0000000000054D90000044B10B5002B03D0D1
:1000F0000349044800E000BF10BDC04600000000F6
:10010000A400002054D90000164B002B00D1144B42
:100110009D46402292029A1A924600218B460F4633
:100120001348144A121A0CF075FC0F4B002B00D028
:1001300098470E4B002B00D0984700200021040068
:100140000D000D48002802D00C4800E000BF09F067
:1001500009F9200029000CF05FFA09F0EDF8C0461B
:100160000000080000400020000000000000000027
:1001700098000020BC0800200000000000000000E3
:1001800010B50400034B0360403009F08BFF2000E2
:1001900010BDC04698CC0000F0B5050085B0002821
:1001A00005D02548002904D124490CF003F905B0F5
:1001B000F0BD23490CF0FEF86C8901262300413381
:1001C000FF330C359BB2029503931E4B9C42EED835
:1001D000029B1D4F1D7839002B006A1032403340BE
:1001E0000092154822000CF0E5F8E910AB10314000
:1001F000621C33400091104839000CF0DBF86911A3
:100200002B113140A21C334000910B4839000CF0F7
:10021000D1F8AB11ED093340E21C009539000648D6
:100220000CF0C8F8029B043401330293039BA4B280
:100230009C42CAD1BBE7C046C0000020C0D5000028
:10024000CAD50000E7030000E4D5000073B51848E4
:1002500000F0A0F9174C0321200003F00DF8C82688
:100260002000FA2402F0A4FE00F086F87600640074
:10027000432101A809F033FF0F4D320001A92800E6
:1002800002F0DCF801A809F00DFF200000F0D8FC16
:10029000202101A809F023FF320001A9280002F063
:1002A000CDF801A809F0FEFE200000F0C9FCDFE750
:1002B000BC000020C8040020A801002010B5054C97
:1002C000200000F081F8044A044920000CF03CFBB7
:1002D00010BDC046BC00002000000020E10200006C
:1002E000F7231C4A9B0010B5C2501C330400C018F1
:1002F00009F0D8FEFD239B00E01809F0D3FE9F23F0
:100300009B00E01802F028F984239B00E01801F01C
:100310000DFA2000C530FF3000F042FF20008D3084
:10032000FF3001F069F920006530FF3001F064F919
:100330002000EC3001F09EFE2000D03002F0A4FB43
:100340002000643003F08EFF201DFFF719FF20000E
:1003500010BDC04604CF0000A0220823D20500280B
:1003600005D0A121C900505803435350704701499B
:10037000F9E7C0460C050000A0210823044A10B587
:10038000C905885803438B500020FFF7E5FF10BDD7
:100390001405000070B50B4C0500005900280ED064
:1003A00003F09CFE836D9B0709D528590BF087FF4E
:1003B000036813215B6A984764200CF0AEF909F0DA
:1003C0003BFD70BD140500001423F0B5040097B088
:1003D000009319221821043003F09EF82200250012
:1003E0006432B43513211000139203F047FF280044
:1003F0000AF065FF2200B83210921E2100221098E8
:100400000AF0F4FA2000D03002F05EFB2200EC3259
:1004100011920621594A119801F050FE220000273E
:1004200001236532FF32149200971A0011211498AB
:1004300001F04EF922008D32FF3215920097012310
:1004400002221A21159801F043F926002000C53632
:10045000B530FF361A2302220121FF3002F0F2FBF1
:10046000109904233A22300000F04AFF84229200BF
:10047000A218129205231D22019300922B00320034
:100480001099129801F04AFB96229200119BA01835
:100490001299320001F01CFD99229200A018290047
:1004A0001C2203F065F99F229200A61812992222BD
:1004B000300002F05DF8A7229200A018159A149B54
:1004C00000923100119A02F061F91923AB220F93C7
:1004D000013B0E93013B0D93013B0C93013B0B93AE
:1004E000013B0A93013B0993013B0893013B0793AE
:1004F000013B0693013B0593013B0493013B0393AE
:10050000013B0293013B01939200013BA018009331
:100510000822013B07210AF071FAF7239B00E0183B
:10052000290003F097FBFF239B00E5180822042312
:100530001349280003F0E6FA124B3A00E0182900AC
:100540001D2302F0A1FC104B1398E75003212770E4
:100550000BF0F7FE2300220020000C499C33A03250
:100560001C60116057600A4A80305A6102210122E2
:1005700004F016F8200017B0F0BDC046A0CC000073
:10058000008000400C0400001405000095030000EA
:100590006D9D00000123F0B5057885B006001D4073
:1005A00043D1FD20800500F055FC3300D033180006
:1005B000019300F029FA00F02FF9282000F082FCC6
:1005C0000400103009F0BAFD194B1820236000F028
:1005D00079FC0700174B0660082229000C300293B3
:1005E00003950CF017FA02A9381D08220CF0F6F951
:1005F000114B21007B611223A760E560A380256277
:100600006562019802F0D8F9002806D0200009F0B0
:10061000FEFC282120000CF09EF9012332780749C6
:1006200013433370064800F0EBFB05B0F0BDC04645
:10063000FD030000C39D0000839D000000200020FA
:1006400008000020BFF34F8F024B034ADA60BFF36C
:100650004F8FFEE700ED00E00400FA05F0B597B01B
:1006600018220021060010A80CF0D4F9132110A8BC
:100670000BF0B0FF032110A80CF056F84C4B1B6890
:10068000002B00D10133DBB202934A4A012300213F
:100690000BA804F0F3F8484B9E4200D9002672B62E
:1006A000464B64211C68464B3000079304F03CFC29
:1006B000052510306843201808900A21300004F006
:1006C00033FC0A2104F016FD1031694361180991C9
:1006D00030000A2104F00EFD10314D4380236419CF
:1006E0000A9400249B010193029B002B5DD00025FE
:1006F00000272E1F07AB9B190593032C03D18023E2
:1007000000249B01019307AB5B592E4A03936300BE
:10071000D31804930023190006205843049A16188E
:100720007678B4466246039EB25C10269446049ADC
:10073000105C62460641164202D0012098400143F7
:100740000133092BE8D1C9431F4B059A0901194010
:100750001268039B934225D1312F23DC00210BA883
:100760000CF09BF8FA23159A1199DB0010680142EE
:100770001BD0013B002BF9D1019B01345B0001939D
:10078000FA230137E4B25B009F42B6D10435102D45
:10079000AED1074B1B68002BA6D0029F013FFBB2D6
:1007A0000293A1E7019B1943D9E7FFF74BFFC0462E
:1007B000D8050020F0FF0000E7030000040000203F
:1007C0005DD6000027D60000F01F0000F0B500281D
:1007D0001BDD0F4C421E276811000020BE09FB0FD5
:1007E00073407B403E097D087340BF087B406B40EF
:1007F000DB072B4301251F0040002B401843E94035
:10080000ECD18242E8D32760F0BD0248FCE7C04645
:10081000D405002017FCFFFF0023F0B50121A1261D
:1008200004241F00094D0A480A4A2B60F6000160A3
:10083000576051680029FCD081591B02013C0B43D1
:10084000002CF5D12B6001234360F0BDD4050020BE
:1008500000D00040FCD00040F0B585B01F000AABCE
:100860001B880600029115000393002F1DD028203D
:1008700000F028FB6B4604001989039BAAB2009381
:100880003B0009F0ADFB336821005B6830009847FE
:1008900000280BD0002C06D0200009F0B8FB28213E
:1008A00020000CF058F8024800E0024805B0F0BD06
:1008B00016FCFFFF17FCFFFF0B4B70B51C68002CEC
:1008C00010D0656D00F0C6FBA36C002901D18342F6
:1008D00006D8200009F0D2FA0449200009F0BCFA39
:1008E0002C00ECE770BDC046E005002000060020AB
:1008F000F0B593B007932A4B04AC1E6804900591A1
:100900000692002E4AD0274B258867881C68002352
:100910000293002C2ED0636D23480393A36C9AB2EC
:10092000A36C1B0C99B2854214D12048824211D18C
:10093000002B01D0B9420BD1029B002B08D1200023
:1009400009F09CFA1A49200009F086FA0123029363
:10095000039CDEE7002A01D09542F9D1002B01D09B
:10096000B942F5D1200009F089FA1149200009F0B7
:1009700073FAEDE70F4BEB18012B0FD910233A0058
:10098000009329000C4B08A809F02AFB336808A93A
:100990009B683000984708A809F039FB13B0F0BDF8
:1009A000DC0500200C060020FE030000FF03000011
:1009B0000006002002FCFFFFF108000010B572B62F
:1009C0000B4B1C68002C08D0200009F057FA0023BC
:1009D000E364084B2000E36310BD62B65C2000F0C6
:1009E00071FA5C22002104000CF014F8EFE7C04615
:1009F0000406002000400020024B18780123184014
:100A00007047C04678080020F7B50600FFF7F4FFEE
:100A1000051E33D11A4C2660FFF7D0FF194B1A4937
:100A2000186009F019FAFFF7C9FF184B1860184B46
:100A30004363184B8363206800280ED0C027164EEE
:100A40002A00330015490097FFF706FF009733008F
:100A50002A0013492068FFF7FFFE0C2000F032FA4D
:100A60000023838083710F4B03600F4B836000F082
:100A700009FB01230D4A11780B431370F7BDC046E3
:100A8000DC050020100600200006002008060020DB
:100A9000FC3F0020439F0000F1080000FF0300001E
:100AA000FE030000C0CC0000B90800007808002058
:100AB000F7B506000D0017000193002802D10024AD
:100AC0002000FEBD0029FAD0FFF778FF041EF6D003
:100AD000074B019A4363066045608760054B002A17
:100AE00000D0054BA3630549200009F0B5F9E7E7FD
:100AF000FC3F00200D9F00002B9F000000060020FF
:100B0000024B1868434258417047C0460006002017
:100B1000002310B504499C006258002A01D001331B
:100B2000F9E76050100010BDE8050020002310B563
:100B3000044A99008C58844201D00133F9E700201F
:100B4000885010BDE805002010B50024084BA20015
:100B5000D058002802D003685B6898470134062CFF
:100B6000F4D1044B1B68002B00D120BF10BDC04640
:100B7000E805002000060020F8B5FFF73DFF00283B
:100B80001BD0294D2C68E36CDA0717D502263343B6
:100B9000E3640423254F3868C26C1343C364636B5A
:100BA000C36309F091F93868416C03F0B0F8286824
:100BB000C36C334201D003F0E4F8F8BD1C4F1D4E66
:100BC0003A683168002A1ED129602A688A4208D111
:100BD0001B0706D52C60FFF7B7FF3B68002BFAD048
:100BE0002B6029688C42E8D03368994214D1124BAB
:100BF0004B63124B8B63200009F066F92968626C25
:100C00004B6C20000DE0206DB84203D1606D0028D0
:100C100000D002002A60D8E79C42ECD100221000EC
:100C20004B6C03F033F8C8E710060020E405002001
:100C30000006002008060020FC3F0020439F000023
:100C400070B50500FFF7D8FE002803D128000BF08F
:100C500064FD70BD0C4B1C68E36CDB0706D5FFF729
:100C6000ADFE0A4B1860002800D0040000F0F2F935
:100C70002D18A564200009F001F90549200009F0AC
:100C8000EBF8FFF779FFE4E710060020E405002009
:100C9000E0050020F0B51E4B1E4F1C683B6885B078
:100CA00006000391002B30D0FFF7A6FE00282CD0C1
:100CB000E36CDB070ED5FFF781FE174B051E1860AE
:100CC00008D009F0DBF81549280009F0C5F82C0018
:100CD000FFF752FF039B20001B043343A36409F07A
:100CE000CDF820000E4909F0B7F80E4B0024F31898
:100CF000012B07D9C0230093039A0B4B31003868AE
:100D0000FFF7AAFD200005B0F0BD084CFAE7C04689
:100D100010060020DC050020E4050020000600206D
:100D20000C06002002FCFFFFF108000016FCFFFF8C
:100D300010B5FFF761FE002809D0054C206809F0C6
:100D40009DF80449206809F087F8FFF715FF10BDEA
:100D50001006002004060020F7B507000D0000284B
:100D60002ED0FFF749FE00282CD00724164E3068FD
:100D7000C36C1C4007D0154A2900380009F095F8CB
:100D800000242000FEBD02F0E4FF02213268D36C93
:100D90001940019103D003218B43D364F1E701246F
:100DA0002343D3642800B8473268D36C1900A143A9
:100DB000D164019C5B07E4D5280009F0AEF8E0E7B8
:100DC000034CDEE7034CDCE7100600201B9F00000D
:100DD00017FCFFFF16FCFFFF020010B5014B12CB02
:100DE00012C210BD14060020034B1A68034B1A6090
:100DF0007E225A607047C04604000020140600207E
:100E000070B5104D2B78022B18D0814218D90B1ACF
:100E1000072B15D90C00032304431C4010D172B6D4
:100E20002A78094BD200D0509818416009F08FF809
:100E30002B7801332B7062B6200070BD0348FCE7AD
:100E40000348FAE7790800201C06002013FCFFFF86
:100E500017FCFFFF70B50021041C04F06DF9002899
:100E600028D1FE21201C890504F070F9002821D129
:100E7000043008F09BFA05000F48401B05F046F9C6
:100E8000211C04F0E3FD04F095F9032398430400CA
:100E9000280008F095FA200008F088FA002804D10C
:100EA000203C002CF7D1054803E00119FFF7A8FF0B
:100EB000002070BD0248FCE70038002013FCFFFF53
:100EC00017FCFFFF70B5060000250C4B1B78AB42EA
:100ED00009DD0B49EB00C918300009F040F8041E89
:100EE00009D10135F1E7300008F060FA041E02D1A3
:100EF0001420FFF7B3FB200070BDC0467908002026
:100F00001C06002070B5002813D00D4B0D491C782D
:100F100000239C4210DDDA00555885420AD28A1817
:100F20005268824206D98023043802681B061343A4
:100F3000036070BD0133ECE708F042FAF9E7C04600
:100F4000790800201C06002070B5051E14DD0B4E2C
:100F50000B4C3368002B02D020680BF09CFAFA216E
:100F600020680024074B89008361C46269433560AF
:100F70000BF099FA200070BD0348FCE72C06002016
:100F80005C0600203110000017FCFFFFF8B5114F80
:100F900006003D68002D0AD13020FFF793FF0400C2
:100FA00003F0C6F90C4BA5612360E5623C600B4D74
:100FB0002B68002B09D11020FFF784FF04000BF0F1
:100FC000BFFA20002C600BF095FA3000FFF7BCFF51
:100FD000F8BDC0465C06002054CF00005806002033
:100FE000014B18687047C0462C06002070B50D4CA8
:100FF0002368002B03D00C4B1B68002B02D106206A
:10100000FFF7C4FF20680BF08CFA02000749C317F2
:101010000D684E685219734120680A604B600BF0EE
:1010200086FA70BD580600205C060020980000205B
:1010300010B5FFF7DBFF0024054BA200D0580028B5
:1010400002D003681B68984701340A2CF4D110BD04
:101050003006002010B5FFF7C9FFFA22034B9200BB
:1010600018685968002304F085F810BD9800002026
:1010700010B5FFF7BBFF024B1868596810BDC0469A
:10108000980000200B4B10B51B680400002B03D008
:10109000094B1B68002B02D10620FFF777FF0023C6
:1010A000064A99008858002801D00133F9E78C508E
:1010B00010BDC046580600205C0600203006002007
:1010C000002310B5044A99008C58844201D00133A2
:1010D000F9E70020885010BD3006002010B504004C
:1010E000002902D00B78002B03D1034B2360200092
:1010F00010BD08F0DEFFFAE7D0CC0000014B036022
:101100007047C046D0CC000010B50548054C2060A3
:1011100009F06FF8044A054920000BF015FC10BDDA
:10112000D0CC00006006002000000020A5A0000038
:10113000084B73B51C680500002C0AD00100266816
:101140000831082268460BF049FC0CCD31682000BC
:10115000884773BD6406002010B5054C01212000AE
:1011600009F03BF8034A044920000BF0EDFB10BDE9
:10117000680600200000002097A100000388074AAD
:1011800010B50120934208D0834202D00020DB0733
:1011900003D41E20FFF762FA002010BDFFFF0000FD
:1011A00010B50400034B08330360FFF7BFFC2000B9
:1011B00010BDC04618CD0000FA2270B543899200D8
:1011C0005343314A31491400050038348B421BDC4B
:1011D0002F498B4218D82F49083C8B4214D82E49EE
:1011E000083C8B4210D82D49083C8B420CD82C4926
:1011F000083C8B4208D82B49083C8B4204D82A492A
:1012000014008B4200D90834284B2A7B1E1D042A67
:1012100003D89E1C022A00D81E00FA2120688900EB
:1012200003F0F8FD337868812B7300222A2128000F
:1012300009F004F8002801D01D4870BD10222B21B0
:10124000280008F0FBFF0028F6D101222D212800FC
:1012500008F0F4FF0028EFD101222E21280008F029
:10126000EDFF0028E8D172780E21280008F0E6FF93
:101270000028E1D1012223792A211A43280008F00D
:10128000DDFF0028D9D0D7E7D8CC000000C4090082
:101290000071020080380100204E0000102700007D
:1012A00088130000C4090000E20400003DD80000DB
:1012B0000EFCFFFF7FB515000F226A4404001E00DC
:1012C0001170002D16D0002B14DD0123018900932D
:1012D000006B01F0EDFA002802D0074804B070BDA1
:1012E0000090218933002A00206B01F097FA002832
:1012F000F4D0F2E70148F1E70EFCFFFF17FCFFFF17
:10130000F7B50600002501931E4B14360833040080
:10131000036085808571C581058245820F0000923A
:101320002900182230000BF075FB1C2130000BF057
:1013300051F96B469B880221A3806B461B882200D3
:1013400023811423A5712173A563A58763813E3290
:10135000137827638B43F1310B4013702300957290
:1013600095810135221DD5870833A21DD587200020
:10137000DD87FFF721FF002802D1A3791D43A57166
:101380002000FEBD18CD000030B50425837987B05C
:1013900004002B4204D1FFF7BBFBA3791D43A571C9
:1013A000A36AA2691B6800251A4208D106236A466F
:1013B00001212000FFF77EFF051E03D0114D2800FC
:1013C00007B030BD6B46022269469A56207BD20098
:1013D00042431B79228202225BB20978DB0043433D
:1013E00049B2C90041436382A379E1819343A37168
:1013F000200008F031FF0123A1881A0002A808F09C
:10140000A7FEDCE70EFCFFFFF8B50400FFF7BCFF0A
:10141000C8230E21625E5B00744F9A4252DD2300A6
:101420003E331B789B074DD50125210028003E3116
:101430000B785A08904302000220AA4083431343CA
:101440000B702000FFF7A0FFC8231021625E5B0035
:101450009A4245DD23003E331B785B0740D50125CA
:10146000210028003E310B789A0890438200042026
:10147000834313430B7026002000FFF785FF1222E1
:10148000A35E4836BB4238DA23003E331B781B0785
:1014900033D5210001223E310B78D8088243082041
:1014A000D200834313430B703378032B35D80133B9
:1014B000DBB23370012B00D083E0230000224A33DB
:1014C0001A802AE02000FFF75FFF0E22A35E0025AE
:1014D000BB42B6DA23003E331B789B07A4D5B0E7A6
:1014E0002000FFF751FF1022A35EBB42C3DA2300A6
:1014F0003E331B785B07B2D5BDE72000FFF744FF02
:10150000C8231221625E5B009A4204DD23003E3351
:101510001B781B07BDD5002DC6D13278002A14D008
:101520002100270001254A310B883E3701339BB249
:101530000B803878AC46054051D01D2B05D9634649
:101540009843002338700B803370200008F0F0FEC1
:10155000274A0723904240DDC8252000FFF714FFEB
:101560000E23E25EAD000323AA4236DC2000FFF723
:101570000BFF204E0E23E25E0423B2422DDB20003F
:10158000FFF702FF1023E25E0223AA4225DC2000BF
:10159000FFF7FAFE1023E25E0123B2421DDB2000BA
:1015A000FFF7F2FE1223E25E0523B24215DB2000B4
:1015B000FFF7EAFE1223E25E0623AA420DDC0023B7
:1015C0000BE0042BA9D122003E321178033B0B43E0
:1015D000137000234A3423800B331800F8BD092B05
:1015E000B3D9013A0D803270AFE7C04670FEFFFFFD
:1015F000FF700200E0FCFFFF10B50400034B08334E
:101600000360FFF75DFD200010BDC04630CD000037
:1016100070B5C369C1681A68451D0400EB7F1142AB
:101620004AD0002B4DD1EB7F082B0BD90121A37998
:101630000B4207D10B43A371200008F029FFFFF7ED
:1016400009FD2062EB7F012B1DD8A379DA071AD59B
:1016500010221340A3710221200008F019FFA31DDE
:10166000DB7F012B0FD1FFF7F5FC0023226A801AE4
:101670009941994203D1144B0321984200D9042186
:10168000200008F005FF0322A3791340012B12D19B
:10169000FFF7E0FC0023226A801A9941994202D1A7
:1016A0000A4B984207D90223A27905211343A3715B
:1016B000200008F0EDFE70BD0B2BB4D80133EB77A2
:1016C000B1E7013BFBE7C046E7030000DB05000094
:1016D000F0B5070000250E0085B002930AAB1B7819
:1016E00008370393104B0400083303600192858090
:1016F00085712900182238000BF08CF9039A31000B
:1017000038000AF06CFF6B466A469B88127AA38009
:10171000A31DE671DA77631D25622000DD77FFF7F0
:10172000B1FC200005B0F0BD30CD000010B50400C4
:10173000034B08330360FFF7F9F9200010BDC046E2
:10174000A0CD00007FB515000F226A4404001E00E2
:101750001170002D16D0002B14DD01230189009398
:10176000C06B01F0A5F8002802D0074804B070BD96
:101770000090218933002A00E06B01F04FF8002827
:10178000F4D0F2E70148F1E70EFCFFFF17FCFFFF82
:10179000002330B585B003AC2170018900930500AA
:1017A00001332200C06B01F083F8002802D0094801
:1017B00005B030BD20802989009002232200E86B0B
:1017C00001F02CF80028F2D1237860781B0218432E
:1017D00000B2EDE70EFCFFFF13B56B46DC1D0023E6
:1017E000220023700133FFF7ADFF002801D12078DC
:1017F00016BD0148FCE7C0460EFCFFFFD0B5040053
:1018000008F088FEE268A369981A06F0CDF8060091
:101810000F002369E069C01A06F0C6F832003B00E9
:1018200006F010FC0022104B05F0CEFA0F4A104BC8
:1018300004F0C8FF06F044F90021041C03F072FC18
:10184000002804D0201C0B4903F08EFD041C201C32
:1018500006F0E4F802000B000020074905F026FD21
:1018600006F06CF8D0BDC04600806640EA2E4454B5
:10187000FB2109400000B44300807640F0B505002C
:1018800085B0006C08F0F1FD061C286C08F0E4FD42
:101890000221071C280008F06EFE02210390280098
:1018A00008F07BFE04F0E8FB0221041C280008F08D
:1018B00086FE04F0E1FB051C301C06F085FB02905F
:1018C000301C06F043FB0190381C06F07DFB061C23
:1018D000381C06F03BFB071C039804F0CDFB391CB9
:1018E00004F0B4F8311C071C201C04F0AFF8029976
:1018F00004F0ACF8011C381C03F036FD311C071C49
:10190000281C04F0A3F8019904F0A0F8011C381C6D
:1019100003F02AFD0299061C281C04F097F801998F
:10192000051C201C04F092F8011C281C04F0C0F9CE
:10193000311C06F08BFB0D4904F088F806F06EF8B8
:101940000B4A0C4B04F03EFF06F0BAF80021041CD1
:1019500003F0E8FB002804D0201C044903F004FD38
:10196000041C201C04F068FB05B0F0BD0000B4436B
:10197000EA2E4454FB21194070B5002210210400C6
:1019800008F0BAFD1B4D00282DD1032608212000A8
:10199000FFF722FFA84226D0304226D1FA216389E0
:1019A000890059435023144AD518D058884204D38B
:1019B000D518083B18000830F7D1FA2128688900AB
:1019C00003F028FAA02260811121200008F094FD84
:1019D000002808D101222B7910211A43200008F099
:1019E0008BFD002800D0034870BD6420FFF728F964
:1019F000CCE7C0460EFCFFFF48CD00007FB50425B4
:101A0000837904002B4218D1022608F083FDA379C4
:101A1000A188B3432B43A37106220123684608F033
:101A200097FBA07903003040AB43A3714342584178
:101A3000034B4042184004B070BD0248FBE7C0466B
:101A400014FCFFFF15FCFFFF10B5837904005A0753
:101A50000DD49B0701D4FFF7D1FF236C2000002B8E
:101A600002D0FFF70BFF10BDFFF7C8FEFBE70148F0
:101A7000F9E7C04615FCFFFF70B5466C86B001ACB7
:101A8000050001916260A360002E0CD00B4905A8EF
:101A9000FFF724FB0C23220005A9300009F04FFCBE
:101AA00005A808F0FFFA2B000C3307CC07C302236C
:101AB000AA791343AB7106B070BDC04643D800008D
:101AC000642330B504000281438185B08180FFF733
:101AD00053FF0222A379606C9343A371002814D0B2
:101AE0000D4909F0F2FB051E0FD001000C22103148
:101AF00001A80AF073FF01992000029A039BFFF7E7
:101B0000BBFF302128000AF026FF0123A2791343EE
:101B1000A37105B030BDC04643D80000F7B50093AF
:101B200008AB1B880400019309AB1D8800230F003C
:101B300016000D4A8380083283710260C36003611E
:101B400043618361C36103621D21243008F0C7FC37
:101B5000009BE7632664290020006364019AFFF775
:101B6000AFFF2000FEBDC046A0CD000082B0F0B5A2
:101B70000400A5B064202B932A920AF0CEFD042223
:101B80000C2109A802F028F92422CC491BA80AF04C
:101B900025FF052206A811000AF0FEFAC84907A889
:101BA00002F0C8F9A06800F081FBA568C54918A833
:101BB000FFF794FA782218A9280000F073FC18A8FF
:101BC00008F070FA6E256420013D0AF0A6FD002D94
:101BD000F9D1A06800F06AFBA06808F099FE012125
:101BE000606808F0B9FB01210700606808F0C7FBD6
:101BF00006000A200AF091FD0022B34B03929F4297
:101C000010DB013203923A00C8320BDBC8220421F8
:101C100092000391974205DC03220392C82F01DC56
:101C2000013A039200279E420CDB33000137C83390
:101C300008DBC82303379B009E4203DC013FC82E0C
:101C400000DC013F06A80AF09EFA00260323734336
:101C50001BA9CA189078002805D0C95C5278FF23C8
:101C600006A802F0F9F801360C2EEFD16B463AB215
:101C70000C21595E06A8FF2302F0EEF80023A068AD
:101C800000931A00743006A90AF08DFA0023049319
:101C90000323049A039853431BAA995C814237D1CA
:101CA000D31805935B78BB4232D1059B9E78002EFA
:101CB0002ED13100206808F05EFC04F0DDF932001E
:101CC000031C290009A809F021FC3100206808F054
:101CD00064FC04F0D1F90122031C290009A809F0D1
:101CE00015FC3100206808F06AFC04F0C5F92900F1
:101CF000031C022209A809F009FCFE2303229B050C
:101D0000290009A809F002FC0123059AED18937037
:101D1000049B013304930C2BBAD164200AF0FDFC20
:101D20000B2D00DC5BE709A809F0DCFB01220100B8
:101D30000CA802F051F8002509A809F0D3FBA8422D
:101D40003CDD2900002209A809F0CEFB0022061C78
:101D5000290009A809F0C8FB011C301C03F076FE1D
:101D60002900061C012209A809F0BEFB0122071C5C
:101D7000290009A809F0B8FB011C381C03F066FE15
:101D8000311C03F0F1FA2900061C022209A809F00F
:101D9000ABFB02222900071C09A809F0A5FB011CC6
:101DA000381C03F053FE311C03F0DEFA2900031C3B
:101DB00000220CA809F0AAFB0135BDE709AA110011
:101DC000012318A809F0BDFB18A90FA809F016FCFB
:101DD00018A809F0ACFB0CAA09A912A8012309F064
:101DE000B0FB002312AA0FA915A809F0AAFB002234
:101DF00015A8110009F078FB0022061C012115A886
:101E000009F072FB0022051C022115A809F06CFBE9
:101E1000FC21071C8905301C03F018FE04F00CF9A6
:101E2000FC21060018908905281C03F00FFE04F021
:101E300003F9FC21050019908905381C03F006FE02
:101E400004F0FAF82A00030031001A902068FFF726
:101E500013FEA06808F05CFD07A908A8A5680AF0B1
:101E60008AF90022194B009208A901932800130057
:101E700000F0BAFA08A80AF071F9FA2080000AF016
:101E80004CFCA06808F044FD15A809F050FB12A80E
:101E900009F04DFB0FA809F04AFB0CA809F047FB1D
:101EA00007A80AF05BF906A80AF058F909A809F092
:101EB0003EFB25B0F0BC08BC02B018474ED800006D
:101EC00072D80000B7D80000E0FCFFFFDC0500007E
:101ED000F7B583601D4B05001F6801604260002F4D
:101EE00032D02820FEF7EEFF0400103008F026F96B
:101EF000174B18202360FEF7E5FF00220600154B64
:101F000001920560083200210C3000930AF082FD36
:101F100008226946301D0AF061FD0F4B00227361F3
:101F2000C223A3803B68E260A660226262625B68B3
:101F3000210038009847002806D0200008F067F8F4
:101F4000282120000AF007FD2800FEBD64060020BD
:101F5000050006006D1B0000E1A50000F0B50400BF
:101F600085B0637A9C46002B04D1200008F063FB07
:101F700005B0F0BDA37A266F01931023019AF356A2
:101F800000259B1801229A402900F36803920293CE
:101F9000029BAB4231DDB368019A6B439B187269B7
:101FA0005B00E77AD3181A785878E379012F14D1B7
:101FB0005F1E3F1A10003A005B004343606F8218B7
:101FC000D3189B79634500DD6346627B1A4202D0D9
:101FD0000123AB4019430135DAE7022F05D15F1E1B
:101FE000BA1A277A013F381AE6E7032FE4D1277A95
:101FF000013FBF1A02003800DEE71123C943F35640
:10200000606C994023691940039B19430AF045FC11
:10201000A27B072AACD8637B0C495B006373531C1B
:10202000DBB290004158A373022A03D808000AF0DB
:1020300069FB96E7064B2000236300236363054B8F
:10204000E462236414300AF02EFA91E7B8CD000060
:102050005D1F000021A6000010B50400044B0360C2
:102060000AF019FA200002F079F9200010BDC046EC
:1020700054CF000010B504000E4B08330360FFF787
:102080001FF8200074300AF069F8200060300AF070
:1020900065F82000583008F005F82000503008F0AE
:1020A00001F82000044B14306361FFF7D5FF2000D6
:1020B00010BDC046D8CD000068CF0000F8B500259F
:1020C0000400324B8580083303608571143016009C
:1020D0000F0002F02DF920002D4BE56263612564AD
:1020E0005030FFF70BF820005830FFF707F82000BA
:1020F000603001F0ABFE20000423F25E33682667F7
:10210000590009B274300AF047F83368226FE3715E
:1021100073680126237210236581A7802561D35639
:1021200091685918994204DD300098400133054305
:10213000F8E711230120D356D1685918994206DDDA
:1021400002009A402669013332432261F6E71420E7
:10215000FEF7B8FE226900212A430123060002F09F
:102160008DFBFF23220063720133A38100234832D9
:102170006664A37320001370A366FEF783FF012338
:10218000A27920001343A371F8BDC046D8CD00004A
:1021900068CF0000F0B5437A85B00400002B04D16D
:1021A000200008F048FA05B0F0BD0122837A110042
:1021B0009C461023066F0025F35603926344994012
:1021C00002912900F3680193019BAB422CDDB368B7
:1021D00072696B4363445B00E77AD3181A785878C6
:1021E000E379012F10D15F1E3F1A10003A005B0007
:1021F0004343606F8218D3189B79002B02D0039B56
:10220000AB4019430135DFE7022F05D15F1EBA1A33
:10221000277A013F381AEAE7032FE8D1277A013FEE
:10222000BF1A02003800E2E71123C943F356606C7D
:10223000994023691940029B19430AF02EFB667AE4
:10224000B31EDBB2FC2B14D8FEF7CAFE0B4B050005
:10225000236300230A4863630A4BFF21E46223647B
:10226000704302F061FE29004143200014300AF05F
:102270001AF9637A012B00D995E791E737A6000098
:10228000B603000021A600001FB5012381881A00B3
:10229000684607F05DFF012303491A00684607F00E
:1022A00057FF05B000BDC046FE0300001FB5030088
:1022B00048331A780400002A0DD000221A70012336
:1022C00081881A00684607F043FF012304491A0079
:1022D000684607F03DFF2000743009F054FF1FBD31
:1022E000FF03000010B548300378002B06D00378B8
:1022F000012B03D00121024807F0FFFD10BDC046AD
:10230000FF03000010B501210400062007F0F5FDD1
:10231000064B984208D148342378002B04D0237808
:10232000012B01D020BFF7E710BDC04616FCFFFF10
:1023300070B50600141E19DB050048352B78002BFC
:1023400002D02B78012B13D1002330001A007430F7
:1023500001F040FE002C07D033004A331C800024DB
:1023600007234C3634802B70200070BD014CFBE7F6
:10237000014CF9E717FCFFFF12FCFFFFF8B517004F
:102380000A68050052880B00012A09D100211800B3
:1023900007F0C7FE002201002800FFF7C9FFF8BDC3
:1023A000002F19DD060048363278002A02D0327834
:1023B000012A13D12A00002428005C32190014805D
:1023C000583007F09FFE2B004A331F8003234C3503
:1023D0002C8020003370E2E70148E0E70148DEE7A7
:1023E00017FCFFFF12FCFFFF73B5079C0500002CD4
:1023F0001CDB060048363078002802D030780128EF
:1024000016D106981BB2C0B20090280012B27430E8
:1024100009F0C9FE002C07D02B004A331C80002491
:1024200007234C352C803370200076BD014CFBE730
:10243000014CF9E717FCFFFF12FCFFFFF7B50500A1
:102440000E00171E26DDFFF74DFF2B0048331C78CA
:10245000E4B2002C20D133685B88012B09D1210024
:10246000300007F05EFE220001002800FFF760FF49
:10247000FEBD310001A807F03DFE3A0001A9280089
:10248000FFF77CFF01A807F00DFE2800FFF73AFFD9
:102490002000EDE70148EBE70148E9E717FCFFFF03
:1024A00011FCFFFFF8B50400171E1DDD06004836BD
:1024B0003378002B02D03378012B17D12200E37937
:1024C0005632013B137023000025200054331D8039
:1024D000503007F017FE23004A331F8002232800E4
:1024E0004C3425803370F8BD0148FCE70148FAE719
:1024F00017FCFFFF12FCFFFFF7B505000F00161ECB
:1025000018DDFFF7EFFE2B0048331C78E4B2002CF7
:1025100012D1390001A807F0EDFD320001A9280011
:10252000FFF7C0FF01A807F0BDFD2800FFF7EAFE96
:102530002000FEBD0148FCE70148FAE717FCFFFF59
:1025400011FCFFFFFF2902D84172002070470148AB
:10255000FCE7C04617FCFFFF10B50400034B08332F
:102560000360FEF7E3FA200010BDC046F0CD000086
:1025700070B50400002516000B4BA5800833A5712B
:102580002360E1610800012108F025F8074BA680CF
:10259000A360074BA57125616561A561E36020001B
:1025A000FEF7B6FA200070BDF0CD0000FFFFFF7F00
:1025B0000200008070B504000121C06907F0FFFF30
:1025C000A268824200DD0200E368A260834200DA72
:1025D00003002169E360013121614A2917DD9B1A5B
:1025E0000C4A0D48A3619B1858430C4902F09CFC0F
:1025F000C3430025DB171840094B6061A360094BFA
:102600002561E360200008F092F9280070BD0648BB
:10261000FCE7C04660F0FFFF280A00005886030070
:10262000FFFFFF7F0200008016FCFFFF82B0F0B5C5
:10263000040089B080680F930E9207F03CFFE068B9
:1026400007F039FF4C4906A801F074FC606808F0F7
:102650005DF90590206808F094F9FA2001278000C0
:102660000AF05BF86068FFF721FEFF216068FFF762
:1026700069FF6568414907A8FEF730FD782207A980
:102680002800FFF739FF07A807F00CFD3C4B7F42FD
:1026900004933C4B0393A06807F009FF002834D053
:1026A000E06807F004FF00282FD0206808F06BF9DD
:1026B000606808F02DF906A907A8656809F05BFDB8
:1026C0000022314B009207A9019328001300FFF765
:1026D0008BFE07A809F042FDFA20C0000AF01DF8A1
:1026E000606808F015F9A06807F0EAFEE06807F0F6
:1026F000E7FE05996068FFF725FF06A809F02EFDA3
:1027000009B0F0BC08BC02B018472068FFF752FFC0
:10271000051E03D002200AF000F8F6E7206808F052
:1027200030F9039B0100834200DD0390049B8B4240
:1027300000DA0491042301930023039A0093206894
:10274000049B08F025F9060087420FD0606808F066
:10275000DFF804239F1B3FB2606829B27430FF2367
:102760003A00013501F078FB052DF5D1642009F020
:10277000D4FF37008FE7C04672D80000C5D80000EC
:1027800002000080FFFFFF7FDC050000F7B58360DB
:10279000089B0500C3601D4B01601F684260002F4D
:1027A00032D02820FEF78EFB0400103007F0C6FC64
:1027B000174B18202360FEF785FB00220600154BFF
:1027C00001920560083200210C3000930AF022F9D2
:1027D00008226946301D0AF001F90F4B002273618F
:1027E0001223A3803B68E260A660226262625B689B
:1027F000210038009847002806D0200007F007FC89
:10280000282120000AF0A7F82800FEBD6406002059
:10281000220004002D260000ADA90000F0B51F0025
:1028200085B00AAB1B780400039300933B000D00B6
:10283000160009F064FD002833D0237D082B2DD825
:10284000236800221900FC318A62A021C9005A5075
:10285000154905205A500138C046C046C046C046FA
:10286000C046C046C046C046C046C046C046C04638
:10287000F1D1236801325A50A0210432C9005A50C4
:1028800002F066F9039B3200009329003B00200010
:1028900009F035FD237D01332375CCE7034805B0EE
:1028A000F0BD2075FBE7C046FC0F00000EFCFFFFEB
:1028B000F0B51F0085B00AAB1B78040003930093AA
:1028C0003B000D00160009F002FD002833D0237DE7
:1028D000082B2DD8236800221900FC318A62A02120
:1028E000C9005A50154905205A500138C046C04603
:1028F000C046C046C046C046C046C046C046C046A8
:10290000C046C046F1D1236801325A50A02104329A
:10291000C9005A5002F01CF9039B320000932900B1
:102920003B00200009F0D3FC237D01332375CCE765
:10293000034805B0F0BD2075FBE7C046FC0F000062
:102940000EFCFFFFF8B50D1E30D000260227C4682C
:10295000002C28D0AA88A38853403B4204D13A4295
:1029600004D1AB883B4219D0646AF1E7A968A0683A
:1029700008F04AFD0028F4D02B88002B02D02288D2
:102980009A42F1D16B88002B02D062889A42EBD137
:10299000A288074B01361343A380E5E7A368AA6822
:1029A0009342E1D1E8E72000002E00D10148F8BDB4
:1029B0000080FFFF17FCFFFFF0B5060085B00D1E7D
:1029C00059D00127C468002C22D00221AA880023F4
:1029D0000A4202D0A3885B083B40226829688A42E9
:1029E00010D1A068A968002B0AD008F00DFD0028BE
:1029F00008D0A3881AB2002A06DB204805B0F0BD33
:102A00008842F6D0646ADEE75B045B0CA380F4E7DF
:102A1000F0682A88002807D1F56001231849684624
:102A200007F096FB0020E9E7010003001C889442B0
:102A300006D25C6A1900002C0DD02300F6E72300B3
:102A40001C88944207D15F886C88A74203D25C6AD5
:102A50001900002CF3D1814209D10B889A4204D38A
:102A600005D148886B88984201D96962D4E74B6ADE
:102A70006B624D62D1E70348C0E7C04616FCFFFF1A
:102A8000FD03000017FCFFFF064B10B51A00040001
:102A900008322C33026043600430FEF747F8200010
:102AA00010BDC04608CE000008B4024B9C46043856
:102AB00008BC6047892A000008B4024B9C460438D1
:102AC00008BC604723AB00000C4A002311002C32E5
:102AD000083110B5038183724260C36003614361B2
:102AE0004383016004000430FEF712F8044B1A68B7
:102AF000002A00D11C60200010BDC04608CE000096
:102B000064060020F7B50E000125C4680192002C70
:102B100036D0238832889A4201D0002B23D1638893
:102B200072889A4201D0002B1DD1FDF765FF012369
:102B3000002806D0C022A3881340C03B5A4253410C
:102B4000DBB2019A934219D1A7883BB2002B15DB67
:102B500010223100A01809F041FF40231F4204D089
:102B6000200007F0E8FF646AD1E7FDF745FF002881
:102B7000F6D021000348FEF7EFF8F4E70025F2E76E
:102B80002800FEBD37AB000008B4024B9C46043859
:102B900008BC6047C3AC0000F0B587B001930EAB32
:102BA0001B88060003930D9B0D000093019B02926E
:102BB0000C9F002B3ED0002F02D1009BDB0739D5A4
:102BC0002820FEF77FF90400103007F0B7FA6B46B3
:102BD0001B89258063801820FEF774F90500009B8F
:102BE00008220593019B002103600C30049709F033
:102BF00011FF082204A9281D09F0F0FE0E4B022245
:102C00006B6100230399E3602362636233680A43C4
:102C1000A560A2805B68210030009847002807D09B
:102C2000200007F0F4F92000282109F094FE034861
:102C300007B0F0BD0248FBE701AD000016FCFFFF46
:102C400017FCFFFFF0B50400160000258380164A2C
:102C5000164B85710260218146810573186889B021
:102C60008C46A8421DD0124A05950492C0220292B9
:102C70006A4604AB82CB82C223002A006146FFF77A
:102C80008BFFC022094B0A49186802926A460691D6
:102C900006AB079582CB82C223002A003100FFF7E2
:102CA0007BFF200009B0F0BD4CCE00006406002080
:102CB0002BAE000030B5002403730123034D847153
:102CC0000560818082734373846030BD64CE0000F0
:102CD00080B582B000AF634A86235B000021D150EB
:102CE000614B1A6882235B00D3587B605F4B1B7873
:102CF000DBB2033B5A425341DBB2002B14D05B4B97
:102D000001221A70584B1A6882235B00D358554A27
:102D10001900574BD150534B01225A60554B1B6839
:102D20005A1C544B1A609AE0504B1B78DBB2013BA3
:102D30005A425341DBB2002B73D04F4B1B78012B0F
:102D400047D1484A8023DB00D358013B5A425341C4
:102D5000DBB2002B2BD07B685B790F221340DBB2F8
:102D6000002B29D07B685B791B071B0FDBB20F336D
:102D70001A1C0F231340DAB27B680F210A4010009F
:102D80005A790F218A43111C021C0A435A71374B8E
:102D900003221A7033497B68354A8B50314B01222C
:102DA0001A60364B1B685A1C344B1A6057E0344B80
:102DB0001B685A1C324B1A60304B1B685A1C2F4B35
:102DC0001A6028497B682A4A8B50264B01225A6098
:102DD00045E0244A8023DB00D3585A425341DBB2FA
:102DE000002B04D0264B1B685A1C254B1A60234B22
:102DF0001B685A1C214B1A601A497B681C4A8B506D
:102E0000184B01225A60174A8023DB00D358013B3C
:102E10005A425341DAB27B6811001800FDF7BCF941
:102E20001DE0124B1B78DBB2023B5A425341DBB22E
:102E3000002B14D00D4B01221A700B4B1A68822301
:102E40005B00D358074A1900094BD150054B0122AA
:102E50005A600C4B1B685A1C0A4B1A60C046BD4690
:102E600002B080BD001000406C06002078000020F9
:102E700004050000740600207C080020780600206D
:102E8000700600207C060020F7B5040000260193A0
:102E90002C4B0D0008330360868086711700E160BB
:102EA00001222100103000F0EDF920002100022263
:102EB000303008F06BF9200021000322543008F074
:102EC000A6F96B469B88E771A3802300502720005A
:102ED000FC33A6716672A6723A009E6031005C30C7
:102EE00009F098FD23002000AC333A0031001E8029
:102EF000B03009F08FFD2300FE335E802B68280080
:102F00009B6998472B6828001B690F4998472B68D5
:102F100031002800DB6998472B6828005B6B032190
:102F200098472B68042128001B6B98472B682800C2
:102F30005B699847FDF770FC02232372034B200066
:102F40001C60FEBD74CE000041AF00006C06002086
:102F5000F7B507000191FF370500B878142101305B
:102F600002F0C8F8CBB200937B78CAB20C0093424F
:102F700019D06E20FDF7A6FF06006E2200212C342A
:102F800009F048FDA4006E220199300009F026FDE9
:102F9000665172B66B461B78BB7062B60020AB7A86
:102FA0000133AB72FEBD0148FCE7C04613FCFFFFD6
:102FB000F8B5837904000020DB0700D5ACE006F00B
:102FC00039FF002800D0ABE02500FC35AF68002FAA
:102FD00008D16E30FDF776FF06006E22390009F049
:102FE00019FDAE60AB68002B00D19BE00023802769
:102FF0004D4A4E4E13707F00337033780A2B08D839
:103000003800FDF7E3FB282102F074F8C9B23170F3
:10301000F3E70022464B01215A608022D20511605D
:103020005A68002AFCD00021424B434A9950013192
:1030300099500621414A5156414A99500221043A79
:103040009950404A1168404A9950404A1168E52217
:10305000D20099503E4A11683E4A99503E4A116842
:10306000E622D20099503D4A1168802212060A4396
:103070003B495A50A2220321D2009950394A117873
:10308000394A032949D1394999500026384AA6219D
:103090009E50384A08279E500122C9005A5036498E
:1030A00036485F5004315850022035495850354950
:1030B000354858503548043958502520344958501F
:1030C000A968344D2338595133494E600E61334954
:1030D0000968FC31896859518021032589005D50B8
:1030E0002F49043D0A70C22189005D5004395F50A8
:1030F000C0272C498235FF354851BF00CD592A4899
:1031000005400220CD5108605A60A37920001A437F
:10311000A271FDF7FDFC3000F8BD24499950B4E7D9
:103120002348F9E72348F7E77A0800207B080020C6
:10313000FC00004000100040FC0F0000D9D8000047
:103140000C050000EC00001024070000F000001047
:10315000F40000102C070000F8000010FC00001024
:10316000340700007C0800201C05000074696275AB
:10317000240500002C050000140500006400040272
:10318000340500003C050000FFFF00002110010095
:103190005405000004050000FC1000406C060020EF
:1031A0007800002000E100E0FF00FFFF7569627514
:1031B00016FCFFFF13FCFFFFF7B504002B4D2C4B53
:1031C0002A781B789A422BD028782821013001F0E8
:1031D00091FF2700CBB201932B78264A9B009E5883
:1031E0002B7810379B009B583800009307F0C6FFE0
:1031F000360CF6B2B04204D16B463800198800F0A4
:1032000073F86B461B792B70D8E7260030363000F8
:10321000AF7807F0EBFF874213D1300007F0C4FF0F
:10322000200007F08EFE051E1ED02600103687787F
:10323000300007F0A3FF8742E7D1300000F08AF8A2
:10324000EEE7AE7825005435280007F0F7FF8642F8
:1032500003D1280007F0E0FFE2E7200007F085FE39
:103260006E2109F078FBDBE7F7BDC0467D08002042
:103270007E08002080060020014B00201970704756
:103280007C08002070B5040000250D4B85800833B4
:1032900085710360816021001830160007F070FF0F
:1032A000200021001C3007F0A3FF064B2673256188
:1032B000656120001D70FDF7E5FE200070BDC04671
:1032C0008CCE00007F08002070B580250A00010028
:1032D000044CAD00231DDD67143107F07EFE256030
:1032E00070BDC04600E100E070B5050010350A0071
:1032F0002900040007F09AFE8022144B9200DA673E
:1033000000281DD002681300117B0A33090710D56D
:10331000917A5A78200012020A43290007F05DFED4
:10332000041E05D007F04FFE0C21200009F013FB0E
:1033300070BD0122037993431A00022313430371E2
:103340008022034B92001A60F2E7C04604E100E0DD
:1033500000E100E0F0B504008BB0806807F005FEE6
:1033600006000A367378827A1B021343039343786C
:10337000324F04938378050005930093039A049BCE
:103380003900200007F0D0FE00281CD1A3689B7AEA
:103390000C2B18D8059B39000193049B284A0093F5
:1033A0002000039B07F0D2FE21007278AB7A120254
:1033B0001A431031200007F010FEA37907009B0785
:1033C00007D4002835D16E21280009F0C4FA0BB0CB
:1033D000F0BD00282DD10C20FDF774FD070000235F
:1033E00021007B60BB603A0014313D60200007F093
:1033F0000FFE7278AB7A12021A431249012306A813
:1034000006F0A6FEB3789B0707D020007178AB7A50
:1034100009021943183000F017F8B3785B07D6D5C6
:1034200020007178AB7A090219431C3000F018F8BB
:10343000CDE76E21386809F08EFAD0E7200700202A
:103440007F080020F4F500001FB50A00012303499E
:10345000684606F07DFE05B000BDC046F5F50000EB
:10346000F0B5006887B007F085FE3F2203680600CC
:103470001C7B94433BD11A0019780D320D3923007F
:10348000C9B2684607F0EBFF2100684600F090FCE7
:10349000012187B2684600F08BFC2300174A85B2F1
:1034A00099005458002C24D0E188B94221D1A18838
:1034B000A9421ED10222694602A807F0FEFF2000A1
:1034C00002A9083006F01EFE02A806F0EBFD01235B
:1034D0002A000B4902A806F03BFE300007F073FDFE
:1034E00030000C2109F037FA684607F0BFFF07B03B
:1034F000F0BD01330A2BD3D1EFE7C0467C07002093
:10350000F6F5000010B5002903DB024B196008F046
:103510009DFF10BD7007002070B504001E0004ABB5
:103520001D8800F0CFFE20000E4B40302360FDF7D9
:10353000E5FD230001364C33013522001E809D81BC
:103540000023E1214E32A36463651380538093818D
:10355000D381013B200063644902FFF7D3FF2000C1
:1035600070BDC04698CC0000F7B580277F053D6947
:103570007C690822113C6C4306002100684609F072
:103580002DFA104B009A9A4219D000930023019310
:10359000796930001339694307F052FE019A0099A6
:1035A000300007F065FE2100300007F049FE796920
:1035B000AB08133969432200300007F04BFE019835
:1035C000FEBDC046FECA0000F0B50D00A9B00D92C8
:1035D00000213022060010A80B9309F01BFA2800E6
:1035E00009F058FA431C0C93102B00D9B6E00B9B42
:1035F000202B00D9B2E02900300007F066FE071E3C
:1036000050D129000C9A10A809F0E8F90D990B9AED
:1036100014A809F0E3F980235B051A695F690C922D
:10362000113F7A4330005D690B92FFF79DFF302216
:10363000002104001CA809F0EDF9290000270C9BCB
:1036400013395943300007F0FBFD0D9730257D43BA
:103650000B9B0833ED18A74243DA290030221CA83F
:1036600009F0BCF910A91CA809F00AFA002828D111
:103670003C49300022000E910F9407F0F9FD6A4694
:10368000099513AB23CB23C223CB23C223CB23C265
:103690003000129B1099119A07F0F8FD01230D9349
:1036A0000137D3E70D9910300B9A09F088F93021D2
:1036B0000400380009F04FF9002CA2D1200029B0F5
:1036C000F0BD6A4609951FAB23CB23C223CB23C28F
:1036D00023CB23C230001C991D9A1E9B07F0D6FDF8
:1036E000DEE7E5433023ED1725405D430B9B0835AE
:1036F0005D190D9B002B1DD10C9B3021981E01F0F4
:1037000089FBA0422CD017490134300022000E91D1
:103710000F9407F0ADFD6A46099513AB23CB23C286
:1037200023CB23C223CB23C230001099119A129BC2
:1037300007F0ACFD0B99300007F082FD80235B059C
:1037400059690C230C9A133963434A43023311001D
:1037500030000B9A07F07EFD0024AFE7024CADE786
:10376000024CABE7FECA000017FCFFFF13FCFFFF93
:1037700070B50400A280FA22002308000D499200CF
:1037800008312160A3716061E260A36063820A492D
:1037900007F09BFD051E0AD0010020001031022217
:1037A000123009F01BF93021280009F0D4F820006C
:1037B00070BDC046A4CE0000D1D8000030B50225AF
:1037C000837987B004002B4204D1FDF7A1F9A379D6
:1037D0001D43A571200007F0C4FD00281CD06B46D6
:1037E000DD1C280007F0B3FD2B78002B17D001A8B3
:1037F00007F0ABFD0321019AD3170B409B189B10D8
:103800002382FDF727FCE368A18818180123A06034
:103810001A0002A806F09CFC002007B030BD01226F
:10382000064B1A60064A51680029FCD000215160FD
:10383000044A1268019201225A60DBE700C000408E
:10384000FCC0004008C50040022802D10122014B03
:103850001A7070478008002070B5064C0500237868
:10386000002B04D1044800F049FC012323702800F8
:1038700070BDC046810800204938000070B50C00BA
:1038800006F0D8FA002810D00023144DA40A2B709B
:10389000200007F07AFD002803D00A2008F03DFF41
:1038A000F6E72B78002BFCD070BD02210C4B0D4AA3
:1038B00099508021C90008005D58002DFCD0A1213D
:1038C000C9005C5019580029FCD000219950802172
:1038D000C9005A58002AFCD0E6E7C04680080020FC
:1038E00000E0014004050000F8B50C0015001E00C2
:1038F00006F0A0FA002811D00023174F3B703200C9
:103900002900200007F03FFD002803D00A2008F01E
:1039100004FFF4E73B78002BFCD0F8BD01210F48F1
:103920000F4B844619508021C9005A58002AFCD0F8
:1039300080270022FF00964207DD91006858605002
:10394000D9590029FCD00132F5E7002261465A50CE
:10395000DA59002AFCD0E0E78008002004050000C6
:1039600000E00140002370B5180001241D00094942
:103970009A005218516C002904D021009940084344
:10398000C0B255640133042BF1D1034B1B68984737
:1039900070BDC046FC80004074070020014B002031
:1039A00019607047740700201F22037A13401E3AE3
:1039B00011009940024BD967C36800205A607047D4
:1039C00004E100E0C268024B0020D1507047C046BD
:1039D0000405000010B5C3798B420FD90B00513399
:1039E000C068FF339B001A508023C1225B028B40CA
:1039F0009200845823438350002010BD0048FCE708
:103A000017FCFFFF30B5C3798B4211D9A825C068D8
:103A10008B00C318ED005C59A2185A518023C122B3
:103A20005B028B409200845823438350002030BDBA
:103A30000048FCE717FCFFFF10B5C3798B420AD999
:103A40008023C2225B028B40C068920084582343CB
:103A50008350002010BD0148FCE7C04617FCFFFF63
:103A6000092905D8A223C2680020DB00D150704785
:103A70000048FCE717FCFFFF70B5040008201E4952
:103A8000205600F097FC08216156002921DA032511
:103A90000F23CAB213402A40AA40FC359540083B88
:103AA00016489B089B001B18D869A84340259540E1
:103AB0002A000243DA6101221F230B401100C020BB
:103AC00099400F4B400019501960E36800201A60BC
:103AD00070BD0B4A8B089B009B180322FF26C02554
:103AE0000A40D2009640AD005859B0434026964057
:103AF000320002435A51DEE76539000000ED00E074
:103B000000E100E010B50024C371044B8480083349
:103B100084710360C160027210BDC046BCCE00005B
:103B200010B50400054B083303601C3006F0BAFAE8
:103B30002000183006F0B6FA200010BDFCCE0000C0
:103B4000F0B5837991B004005B071BD5FDF782FACD
:103B500000232269801A9941994203D1F423FF334B
:103B600098420FD9A068002808D0364B1D8808F06D
:103B7000A6FB036815221B6A290098470422A37933
:103B80009343A371A3799B075AD52F4D2B68DB680C
:103B9000002B51D02D4B1B78032B4DD8294B2C4992
:103BA0001B8804A80193FDF799FA2B6804A9DE6825
:103BB00008A806F09FFA08A9300007F0BAFB070032
:103BC00008A806F06FFA02AB9E1D0823320033806E
:103BD00006A9073B019807F0F6FB002F09D0390032
:103BE0002022103108A808F0F9FE3021380008F032
:103BF000B2FE164B32881B7806A9DE0008AB9E1970
:103C0000300008F0DCFE002813D0082206A930009E
:103C100008F0E4FE2B6804A9DD6805A806F06AFA3E
:103C2000202308AA05A9280007F089FB05A806F0AB
:103C300039FA04A806F036FA0222A3799343A37155
:103C400011B0F0BD74080020780700207900002032
:103C5000E1D8000070B5002504000A4B85800833C8
:103C600085710360C1601830FDF748FA20001C30F0
:103C7000FDF744FA044BA5601C6001236561200038
:103C8000A37170BDFCCE000078070020002815D07D
:103C9000006041608260C360046145618661C76104
:103CA000444604624C464462544684625C46C462A4
:103CB000644604636E46466374468463002A06D0F5
:103CC000C46B043C043A25681560B442F9D18C6B8E
:103CD000A6464E6BB546002B06D0CC6B043C043B8D
:103CE0001D682560B442F9D10C6BA446CC6AA3468A
:103CF0008C6AA2464C6AA1460C6AA046CF698E69BE
:103D00004D690C69CB688A6808684968704700602B
:103D100041608260C360046145618661C761444659
:103D200004624C464462544684625C46C462644603
:103D300004636E46466374468463C46B043C043972
:103D400025680D60B442F9D1C7698669456904697F
:103D50007047006041608260C360046145618661B4
:103D6000C761444604624C464462544684625C46E1
:103D7000C462644604636C464463744684630469A5
:103D80007047846BA646446BA546046BA446C46A80
:103D9000A346846AA246446AA146046AA046C7694B
:103DA000866945690469C36882680068416870472C
:103DB00007B507F062FB002809D003789B0706D5FA
:103DC000411C042201A808F009FE01980EBD01481B
:103DD000FCE7C04617FCFFFF10B582604A430400B1
:103DE0004160002A0ADD074B90009A4201DD012064
:103DF0004042FDF767F82060200010BD00230360FB
:103E0000FAE7C046FEFFFF1F4A688B6870B5836003
:103E1000534304000D004260002B12DD0A4A9E004D
:103E20003000934201DD01204042FDF74BF80023B2
:103E300020602A68D158C15004339E42FAD1200034
:103E400070BD00230360FAE7FEFFFF1F014B036014
:103E50007047C04614CF000030B500684488A142C6
:103E60000CDA8588AA4209DA002907DB002A05DB7B
:103E70005443401800198371002030BD0048FCE70E
:103E800017FCFFFFF0B5070085B00E001D000029EC
:103E900021DD002A1FDD002B1DD0046863880393F9
:103EA0008B4200DD0391A3880293934200DD0292CE
:103EB000002306340193019B029A93420EDA2900F3
:103EC0002000039A08F08AFD3B68AD195B88E4186E
:103ED000019B0133EEE7024805B0F0BD0020FBE78F
:103EE00017FCFFFFF8B504000D0016001F000029A5
:103EF00001DB002A02DA0E4B2360F8BD10004843B4
:103F00000630FCF7DFFF206006F070F923685D8063
:103F100023689E80002F06D03B003200290020003D
:103F2000FFF7B0FFE9E7200008F02DF9E5E7C0460C
:103F300014CF0000F7B506000D1E03D1244B03601B
:103F40003000FEBD00200F000400010001903B780E
:103F5000002B1AD03022524294469C446246092AD1
:103F600011D90A2B0AD1019B241801330193A142D4
:103F700000DA2100002004000137E8E70028FBD028
:103F800001340020F8E70120F6E76A469288300005
:103F900012B209B2FFF7A6FF33680A249A1D012363
:103FA0005B42180029780029CAD00F00303F092F42
:103FB00007D85F1C00D1002363435B18303B0135F9
:103FC000F0E7591CFBD0137001320300F7E7C0463D
:103FD00014CF0000F0B5040087B004A80E000192D1
:103FE0001D00FCF7F9FE236801995A88914233DAE3
:103FF0009B889D4230DA1F2E2ED9059B00939E424E
:104000002ADC05230022203E5E43049B9B19039378
:104010000021039BAE189B5C0293019BCF18236881
:104020005888009087420EDA9888B0420BDDDB1981
:1040300010270F41009870431B1802980740781E04
:1040400087417F429F7101310529E6D10132052A5E
:10405000DED1002007B0F0BD0048FBE717FCFFFFF2
:10406000F7B50468070063880E1E01931EDD9942B0
:1040700018DA0023063400933B68009A9B889A4222
:1040800012DA019BA1199D1B2A00200008F0A6FC52
:104090006019310008F069F83B685B88E418009B00
:1040A0000133E8E708F06FF8002000E00048FEBDAB
:1040B00017FCFFFF10B50548054C206006F099F885
:1040C000044A0549200008F03FFC10BD14CF000051
:1040D000A4070020000000205DC10000436810B567
:1040E0000400002B02D1044808F04BFA6068036812
:1040F0001B69984710BDC046EDD80000014B186001
:104100007047C046A807002080B2002807D1BFF33F
:104110004F8F034B034ADA60BFF34F8FFEE77047C0
:1041200000ED00E00400FA05F0B5254B85B01B78E2
:10413000DBB20093002B18D0224E234F33685A4233
:104140005A41D2B201923A68002A14D1009C002B45
:104150000BD021E003983B6898472C0019E0280019
:104160003368984729E0002C05D005B0F0BD002C3D
:10417000FBD1009C019403A808F0A5F8009C050061
:10418000052806D00028E5D000221100FFF7BCFF6B
:104190000024019B002BE6D10C4B03A91B880B804C
:1041A0000B4B1D68280008F090F80528DFD0002888
:1041B000D5D000221100FFF7A7FF002CECD1D9E7E2
:1041C00082080020AC070020B407002076080020F9
:1041D000B8070020074B10B51B68002B07D0984785
:1041E000002803D000221100FFF78EFF10BDFFF75B
:1041F0009BFFFBE7B00700200120054B10B51A78A4
:1042000050401870034B1B68002B00D0984710BD1E
:1042100083080020BC07002070B504000D001600C4
:104220000021102208F0F6FB054B32002361290023
:10423000200000F07BFA034B20001C6070BDC046DC
:10424000A0860100C007002070B5054D04002B6852
:10425000834203D0016900F023FA2C6070BDC04690
:10426000C007002010B50400034B083303601C3066
:1042700000F08EF9200010BD1CCF000070B50500C5
:1042800004000E4B0E00083308C528001822002138
:1042900008F0C0FB002320003100E3612362636368
:1042A000A363E364064A23001C3000F041F92800B0
:1042B000310008F08FF9200070BDC0461CCF00000F
:1042C0006BC3000010B5040000F006F8014B20009D
:1042D000236010BD34CF00000C4B70B50360002389
:1042E00043608360C3600362436283639623040078
:1042F0009B01051DC363280000F024FB2800220059
:10430000034900F0B1FB200070BDC04644CF00005F
:1043100013C4000010B50400044B036008F0BBF8A0
:10432000200000F01BF8200010BDC04654CF000054
:10433000084B10B508330360002343608360C360FB
:10434000040000F02BF80449206108F073F9200004
:1043500010BDC04674CF00005DC5000010B504005C
:10436000034B0833036008F006F9200010BDC04677
:1043700074CF00000300074A1068C318EFF30881E8
:104380008B4205D30C220120034B40421A60704738
:104390001360FCE708000020B808002000487047C0
:1043A00088CF000010B5024808F04DF910BDC04696
:1043B00088CF0000024B8000C01801607047C046E3
:1043C000400000100848026803210A4302600749C0
:1043D000074A084B9B1A03DD043BC858D050FBDC4E
:1043E00005488047054800472405004060D9000083
:1043F00000000020980000205D4D00000901000031
:10440000FEE7FEE7FEE7FEE7FEE7FEE701704B1C76
:104410000AD001238B404360044BC360044B03610B
:10442000044B4361044B83607047C046080500504D
:104430000C0500501005005014050050F7B5A223DC
:10444000A022DB00D205D358BE220193314B52008B
:10445000995800293FD0C1218900595800293ADADA
:104460000024E025C0269C50ED00B6022A4BA70090
:10447000F85800282CD0294BE35C002B17D0019B67
:104480000121E3400B4227D02300A022C133FF3398
:104490009B00D2059B589B039B0F032B1CD0204BEA
:1044A0001B68E3400B4217D01E4B1B689847A023A4
:1044B000DB05FF187A5932420AD07A591A490A4064
:1044C0007A51019AE240D3071FD57A5932437A5183
:1044D00001341F2CCAD1F7BD019B0122E3401342D6
:1044E000E5D12300A021C133FF339B00C9055B58F0
:1044F0009B039B0F032BDAD10C4B1B68E340134249
:10450000D5D0084B02211B68D0E78022795992024E
:104510000A43DCE700600040CC070020840800204C
:104520005008002048080020FFFFFCFF4C08002036
:1045300030B5040008004D1C1CD00F4821600260FB
:10454000BE2200200D4C5200A0500D4A8D00AB50F1
:1045500001220C4B5A54C122802392001B06A35007
:10456000094B0A4C99580C40C02109042143995029
:1045700040221A6030BDC04648080020006000405C
:10458000CC0700208408002000E100E0FFFF00FFCE
:1045900000210368014A9B0099507047CC07002016
:1045A00070B5A024E0250068E4058300ED001B1928
:1045B0005C591F4E34405C511E4D01242E68002A68
:1045C00026D0A14203D181400E432E6006E002298D
:1045D00004D18440184A11680C4314602A680121F0
:1045E000C2400A4204D1144A1268C2400A420ED0A4
:1045F000A021A222C905D2008958F132C140FF3260
:104600009858C90711D5C02189020143995070BD3E
:10461000012902D181408E43D7E70229DED18440AF
:1046200005490A68A2430A60D8E78021ECE7C04642
:10463000FFFFFCFF500800204C0800200368074AD9
:104640009950074AFC33196A002902D000201862E9
:104650007047013A002AF6D10120F9E71C05000055
:10466000A186010010B50368002A03D08022022031
:104670009200985001221C001A62084AFC34E0683B
:10468000002806D00020A322E060D2009B580B70C7
:1046900010BD013A002AF2D10120F9E7A1860100FC
:1046A00010B50B4C02680B4BA14205DC0A49816036
:1046B000CC214904D15010BD084CA14204DC08496A
:1046C00081608021C904F5E706498160CD21F9E7C1
:1046D0008FD0030024050000A08601007F1A060089
:1046E00090D00300801A060070B504001000A025C9
:1046F000C026C130FF30F600ED05800046510800AD
:10470000C130FF3080004651A1252068ED004251A4
:10471000054A815019002000FFF7C2FFA0230521A0
:104720002268DB00D15070BD0C050000F8B50E000A
:104730001500040000F00CFA264AF1B21378DBB23F
:10474000012B1DD1507888421AD19778E8B2874260
:1047500016D16373204B19000022FC312360657170
:1047600026718A62A021C9005A501C4920005A5063
:1047700001325A502A003100194BFFF7B5FFF8BD3E
:10478000184BE8B21F78012F09D15F788F4206D10C
:104790009F78874203D102236373134BDBE71778BB
:1047A000002F04D10123137051709070D1E71A7853
:1047B000002A04D101321A7059709870EBE70B4847
:1047C00007F0DFFE0023FC222360657126719362EF
:1047D000FFDEC046A308002000300040FC0F0000B0
:1047E000A0860100A70800200040004010D900006A
:1047F000036800221900FC3110B58A62A021C900AB
:104800005A5006495A5001325A5005220421825604
:1048100041568368FFF768FF10BDC046FC0F0000DB
:10482000036800211A00FC3210B591600131596112
:10483000074B9168002905D000240473FFF7D8FFC7
:10484000200010BD013B002BF3D10120F9E7C04649
:10485000A1860100036810B51900FC318A6A0020A6
:10486000012A08D1044C1C5988625A610238A407F5
:1048700001D40120404210BDC40400000261064A78
:1048800010B54260054A01738260054A1900026052
:1048900007F0E0FF10BDC0460405005010050050B1
:1048A00000070050A820012110B5124A124B1488AD
:1048B000C00059601C50548810481C509088A92290
:1048C000D20098508022082092009850802009320F
:1048D000FF32000398500A4A1078A222D200985062
:1048E000084A1088084A985000221960FC331A655B
:1048F00010BDC0467200002000A00040440500002A
:104900007A000020700000204C050000012310B543
:104910000A4ADC0014598C4207DD013BDB00D31846
:104920005A680168064BCA5010BD0133112BF0D1F3
:1049300080210268024B4905D150F5E7A4CF000061
:1049400024050000F8B50F0016000122244BBA40E0
:104950000360A023234CDB05195905000A431A51B3
:104960008022195912060A430121B1401A511A59DD
:104970008A4396211A511A598901520052081A5134
:10498000FFF7C4FF002204202B6817495A506C39E6
:1049900058500121996019601900FC31CA6013490F
:1049A0005A506A6014391F325A5011495F50091821
:1049B0005A501E517B1C03D00321380007F03AFFE8
:1049C000731C03D00321300007F034FF0122094B90
:1049D00029001A600848073208F000F8F8BDC04600
:1049E00000200040140500006C0500001C050000BC
:1049F0000C0500005C080020B0080020962310B5CC
:104A0000DB00994202DDFFF781FF10BD9E210268A5
:104A1000014BC902D150F8E724050000C1230E4A1A
:104A20009B00D15810B5090603D50C49096A002925
:104A300008D1D3585B0704D5084B0021DB68002B55
:104A400001D110BD0121064B18680028F9D0054B93
:104A50001B689847F5E7C04600200040FC20004056
:104A60005808002054080020034B1960436803498C
:104A70009B005A507047C046540800205808002038
:104A800003681A00FC32106A0128FCD10020106271
:104A9000014AC9B2995070471C050000A023F0B527
:104AA000284FDB00FA5885B001920022A024FA506A
:104AB000E023254AE405DB00E658E2507833E1586C
:104AC00001250291E250A1238022DB00D205E250B1
:104AD0000420E55007F0EBFEA222D200A358039772
:104AE0009B0F2B4228D0A35813242B4225D0012002
:104AF000A023E0220299DB05D2009E507832995023
:104B0000A023039A0199DB00D15005B0F0BD0F4BF3
:104B10000420EF5007F0CBFEA123DB00EF50042070
:104B200007F0C5FEA223DB00EB585B00DFD4013C9D
:104B3000002CECD12000DBE71324A0250127ED0594
:104B4000F5E7C046004000400D0600000C050000DF
:104B5000A023E021134ADB05C90010B55A50783173
:104B60005A50114B00221900FC31CA600A62A1217F
:104B70001E20C9005A500D4A0D4C9850CC200D4AA9
:104B800040049850A2200C4AC00014500B480C4C12
:104B9000145001205050A0220521D2009950FFF757
:104BA0007DFF10BD0C060000004000400C05000019
:104BB000384100402405000000F0014014050000C9
:104BC0001C400040012310B50D4C0E49A364802306
:104BD0009B00CB670C490D4A086D002804D00020CB
:104BE000086511680131116009490B60A923DB00D8
:104BF0001068E358010C9BB20004184310BDC04676
:104C00000090004004E100E0FC90004060080020BB
:104C100000E100E0F8B50F4C636C002B0FD00027CB
:104C20000D4E67643378BB4209D00C4B1D68FFF70B
:104C3000C9FF2D1ABD4202DC3770FFF7B3FB236DAD
:104C4000002B05D0064A1368013313600023236547
:104C5000F8BDC046FC900040AB080020640800206E
:104C60006008002070B51B4D2878002831D1012143
:104C7000194B1A4A596050608020C0050160516884
:104C80000029FCD000221649A2205A5004240121F8
:104C9000C000D9601C5008381A501248C2261A5059
:104CA000C12280209200000398508020400298503A
:104CB0000D4AB60090590D4C0440C020000220431C
:104CC0009051C02480206400800010511060196051
:104CD000297070BDAC08002000900040FC0000402E
:104CE000040500004C05000000E100E0FF00FFFFAC
:104CF000044B10B51B78002B01D1FFF7B3FFFFF772
:104D000061FF10BDAC080020104B70B51B7804008B
:104D1000002B01D1FFF7A6FF0D4D0E4E2B78002B77
:104D200002D03368A34210D0FFF74CFF201A0A28A4
:104D300003DCFFF747FF0A30040001232B70A82390
:104D4000054A3460DB00A4B2D45070BDAC0800202A
:104D5000AB0800206408002000900040224910B5F4
:104D60000B68DBB2012B0FD1204B1B681B070BD14B
:104D70001F4BE0241A68F02310001840224228D16B
:104D80001C4A12681A4227D00B68DBB2012B12D1E1
:104D9000164A126812070ED1F021154A12680A400D
:104DA000402A08D1134A12680A4204D18021C12244
:104DB000C905D2008B508022A3230021D205DB003D
:104DC000D1500D4B9960013191609A68002AFCD056
:104DD00010BD3028D4D0D7E7084B094A1A6080228A
:104DE000084B12021A60CFE7E00F00F0E40F00F06A
:104DF000E80F00F0EC0F00F0FC000040040500405C
:104E0000DFFF07C0186C0040014B18687047C046B0
:104E100068080020002243088B4274D303098B42A8
:104E20005FD3030A8B4244D3030B8B4228D3030C7A
:104E30008B420DD3FF22090212BA030C8B4202D31C
:104E40001212090265D0030B8B4219D300E0090A44
:104E5000C30B8B4201D3CB03C01A5241830B8B424D
:104E600001D38B03C01A5241430B8B4201D34B0336
:104E7000C01A5241030B8B4201D30B03C01A52419B
:104E8000C30A8B4201D3CB02C01A5241830A8B4220
:104E900001D38B02C01A5241430A8B4201D34B0209
:104EA000C01A5241030A8B4201D30B02C01A52416D
:104EB000CDD2C3098B4201D3CB01C01A5241830921
:104EC0008B4201D38B01C01A524143098B4201D35B
:104ED0004B01C01A524103098B4201D30B01C01A86
:104EE0005241C3088B4201D3CB00C01A5241830800
:104EF0008B4201D38B00C01A524143088B4201D32D
:104F00004B00C01A5241411A00D20146524110468C
:104F10007047FFE701B5002000F0F0F802BDC04681
:104F20000029F7D076E7704703460B437FD4002271
:104F300043088B4274D303098B425FD3030A8B422D
:104F400044D3030B8B4228D3030C8B420DD3FF2297
:104F5000090212BA030C8B4202D31212090265D065
:104F6000030B8B4219D300E0090AC30B8B4201D318
:104F7000CB03C01A5241830B8B4201D38B03C01A5F
:104F80005241430B8B4201D34B03C01A5241030BD6
:104F90008B4201D30B03C01A5241C30A8B4201D387
:104FA000CB02C01A5241830A8B4201D38B02C01A32
:104FB0005241430A8B4201D34B02C01A5241030AA9
:104FC0008B4201D30B02C01A5241CDD2C3098B428E
:104FD00001D3CB01C01A524183098B4201D38B010B
:104FE000C01A524143098B4201D34B01C01A5241AE
:104FF00003098B4201D30B01C01A5241C3088B42F3
:1050000001D3CB00C01A524183088B4201D38B00DD
:10501000C01A524143088B4201D34B00C01A52417F
:10502000411A00D201465241104670475DE0CA0F56
:1050300000D04942031000D34042534000229C4616
:1050400003098B422DD3030A8B4212D3FC22890120
:1050500012BA030A8B420CD3890192118B4208D3F6
:10506000890192118B4204D389013AD0921100E058
:105070008909C3098B4201D3CB01C01A524183096C
:105080008B4201D38B01C01A524143098B4201D399
:105090004B01C01A524103098B4201D30B01C01AC4
:1050A0005241C3088B4201D3CB00C01A524183083E
:1050B0008B4201D38B00C01A5241D9D243088B4294
:1050C00001D34B00C01A5241411A00D20146634637
:1050D00052415B10104601D34042002B00D549429B
:1050E000704763465B1000D3404201B5002000F0DA
:1050F00005F802BD0029F8D016E770477047C04692
:105100008446081C6146FFE71FB500F04FFC0028ED
:1051100001D40021C8421FBD10B500F0D1FB4042B0
:10512000013010BD10B500F041FC002801DB00206B
:1051300010BD012010BDC04610B500F037FC00289E
:1051400001DD002010BD012010BDC04610B500F0EB
:10515000DFFB002801DC002010BD012010BDC0468F
:1051600010B500F0D5FB002801DA002010BD0120A9
:1051700010BDC046002B11D1002A0FD1002900D14B
:10518000002802D00021C943081C07B4024802A12C
:105190004018029003BDC04665FFFFFF03B4684698
:1051A00001B5029800F01EF8019B9E4602B00CBCAF
:1051B0007047C0469E2110B5C905041CFFF7D0FFFB
:1051C000002803D1201C00F037FF10BD9E21201CB9
:1051D000C90500F06DFD00F02FFF80231B069C46E3
:1051E0006044F2E7F0B54F464646D646C0B50400E7
:1051F00082B00D00914698468B422FD82CD0414664
:10520000484602F0FFFC29000600200002F0FAFCEC
:10521000331A9C46203B9A4600D576E04B465246D0
:1052200093401F004B46624693401E00AF4228D871
:1052300025D05346A41BBD41002B00DA7BE00022A1
:1052400000230092019301235246934001930123CE
:1052500062469340009318E08242D0D90022002396
:10526000009201930A9B002B01D01C605D600098A6
:10527000019902B01CBC90469946A246F0BDA342DB
:10528000D7D900220023009201936346002BE9D076
:10529000FB079846414672080A437B0866460EE0C3
:1052A000AB4201D1A2420CD8A41A9D41012024197D
:1052B0006D410021013E24184D41002E06D0AB4225
:1052C000EED9013E24196D41002EF8D100980199C4
:1052D000534600196941002B23DB2B005246D34073
:1052E0002A006446E2401C0053461500002B2DDBCB
:1052F00026005746BE40330026006746BE403200B7
:10530000801A994100900191ACE7624620239B1AD4
:105310004A46DA406146130042468A4017001F435E
:1053200080E7624620239B1A2A0066469A402300A3
:10533000F3401343D4E76246202300219B1A002246
:10534000009101920122DA40019280E72023624617
:1053500026009B1ADE402F00B0466646B740464600
:105360003B003343C8E7C046F8B54746CE46430244
:105370005B0A4400C20F9C464800DD004B02240E2D
:105380005B0A000E80B5984626009146C90FDB00E7
:10539000271A8A4229D0002F15DD00284AD1002B78
:1053A00000D095E0ED08FF2C00D188E06B025B0A8D
:1053B000E6B25B02F605580A3043D20710430CBC34
:1053C00090469946F8BD002F00D087E0601CC0B21F
:1053D000012800DCB6E0EE1A720100D5C5E0002E0F
:1053E0003DD1002200260023E3E7002F00DC96E0F9
:1053F00000285DD0FF2C60D08022D20413431B2FE5
:1054000000DDECE02022D21B18009340F8405A1E29
:1054100093410343ED186B017BD50134FF2C00D180
:10542000B7E0012207262A406B089A4D1D4015431C
:105430002E4029E0FF2CB5D08022D20413431B2F2D
:1054400000DDB2E02022D21B19009340F9405A1E21
:1054500093410B43ED1A6B015BD5AD01AE093000F2
:1054600002F0B2FB05388640844265DC041B330041
:1054700020200134E340041BA640751EAE41334397
:1054800007261D0000241E4001224B461A40002E14
:1054900004D00F232B40042B00D004356B0100D423
:1054A00080E70134E6B2FF2C2FD1FF26002380E7EE
:1054B000002B52D1FF2C00D074E70A00ED08002D1C
:1054C000F3D08023DB032B435B025B0AFF2670E7EC
:1054D000013F002FBED0FF2CB1D163E7002C47D095
:1054E000FF2869D08024E4047A4225431B2A00DD8A
:1054F000C5E02C002026D440B21A95406A1E954182
:1055000025435D1B04008946A5E7AB015B0A50E714
:10551000002401224B461A406B07BAD142E7002F04
:105520003BD10134E0B201284ADDFF2CBDD0072673
:10553000ED186D082E40A7E70723574D241A354074
:105540001E40A1E7002C1BD1002D6ED1002B00D1F5
:105550009AE00A001D003C0024E7013F002F00D123
:1055600058E7FF2C00D04AE7A7E75E1B894676E79D
:10557000002D1CD10A00FF281FD004001D0011E7D8
:10558000002D5DD1002B17D180230022DB03FF26E5
:105590000FE70A00FF2600230BE7002C21D1002D86
:1055A00066D1FF28E9D11D0087E7012352E77A1C65
:1055B000A7D0FA43FF2899D10A001D00FF24F1E685
:1055C000002E21D1002D4FD0002B4CD0ED186B01B7
:1055D0009ED5314B07362E4001241D4054E7012350
:1055E00018E7FF28DFD08024E4047F4225431B2FE7
:1055F0004DDC2026F61B2C00B540FC406A1E954170
:105600002543ED18040006E7002DCCD0002B00D177
:1056100053E780216046C903084203D04046084250
:1056200000D11D000121114047E7002B00D1B9E650
:10563000EA1A500125D507265D1B2E40894623E72F
:10564000FF24002B00D1ADE680226046D203104239
:1056500004D04046104201D11D00894601224B462C
:10566000FF241A409EE62B00DD080A0000249DE678
:105670007A1CC6D0FF43FF28B9D11D001DE70125C4
:105680003FE7151E00D044E70022002391E60125E4
:10569000B7E7C046FFFFFF7DFFFFFFFBF8B55746AA
:1056A0004E464546DE464402E0B546008846640A5A
:1056B000360EC70F002E63D0FF2E24D08023E400C7
:1056C000DB041C43002399469B467F3E43464246EB
:1056D0005D02D20F5B006D0A1B0E9046924665D0AC
:1056E000FF2B55D080220021ED00D2047F3B1543D3
:1056F000F61A43464A467B400F2A00D98DE06D4892
:10570000920082589746002C54D108239946063BB4
:10571000FF269B46DAE70025534602291BD00329C2
:1057200000D1BFE0012928D030007F30002820DDE3
:105730006A0704D00F222A40042A00D004352A0127
:1057400003D530005C4A80301540FE2803DCAC01F4
:10575000640AC2B201E0FF2200246402D205600A9A
:10576000DB07104318433CBC90469946A246AB4623
:10577000F8BD0122101A1B287CDD00220024ECE772
:10578000002C1DD104239946033B00269B469DE730
:10579000FF3E002D20D1022143464A467B400A436A
:1057A0000F2AD8D84548920082589746002D19D123
:1057B0000121F1E70C239946093BFF269B4685E72B
:1057C000200002F001FA7626431F9C400023764217
:1057D000361A99469B4679E74A4603231A4391466F
:1057E000032186E7280002F0EFF9431F36189D4099
:1057F000763600217DE780240023E403FF22ACE716
:1058000000258023DB031C4228D01D4226D12B43D8
:105810005C02640A4346FF229FE762016C01A242D8
:1058200024D21B210025013E012710006D005200EB
:10583000002801DB944201D8121B3D4301390029A5
:10584000F3D11400621E944125436DE7BA465946D0
:1058500025005346022900D061E77CE78023DB0363
:105860001C436402640A3B00FF2276E7121B1A21E4
:105870000125D9E79E362A00B5402C00C240651E9E
:10588000AC411443620704D00F222240042A00D006
:105890000434620103D4A401640A00225DE70122FA
:1058A00000245AE78024E4032C436402640AFF22A4
:1058B00053E7C0462CD00000FFFFFFF76CD000007C
:1058C00070B542004E024C0045026D0A120EC30F25
:1058D000760A240EC90FFF2A0FD0FF2C11D0012009
:1058E000A24200D070BDB542FCD18B420DD0002A3F
:1058F000F8D12800451EA841F4E70120002DF1D180
:10590000EBE70120002EEDD1E9E70020EAE7C046F1
:1059100070B54A004E02450244006D0A240EC30FC2
:10592000760A120EC90FFF2C15D0FF2A0ED0002CBC
:1059300015D1002A01D1002E1CD0002D14D08B428D
:1059400027D00220013B1840013870BD002EEED058
:1059500002204042F9E7002DFAD1FF2A0ED0002A9A
:105960000ED1002EEDD00BE0012301399943080040
:105970000130EAE70020002DE7D0E2E7002EE7D172
:105980008B42DED1944205DD0221581E08400138C9
:10599000DBE70024A24204DCB542D2D80020B542A5
:1059A000D3D2581E012398430130CEE730B54200D0
:1059B00044024D02C30F4800640A120E6D0A000E25
:1059C000C90FFF2A12D0FF280CD0002A12D10028BC
:1059D00019D1002D17D1002C2BD00220013B1840EB
:1059E000013826E0002DF0D0022022E0002CFBD16F
:1059F000FF281FD000281FD1002D1DD10220013B00
:105A00001840013815E0002C0ED08B42E5D1002261
:105A1000904204DCAC42E0D80020AC4209D2581ECF
:105A200001239843013004E0012301399943080020
:105A3000013030BD002DD7D18B42CED18242E7DD7F
:105A40000221581E08400138F3E7C046F0B54E4623
:105A500057464546DE46E0B543025B0A450083B043
:105A60000F1C99462D0EC60F002D57D0FF2D24D0A8
:105A70008020DB00C0041843002381469A469B46E1
:105A80007F3D7C027A00FB0F640A120E984623D0F9
:105A9000FF2A4BD0E30080240020E4047F3A1C431B
:105AA000AD186B1C47460193534677403A000F2BC5
:105AB00048D87D499B00CB589F46002B00D085E0FD
:105AC00008339A46063B9B467C027A00FB0FFF2573
:105AD000640A120E9846DBD1002C00D090E05246AA
