:020000040000FA
:1000000000400020ED450000294600002B4600007E
:1000100000000000000000000000000000000000E0
:100020000000000000000000000000002D4600005D
:1000300000000000000000002F46000031460000D4
:1000400033460000052E0000454C000033460000FA
:100050003346000000000000654600003346000003
:100060008D3B00003D4E0000CD4A000033460000AD
:10007000334600003346000033460000334600009C
:10008000334600003346000033460000334600008C
:100090003346000021440000FD43000033460000C9
:1000A000334600003346000000000000000000005E
:1000B0000000000000000000000000000000000040
:1000C00010B5064C2378002B07D1054B002B02D02E
:1000D000044800E000BF0123237010BDA0000020F1
:1000E0000000000098DB0000044B10B5002B03D08B
:1000F0000349044800E000BF10BDC04600000000F6
:10010000A400002098DB0000164B002B00D1144BFC
:100110009D46402292029A1A924600218B460F4633
:100120001348144A121A0CF089FD0F4B002B00D013
:1001300098470E4B002B00D0984700200021040068
:100140000D000D48002802D00C4800E000BF09F067
:100150001DFA200029000CF073FB09F001FAC046DB
:100160000000080000400020000000000000000027
:10017000980000208C10002000000000000000000B
:10018000A0220823D205002805D0A121C90050587B
:100190000343535070470149F9E7C0460C0500007E
:1001A000A0210823044A10B5C905885803438B5081
:1001B0000020FFF7E5FF10BD140500001FB5FA226F
:1001C0000021D20002480CF039FD05B000BDC04648
:1001D00078080020F0B587B00290FF2005930391C6
:1001E000049200F009FFFA24FF22002106000CF01F
:1001F00025FD00223B4DA4006B782978002B01D10E
:10020000002900D00132013C002CF7D13649374893
:100210000CF0E4F9364803F069F822003549334818
:100220000CF0DCF923004133FF339BB29C46348051
:10023000B01C314B9C4238D861006B185A78531E61
:100240009A416B5C5200591E8B411A43631C5B0040
:10025000E9184F78791E8F41E95CFF004B1E9941E8
:100260003A43A71C7F00EB1989000A4359784B1EBB
:100270009941EB5D49015F1EBB4180270A43E11CA8
:100280001B01490013436A1852787F42002A00D1AB
:1002900017006A5C3B43511E8A41043492011343A8
:1002A000A4B203700130A445C3D131787378328889
:1002B0000E48009111490CF091F90D4F5222310076
:1002C000380003F09FF8FA2080000CF03AFB0A4B4C
:1002D0009C42A2D9300000F0AFFE380002F002FFCD
:1002E00007B0F0BD78080020E8D70000C00000206B
:1002F000C8040020FBD70000E703000004D800007A
:1003000010B50400034B0360403009F0DFFF20000C
:1003100010BDC046C0CE0000F0B585B01F000AABCE
:100320001B880600029115000393002F1DD0282082
:1003300000F062FE6B4604001989039BAAB2009389
:100340003B0009F061FF336821005B68300098478B
:1003500000280BD0002C06D0200009F06CFF2821CB
:1003600020000CF00CFC024800E0024805B0F0BD93
:1003700016FCFFFF17FCFFFF002813D0002911D047
:10038000C27A837A12021A43037B07491B041A4379
:10039000437B1B0613435B00CB18012142791207F4
:1003A000120F99547047C046780800207FB52A483C
:1003B00000F0BAF9294C0221200003F01DF8FA22BE
:1003C0001025D200002126480CF038FC200002F055
:1003D00089FE244C244B0322012120000095FFF7C5
:1003E0009BFFC826214B0322022120000095FA24FE
:1003F000FFF792FFFFF7D4FE760064004F2103A8B9
:1004000009F081FF1A4D320003A9280002F0B0F86C
:1004100003A809F05BFF200000F0ACFC154B164967
:100420001A681648164B1B6809680068009101900D
:10043000144915480CF0D2F8202103A809F063FFF5
:10044000320003A9280002F093F803A809F03EFF48
:10045000200000F08FFCD1E7BC000020C804002081
:10046000780800208C010020D5010000BD010000AB
:10047000A80100207C0600207806002070060020DD
:100480007406002017D80000C000002010B5054CED
:10049000200000F063F8044A044920000CF068FBD7
:1004A00010BDC046BC00002000000020B1040000C8
:1004B000F7231C4A9B0010B5C2501C330400C0181F
:1004C00009F004FFFD239B00E01809F0FFFE9F23C5
:1004D0009B00E01802F0DAF884239B00E01801F09A
:1004E000BFF92000C530FF3000F0F4FE20008D3051
:1004F000FF3001F01BF920006530FF3001F016F9E4
:100500002000EC3001F050FE2000D03002F056FB0D
:100510002000643003F0BAFF201DFFF7F1FE200039
:1005200010BDC0462CD1000070B50B4C0500005921
:1005300000280ED003F0E6FE836D9B0709D52859ED
:100540000BF0D1FF036813215B6A984764200CF01D
:10055000F8F909F085FD70BD140500001423F0B50D
:10056000040097B0009319221821043003F0E8F832
:10057000220025006432B43513211000139203F0D9
:1005800091FF28000AF0AFFF2200B83210921E211E
:10059000002210980AF03EFB2000D03002F02EFB23
:1005A0002200EC3211920621594A119801F020FEE6
:1005B0002200002701236532FF32149200971A00AF
:1005C0001121149801F01EF922008D32FF3215928C
:1005D0000097012302221A21159801F013F9260031
:1005E0002000C536B530FF361A2302220121FF3024
:1005F00002F0C2FB109904233A22300000F01AFFE7
:1006000084229200A218129205231D2201930092C7
:100610002B0032001099129801F01AFB96229200DA
:10062000119BA0181299320001F0ECFC9922920063
:10063000A01829001C2203F0AFF99F229200A618EF
:1006400012992222300002F02DF8A7229200A01861
:10065000159A149B00923100119A02F031F9192376
:10066000AB220F93013B0E93013B0D93013B0C9387
:10067000013B0B93013B0A93013B0993013B089318
:10068000013B0793013B0693013B0593013B049318
:10069000013B0393013B0293013B01939200013B19
:1006A000A01800930822013B07210AF0BBFAF723A8
:1006B0009B00E018290003F0E1FBFF239B00E518F5
:1006C000082204231349280003F030FB124B3A00A0
:1006D000E01829001D2302F071FC104B1398E7501D
:1006E000032127700BF041FF2300220020000C495A
:1006F0009C33A0321C60116057600A4A80305A61F6
:100700000221012204F060F8200017B0F0BDC046BD
:10071000C8CE0000008000400C040000140500005A
:1007200029050000959F00000123F0B5057885B0EC
:1007300006001D4043D1FD20800500F025FC33005C
:10074000D0331800019300F0F9F900F02FF92820B8
:1007500000F052FC0400103009F004FE194B182080
:10076000236000F049FC0700174B066008222900AF
:100770000C30029303950CF061FA02A9381D08228F
:100780000CF040FA114B21007B611223A760E56059
:10079000A38025626562019802F0A8F9002806D0BE
:1007A000200009F048FD282120000CF0E8F9012381
:1007B0003278074913433370064800F0BBFB05B09D
:1007C000F0BDC046FD030000EB9F0000AB9F0000A2
:1007D0000020002008000020BFF34F8F024B034A87
:1007E000DA60BFF34F8FFEE700ED00E00400FA058A
:1007F000F0B597B018220021060010A80CF01EFAE0
:10080000132110A80BF0FAFF032110A80CF0A0F898
:100810004C4B1B68002B00D10133DBB202934A4AD8
:10082000012300210BA804F03DF9484B9E4200D95A
:10083000002672B6464B64211C68464B3000079375
:1008400004F086FC052510306843201808900A2122
:10085000300004F07DFC0A2104F060FD1031694392
:100860006118099130000A2104F058FD10314D4300
:10087000802364190A9400249B010193029B002B9E
:100880005DD0002500272E1F07AB9B190593032C75
:1008900003D1802300249B01019307AB5B592E4AAF
:1008A00003936300D31804930023190006205843D0
:1008B000049A16187678B4466246039EB25C1026F7
:1008C0009446049A105C62460641164202D001200A
:1008D000984001430133092BE8D1C9431F4B059AC6
:1008E000090119401268039B934225D1312F23DC63
:1008F00000210BA80CF0E5F8FA23159A1199DB00FA
:10090000106801421BD0013B002BF9D1019B01343F
:100910005B000193FA230137E4B25B009F42B6D13A
:100920000435102DAED1074B1B68002BA6D0029FBB
:10093000013FFBB20293A1E7019B1943D9E7FFF7FF
:100940004BFFC046D8050020F0FF0000E703000081
:1009500004000020A0D800006AD80000F01F0000AA
:10096000F0B500281BDD0F4C421E27681100002047
:10097000BE09FB0F73407B403E097D087340BF08F2
:100980007B406B40DB072B4301251F0040002B40C1
:100990001843E940ECD18242E8D32760F0BD024819
:1009A000FCE7C046D405002017FCFFFF0023F0B58C
:1009B0000121A12604241F00094D0A480A4A2B6080
:1009C000F6000160576051680029FCD081591B0274
:1009D000013C0B43002CF5D12B6001234360F0BD9B
:1009E000D405002000D00040FCD000400B4B70B577
:1009F0001C68002C10D0656D00F0C6FBA36C0029AC
:100A000001D1834206D8200009F04CFB04492000A4
:100A100009F036FB2C00ECE770BDC046E005002075
:100A200000060020F0B593B007932A4B04AC1E6873
:100A3000049005910692002E4AD0274B258867889E
:100A40001C6800230293002C2ED0636D234803936F
:100A5000A36C9AB2A36C1B0C99B2854214D12048A6
:100A6000824211D1002B01D0B9420BD1029B002B45
:100A700008D1200009F016FB1A49200009F000FBFC
:100A800001230293039CDEE7002A01D09542F9D1AD
:100A9000002B01D0B942F5D1200009F003FB114928
:100AA000200009F0EDFAEDE70F4BEB18012B0FD901
:100AB00010233A00009329000C4B08A809F0A4FB6E
:100AC000336808A99B683000984708A809F0B3FB71
:100AD00013B0F0BDDC0500200C060020FE03000072
:100AE000FF0300000006002002FCFFFF250A0000B3
:100AF00010B572B60B4B1C68002C08D0200009F012
:100B0000D1FA0023E364084B2000E36310BD62B612
:100B10005C2000F071FA5C22002104000CF08EF8D9
:100B2000EFE7C0460406002000400020024B187882
:100B3000012318407047C04648100020F7B5060052
:100B4000FFF7F4FF051E33D11A4C2660FFF7D0FFE4
:100B5000194B1A49186009F093FAFFF7C9FF184BAF
:100B60001860184B4363184B8363206800280ED02D
:100B7000C027164E2A00330015490097FFF7CCFB1B
:100B8000009733002A0013492068FFF7C5FB0C20AB
:100B900000F032FA0023838083710F4B03600F4B08
:100BA000836000F009FB01230D4A11780B43137099
:100BB000F7BDC046DC05002010060020000600201E
:100BC00008060020FC3F00206BA10000250A000061
:100BD000FF030000FE030000E8CE0000ED09000066
:100BE00048100020F7B506000D00170001930028FB
:100BF00002D100242000FEBD0029FAD0FFF778FFC3
:100C0000041EF6D0074B019A436306604560876077
:100C1000054B002A00D0054BA3630549200009F0CD
:100C20002FFAE7E7FC3F002035A1000053A10000A8
:100C300000060020024B1868434258417047C046E6
:100C400000060020002310B504499C006258002AC9
:100C500001D00133F9E76050100010BDE805002015
:100C6000002310B5044A99008C58844201D0013306
:100C7000F9E70020885010BDE805002010B50024D9
:100C8000084BA200D058002802D003685B68984740
:100C90000134062CF4D1044B1B68002B00D120BF7B
:100CA00010BDC046E805002000060020F8B5FFF79B
:100CB0003DFF00281BD0294D2C68E36CDA0717D5BF
:100CC00002263343E3640423254F3868C26C134380
:100CD000C364636BC36309F00BFA3868416C03F0BB
:100CE0002AF92868C36C334201D003F05EF9F8BDDD
:100CF0001C4F1D4E3A683168002A1ED129602A68AF
:100D00008A4208D11B0706D52C60FFF7B7FF3B6866
:100D1000002BFAD02B6029688C42E8D033689942C6
:100D200014D1124B4B63124B8B63200009F0E0F996
:100D30002968626C4B6C20000DE0206DB84203D135
:100D4000606D002800D002002A60D8E79C42ECD1F8
:100D5000002210004B6C03F0ADF8C8E7100600202D
:100D6000E40500200006002008060020FC3F0020CB
:100D70006BA1000070B50500FFF7D8FE002803D175
:100D800028000BF0DEFD70BD0C4B1C68E36CDB072C
:100D900006D5FFF7ADFE0A4B1860002800D004000E
:100DA00000F0F2F92D18A564200009F07BF905493F
:100DB000200009F065F9FFF779FFE4E7100600204D
:100DC000E4050020E0050020F0B51E4B1E4F1C6816
:100DD0003B6885B006000391002B30D0FFF7A6FEDC
:100DE00000282CD0E36CDB070ED5FFF781FE174BF4
:100DF000051E186008D009F055F91549280009F0BA
:100E00003FF92C00FFF752FF039B20001B043343E4
:100E1000A36409F047F920000E4909F031F90E4B9F
:100E20000024F318012B07D9C0230093039A0B4B1E
:100E300031003868FFF770FA200005B0F0BD084CAB
:100E4000FAE7C04610060020DC050020E40500207B
:100E5000000600200C06002002FCFFFF250A00000F
:100E600016FCFFFF10B5FFF761FE002809D0054C06
:100E7000206809F017F90449206809F001F9FFF723
:100E800015FF10BD1006002004060020F7B507006E
:100E90000D0000282ED0FFF749FE00282CD0072493
:100EA000164E3068C36C1C4007D0154A2900380024
:100EB00009F00FF900242000FEBD03F05EF80221C6
:100EC0003268D36C1940019103D003218B43D36462
:100ED000F1E701242343D3642800B8473268D36C78
:100EE0001900A143D164019C5B07E4D5280009F0F7
:100EF00028F9E0E7034CDEE7034CDCE710060020AE
:100F000043A1000017FCFFFF16FCFFFF020010B515
:100F1000014B12CB12C210BD14060020034B1A68FD
:100F2000034B1A607E225A607047C04604000020BE
:100F30001406002070B5104D2B78022B18D081427A
:100F400018D90B1A072B15D90C00032304431C4096
:100F500010D172B62A78094BD200D050981841604F
:100F600009F009F92B7801332B7062B6200070BDAF
:100F70000348FCE70348FAE7491000201C0600205C
:100F800013FCFFFF17FCFFFF70B50021041C04F0E9
:100F9000E7F9002828D1FE21201C890504F0EAF990
:100FA000002821D1043008F015FB05000F48401B34
:100FB00005F0C0F9211C04F05DFE04F00FFA0323D4
:100FC00098430400280008F00FFB200008F002FB03
:100FD000002804D1203C002CF7D1054803E001197A
:100FE000FFF7A8FF002070BD0248FCE70038002092
:100FF00013FCFFFF17FCFFFF70B5060000250C4B2C
:101000001B78AB4209DD0B49EB00C918300009F031
:10101000BAF8041E09D10135F1E7300008F0DAFA18
:10102000041E02D11420FFF7E3FB200070BDC04670
:10103000491000201C06002070B5002813D00D4B6D
:101040000D491C7800239C4210DDDA00555885427A
:101050000AD28A185268824206D98023043802686C
:101060001B061343036070BD0133ECE708F0BCFAC4
:10107000F9E7C046491000201C06002070B5051E87
:1010800014DD0B4E0B4C3368002B02D020680BF0A4
:1010900016FBFA2120680024074B89008361C46293
:1010A000694335600BF013FB200070BD0348FCE77B
:1010B0002C0600205C0600206511000017FCFFFFD5
:1010C000F8B5114F06003D68002D0AD13020FFF71A
:1010D00093FF040003F040FA0C4BA5612360E56226
:1010E0003C600B4D2B68002B09D11020FFF784FFCB
:1010F00004000BF039FB20002C600BF00FFB3000DC
:10110000FFF7BCFFF8BDC0465C0600207CD10000A4
:1011100058060020014B18687047C0462C06002076
:1011200070B50D4C2368002B03D00C4B1B68002BB3
:1011300002D10620FFF7C4FF20680BF006FB020077
:101140000749C3170D684E685219734120680A6039
:101150004B600BF000FB70BD580600205C060020C1
:101160009800002010B5FFF7DBFF0024054BA2001C
:10117000D058002802D003681B68984701340A2C15
:10118000F4D110BD3006002010B5FFF7C9FFFA22D8
:10119000034B920018685968002304F0FFF810BD53
:1011A0009800002010B5FFF7BBFF024B1868596884
:1011B00010BDC046980000200B4B10B51B68040002
:1011C000002B03D0094B1B68002B02D10620FFF730
:1011D00077FF0023064A99008858002801D0013380
:1011E000F9E78C5010BDC046580600205C06002070
:1011F00030060020002310B5044A99008C58844220
:1012000001D00133F9E70020885010BD30060020DE
:1012100010B50400002902D00B78002B03D1034B3A
:101220002360200010BD09F058F8FAE7F8CE00005E
:10123000014B03607047C046F8CE000010B505486A
:10124000054C206009F0E9F8044A054920000BF03C
:101250008FFC10BDF8CE00006006002000000020CA
:10126000CDA20000084B73B51C680500002C0AD005
:10127000010026680831082268460BF0C3FC0CCD3B
:1012800031682000884773BD6406002010B5054C06
:101290000121200009F0B5F8034A044920000BF0B1
:1012A00067FC10BD6806002000000020BFA30000FE
:1012B0000388074A10B50120934208D0834202D028
:1012C0000020DB0703D41E20FFF792FA002010BD98
:1012D000FFFF000010B50400034B08330360FFF765
:1012E000BFFC200010BDC04640CF0000FA2270B500
:1012F000438992005343314A314914000500383480
:101300008B421BDC2F498B4218D82F49083C8B425B
:1013100014D82E49083C8B4210D82D49083C8B42EA
:101320000CD82C49083C8B4208D82B49083C8B42EE
:1013300004D82A4914008B4200D90834284B2A7B50
:101340001E1D042A03D89E1C022A00D81E00FA2162
:101350002068890003F072FE337868812B730022C5
:101360002A21280009F07EF8002801D01D4870BD10
:1013700010222B21280009F075F80028F6D101224F
:101380002D21280009F06EF80028EFD101222E212E
:10139000280009F067F80028E8D172780E212800AB
:1013A00009F060F80028E1D1012223792A211A43AB
:1013B000280009F057F80028D9D0D7E700CF00005F
:1013C00000C409000071020080380100204E0000B6
:1013D0001027000088130000C4090000E204000088
:1013E00080DA00000EFCFFFF7FB515000F226A4473
:1013F00004001E001170002D16D0002B14DD0123F7
:1014000001890093006B01F0EDFA002802D0074833
:1014100004B070BD0090218933002A00206B01F0D8
:1014200097FA0028F4D0F2E70148F1E70EFCFFFF3D
:1014300017FCFFFFF7B50600002501931E4B14367D
:1014400008330400036085808571C581058245826B
:101450000F0000922900182230000BF0EFFB1C2136
:1014600030000BF0CBF96B469B880221A3806B46C2
:101470001B88220023811423A5712173A563A587EE
:1014800063813E32137827638B43F1310B40137035
:101490002300957295810135221DD5870833A21D41
:1014A000D5872000DD87FFF721FF002802D1A3792F
:1014B0001D43A5712000FEBD40CF000030B50425BE
:1014C000837987B004002B4204D1FFF7BBFBA379DB
:1014D0001D43A571A36AA2691B6800251A4208D1A1
:1014E00006236A4601212000FFF77EFF051E03D078
:1014F000114D280007B030BD6B46022269469A564E
:10150000207BD20042431B79228202225BB20978FF
:10151000DB00434349B2C90041436382A379E181BF
:101520009343A371200008F0ABFF0123A1881A00A8
:1015300002A808F021FFDCE70EFCFFFFF8B504006D
:10154000FFF7BCFFC8230E21625E5B00744F9A4216
:1015500052DD23003E331B789B074DD5012521002A
:1015600028003E310B785A08904302000220AA401E
:10157000834313430B702000FFF7A0FFC823102103
:10158000625E5B009A4245DD23003E331B785B07B9
:1015900040D50125210028003E310B789A08904360
:1015A00082000420834313430B7026002000FFF7C2
:1015B00085FF1222A35E4836BB4238DA23003E3351
:1015C0001B781B0733D5210001223E310B78D80848
:1015D00082430820D200834313430B703378032BDC
:1015E00035D80133DBB23370012B00D083E0230008
:1015F00000224A331A802AE02000FFF75FFF0E2204
:10160000A35E0025BB42B6DA23003E331B789B075E
:10161000A4D5B0E72000FFF751FF1022A35EBB4224
:10162000C3DA23003E331B785B07B2D5BDE7200049
:10163000FFF744FFC8231221625E5B009A4204DD7B
:1016400023003E331B781B07BDD5002DC6D1327851
:10165000002A14D02100270001254A310B883E378B
:1016600001339BB20B803878AC46054051D01D2B1E
:1016700005D963469843002338700B8033702000EF
:1016800008F06AFF274A0723904240DDC825200062
:10169000FFF714FF0E23E25EAD000323AA4236DCFF
:1016A0002000FFF70BFF204E0E23E25E0423B24220
:1016B0002DDB2000FFF702FF1023E25E0223AA4287
:1016C00025DC2000FFF7FAFE1023E25E0123B24280
:1016D0001DDB2000FFF7F2FE1223E25E0523B2427B
:1016E00015DB2000FFF7EAFE1223E25E0623AA4282
:1016F0000DDC00230BE0042BA9D122003E3211782F
:10170000033B0B43137000234A3423800B33180030
:10171000F8BD092BB3D9013A0D803270AFE7C0464E
:1017200070FEFFFFFF700200E0FCFFFF10B5040039
:10173000034B08330360FFF75DFD200010BDC0467A
:1017400058CF000070B5C369C1681A68451D040010
:10175000EB7F11424AD0002B4DD1EB7F082B0BD9E8
:101760000121A3790B4207D10B43A371200008F09C
:10177000A3FFFFF709FD2062EB7F012B1DD8A379A2
:10178000DA071AD510221340A3710221200008F0B5
:1017900093FFA31DDB7F012B0FD1FFF7F5FC002387
:1017A000226A801A9941994203D1144B032198422D
:1017B00000D90421200008F07FFF0322A379134001
:1017C000012B12D1FFF7E0FC0023226A801A994115
:1017D000994202D10A4B984207D90223A2790521E6
:1017E0001343A371200008F067FF70BD0B2BB4D822
:1017F0000133EB77B1E7013BFBE7C046E7030000AD
:10180000DB050000F0B5070000250E0085B002934F
:101810000AAB1B7808370393104B040008330360AE
:101820000192858085712900182238000BF006FA94
:10183000039A310038000AF0E6FF6B466A469B883F
:10184000127AA380A31DE671DA77631D256220005A
:10185000DD77FFF7B1FC200005B0F0BD58CF0000E8
:1018600010B50400034B08330360FFF7F9F92000BB
:1018700010BDC046C8CF00007FB515000F226A44D6
:1018800004001E001170002D16D0002B14DD012362
:1018900001890093C06B01F0A5F8002802D0074829
:1018A00004B070BD0090218933002A00E06B01F084
:1018B0004FF80028F4D0F2E70148F1E70EFCFFFFF3
:1018C00017FCFFFF002330B585B003AC2170018900
:1018D0000093050001332200C06B01F083F800285B
:1018E00002D0094805B030BD20802989009002232C
:1018F0002200E86B01F02CF80028F2D12378607800
:101900001B02184300B2EDE70EFCFFFF13B56B4658
:10191000DC1D0023220023700133FFF7ADFF0028F8
:1019200001D1207816BD0148FCE7C0460EFCFFFF40
:10193000D0B5040008F002FFE268A369981A06F027
:1019400047F906000F002369E069C01A06F040F964
:1019500032003B0006F08AFC0022104B05F048FBE9
:101960000F4A104B05F042F806F0BEF90021041CA6
:1019700003F0ECFC002804D0201C0B4903F008FE07
:10198000041C201C06F05EF902000B000020074931
:1019900005F0A0FD06F0E6F8D0BDC0460080664028
:1019A000EA2E4454FB2109400000B44300807640F5
:1019B000F0B5050085B0006C08F06BFE061C286CC5
:1019C00008F05EFE0221071C280008F0E8FE022154
:1019D0000390280008F0F5FE04F062FC0221041CCC
:1019E000280008F000FF04F05BFC051C301C06F02A
:1019F000FFFB0290301C06F0BDFB0190381C06F086
:101A0000F7FB061C381C06F0B5FB071C039804F016
:101A100047FC391C04F02EF9311C071C201C04F073
:101A200029F9029904F026F9011C381C03F0B0FDD5
:101A3000311C071C281C04F01DF9019904F01AF947
:101A4000011C381C03F0A4FD0299061C281C04F09C
:101A500011F90199051C201C04F00CF9011C281C2B
:101A600004F03AFA311C06F005FC0D4904F002F9C5
:101A700006F0E8F80B4A0C4B04F0B8FF06F034F916
:101A80000021041C03F062FC002804D0201C04493F
:101A900003F07EFD041C201C04F0E2FB05B0F0BD49
:101AA0000000B443EA2E4454FB21194070B50022D3
:101AB0001021040008F034FE1B4D00282DD1032610
:101AC00008212000FFF722FFA84226D0304226D16D
:101AD000FA216389890059435023144AD518D058F4
:101AE000884204D3D518083B18000830F7D1FA21F2
:101AF0002868890003F0A2FAA02260811121200049
:101B000008F00EFE002808D101222B7910211A437B
:101B1000200008F005FE002800D0034870BD6420B6
:101B2000FFF728F9CCE7C0460EFCFFFF70CF00009E
:101B30007FB50425837904002B4218D1022608F0D2
:101B4000FDFDA379A188B3432B43A3710622012392
:101B5000684608F011FCA07903003040AB43A37144
:101B600043425841034B4042184004B070BD024804
:101B7000FBE7C04614FCFFFF15FCFFFF10B583799F
:101B800004005A070DD49B0701D4FFF7D1FF236C43
:101B90002000002B02D0FFF70BFF10BDFFF7C8FE9F
:101BA000FBE70148F9E7C04615FCFFFF70B5466C3E
:101BB00086B001AC050001916260A360002E0CD0DC
:101BC0000B4905A8FFF724FB0C23220005A93000D0
:101BD00009F0C9FC05A808F079FB2B000C3307CCF1
:101BE00007C30223AA791343AB7106B070BDC04688
:101BF00086DA0000642330B504000281438185B099
:101C00008180FFF753FF0222A379606C9343A37195
:101C1000002814D00D4909F06CFC051E0FD00100FE
:101C20000C22103101A80AF0EDFF01992000029A60
:101C3000039BFFF7BBFF302128000AF0A0FF012320
:101C4000A2791343A37105B030BDC04686DA000007
:101C5000F7B5009308AB1B880400019309AB1D88FE
:101C600000230F0016000D4A838008328371026042
:101C7000C360036143618361C36103621D2124303A
:101C800008F041FD009BE76326642900200063649F
:101C9000019AFFF7AFFF2000FEBDC046C8CF00008D
:101CA00082B0F0B50400A5B064202B932A920AF00C
:101CB00048FE04220C2109A802F0A2F92422CC49F2
:101CC0001BA80AF09FFF052206A811000AF078FB66
:101CD000C84907A802F042FAA06800F081FBA56895
:101CE000C54918A8FFF794FA782218A9280000F02F
:101CF00073FC18A808F0EAFA6E256420013D0AF08A
:101D000020FE002DF9D1A06800F06AFBA06808F061
:101D100013FF0121606808F033FC012107006068AF
:101D200008F041FC06000A200AF00BFE0022B34B2B
:101D300003929F4210DB013203923A00C8320BDB60
:101D4000C822042192000391974205DC03220392EA
:101D5000C82F01DC013A039200279E420CDB3300BE
:101D60000137C83308DBC82303379B009E4203DCDE
:101D7000013FC82E00DC013F06A80AF018FB002630
:101D8000032373431BA9CA189078002805D0C95CA7
:101D90005278FF2306A802F073F901360C2EEFD11A
:101DA0006B463AB20C21595E06A8FF2302F068F98F
:101DB0000023A06800931A00743006A90AF007FBFC
:101DC000002304930323049A039853431BAA995CAA
:101DD000814237D1D31805935B78BB4232D1059B42
:101DE0009E78002E2ED13100206808F0D8FC04F037
:101DF00057FA3200031C290009A809F09BFC3100A6
:101E0000206808F0DEFC04F04BFA0122031C2900D4
:101E100009A809F08FFC3100206808F0E4FC04F008
:101E20003FFA2900031C022209A809F083FCFE23C3
:101E300003229B05290009A809F07CFC0123059ACF
:101E4000ED189370049B013304930C2BBAD16420DA
:101E50000AF077FD0B2D00DC5BE709A809F056FCC2
:101E6000012201000CA802F0CBF8002509A809F016
:101E70004DFCA8423CDD2900002209A809F048FCDD
:101E80000022061C290009A809F042FC011C301C94
:101E900003F0F0FE2900061C012209A809F038FC15
:101EA0000122071C290009A809F032FC011C381C7A
:101EB00003F0E0FE311C03F06BFB2900061C02223C
:101EC00009A809F025FC02222900071C09A809F02D
:101ED0001FFC011C381C03F0CDFE311C03F058FB25
:101EE0002900031C00220CA809F024FC0135BDE7E1
:101EF00009AA1100012318A809F037FC18A90FA896
:101F000009F090FC18A809F026FC0CAA09A912A84F
:101F1000012309F02AFC002312AA0FA915A809F031
:101F200024FC002215A8110009F0F2FB0022061C77
:101F3000012115A809F0ECFB0022051C022115A8BF
:101F400009F0E6FBFC21071C8905301C03F092FE1A
:101F500004F086F9FC21060018908905281C03F07E
:101F600089FE04F07DF9FC21050019908905381CD3
:101F700003F080FE04F074F92A00030031001A9087
:101F80002068FFF713FEA06808F0D6FD07A908A88F
:101F9000A5680AF004FA0022194B009208A90193DF
:101FA0002800130000F0BAFA08A80AF0EBF9FA20AA
:101FB00080000AF0C6FCA06808F0BEFD15A809F074
:101FC000CAFB12A809F0C7FB0FA809F0C4FB0CA8B4
:101FD00009F0C1FB07A80AF0D5F906A80AF0D2F962
:101FE00009A809F0B8FB25B0F0BC08BC02B018473E
:101FF00091DA0000B5DA0000FADA0000E0FCFFFF39
:10200000DC050000F7B583601D4B05001F6801600B
:102010004260002F32D02820FEF7EEFF040010307F
:1020200008F0A0F9174B18202360FEF7E5FF002207
:102030000600154B01920560083200210C30009318
:102040000AF0FCFD08226946301D0AF0DBFD0F4B4B
:1020500000227361C223A3803B68E260A660226213
:1020600062625B68210038009847002806D0200093
:1020700008F0E1F8282120000AF081FD2800FEBDCB
:102080006406002005000600A11C000009A800004D
:10209000F0B5040085B0637A9C46002B04D1200083
:1020A00008F0DDFB05B0F0BDA37A266F0193102385
:1020B000019AF35600259B1801229A402900F368E3
:1020C00003920293029BAB4231DDB368019A6B43EA
:1020D0009B1872695B00E77AD3181A785878E3790D
:1020E000012F14D15F1E3F1A10003A005B004343DA
:1020F000606F8218D3189B79634500DD6346627B6D
:102100001A4202D00123AB4019430135DAE7022F0E
:1021100005D15F1EBA1A277A013F381AE6E7032F66
:10212000E4D1277A013FBF1A02003800DEE711230D
:10213000C943F356606C994023691940039B1943C6
:102140000AF0BFFCA27B072AACD8637B0C495B007A
:102150006373531CDBB290004158A373022A03D867
:1021600008000AF0E3FB96E7064B200023630023F8
:102170006363054BE462236414300AF0A8FA91E724
:10218000E0CF00009120000049A8000010B5040035
:10219000044B03600AF093FA200002F0F3F92000E8
:1021A00010BDC0467CD1000010B504000E4B0833B2
:1021B0000360FFF71FF8200074300AF0E3F82000F6
:1021C00060300AF0DFF82000583008F07FF8200077
:1021D000503008F07BF82000044B14306361FFF7A7
:1021E000D5FF200010BDC04600D0000090D10000F7
:1021F000F8B500250400324B8580083303608571F3
:10220000143016000F0002F0A7F920002D4BE562F4
:10221000636125645030FFF70BF820005830FFF75A
:1022200007F82000603001F025FF20000423F25E53
:1022300033682667590009B274300AF0C1F8336870
:10224000226FE37173680126237210236581A780D2
:102250002561D35691685918994204DD30009840A1
:1022600001330543F8E711230120D356D1685918EB
:10227000994206DD02009A40266901333243226109
:10228000F6E71420FEF7B8FE226900212A43012355
:10229000060002F007FCFF23220063720133A381D2
:1022A000002348326664A37320001370A366FEF710
:1022B00083FF0123A27920001343A371F8BDC04618
:1022C00000D0000090D10000F0B5437A85B0040042
:1022D000002B04D1200008F0C2FA05B0F0BD0122A5
:1022E000837A11009C461023066F0025F356039253
:1022F0006344994002912900F3680193019BAB422A
:102300002CDDB36872696B4363445B00E77AD318D2
:102310001A785878E379012F10D15F1E3F1A100008
:102320003A005B004343606F8218D3189B79002BFF
:1023300002D0039BAB4019430135DFE7022F05D1E3
:102340005F1EBA1A277A013F381AEAE7032FE8D14D
:10235000277A013FBF1A02003800E2E71123C94380
:10236000F356606C994023691940029B19430AF0A7
:10237000A8FB667AB31EDBB2FC2B14D8FEF7CAFEAC
:102380000B4B0500236300230A4863630A4BFF21BC
:10239000E4622364704302F0DBFE29004143200025
:1023A00014300AF094F9637A012B00D995E791E78C
:1023B0005FA80000B603000049A800001FB5012374
:1023C00081881A00684607F0D7FF012303491A00E5
:1023D000684607F0D1FF05B000BDC046FE0300000F
:1023E0001FB5030048331A780400002A0DD00022DC
:1023F0001A70012381881A00684607F0BDFF012387
:1024000004491A00684607F0B7FF2000743009F04D
:10241000CEFF1FBDFF03000010B548300378002B2E
:1024200006D00378012B03D00121024807F079FE82
:1024300010BDC046FF03000010B5012104000620B6
:1024400007F06FFE064B984208D148342378002BE2
:1024500004D02378012B01D020BFF7E710BDC04680
:1024600016FCFFFF70B50600141E19DB0500483589
:102470002B78002B02D02B78012B13D100233000B6
:102480001A00743001F0BAFE002C07D033004A3332
:102490001C80002407234C3634802B70200070BD34
:1024A000014CFBE7014CF9E717FCFFFF12FCFFFFB3
:1024B000F8B517000A68050052880B00012A09D1F7
:1024C0000021180007F041FF002201002800FFF75B
:1024D000C9FFF8BD002F19DD060048363278002A02
:1024E00002D03278012A13D12A00002428005C325D
:1024F00019001480583007F019FF2B004A331F8051
:1025000003234C352C8020003370E2E70148E0E7DC
:102510000148DEE717FCFFFF12FCFFFF73B5079CC5
:102520000500002C1CDB060048363078002802D05D
:102530003078012816D106981BB2C0B2009028004E
:1025400012B2743009F043FF002C07D02B004A333D
:102550001C80002407234C352C803370200076BD6E
:10256000014CFBE7014CF9E717FCFFFF12FCFFFFF2
:10257000F7B505000E00171E26DDFFF74DFF2B00F7
:1025800048331C78E4B2002C20D133685B88012BDF
:1025900009D12100300007F0D8FE220001002800F8
:1025A000FFF760FFFEBD310001A807F0B7FE3A005B
:1025B00001A92800FFF77CFF01A807F087FE28008B
:1025C000FFF73AFF2000EDE70148EBE70148E9E7B4
:1025D00017FCFFFF11FCFFFFF8B50400171E1DDDFF
:1025E000060048363378002B02D03378012B17D100
:1025F0002200E3795632013B1370230000252000AE
:1026000054331D80503007F091FE23004A331F8061
:10261000022328004C3425803370F8BD0148FCE7C4
:102620000148FAE717FCFFFF12FCFFFFF7B50500B2
:102630000F00161E18DDFFF7EFFE2B0048331C7845
:10264000E4B2002C12D1390001A807F067FE320075
:1026500001A92800FFF7C0FF01A807F037FE2800F6
:10266000FFF7EAFE2000FEBD0148FCE70148FAE75B
:1026700017FCFFFF11FCFFFFFF2902D84172002069
:1026800070470148FCE7C04617FCFFFF10B5040087
:10269000034B08330360FEF7E3FA200010BDC04689
:1026A00018D0000070B50400002516000B4BA58063
:1026B0000833A5712360E1610800012108F09FF84B
:1026C000074BA680A360074BA57125616561A561D5
:1026D000E3602000FEF7B6FA200070BD18D00000BD
:1026E000FFFFFF7F0200008070B504000121C06978
:1026F00008F079F8A268824200DD0200E368A26077
:10270000834200DA03002169E360013121614A2933
:1027100017DD9B1A0C4A0D48A3619B1858430C49BE
:1027200002F016FDC3430025DB171840094B60611A
:10273000A360094B2561E360200008F00CFA280033
:1027400070BD0648FCE7C04660F0FFFF280A0000A5
:1027500058860300FFFFFF7F0200008016FCFFFF8A
:1027600082B0F0B5040089B080680F930E9207F034
:10277000B6FFE06807F0B3FF4C4906A801F0EEFC95
:10278000606808F0D7F90590206808F00EFAFA2082
:10279000012780000AF0D5F86068FFF721FEFF21CD
:1027A0006068FFF769FF6568414907A8FEF730FDDB
:1027B000782207A92800FFF739FF07A807F086FD50
:1027C0003C4B7F4204933C4B0393A06807F083FF8C
:1027D000002834D0E06807F07EFF00282FD0206862
:1027E00008F0E5F9606808F0A7F906A907A8656888
:1027F00009F0D5FD0022314B009207A90193280072
:102800001300FFF78BFE07A809F0BCFDFA20C000FB
:102810000AF097F8606808F08FF9A06807F064FF85
:10282000E06807F061FF05996068FFF725FF06A8DB
:1028300009F0A8FD09B0F0BC08BC02B01847206838
:10284000FFF752FF051E03D002200AF07AF8F6E7E0
:10285000206808F0AAF9039B0100834200DD039081
:10286000049B8B4200DA0491042301930023039A12
:1028700000932068049B08F09FF9060087420FD060
:10288000606808F059F904239F1B3FB2606829B2C1
:102890007430FF233A00013501F0F2FB052DF5D12C
:1028A00064200AF04EF837008FE7C046B5DA000022
:1028B00008DB000002000080FFFFFF7FDC05000056
:1028C000F7B58360089B0500C3601D4B01601F685E
:1028D0004260002F32D02820FEF78EFB040010301B
:1028E00007F040FD174B18202360FEF785FB002200
:1028F0000600154B01920560083200210C30009350
:102900000AF09CF908226946301D0AF07BF90F4B4A
:10291000002273611223A3803B68E260A6602262FA
:1029200062625B68210038009847002806D02000CA
:1029300007F081FC282120000AF021F92800FEBDC3
:10294000640600202200040061270000D5AB0000CF
:10295000F0B51F0085B00AAB1B7804000393009309
:102960003B000D00160009F0DEFD002833D0237D6A
:10297000082B2DD8236800221900FC318A62A0217F
:10298000C9005A50154905205A500138C046C04662
:10299000C046C046C046C046C046C046C046C04607
:1029A000C046C046F1D1236801325A50A0210432FA
:1029B000C9005A5002F0E0F9039B3200009329004D
:1029C0003B00200009F0AFFD237D01332375CCE7E8
:1029D000034805B0F0BD2075FBE7C046FC0F0000C2
:1029E0000EFCFFFFF0B51F0085B00AAB1B7804009A
:1029F000039300933B000D00160009F07CFD0028B6
:102A000033D0237D082B2DD8236800221900FC31F8
:102A10008A62A021C9005A50154905205A50013830
:102A2000C046C046C046C046C046C046C046C04676
:102A3000C046C046C046C046F1D1236801325A5054
:102A4000A0210432C9005A5002F096F9039B3200CB
:102A5000009329003B00200009F04DFD237D013348
:102A60002375CCE7034805B0F0BD2075FBE7C046F1
:102A7000FC0F00000EFCFFFFF8B50D1E30D0002645
:102A80000227C468002C28D0AA88A38853403B4260
:102A900004D13A4204D1AB883B4219D0646AF1E7D1
:102AA000A968A06808F0C4FD0028F4D02B88002B8A
:102AB00002D022889A42F1D16B88002B02D0628822
:102AC0009A42EBD1A288074B01361343A380E5E776
:102AD000A368AA689342E1D1E8E72000002E00D164
:102AE0000148F8BD0080FFFF17FCFFFFF0B50600AE
:102AF00085B00D1E59D00127C468002C22D00221B8
:102B0000AA8800230A4202D0A3885B083B402268BF
:102B100029688A4210D1A068A968002B0AD008F061
:102B200087FD002808D0A3881AB2002A06DB2048B7
:102B300005B0F0BD8842F6D0646ADEE75B045B0C4A
:102B4000A380F4E7F0682A88002807D1F560012304
:102B50001849684607F010FC0020E9E7010003006F
:102B60001C88944206D25C6A1900002C0DD0230008
:102B7000F6E723001C88944207D15F886C88A7423F
:102B800003D25C6A1900002CF3D1814209D10B8871
:102B90009A4204D305D148886B88984201D969626A
:102BA000D4E74B6A6B624D62D1E70348C0E7C04689
:102BB00016FCFFFFFD03000017FCFFFF064B10B5DE
:102BC0001A00040008322C33026043600430FEF720
:102BD00047F8200010BDC04630D0000008B4024BBA
:102BE0009C46043808BC6047BD2B000008B4024B6B
:102BF0009C46043808BC60474BAD00000C4A0023DB
:102C000011002C32083110B5038183724260C36019
:102C1000036143614383016004000430FEF712F84E
:102C2000044B1A68002A00D11C60200010BDC04669
:102C300030D0000064060020F7B50E000125C468FE
:102C40000192002C36D0238832889A4201D0002B82
:102C500023D1638872889A4201D0002B1DD1FDF7E1
:102C600065FF0123002806D0C022A3881340C03B83
:102C70005A425341DBB2019A934219D1A7883BB221
:102C8000002B15DB10223100A01809F0BBFF4023F8
:102C90001F4204D0200008F062F8646AD1E7FDF713
:102CA00045FF0028F6D021000348FEF7EFF8F4E7CF
:102CB0000025F2E72800FEBD5FAD000008B4024B1E
:102CC0009C46043808BC6047EBAE0000F0B587B006
:102CD00001930EAB1B88060003930D9B0D00009320
:102CE000019B02920C9F002B3ED0002F02D1009B33
:102CF000DB0739D52820FEF77FF90400103007F0F4
:102D000031FB6B461B89258063801820FEF774F920
:102D10000500009B08220593019B002103600C30F5
:102D2000049709F08BFF082204A9281D09F06AFF07
:102D30000E4B02226B6100230399E36023626362FE
:102D400033680A43A560A2805B6821003000984781
:102D5000002807D0200007F06EFA2000282109F093
:102D60000EFF034807B0F0BD0248FBE729AF0000A3
:102D700016FCFFFF17FCFFFFF0B50400160000254E
:102D80008380164A164B8571026021814681057346
:102D9000186889B08C46A8421DD0124A0595049245
:102DA000C02202926A4604AB82CB82C223002A0070
:102DB0006146FFF78BFFC022094B0A49186802924F
:102DC0006A46069106AB079582CB82C223002A0091
:102DD0003100FFF77BFF200009B0F0BD74D0000088
:102DE0006406002053B0000030B5002403730123B3
:102DF000034D84710560818082734373846030BDAC
:102E00008CD0000080B582B000AF634A86235B009F
:102E10000021D150614B1A6882235B00D3587B603C
:102E20005F4B1B78DBB2033B5A425341DBB2002BB2
:102E300014D05B4B01221A70584B1A6882235B0036
:102E4000D358554A1900574BD150534B01225A6061
:102E5000554B1B685A1C544B1A609AE0504B1B7818
:102E6000DBB2013B5A425341DBB2002B73D04F4BD4
:102E70001B78012B47D1484A8023DB00D358013B04
:102E80005A425341DBB2002B2BD07B685B790F2277
:102E90001340DBB2002B29D07B685B791B071B0F2B
:102EA000DBB20F331A1C0F231340DAB27B680F21F9
:102EB0000A4010005A790F218A43111C021C0A4350
:102EC0005A71374B03221A7033497B68354A8B504D
:102ED000314B01221A60364B1B685A1C344B1A6066
:102EE00057E0344B1B685A1C324B1A60304B1B683E
:102EF0005A1C2F4B1A6028497B682A4A8B50264B54
:102F000001225A6045E0244A8023DB00D3585A420C
:102F10005341DBB2002B04D0264B1B685A1C254BB7
:102F20001A60234B1B685A1C214B1A601A497B6894
:102F30001C4A8B50184B01225A60174A8023DB0031
:102F4000D358013B5A425341DAB27B681100180052
:102F5000FDF712FA1DE0124B1B78DBB2023B5A421E
:102F60005341DBB2002B14D00D4B01221A700B4BD6
:102F70001A6882235B00D358074A1900094BD150C5
:102F8000054B01225A600C4B1B685A1C0A4B1A60F5
:102F9000C046BD4602B080BD001000406C06002057
:102FA0007800002004050000740600204C1000206A
:102FB00078060020700600207C060020F7B504008B
:102FC000002601932C4B0D00083303608680867128
:102FD0001700E16001222100103000F067FA2000A4
:102FE00021000222303008F0E5F920002100032200
:102FF000543008F020FA6B469B88E771A3802300C9
:1030000050272000FC33A6716672A6723A009E60BB
:1030100031005C3009F012FE23002000AC333A008E
:1030200031001E80B03009F009FE2300FE335E80BF
:103030002B6828009B6998472B6828001B690F495B
:1030400098472B6831002800DB6998472B682800D7
:103050005B6B032198472B68042128001B6B984762
:103060002B6828005B699847FDF7A0FC02232372B8
:10307000034B20001C60FEBD9CD0000069B1000025
:103080006C060020F7B507000191FF370500B878FE
:103090001421013002F042F9CBB200937B78CAB21E
:1030A0000C00934219D06E20FDF7A6FF06006E2299
:1030B00000212C3409F0C2FDA4006E2201993000D9
:1030C00009F0A0FD665172B66B461B78BB7062B604
:1030D0000020AB7A0133AB72FEBD0148FCE7C0466D
:1030E00013FCFFFFF8B5837904000020DB0700D54F
:1030F000ACE006F0B3FF002800D0ABE02500FC35C3
:10310000AF68002F08D16E30FDF776FF06006E2203
:10311000390009F093FDAE60AB68002B00D19BE055
:10312000002380274D4A4E4E13707F003370337852
:103130000A2B08D83800FDF713FC282102F0EEF81E
:10314000C9B23170F3E70022464B01215A60802258
:10315000D20511605A68002AFCD00021424B434A34
:103160009950013199500621414A5156414A99508E
:103170000221043A9950404A1168404A9950404A05
:103180001168E522D20099503E4A11683E4A995092
:103190003E4A1168E622D20099503D4A11688022C9
:1031A00012060A433B495A50A2220321D2009950E9
:1031B000394A1178394A032949D1394999500026A9
:1031C000384AA6219E50384A08279E500122C9003D
:1031D0005A50364936485F5004315850022035491C
:1031E00058503549354858503548043958502520ED
:1031F00034495850A968344D2338595133494E60E9
:103200000E6133490968FC318968595180210325D1
:1032100089005D502F49043D0A70C22189005D502C
:1032200004395F50C0272C498235FF354851BF0013
:10323000CD592A4805400220CD5108605A60A37933
:1032400020001A43A271FDF7FDFC3000F8BD2449AF
:103250009950B4E72348F9E72348F7E74A100020DC
:103260004B100020FC00004000100040FC0F00004C
:103270001CDB00000C050000EC000010240700001F
:10328000F0000010F40000102C070000F8000010FF
:10329000FC000010340700004C1000201C0500004A
:1032A00074696275240500002C05000014050000F7
:1032B00064000402340500003C050000FFFF00002C
:1032C000211001005405000004050000FC1000401E
:1032D0006C0600207800002000E100E0FF00FFFF06
:1032E0007569627516FCFFFF13FCFFFF70B50400E3
:1032F00006F0B4FE002814D10121A37902000B428C
:103300000DD00225084AD567084A50610848016176
:1033100051690029FCD0012293430022A3711000BF
:1033200070BD044AFBE7C04604E100E0FC10004029
:103330000010004016FCFFFFF7B504002B4D2C4B8E
:103340002A781B789A422BD028782821013001F066
:10335000E5FF2700CBB201932B78264A9B009E58AD
:103360002B7810379B009B583800009308F01AF810
:10337000360CF6B2B04204D16B463800198800F022
:10338000C7F86B461B792B70D8E726003036300023
:10339000AF7808F03FF8874213D1300008F018F8F2
:1033A000200007F0E2FE051E1ED0260010368778AA
:1033B000300007F0F7FF8742E7D1300000F0DEF879
:1033C000EEE7AE7825005435280008F04BF8864229
:1033D00003D1280008F034F8E2E7200007F0D9FE16
:1033E0006E2109F0CCFBDBE7F7BDC0464D10002095
:1033F0004E10002080060020014B002019707047FD
:103400004C100020F0B5234E85B002920122370007
:10341000214B03911A6101937369002BFCD00025A5
:103420001E4B1F4A019975616E20CA50FDF7E4FDDD
:103430006E222900040009F001FC1A48FDF790FAF9
:103440000F2280B2E070000A20712000029BA5715B
:1034500009332370637AE571934363722572029A8C
:103460006570A57065710A30039909F0CBFB019A6C
:103470000D4BD4500123019A356113603B69002B39
:10348000FCD020003D616E2109F079FB002005B0E1
:10349000F0BDC046FC100040001000401C050000BC
:1034A00074696275FFFF00000405000070B5040038
:1034B00000250D4B858008338571036081602100F4
:1034C0001830160007F070FF200021001C3007F0B4
:1034D000A3FF064B26732561656120001D70FDF773
:1034E0006BFE200070BDC046B4D000004F1000201D
:1034F00070B580250A000100044CAD00231DDD6776
:10350000143107F07EFE256070BDC04600E100E08A
:1035100070B5050010350A002900040007F09AFE76
:103520008022144B9200DA6700281DD00268130035
:10353000117B0A33090710D5917A5A7820001202BC
:103540000A43290007F05DFE041E05D007F04FFE78
:103550000C21200009F013FB70BD01220379934375
:103560001A000223134303718022034B92001A6056
:10357000F2E7C04604E100E000E100E0F0B504003D
:103580008BB0806807F005FE06000A367378827AF1
:103590001B02134303934378324F0493837805004F
:1035A00005930093039A049B3900200007F0D0FE96
:1035B00000281CD1A3689B7A0C2B18D8059B3900D6
:1035C0000193049B284A00932000039B07F0D2FE3E
:1035D00021007278AB7A12021A431031200007F0F2
:1035E00010FEA37907009B0707D4002835D16E2170
:1035F000280009F0C4FA0BB0F0BD00282DD10C2032
:10360000FDF7FAFC0700002321007B60BB603A0055
:1036100014313D60200007F00FFE7278AB7A120281
:103620001A431249012306A806F0A6FEB3789B07A9
:1036300007D020007178AB7A09021943183000F0E6
:1036400017F8B3785B07D6D520007178AB7A0902FA
:1036500019431C3000F018F8CDE76E21386809F0E6
:103660008EFAD0E7200700204F100020F4F500006C
:103670001FB50A0001230349684606F07DFE05B028
:1036800000BDC046F5F50000F0B5006887B007F052
:1036900085FE3F22036806001C7B94433BD11A0041
:1036A00019780D320D392300C9B2684607F0EBFFD7
:1036B0002100684600F090FC012187B2684600F0C6
:1036C0008BFC2300174A85B299005458002C24D053
:1036D000E188B94221D1A188A9421ED102226946BE
:1036E00002A807F0FEFF200002A9083006F01EFE27
:1036F00002A806F0EBFD01232A000B4902A806F000
:103700003BFE300007F073FD30000C2109F037FA62
:10371000684607F0BFFF07B0F0BD01330A2BD3D1D5
:10372000EFE7C0467C070020F6F5000010B5002941
:1037300003DB024B196008F09DFF10BD70070020ED
:1037400070B504001E0004AB1D8800F0CFFE200001
:103750000E4B40302360FDF76BFD230001364C33E8
:10376000013522001E809D810023E1214E32A36499
:103770006365138053809381D381013B2000636490
:103780004902FFF7D3FF200070BDC046C0CE000045
:10379000F7B580277F053D697C690822113C6C43A1
:1037A00006002100684609F02DFA104B009A9A4253
:1037B00019D00093002301937969300013396943CC
:1037C00007F052FE019A0099300007F065FE2100D3
:1037D000300007F049FE7969AB08133969432200CC
:1037E000300007F04BFE0198FEBDC046FECA000047
:1037F000F0B50D00A9B00D9200213022060010A8EE
:103800000B9309F01BFA280009F058FA431C0C939B
:10381000102B00D9B6E00B9B202B00D9B2E0290079
:10382000300007F066FE071E50D129000C9A10A840
:1038300009F0E8F90D990B9A14A809F0E3F980232F
:103840005B051A695F690C92113F7A4330005D692C
:103850000B92FFF79DFF3022002104001CA809F005
:10386000EDF9290000270C9B13395943300007F06C
:10387000FBFD0D9730257D430B9B0833ED18A742C8
:1038800043DA290030221CA809F0BCF910A91CA8B1
:1038900009F00AFA002828D13C49300022000E9194
:1038A0000F9407F0F9FD6A46099513AB23CB23C2A9
:1038B00023CB23C223CB23C23000129B1099119A31
:1038C00007F0F8FD01230D930137D3E70D99103070
:1038D0000B9A09F088F930210400380009F04FF9FB
:1038E000002CA2D1200029B0F0BD6A4609951FAB7B
:1038F00023CB23C223CB23C223CB23C230001C996A
:103900001D9A1E9B07F0D6FDDEE7E5433023ED1739
:1039100025405D430B9B08355D190D9B002B1DD188
:103920000C9B3021981E01F089FBA0422CD0174936
:103930000134300022000E910F9407F0ADFD6A466D
:10394000099513AB23CB23C223CB23C223CB23C2A2
:1039500030001099119A129B07F0ACFD0B993000C2
:1039600007F082FD80235B0559690C230C9A1339FB
:1039700063434A430233110030000B9A07F07EFD87
:103980000024AFE7024CADE7024CABE7FECA0000F3
:1039900017FCFFFF13FCFFFF70B50400A280FA22A2
:1039A000002308000D49920008312160A371606175
:1039B000E260A36063820A4907F09BFD051E0AD0FE
:1039C0000100200010310222123009F01BF93021D1
:1039D000280009F0D4F8200070BDC046CCD000000B
:1039E00014DB000030B50225837987B004002B4238
:1039F00004D1FDF727F9A3791D43A571200007F035
:103A0000C4FD00281CD06B46DD1C280007F0B3FD68
:103A10002B78002B17D001A807F0ABFD0321019AEA
:103A2000D3170B409B189B102382FDF7ADFBE36877
:103A3000A18818180123A0601A0002A806F09CFCB7
:103A4000002007B030BD0122064B1A60064A5168BB
:103A50000029FCD000215160044A12680192012221
:103A60005A60DBE700C00040FCC0004008C50040D1
:103A7000022802D10122014B1A7070475010002019
:103A800070B5064C05002378002B04D1044800F0E3
:103A900049FC01232370280070BDC046511000204E
:103AA000713A000070B50C0006F0D8FA002810D06A
:103AB0000023144DA40A2B70200007F07AFD002883
:103AC00003D00A2008F03DFFF6E72B78002BFCD04E
:103AD00070BD02210C4B0D4A99508021C90008008D
:103AE0005D58002DFCD0A121C9005C501958002957
:103AF000FCD0002199508021C9005A58002AFCD0DE
:103B0000E6E7C0465010002000E001400405000038
:103B1000F8B50C0015001E0006F0A0FA002811D020
:103B20000023174F3B7032002900200007F03FFDB3
:103B3000002803D00A2008F004FFF4E73B78002BAC
:103B4000FCD0F8BD01210F480F4B8446195080214D
:103B5000C9005A58002AFCD080270022FF00964254
:103B600007DD910068586050D9590029FCD0013216
:103B7000F5E7002261465A50DA59002AFCD0E0E706
:103B8000501000200405000000E00140002370B543
:103B9000180001241D0009499A005218516C00298F
:103BA00004D0210099400843C0B255640133042B6E
:103BB000F1D1034B1B68984770BDC046FC800040A4
:103BC00074070020014B0020196070477407002023
:103BD0001F22037A13401E3A11009940024BD96705
:103BE000C36800205A60704704E100E0C268024BDD
:103BF0000020D1507047C0460405000010B5C379BD
:103C00008B420FD90B005133C068FF339B001A5011
:103C10008023C1225B028B4092008458234383504F
:103C2000002010BD0048FCE717FCFFFF30B5C3794A
:103C30008B4211D9A825C0688B00C318ED005C59D0
:103C4000A2185A518023C1225B028B4092008458F3
:103C500023438350002030BD0048FCE717FCFFFFE2
:103C600010B5C3798B420AD98023C2225B028B40F4
:103C7000C0689200845823438350002010BD01483F
:103C8000FCE7C04617FCFFFF092905D8A223C2683C
:103C90000020DB00D15070470048FCE717FCFFFF15
:103CA00070B5040008201E49205600F097FC08213A
:103CB0006156002921DA03250F23CAB213402A4096
:103CC000AA40FC359540083B16489B089B001B18F2
:103CD000D869A843402595402A000243DA610122B1
:103CE0001F230B401100C02099400F4B400019507A
:103CF0001960E36800201A6070BD0B4A8B089B00B6
:103D00009B180322FF26C0250A40D2009640AD0032
:103D10005859B04340269640320002435A51DEE7DC
:103D20008D3B000000ED00E000E100E010B5002454
:103D3000C371044B8480083384710360C1600272D4
:103D400010BDC046E4D0000010B50400054B083398
:103D500003601C3006F0BAFA2000183006F0B6FAFC
:103D6000200010BD24D10000F0B5837991B004008B
:103D70005B071BD5FDF708FA00232269801A9941D9
:103D8000994203D1F423FF3398420FD9A068002849
:103D900008D0364B1D8808F0A6FB036815221B6A65
:103DA000290098470422A3799343A371A3799B0721
:103DB0005AD52F4D2B68DB68002B51D02D4B1B782B
:103DC000032B4DD8294B2C491B8804A80193FDF7E0
:103DD0001FFA2B6804A9DE6808A806F09FFA08A954
:103DE000300007F0BAFB070008A806F06FFA02AB34
:103DF0009E1D08233200338006A9073B019807F077
:103E0000F6FB002F09D039002022103108A808F055
:103E1000F9FE3021380008F0B2FE164B32881B78CC
:103E200006A9DE0008AB9E19300008F0DCFE002871
:103E300013D0082206A9300008F0E4FE2B6804A97C
:103E4000DD6805A806F06AFA202308AA05A928005B
:103E500007F089FB05A806F039FA04A806F036FA3F
:103E60000222A3799343A37111B0F0BD740800201E
:103E7000780700207900002024DB000070B50025C1
:103E800004000A4B8580083385710360C1601830D7
:103E9000FDF7CEF920001C30FDF7CAF9044BA560F0
:103EA0001C60012365612000A37170BD24D1000056
:103EB00078070020002815D0006041608260C36050
:103EC000046145618661C761444604624C464462B0
:103ED000544684625C46C462644604636E4646632C
:103EE00074468463002A06D0C46B043C043A2568F7
:103EF0001560B442F9D18C6BA6464E6BB546002BCB
:103F000006D0CC6B043C043B1D682560B442F9D15B
:103F10000C6BA446CC6AA3468C6AA2464C6AA146A6
:103F20000C6AA046CF698E694D690C69CB688A68B6
:103F3000086849687047006041608260C36004613E
:103F400045618661C761444604624C4644625446FA
:103F500084625C46C462644604636E46466374468B
:103F60008463C46B043C043925680D60B442F9D104
:103F7000C76986694569046970470060416082606D
:103F8000C360046145618661C761444604624C4672
:103F90004462544684625C46C462644604636C4670
:103FA00044637446846304697047846BA646446B1B
:103FB000A546046BA446C46AA346846AA246446A22
:103FC000A146046AA046C769866945690469C36851
:103FD000826800684168704707B507F062FB0028F7
:103FE00009D003789B0706D5411C042201A808F0DC
:103FF00009FE01980EBD0148FCE7C04617FCFFFF13
:1040000010B582604A4304004160002A0ADD074B74
:1040100090009A4201DD01204042FCF7EDFF206054
:10402000200010BD00230360FAE7C046FEFFFF1F1B
:104030004A688B6870B58360534304000D0042608A
:10404000002B12DD0A4A9E003000934201DD012060
:104050004042FCF7D1FF002320602A68D158C150AC
:1040600004339E42FAD1200070BD00230360FAE7BA
:10407000FEFFFF1F014B03607047C0463CD10000AC
:1040800030B500684488A1420CDA8588AA4209DA72
:10409000002907DB002A05DB54434018001983710F
:1040A000002030BD0048FCE717FCFFFFF0B507001B
:1040B00085B00E001D00002921DD002A1FDD002B28
:1040C0001DD00468638803938B4200DD0391A388AD
:1040D0000293934200DD0292002306340193019B78
:1040E000029A93420EDA29002000039A08F08AFD12
:1040F0003B68AD195B88E418019B0133EEE7024889
:1041000005B0F0BD0020FBE717FCFFFFF8B5040089
:104110000D0016001F00002901DB002A02DA0E4BF9
:104120002360F8BD100048430630FCF765FF2060AF
:1041300006F070F923685D8023689E80002F06D00A
:104140003B00320029002000FFF7B0FFE9E7200024
:1041500008F02DF9E5E7C0463CD10000F7B50600B0
:104160000D1E03D1244B03603000FEBD00200F0064
:104170000400010001903B78002B1AD030225242FB
:1041800094469C446246092A11D90A2B0AD1019B04
:10419000241801330193A14200DA21000020040019
:1041A0000137E8E70028FBD001340020F8E70120C0
:1041B000F6E76A469288300012B209B2FFF7A6FF0E
:1041C00033680A249A1D01235B42180029780029CC
:1041D000CAD00F00303F092F07D85F1C00D1002341
:1041E00063435B18303B0135F0E7591CFBD013707B
:1041F00001320300F7E7C0463CD10000F0B50400EF
:1042000087B004A80E0001921D00FCF77FFE236812
:1042100001995A88914233DA9B889D4230DA1F2EE9
:104220002ED9059B00939E422ADC05230022203EC6
:104230005E43049B9B1903930021039BAE189B5C78
:104240000293019BCF1823685888009087420EDAAA
:104250009888B0420BDDDB1910270F41009870439E
:104260001B1802980740781E87417F429F710131D9
:104270000529E6D10132052ADED1002007B0F0BDC4
:104280000048FBE717FCFFFFF7B5046807006388E9
:104290000E1E01931EDD994218DA002306340093A6
:1042A0003B68009A9B889A4212DA019BA1199D1BD8
:1042B0002A00200008F0A6FC6019310008F069F817
:1042C0003B685B88E418009B0133E8E708F06FF86F
:1042D000002000E00048FEBD17FCFFFF10B50548B8
:1042E000054C206006F099F8044A0549200008F0C2
:1042F0003FFC10BD3CD10000A407002000000020BE
:1043000085C30000436810B50400002B02D10448A7
:1043100008F04BFA606803681B69984710BDC046F7
:1043200030DB0000014B18607047C046A807002032
:1043300080B2002807D1BFF34F8F034B034ADA60E6
:10434000BFF34F8FFEE7704700ED00E00400FA0571
:10435000F0B5254B85B01B78DBB20093002B18D04D
:10436000224E234F33685A425A41D2B201923A68E0
:10437000002A14D1009C002B0BD021E003983B684D
:1043800098472C0019E028003368984729E0002C52
:1043900005D005B0F0BD002CFBD1009C019403A812
:1043A00008F0A5F8009C0500052806D00028E5D0F7
:1043B00000221100FFF7BCFF0024019B002BE6D177
:1043C0000C4B03A91B880B800B4B1D68280008F0C1
:1043D00090F80528DFD00028D5D000221100FFF783
:1043E000A7FF002CECD1D9E752100020AC07002029
:1043F000B407002076080020B8070020074B10B54E
:104400001B68002B07D09847002803D0002211001A
:10441000FFF78EFF10BDFFF79BFFFBE7B007002003
:104420000120054B10B51A7850401870034B1B68DB
:10443000002B00D0984710BD53100020BC0700206F
:1044400070B504000D0016000021102208F0F6FBE4
:10445000054B320023612900200000F07BFA034B5A
:1044600020001C6070BDC046A0860100C00700206F
:1044700070B5054D04002B68834203D0016900F03C
:1044800023FA2C6070BDC046C007002010B50400A0
:10449000034B083303601C3000F08EF9200010BD80
:1044A00044D1000070B5050004000E4B0E00083327
:1044B00008C528001822002108F0C0FB00232000B6
:1044C0003100E36123626363A363E364064A23006C
:1044D0001C3000F041F92800310008F08FF920006D
:1044E00070BDC04644D1000093C5000010B5040063
:1044F00000F006F8014B2000236010BD5CD10000E5
:104500000C4B70B50360002343608360C36003629B
:1045100043628363962304009B01051DC363280047
:1045200000F024FB28002200034900F0B1FB20002A
:1045300070BDC0466CD100003BC6000010B5040041
:10454000044B036008F0BBF8200000F01BF82000CB
:1045500010BDC0467CD10000084B10B50833036085
:10456000002343608360C360040000F02BF804491B
:10457000206108F073F9200010BDC0469CD10000F6
:1045800085C7000010B50400034B0833036008F032
:1045900006F9200010BDC0469CD100000300074A68
:1045A0001068C318EFF308818B4205D30C22012059
:1045B000034B40421A6070471360FCE7080000207C
:1045C0008810002000487047B0D1000010B50248A4
:1045D00008F04DF910BDC046B0D10000024B80007C
:1045E000C01801607047C0464000001008480268CB
:1045F00003210A4302600749074A084B9B1A03DD5F
:10460000043BC858D050FBDC0548804705480047AC
:1046100024050040A4DB00000000002098000020DA
:10462000854F000009010000FEE7FEE7FEE7FEE718
:10463000FEE7FEE701704B1C0AD001238B4043606C
:10464000044BC360044B0361044B4361044B836020
:104650007047C046080500500C050050100500507A
:1046600014050050F7B5A223A022DB00D205D358D1
:10467000BE220193314B5200995800293FD0C121ED
:104680008900595800293ADA0024E025C0269C50B8
:10469000ED00B6022A4BA700F85800282CD0294B71
:1046A000E35C002B17D0019B0121E3400B4227D094
:1046B0002300A022C133FF339B00D2059B589B03EC
:1046C0009B0F032B1CD0204B1B68E3400B4217D0E1
:1046D0001E4B1B689847A023DB05FF187A5932420E
:1046E0000AD07A591A490A407A51019AE240D3070E
:1046F0001FD57A5932437A5101341F2CCAD1F7BDE4
:10470000019B0122E3401342E5D12300A021C133E4
:10471000FF339B00C9055B589B039B0F032BDAD12A
:104720000C4B1B68E3401342D5D0084B02211B6899
:10473000D0E78022795992020A43DCE7006000400A
:10474000CC0700205410002050080020480800200A
:10475000FFFFFCFF4C08002030B5040008004D1C92
:104760001CD00F4821600260BE2200200D4C520078
:10477000A0500D4A8D00AB5001220C4B5A54C1225F
:10478000802392001B06A350094B0A4C99580C40F9
:10479000C02109042143995040221A6030BDC0460F
:1047A0004808002000600040CC0700205410002082
:1047B00000E100E0FFFF00FF00210368014A9B00C9
:1047C00099507047CC07002070B5A024E025006800
:1047D000E4058300ED001B195C591F4E34405C5109
:1047E0001E4D01242E68002A26D0A14203D181400B
:1047F0000E432E6006E0022904D18440184A116855
:104800000C4314602A680121C2400A4204D1144AB0
:104810001268C2400A420ED0A021A222C905D200CD
:104820008958F132C140FF329858C90711D5C021CB
:1048300089020143995070BD012902D181408E4304
:10484000D7E70229DED1844005490A68A2430A60FD
:10485000D8E78021ECE7C046FFFFFCFF50080020AE
:104860004C0800200368074A9950074AFC33196A2C
:10487000002902D0002018627047013A002AF6D1C0
:104880000120F9E71C050000A186010010B50368AE
:10489000002A03D0802202209200985001221C009E
:1048A0001A62084AFC34E068002806D00020A322DF
:1048B000E060D2009B580B7010BD013A002AF2D183
:1048C0000120F9E7A186010010B50B4C02680B4BE3
:1048D000A14205DC0A498160CC214904D15010BDB8
:1048E000084CA14204DC084981608021C904F5E735
:1048F00006498160CD21F9E78FD00300240500002F
:10490000A08601007F1A060090D00300801A0600DE
:1049100070B504001000A025C026C130FF30F6009D
:10492000ED05800046510800C130FF30800046513F
:10493000A1252068ED004251054A81501900200050
:10494000FFF7C2FFA02305212268DB00D15070BD14
:104950000C050000F8B50E001500040000F00CFA7C
:10496000264AF1B21378DBB2012B1DD15078884270
:104970001AD19778E8B2874216D16373204B190099
:104980000022FC312360657126718A62A021C90072
:104990005A501C4920005A5001325A502A00310006
:1049A000194BFFF7B5FFF8BD184BE8B21F78012F80
:1049B00009D15F788F4206D19F78874203D10223C5
:1049C0006373134BDBE71778002F04D101231370B7
:1049D00051709070D1E71A78002A04D101321A7010
:1049E00059709870EBE70B4807F0DFFE0023FC22BC
:1049F0002360657126719362FFDEC046731000204C
:104A000000300040FC0F0000A0860100771000205D
:104A10000040004053DB0000036800221900FC3115
:104A200010B58A62A021C9005A5006495A50013275
:104A30005A5005220421825641568368FFF768FFC9
:104A400010BDC046FC0F0000036800211A00FC32B4
:104A500010B5916001315961074B9168002905D06B
:104A600000240473FFF7D8FF200010BD013B002B8A
:104A7000F3D10120F9E7C046A1860100036810B513
:104A80001900FC318A6A0020012A08D1044C1C5903
:104A900088625A610238A40701D40120404210BD47
:104AA000C40400000261064A10B54260054A017361
:104AB0008260054A1900026007F0E0FF10BDC046A1
:104AC000040500501005005000070050A8200121E7
:104AD00010B5124A124B1488C00059601C505488FB
:104AE00010481C509088A922D2009850802208209B
:104AF0009200985080200932FF32000398500A4AF1
:104B00001078A222D2009850084A1088084A98507B
:104B100000221960FC331A6510BDC04672000020E7
:104B200000A00040440500007A0000207000002032
:104B30004C050000012310B50A4ADC0014598C42D0
:104B400007DD013BDB00D3185A680168064BCA50E9
:104B500010BD0133112BF0D180210268024B4905B1
:104B6000D150F5E7CCD1000024050000F8B50F00C6
:104B700016000122244BBA400360A023234CDB051E
:104B8000195905000A431A518022195912060A437D
:104B90000121B1401A511A598A4396211A511A59C2
:104BA0008901520052081A51FFF7C4FF0022042065
:104BB0002B6817495A506C39585001219960196077
:104BC0001900FC31CA6013495A506A6014391F3207
:104BD0005A5011495F5009185A501E517B1C03D07E
:104BE0000321380007F03AFF731C03D00321300083
:104BF00007F034FF0122094B29001A6008480732E8
:104C000008F000F8F8BDC046002000401405000080
:104C10006C0500001C0500000C0500005C0800206D
:104C200080100020962310B5DB00994202DDFFF7CB
:104C300081FF10BD9E210268014BC902D150F8E7E7
:104C400024050000C1230E4A9B00D15810B5090667
:104C500003D50C49096A002908D1D3585B0704D54C
:104C6000084B0021DB68002B01D110BD0121064B50
:104C700018680028F9D0054B1B689847F5E7C0462F
:104C800000200040FC20004058080020540800206C
:104C9000034B1960436803499B005A507047C04654
:104CA000540800205808002003681A00FC32106ADB
:104CB0000128FCD100201062014AC9B29950704706
:104CC0001C050000A023F0B5284FDB00FA5885B082
:104CD00001920022A024FA50E023254AE405DB00DB
:104CE000E658E2507833E15801250291E250A123C1
:104CF0008022DB00D205E2500420E55007F0EBFEF5
:104D0000A222D200A35803979B0F2B4228D0A3586E
:104D100013242B4225D00120A023E0220299DB0599
:104D2000D2009E5078329950A023039A0199DB005B
:104D3000D15005B0F0BD0F4B0420EF5007F0CBFE73
:104D4000A123DB00EF50042007F0C5FEA223DB0007
:104D5000EB585B00DFD4013C002CECD12000DBE7FA
:104D60001324A0250127ED05F5E7C04600400040CB
:104D70000D0600000C050000A023E021134ADB050E
:104D8000C90010B55A5078315A50114B0022190001
:104D9000FC31CA600A62A1211E20C9005A500D4A86
:104DA0000D4C9850CC200D4A40049850A2200C4A3B
:104DB000C00014500B480C4C145001205050A0223D
:104DC0000521D2009950FFF77DFF10BD0C060000B1
:104DD000004000400C050000384100402405000060
:104DE00000F00140140500001C400040012310B5F4
:104DF0000D4C0E49A36480239B00CB670C490D4AE0
:104E0000086D002804D00020086511680131116088
:104E100009490B60A923DB001068E358010C9BB221
:104E20000004184310BDC0460090004004E100E0BB
:104E3000FC9000406008002000E100E0F8B50F4C55
:104E4000636C002B0FD000270D4E67643378BB4294
:104E500009D00C4B1D68FFF7C9FF2D1ABD4202DCBB
:104E60003770FFF7B3FB236D002B05D0064A13689C
:104E70000133136000232365F8BDC046FC90004059
:104E80007B100020640800206008002070B51B4DD6
:104E90002878002831D10121194B1A4A59605060F5
:104EA0008020C005016051680029FCD0002216490D
:104EB000A2205A5004240121C000D9601C50083897
:104EC0001A501248C2261A50C122802092000003B4
:104ED00098508020400298500D4AB60090590D4CD1
:104EE0000440C020000220439051C0248020640070
:104EF0008000105110601960297070BD7C10002076
:104F000000900040FC000040040500004C0500003B
:104F100000E100E0FF00FFFF044B10B51B78002B01
:104F200001D1FFF7B3FFFFF761FF10BD7C10002038
:104F3000104B70B51B780400002B01D1FFF7A6FFC2
:104F40000D4D0E4E2B78002B02D03368A34210D0AB
:104F5000FFF74CFF201A0A2803DCFFF747FF0A304F
:104F6000040001232B70A823054A3460DB00A4B29F
:104F7000D45070BD7C1000207B10002064080020FD
:104F800000900040224910B50B68DBB2012B0FD115
:104F9000204B1B681B070BD11F4BE0241A68F02322
:104FA00010001840224228D11C4A12681A4227D009
:104FB0000B68DBB2012B12D1164A126812070ED110
:104FC000F021154A12680A40402A08D1134A126893
:104FD0000A4204D18021C122C905D2008B5080220F
:104FE000A3230021D205DB00D1500D4B9960013184
:104FF00091609A68002AFCD010BD3028D4D0D7E741
:10500000084B094A1A608022084B12021A60CFE747
:10501000E00F00F0E40F00F0E80F00F0EC0F00F0FC
:10502000FC00004004050040DFFF07C0186C004092
:10503000014B18687047C0466808002000224308EA
:105040008B4274D303098B425FD3030A8B4244D350
:10505000030B8B4228D3030C8B420DD3FF22090292
:1050600012BA030C8B4202D31212090265D0030B51
:105070008B4219D300E0090AC30B8B4201D3CB0347
:10508000C01A5241830B8B4201D38B03C01A524189
:10509000430B8B4201D34B03C01A5241030B8B428B
:1050A00001D30B03C01A5241C30A8B4201D3CB0276
:1050B000C01A5241830A8B4201D38B02C01A52415B
:1050C000430A8B4201D34B02C01A5241030A8B425E
:1050D00001D30B02C01A5241CDD2C3098B4201D376
:1050E000CB01C01A524183098B4201D38B01C01AF4
:1050F000524143098B4201D34B01C01A524103096B
:105100008B4201D30B01C01A5241C3088B4201D319
:10511000CB00C01A524183088B4201D38B00C01AC6
:10512000524143088B4201D34B00C01A5241411AED
:1051300000D20146524110467047FFE701B50020FA
:1051400000F0F0F802BDC0460029F7D076E77047BE
:1051500003460B437FD4002243088B4274D30309D8
:105160008B425FD3030A8B4244D3030B8B4228D379
:10517000030C8B420DD3FF22090212BA030C8B429F
:1051800002D31212090265D0030B8B4219D300E03F
:10519000090AC30B8B4201D3CB03C01A5241830BC4
:1051A0008B4201D38B03C01A5241430B8B4201D374
:1051B0004B03C01A5241030B8B4201D30B03C01A9D
:1051C0005241C30A8B4201D3CB02C01A5241830A17
:1051D0008B4201D38B02C01A5241430A8B4201D346
:1051E0004B02C01A5241030A8B4201D30B02C01A70
:1051F0005241CDD2C3098B4201D3CB01C01A5241D7
:1052000083098B4201D38B01C01A524143098B425F
:1052100001D34B01C01A524103098B4201D30B0148
:10522000C01A5241C3088B4201D3CB00C01A52416D
:1052300083088B4201D38B00C01A524143088B4232
:1052400001D34B00C01A5241411A00D201465241CB
:10525000104670475DE0CA0F00D04942031000D3EA
:105260004042534000229C4603098B422DD3030A3F
:105270008B4212D3FC22890112BA030A8B420CD34F
:10528000890192118B4208D3890192118B4204D378
:1052900089013AD0921100E08909C3098B4201D3F8
:1052A000CB01C01A524183098B4201D38B01C01A32
:1052B000524143098B4201D34B01C01A52410309A9
:1052C0008B4201D30B01C01A5241C3088B4201D358
:1052D000CB00C01A524183088B4201D38B00C01A05
:1052E0005241D9D243088B4201D34B00C01A5241DC
:1052F000411A00D20146634652415B10104601D369
:105300004042002B00D54942704763465B1000D3F2
:10531000404201B5002000F005F802BD0029F8D098
:1053200016E770477047C0468446081C6146FFE791
:105330001FB500F04FFC002801D40021C8421FBD5A
:1053400010B500F0D1FB4042013010BD10B500F0A7
:1053500041FC002801DB002010BD012010BDC0462B
:1053600010B500F037FC002801DD002010BD012041
:1053700010BDC04610B500F0DFFB002801DC0020A6
:1053800010BD012010BDC04610B500F0D5FB0028AF
:1053900001DA002010BD012010BDC046002B11D144
:1053A000002A0FD1002900D1002802D00021C943D2
:1053B000081C07B4024802A14018029003BDC04671
:1053C00065FFFFFF03B4684601B5029800F01EF8C0
:1053D000019B9E4602B00CBC7047C0469E2110B592
:1053E000C905041CFFF7D0FF002803D1201C00F0E2
:1053F00037FF10BD9E21201CC90500F06DFD00F097
:105400002FFF80231B069C466044F2E7F0B54F4611
:105410004646D646C0B5040082B00D009146984677
:105420008B422FD82CD04146484602F0FFFC290081
:105430000600200002F0FAFC331A9C46203B9A46F4
:1054400000D576E04B46524693401F004B466246DD
:1054500093401E00AF4228D825D05346A41BBD411F
:10546000002B00DA7BE0002200230092019301234D
:10547000524693400193012362469340009318E003
:105480008242D0D900220023009201930A9B002B74
:1054900001D01C605D600098019902B01CBC904670
:1054A0009946A246F0BDA342D7D90022002300921C
:1054B00001936346002BE9D0FB07984641467208EA
:1054C0000A437B0866460EE0AB4201D1A2420CD8EB
:1054D000A41A9D41012024196D410021013E241888
:1054E0004D41002E06D0AB42EED9013E24196D414C
:1054F000002EF8D100980199534600196941002BFC
:1055000023DB2B005246D3402A006446E2401C00B5
:1055100053461500002B2DDB26005746BE403300B6
:1055200026006746BE403200801A994100900191E2
:10553000ACE7624620239B1A4A46DA4061461300D4
:1055400042468A4017001F4380E7624620239B1A89
:105550002A0066469A402300F3401343D4E762468C
:10556000202300219B1A0022009101920122DA409F
:10557000019280E72023624626009B1ADE402F001E
:10558000B0466646B74046463B003343C8E7C04690
:10559000F8B54746CE4643025B0A4400C20F9C461C
:1055A0004800DD004B02240E5B0A000E80B59846D1
:1055B00026009146C90FDB00271A8A4229D0002F06
:1055C00015DD00284AD1002B00D095E0ED08FF2C16
:1055D00000D188E06B025B0AE6B25B02F605580A6E
:1055E0003043D20710430CBC90469946F8BD002FBB
:1055F00000D087E0601CC0B2012800DCB6E0EE1AE3
:10560000720100D5C5E0002E3DD100220026002306
:10561000E3E7002F00DC96E000285DD0FF2C60D08F
:105620008022D20413431B2F00DDECE02022D21B8A
:1056300018009340F8405A1E93410343ED186B0144
:105640007BD50134FF2C00D1B7E0012207262A4088
:105650006B089A4D1D4015432E4029E0FF2CB5D014
:105660008022D20413431B2F00DDB2E02022D21B84
:1056700019009340F9405A1E93410B43ED1A6B01F8
:105680005BD5AD01AE09300002F0B2FB05388640B3
:10569000844265DC041B330020200134E340041BFA
:1056A000A640751EAE41334307261D0000241E4050
:1056B00001224B461A40002E04D00F232B40042B0E
:1056C00000D004356B0100D480E70134E6B2FF2C32
:1056D0002FD1FF26002380E7002B52D1FF2C00D0D2
:1056E00074E70A00ED08002DF3D08023DB032B4381
:1056F0005B025B0AFF2670E7013F002FBED0FF2C44
:10570000B1D163E7002C47D0FF2869D08024E4049E
:105710007A4225431B2A00DDC5E02C002026D44018
:10572000B21A95406A1E954125435D1B04008946C7
:10573000A5E7AB015B0A50E7002401224B461A4063
:105740006B07BAD142E7002F3BD10134E0B2012808
:105750004ADDFF2CBDD00726ED186D082E40A7E7C7
:105760000723574D241A35401E40A1E7002C1BD1BA
:10577000002D6ED1002B00D19AE00A001D003C00E4
:1057800024E7013F002F00D158E7FF2C00D04AE763
:10579000A7E75E1B894676E7002D1CD10A00FF288B
:1057A0001FD004001D0011E7002D5DD1002B17D183
:1057B00080230022DB03FF260FE70A00FF260023D9
:1057C0000BE7002C21D1002D66D1FF28E9D11D0067
:1057D00087E7012352E77A1CA7D0FA43FF2899D123
:1057E0000A001D00FF24F1E6002E21D1002D4FD02C
:1057F000002B4CD0ED186B019ED5314B07362E4057
:1058000001241D4054E7012318E7FF28DFD080243E
:10581000E4047F4225431B2F4DDC2026F61B2C0081
:10582000B540FC406A1E95412543ED18040006E78B
:10583000002DCCD0002B00D153E780216046C90356
:10584000084203D04046084200D11D00012111400A
:1058500047E7002B00D1B9E6EA1A500125D5072603
:105860005D1B2E40894623E7FF24002B00D1ADE6C7
:1058700080226046D203104204D04046104201D13B
:105880001D00894601224B46FF241A409EE62B004C
:10589000DD080A0000249DE67A1CC6D0FF43FF28DD
:1058A000B9D11D001DE701253FE7151E00D044E7D3
:1058B0000022002391E60125B7E7C046FFFFFF7DE8
:1058C000FFFFFFFBF8B557464E464546DE4644020D
:1058D000E0B546008846640A360EC70F002E63D036
:1058E000FF2E24D08023E400DB041C4300239946D0
:1058F0009B467F3E434642465D02D20F5B006D0AE7
:105900001B0E9046924665D0FF2B55D08022002179
:10591000ED00D2047F3B1543F61A43464A467B40CE
:105920000F2A00D98DE06D48920082589746002CCE
:1059300054D108239946063BFF269B46DAE700250B
:10594000534602291BD0032900D1BFE0012928D0EA
:1059500030007F30002820DD6A0704D00F222A4063
:10596000042A00D004352A0103D530005C4A803077
:105970001540FE2803DCAC01640AC2B201E0FF223C
:1059800000246402D205600ADB07104318433CBCC4
:1059900090469946A246AB46F8BD0122101A1B2834
:1059A0007CDD00220024ECE7002C1DD10423994665
:1059B000033B00269B469DE7FF3E002D20D10221A0
:1059C00043464A467B400A430F2AD8D845489200AE
:1059D00082589746002D19D10121F1E70C239946F1
:1059E000093BFF269B4685E7200002F001FA762658
:1059F000431F9C4000237642361A99469B4679E71E
:105A00004A4603231A439146032186E7280002F001
:105A1000EFF9431F36189D40763600217DE780243C
:105A20000023E403FF22ACE700258023DB031C42B4
:105A300028D01D4226D12B435C02640A4346FF2234
:105A40009FE762016C01A24224D21B210025013E86
:105A5000012710006D005200002801DB944201D89C
:105A6000121B3D4301390029F3D11400621E9441F9
:105A700025436DE7BA46594625005346022900D012
:105A800061E77CE78023DB031C436402640A3B007C
:105A9000FF2276E7121B1A210125D9E79E362A003C
:105AA000B5402C00C240651EAC411443620704D0CF
:105AB0000F222240042A00D00434620103D4A4013E
:105AC000640A00225DE7012200245AE78024E403EF
:105AD0002C436402640AFF2253E7C04654D20000FC
