:020000040000FA
:100000000040002081470000BD470000BF470000BE
:1000100000000000000000000000000000000000E0
:10002000000000000000000000000000C1470000C8
:100030000000000000000000C3470000C5470000AA
:10004000C7470000FD2D0000DD4D0000C747000040
:10005000C747000000000000F9470000C747000044
:100060000D3D0000D14F0000654C0000C747000067
:10007000C7470000C7470000C7470000C747000048
:10008000C7470000C7470000C7470000C747000038
:10009000C74700009945000075450000C7470000AC
:1000A000C7470000C7470000000000000000000034
:1000B0000000000000000000000000000000000040
:1000C00010B5064C2378002B07D1054B002B02D02E
:1000D000044800E000BF0123237010BDA0000020F1
:1000E000000000006CDE0000044B10B5002B03D0B4
:1000F0000349044800E000BF10BDC04600000000F6
:10010000A40000206CDE0000164B002B00D1144B25
:100110009D46402292029A1A924600218B460F4633
:100120001348144A121A0CF0E0FE0F4B002B00D0BB
:1001300098470E4B002B00D0984700200021040068
:100140000D000D48002802D00C4800E000BF09F067
:1001500031FB200029000CF0C8FC09F015FBC0465B
:100160000000080000400020000000000000000027
:1001700098000020981000200000000000000000FF
:10018000A0220823D205002805D0A121C90050587B
:100190000343535070470149F9E7C0460C0500007E
:1001A000A0210823044A10B5C905885803438B5081
:1001B0000020FFF7E5FF10BD140500001FB5FA226F
:1001C0000021D20002480CF090FE05B000BDC046F0
:1001D0007C080020F0B587B00290FF2005930391C2
:1001E000049200F00DFFFF22002105000CF07DFEBF
:1001F0003D4EFA2432787378A4001343591E8B4184
:100200000022013CD218002CFBD1384938480CF0B0
:100210002FFB384803F014F93749220034480CF01A
:1002200027FB23004133FF339BB29C462C80A91C43
:10023000FA239B009C4238D26200B3185B78B25C10
:10024000581E8341501E8241601C40005B001343D6
:10025000321857787A1E9741325CFF00501E824157
:10026000A01C40003B4392001A4333185F787B1E6A
:100270009F41335C7F01581E83413A438027E01C35
:100280001B0140001343321852787F42002A00D1EC
:100290001700325C3B43501E8241043492011343E9
:1002A000A4B20B7001316445C2D129786B782A88D9
:1002B0000F48009111490CF0DBFA0E4F5222290031
:1002C000380003F04FF9FA2080000CF090FCFA237C
:1002D0009B009C42A0D3280000F0B2FE380002F040
:1002E000E1FF07B0F0BDC0467C080020D8DA00006E
:1002F000C0000020C8040020EBDA0000F4DA00009F
:1003000010B50400034B036040300AF01DF92000D3
:1003100010BDC04698D10000F0B585B01F000AABF3
:100320001B880600150002910393002F1DD0282082
:1003300000F066FE6B4604001989039BAAB2009385
:100340003B000AF09EF83368210030005B68984754
:1003500000280BD0002C06D020000AF0A8F8282195
:1003600020000CF062FD024800E0024805B0F0BD3C
:1003700016FCFFFF17FCFFFF002813D0002911D047
:10038000C27A837A12021A43037B07491B041A4379
:10039000437B1B0613435B00CB18012142791207F4
:1003A000120F99547047C0467C0800207FB523483F
:1003B00000F0A0F9224C0221200003F0CDF8FA222F
:1003C00010250021D2001F480CF08FFD200002F004
:1003D00069FF1D4C0322012120001C4B0095FFF7F3
:1003E0009BFFC826032202212000194BFA24009506
:1003F000FFF792FFFFF7D4FE760064004F2103A8B9
:100400000AF0BEF8134D320003A9280002F0ACF840
:1004100003A80AF099F8200000F096FC202103A818
:100420000AF0AEF8320003A9280002F09DF803A8F4
:100430000AF08AF8200000F087FCDFE7BC0000200B
:10044000C80400207C0800208C010020D501000099
:10045000BD010000A801002010B5054C200000F0EF
:1004600063F82000034A04490CF0D8FC10BDC046D4
:10047000BC000020000000207D040000F7231C4A7F
:100480009B0010B5C2501C330400C0180AF05CF881
:10049000FD239B00E0180AF057F89F239B00E0180B
:1004A00002F0F0F884239B00E01801F0DBF9200053
:1004B000C530FF3000F010FF20008D30FF3001F01C
:1004C0003BF920006530FF3001F036F92000EC30B8
:1004D00001F062FE2000D03002F06AFB20006430A0
:1004E00004F090F8201DFFF70BFF200010BDC04660
:1004F00004D4000070B50B4D0400405900280ED004
:1005000003F0C2FF836D9B0709D560590CF035F9E4
:10051000036813215B6A984764200CF068FB09F0BC
:10052000EFFE70BD140500001423F0B5040097B071
:10053000009319221821043003F0BEF9220025008F
:100540006432B43513211000139204F067F82800C8
:100550000BF004F92200B83210921E2100221098EC
:100560000AF08CFC2000D03002F042FB2200EC327A
:1005700011920621594A119801F036FE22000027F7
:1005800001236532FF32149211211A00149800974A
:1005900001F03CF922008D32FF3215920123022234
:1005A0001A211598009701F031F926002000C53670
:1005B000B530FF361A2302220121FF3002F0D8FBAA
:1005C000109904233A22300000F036FF8422920072
:1005D000A218129205231D221099019300922B005C
:1005E0003200129801F038FB96229200119B12996A
:1005F000A018320001F00CFD992292002900A018E9
:100600001C2203F089FA9F229200A6181299222236
:10061000300002F043F8A7229200A018159A31008A
:10062000149B0092119A02F045F91923AB220F9303
:10063000013B0E93013B0D93013B0C93013B0B934C
:10064000013B0A93013B0993013B0893013B07934C
:10065000013B0693013B0593013B0493013B03934C
:10066000013B0293013B01939200013BA0180093D0
:1006700008220721013B0AF009FCF7239B0029000F
:10068000E01803F0BDFCFF239B00E51808220423BB
:100690002800134903F00CFC124B3A002900E01823
:1006A0001D2302F071FD104B1398E75003212770B2
:1006B0000CF0A5F82300220020000C499C33A03246
:1006C0001C60116057600A4A02215A618030012281
:1006D00004F044F9200017B0F0BDC046A0D10000DE
:1006E000008000400C04000014050000F504000028
:1006F00035A200000278F0B50123160085B0019004
:100700001E401A423BD1FD20800500F041FC019FB4
:10071000D037380000F0DAF900F018F9282000F09E
:100720006FFC0400103009F05AFF164B18202360AC
:1007300000F066FC0500144B08220293019B310077
:1007400003600C3003960CF0D0FB02A90822281D90
:100750000CF0AFFB0D4B21006B6112233800A5603C
:10076000E660A3802662666202F0BAF9002806D02D
:10077000200009F09CFE282120000CF056FB05B05B
:10078000F0BDC046FD0300008BA200004BA200009C
:10079000BFF34F8F024B034ADA60BFF34F8FFEE780
:1007A00000ED00E00400FA05F0B595B01822002134
:1007B00004000EA80CF099FB13210EA80CF073F99D
:1007C00003210EA80CF01AFA464B1B68002B00D12F
:1007D0000133DBB2009300210123434A09A804F04E
:1007E0002DFAFA239B009C429B411C4072B63F4B62
:1007F00064211D683E4B2000059304F073FD05261F
:100800001030704328180A210690200004F06AFD79
:100810000A2104F04DFE1031714369182000079140
:100820000A2104F045FE10314E43AD198026002404
:100830000895B601009B002B52D004AD0027032C75
:1008400002D180260024B6016B682A4A0293630015
:10085000D3180022019258780299095C0391197803
:100860008C461021604601410398014204D00120CA
:10087000904001990143019101320633092AEAD1DE
:10088000019B2A68D9431C4B09011940029B9342E2
:1008900024D1312F22DC002109A80CF068FAFA23B8
:1008A000139A0F99DB001068014219D0013B002B0D
:1008B000F9D1FA23013401377600E4B25B009F429C
:1008C000BDD1043508ABAB42B8D1064B1B68002B39
:1008D000B0D0009B013BDBB20093ABE73143DBE7D9
:1008E000FFF756FFD8050020F0FF000004000020AD
:1008F00073DB00003DDB0000F01F00000200F0B5DC
:1009000000281CDD0F4C013A276811000020BE09A9
:10091000FB0F73407B403E097D087340BF087B405E
:100920006B40DB072B4301251F0040002B40E940B3
:1009300018430029EBD18242E7D32760F0BD02487B
:10094000FCE7C046D405002017FCFFFF01230C483C
:1009500070B503600023A12504241E00094AED00A0
:10096000566051680029FCD041591B02013C0B43E1
:10097000002CF5D104490B600123436070BDC046D3
:1009800000D00040FCD00040D40500200B4B70B5D7
:100990001C68002C10D0656D00F0F8FBA36C0029DA
:1009A00001D1834206D8200009F0CCFC2000044984
:1009B00009F0B6FC2C00ECE770BDC046E005002055
:1009C00000060020F0B593B007932A4B04AC1E68D4
:1009D000049005910692002E49D0274B2588678800
:1009E0001C6800230293002C2DD0636D23480393D1
:1009F000A36C190C9AB20B00854214D12048824294
:100A000011D1002901D0B9420BD1029B002B08D192
:100A1000200009F097FC20001A4909F081FC01230D
:100A20000293039CDFE7002A01D09542F9D1002907
:100A300001D0BB42F5D1200009F084FC200011490F
:100A400009F06EFCEDE7104BEB18012B0FD91023CA
:100A50003A002900009308A80C4B09F012FD3368F6
:100A600030009B6808A9984708A809F020FD13B03A
:100A7000F0BDC046DC0500200C060020FE0300008F
:100A8000FF0300000006002002FCFFFFC509000074
:100A900010B572B60B4B1C68002C08D0200009F072
:100AA00051FC0023E364084B2000E36310BD62B6F1
:100AB0005C2000F0A5FA5C22002104000CF015FA7D
:100AC000EFE7C0460406002000400020F7B51E4CAA
:100AD0000123227816001E401A4233D11B4D286094
:100AE000FFF7D6FF1A4B1B49186009F019FCFFF7F6
:100AF000CFFF194B1860194B4363194B8363286868
:100B000000280FD0C023174F3200174900933B0035
:100B1000FFF702FCC023009332003B001349286812
:100B2000FFF7FAFB0C2000F06BFA0023838083713F
:100B30000F4B03600F4B836000F040FB01232278D2
:100B400013432370F7BDC0464C100020DC05002085
:100B5000100600200006002008060020FC3F0020B0
:100B6000DDA30000C5090000FF030000FE03000034
:100B7000C0D100008D090000024B187801231840F5
:100B80007047C0464C100020F7B506000D00170056
:100B90000193002802D100242000FEBD0029FAD0D4
:100BA000FFF776FF041EF6D0074B019A43630660F9
:100BB000064B45608760002A00D0054B20000549A0
:100BC000A36309F0ADFBE7E7FC3F0020B7A30000FB
:100BD000C5A300000006002070B5074B0E001100F1
:100BE0001A7805000123100018401A4203D0320081
:100BF0002800FFF7C9FF70BD4C100020024B186899
:100C0000434258417047C0460006002003000022BE
:100C100010B5044994006058002801D00132F9E76A
:100C2000635010BDE8050020002310B5044A990068
:100C30008C58844201D00133F9E70020885010BD60
:100C4000E805002010B50024084BA200D058002869
:100C500002D003685B6898470134062CF4D1044B3A
:100C60001B68002B00D120BF10BDC046E805002046
:100C7000000600200122F8B52C4B1B7813421BD034
:100C80002B4D2C68E36C134217D002263343E364E8
:100C90000423284F3868C26C1343C364636BC36377
:100CA00009F067FB3868416C03F007FA2868C36CE9
:100CB000334201D003F03BFAF8BD1F4F1F4E3A6894
:100CC0003068002A0AD128601B0712D52C60FFF774
:100CD000B9FF3B68002BFAD02B600AE0216DB942C6
:100CE00019D1616D002900D1110029602A68824262
:100CF000EAD029688C42DFD0336899420DD1104B7D
:100D00004B63104B8B63200009F033FB29682000F4
:100D10004B6C626C06E02A60E8E79C42F3D100224B
:100D200010004B6C03F088F9C6E7C0464C10002059
:100D300010060020E4050020000600200806002020
:100D4000FC3F0020DDA3000070B5114B04001A78B1
:100D500001231A4202D10BF04AFF70BD0D4A1568FB
:100D6000EA6C1A4206D0FFF793FE0B4B186000287E
:100D700000D0050000F00AFA2418AC64280009F03D
:100D8000E1FA2800054909F0CBFAFFF773FFE4E721
:100D90004C10002010060020E4050020E005002093
:100DA000F0B51E4B1E4F1E683B6885B005000391D1
:100DB000002B31D01B4B1A7801231A422CD0F26C35
:100DC0001A420ED0FFF764FE174B041E186008D0BD
:100DD00009F0B8FA2000154909F0A2FA2600FFF739
:100DE00049FF039B30001B042B43B36409F0AAFAAC
:100DF00030000F4909F094FA0E4B0024EB18012B38
:100E000007D9C023009329000B4B039A3868FFF7DA
:100E100083FA200005B0F0BD084CFAE71006002068
:100E2000DC0500204C100020E40500200006002016
:100E30000C06002002FCFFFFC509000016FCFFFFA6
:100E400010B5074B1B78DB0709D5064C206809F065
:100E500079FA0549206809F063FAFFF70BFF10BD26
:100E60004C100020100600200406002010B5034B93
:100E70001B78DB0701D5FFF7E3FF10BD4C10002006
:100E8000F7B505000C00002833D001261B4B1B785A
:100E9000334230D01A4F07233868C26C1100194012
:100EA00000911A4207D021002800164AFFF794FE4D
:100EB00000252800FEBD03F022F93A680221D36C18
:100EC0001800084001900B4203D001318B43D364DA
:100ED000EEE73343D3642000A8473A68019DD36C02
:100EE0001900B143D1645B07E3D52000FFF7BEFFD3
:100EF000DFE7054DDDE7054DDBE7C0464C10002080
:100F0000100600206D0E000017FCFFFF16FCFFFF0F
:100F1000020010B5014B12CB12C210BD1406002006
:100F2000034B1A68034B1A607E225A607047C04612
:100F3000040000201406002070B5114D2B78022B00
:100F40001AD081421AD90B1A072B17D90B00034369
:100F500003221C001440134210D172B62A78094BA8
:100F6000D200D0509818416009F03EFA2B78013336
:100F70002B7062B6200070BD0348FCE70348FAE717
:100F80004D1000201C06002013FCFFFF17FCFFFF84
:100F900070B50021041C04F0ADFA002828D1FE2110
:100FA000201C890504F0B0FA002821D1043008F093
:100FB00025FC05000F48401B05F06CFA211C04F0CD
:100FC00021FF04F0D5FA032398430400280008F019
:100FD0001FFC200008F012FC002804D1203C002C4B
:100FE000F7D1054803E00119FFF7A6FF002070BD07
:100FF0000248FCE70038002013FCFFFF17FCFFFF4E
:1010000070B5050000260C4B1B78B34209DD0B4977
:10101000F3002800C91809F0EFF9041E09D10136C0
:10102000F1E7280008F0EAFB041E02D11420FFF7C4
:10103000BBFB200070BDC0464D1000201C060020E8
:1010400010B5002811D000220B4B19780B4B9142A0
:101050000FDD1C68844209D25C68844206D9802373
:10106000043802681B061343036010BD01320833C5
:10107000EDE708F0CDFBF8E74D1000201C0600203E
:1010800070B5051E14DD0B4E0B4C3368002B02D0DF
:1010900020680BF05FFCFA2120680024074B8900D0
:1010A0008361C462694335600BF066FC200070BD4B
:1010B0000348FCE72C0600205C06002069110000B4
:1010C00017FCFFFFF8B5114F05003E68002E0AD14E
:1010D0003020FFF795FF040003F008FB0C4BA661DE
:1010E0002360E6623C600B4E3368002B09D1102070
:1010F000FFF786FF04000BF08CFC200034600BF03F
:1011000062FC2800FFF7BCFFF8BDC0465C0600206B
:1011100054D4000058060020014B18687047C046A0
:101120002C06002070B50D4C2368002B03D00C4B0F
:101130001B68002B02D10620FFF7C4FF20680BF0CC
:1011400059FC02000749C3170D684E6852197341D4
:1011500020680A604B600BF053FC70BD58060020FD
:101160005C0600209800002010B5FFF7DBFF00248C
:10117000054BA200D058002802D003681B6898478E
:1011800001340A2CF4D110BD3006002010B5FFF751
:10119000C9FFFA22034B920018685968002304F033
:1011A000C7F910BD9800002010B5FFF7BBFF024B38
:1011B0001868596810BDC046980000200B4B10B548
:1011C0001B680400002B03D0094B1B68002B02D1C5
:1011D0000620FFF777FF0023064A99008858002869
:1011E00001D00133F9E78C5010BDC04658060020ED
:1011F0005C06002030060020002310B5044A990048
:101200008C58844201D00133F9E70020885010BD8A
:101210003006002010B50400002902D00B78002B06
:1012200003D1034B2360200010BD09F094F9FAE7C5
:10123000D0D10000014B03607047C046D0D1000000
:1012400010B50548054C206009F023FA2000044A37
:1012500004490BF0E3FD10BDD0D100006006002072
:101260000000002049A50000084B73B51D6804006C
:10127000002D0AD001002E680822083168460BF0C4
:1012800018FE0CCC28003168884773BD6406002026
:1012900010B5054C0121200009F0EFF92000034AA8
:1012A00003490BF0BBFD10BD6806002000000020C4
:1012B00039A60000074A030010B50120934208D068
:1012C000834202D00020DB0703D41E20FFF76CFA14
:1012D000002010BDFFFF000010B50400034B0833D1
:1012E0000360FFF7A1FC200010BDC04618D200002B
:1012F000FA2270B5438992005343314A31491500AF
:10130000040038358B421BDC2F498B4218D82F49FB
:10131000083D8B4214D82E49083D8B4210D82D49E8
:10132000083D8B420CD82C49083D8B4208D82B49EC
:10133000083D8B4204D82A4915008B4200D9083554
:10134000284B227B1E1D042A03D89E1C022A00D88B
:101350001E00FA212868890003F03AFF3378608183
:1013600000222A212000237309F0BAF9002824D191
:1013700010222B21200009F0B3F900281DD10122F1
:101380002D21200009F0ACF9002816D101222E21D0
:10139000200009F0A5F900280FD10E212000727855
:1013A00009F09EF9002808D101222B792A2120007A
:1013B0001A4309F095F9002800D00B4870BDC046CB
:1013C000D8D1000000C4090000710200803801007B
:1013D000204E00001027000088130000C409000000
:1013E000E204000053DD00000EFCFFFF7FB5150096
:1013F0000F226A4404001E001170002D15D0002B2E
:1014000013DD012301890093006B01F0E5FA002848
:1014100008D1009033002A002189206B01F092FA54
:10142000002800D0024804B070BD0248FBE7C04667
:101430000EFCFFFF17FCFFFFF7B5070000250400B7
:1014400001931D4B1437083303600E0000922900EE
:10145000182285808571C581056138000BF045FD36
:101460001C2138000BF01FFB019B2200A380009B76
:101470000E21238114236381123BA5712373A5637D
:10148000A5873E32137826638B4313702300012611
:101490004A331D80231DDE87084B20006364230030
:1014A00048331D70FFF724FFA84202D1A3791E43E1
:1014B000A6712000FEBDC04618D200000100010048
:1014C00030B504258379040087B02B4204D1FFF79F
:1014D0009DFBA3791D43A571A36AA2691B68002522
:1014E0001A4208D106236A4601212000FFF77EFF39
:1014F000051E03D0124D280007B030BD6B460222F6
:10150000042069469A561856237B92B25A43D20059
:1015100022820222097880B249B259434343DB0058
:101520006382A379C90093432000E181A37109F08C
:10153000E5F80123A1881A0002A809F05AF8DAE7B1
:101540000EFCFFFFF7B50400FFF7BAFFC8230E211A
:10155000625E764F5B009A4252DD23003E331B7879
:101560009B074DD50125210028003E310B785A08F4
:10157000904302000220AA40834313430B702000D3
:10158000FFF79EFFC8231021625E5B009A4245DD93
:1015900023003E331B785B0740D50125210028003E
:1015A0003E310B789A089043820004208343134312
:1015B0000B7026002000FFF783FF1222A35E48363F
:1015C000BB4238DA23003E331B781B0733D521009A
:1015D00001223E310B78D80882430820D200834391
:1015E00013430B703378032B35D80133DBB23370E0
:1015F000012B00D084E0230000224A331A802AE025
:101600002000FFF75DFF0E22A35E0025BB42B6DA85
:1016100023003E331B789B07A4D5B0E72000FFF7DB
:101620004FFF1022A35EBB42C3DA23003E331B7878
:101630005B07B2D5BDE72000FFF742FFC8231221A8
:10164000625E5B009A4204DD23003E331B781B0779
:10165000BDD5002DC6D133780193002B14D02100C5
:1016600027004A310B883E3701339BB20B803A7812
:10167000012015000540024250D01D2B04D9002343
:1016800082433A700B803370200009F09FF8284A9B
:101690000723904240DDC8252000FFF711FF0E23ED
:1016A000E25EAD000323AA4236DC2000FFF708FF0C
:1016B000204E0E23E25E0423B2422DDB2000FFF712
:1016C000FFFE1023E25E0223AA4225DC2000FFF782
:1016D000F7FE1023E25E0123B2421DDB2000FFF77C
:1016E000EFFE1223E25E0523B24215DB2000FFF776
:1016F000E7FE1223E25E0023AA420DDD06330BE073
:10170000042BA8D122003E321178033B0B43137007
:1017100000234A3423800B331800FEBD092BB3D9B4
:101720000D80019D013D3570AEE7C04670FEFFFFA4
:10173000FF700200E0FCFFFF10B50400034B08330C
:101740000360FFF759FD200010BDC04630D20000F5
:1017500070B5C369C1681A68451D0400EB7F11426A
:1017600021D0002B4ED1A379DA0732D510221340B5
:10177000A3710221200009F0DCF8A31DDB7F012BFF
:1017800027D1FFF703FD0023226A801A994199426D
:1017900004D1FA2303219B00984200D304212000A6
:1017A00009F0C7F815E00B2B01D80133EB77EB7F7D
:1017B000082B0BD90121A3790B420AD10B4320003E
:1017C000A37109F0B6F8FFF7E1FC2062EB7F012B73
:1017D000C9D90322A3791340012B12D1FFF7D6FCFC
:1017E0000023226A801A9941994202D1064B9842FD
:1017F00007D90223A279052113432000A37109F020
:1018000098F870BD013BD1E7DB050000F0B506009C
:1018100000250F00040085B002930AAB1B78083640
:1018200003930F4B29000833036001928580857173
:10183000182230000BF059FB39003000039A0BF0EE
:1018400037F9019B029AA380A31DE771DA77631D24
:1018500025622000DD77FFF7B1FC200005B0F0BD68
:1018600030D2000010B50400034B08330360FFF7CB
:10187000DBF9200010BDC046A0D200007FB51500E6
:101880000F226A4404001E001170002D15D0002B99
:1018900013DD012301890093C06B01F09DF800283E
:1018A00008D1009033002A002189E06B01F04AF84A
:1018B000002800D0024804B070BD0248FBE7C046D3
:1018C0000EFCFFFF17FCFFFF002330B585B003AC13
:1018D00021700189009305002200C06B013301F0E3
:1018E0007BF8002802D0094805B030BD20800223D3
:1018F000009022002989E86B01F024F80028F2D139
:10190000237860781B02184300B2EDE70EFCFFFF5E
:1019100007B500236A46D37101330732FFF7AEFFE4
:10192000002802D16B46D8790EBD0148FCE7C046BD
:101930000EFCFFFFD0B5040009F03BF8E268A36994
:10194000981A06F069FA06000F002369E069C01AC8
:1019500006F062FA32003B0006F0A2FD0022104BB6
:1019600005F026FC0F4A104B05F03AF906F0CCFAC8
:101970000021041C03F0B4FD002804D0201C0B49F6
:1019800003F0DAFE041C201C06F076FA02000B00BD
:101990000020074905F078FE06F008FAD0BDC046E1
:1019A00000806640EA2E4454FB2109400000B44305
:1019B00000807640F0B5040085B0006C08F0A6FF0A
:1019C000061C206C08F099FF0221071C200009F07A
:1019D00021F802210390200009F02EF804F014FDF4
:1019E00002210290200009F039F804F00DFD041CDA
:1019F000301C06F017FD051C301C06F0D7FC0190CA
:101A0000381C06F00FFD061C381C06F0CFFC071C26
:101A1000039804F0F9FC391C04F0F4F9311C071C9C
:101A2000029804F0EFF9291C04F0ECF9011C381CB1
:101A300003F082FE311C071C201C04F0E3F901991D
:101A400004F0E0F9011C381C03F076FE291C061C8A
:101A5000201C04F0D7F90199041C029804F0D2F973
:101A6000011C201C04F0E8FA311C06F01DFD0D4994
:101A700004F0C8F906F000FA0B4A0C4B05F0B0F878
:101A800006F042FA0021041C03F02AFD002804D0CD
:101A9000201C044903F050FE041C201C04F094FC9C
:101AA00005B0F0BD0000B443EA2E4454FB211940B8
:101AB00070B500221021040008F06DFF1B4D0028B6
:101AC00032D1032608212000FFF722FFA8422BD0A5
:101AD000304203D06420FFF737F9F3E7FA21638936
:101AE00089005943124B0A221D005035186D884257
:101AF00004D31D00083B5035013AF7D2FA2128687B
:101B0000890003F065FBA02260811121200008F00C
:101B100042FF002808D101222B79102120001A430E
:101B200008F039FF002800D0004870BD0EFCFFFF10
:101B300048D200007FB50425837904002B421BD1D5
:101B4000022608F036FFA3790622B3432B43A37184
:101B500068460123A18808F04CFDA3791A003340A0
:101B6000581E83415842FB239B001840034BAA4355
:101B7000A271C01804B070BD0148FBE714FCFFFF60
:101B800015FCFFFF10B5837904005A070DD49B079D
:101B900001D4FFF7CFFF236C2000002B02D0FFF70A
:101BA00009FF10BDFFF7C6FEFBE70148F9E7C04695
:101BB00015FCFFFF70B5466C86B001AC05000191C5
:101BC0006260A360002E0CD00B4905A8FFF722FB32
:101BD0000C232200300005A909F0FCFD05A808F03F
:101BE000B3FC2B000C3307CC07C30223AA791343A1
:101BF000AB7106B070BDC04659DD0000642330B53E
:101C000004000281438185B08180FFF751FF0222E9
:101C1000A379606C9343A371002814D00D4909F097
:101C2000A3FD051E0FD001000C22103101A80BF0FE
:101C300040F920000199029A039BFFF7BBFF302176
:101C400028000BF0F2F80123A2791343A37105B029
:101C500030BDC04659DD0000F7B5019308AB1F88C1
:101C600009AB1E88002304000D0000920D4A8380FA
:101C7000083283710260C360036143618361C361A1
:101C800003621D21243008F079FE009B3A00236492
:101C9000019B31002000E5636364FFF7AFFF200084
:101CA000FEBDC046A0D2000082B0F0B50400A5B0D1
:101CB00064202B932A920AF09AFF04220C2109A88F
:101CC00002F060FA2422CD491BA80BF0F2F805229D
:101CD00006A811000AF0BAFCC94907A802F000FBE7
:101CE000A06800F079FBA568C64918A8FFF792FA2A
:101CF0007822280018A900F06BFC18A808F024FC32
:101D00006E256420013D0AF072FF002DF9D1A06814
:101D100000F062FBA06809F040F80121606808F05B
:101D200069FD01210700606808F077FD06000A20C0
:101D30000AF05DFF0022B44B04929F4210DB013297
:101D400004923A00C8320BDBC822042192000491AD
:101D5000974205DC03220492C82F01DC013A049269
:101D6000002203929E4210DB012303933300C83309
:101D70000BDBC82304329B0003929E4205DC032345
:101D80000393C82E01DC013B039306A80AF055FC1F
:101D90001BAF00233E000593B378002B05D0FF2333
:101DA0007278317806A802F02FFA059B03360133CA
:101DB00005930C2BF0D16B460C229A5E6B4606A85D
:101DC0001021595EFF2302F01FFA0023A0681A00B9
:101DD0000093743006A90AF040FC3B0024330593BD
:101DE0003B78049A934234D17B78039A934230D162
:101DF000BE78002E2DD13100206808F00BFE04F0D3
:101E000003FB3200031C290009A809F0CFFD3100B3
:101E1000206808F011FE04F0F7FA0122031C2900E3
:101E200009A809F0C3FD3100206808F017FE04F08E
:101E3000EBFA2900031C022209A809F0B7FDFE23D2
:101E400029009B05032209A809F0B0FD0123BB70FE
:101E5000ED18059B03379F42C2D164200AF0C7FEEC
:101E60000B2D00DC59E709A809F08CFD01220100C7
:101E70000CA802F087F9002509A809F083FDA84203
:101E80003CDD2900002209A809F07EFD002229007E
:101E9000061C09A809F078FD011C301C03F0B2FFF4
:101EA0002900061C012209A809F06EFD0122290063
:101EB000071C09A809F068FD011C381C03F0A2FFEB
:101EC000311C03F039FC29000222061C09A809F084
:101ED0005BFD02222900071C09A809F055FD011C21
:101EE000381C03F08FFF311C03F026FC2900031C73
:101EF00000220CA809F05AFD0135BDE709AA11001E
:101F0000012318A809F06DFD18A90FA809F0C7FD55
:101F100018A809F05CFD0CAA09A912A8012309F070
:101F200060FD002312AA0FA915A809F05AFD00228E
:101F300015A8110009F028FD0022061C012115A892
:101F400009F022FD0022051C022115A809F01CFD44
:101F5000FC21071C8905301C03F054FF04F034FAFF
:101F6000FC21060018908905281C03F04BFF04F0A3
:101F70002BFAFC21050019908905381C03F042FF5B
:101F800004F022FA2A00030031001A902068FFF7BB
:101F900011FEA06808F001FF07A908A8A5680AF0CB
:101FA00044FB0022194B009208A90193280013005A
:101FB00000F0B0FA08A80AF02BFBFA2080000AF023
:101FC00016FEA06808F0E9FE15A809F000FD12A8A9
:101FD00009F0FDFC0FA809F0FAFC0CA809F0F7FCC9
:101FE00007A80AF015FB06A80AF012FB09A809F0D9
:101FF000EEFC25B0F0BC08BC02B01847B7DD00000D
:1020000064DD0000A9DD0000E0FCFFFFDC0500004E
:10201000F7B583601D4B05001F6801604260002F0B
:1020200032D02820FEF7ECFF0400103008F0D7FA79
:10203000174B18202360FEF7E3FF00220600154B24
:1020400000210192056008320C3000930AF04DFF28
:1020500008226946301D0AF02CFF0F4B00227361E5
:10206000C223A3803B68E260210038005B68A66061
:10207000226262629847002806D0200008F017FA12
:10208000282120000AF0D1FE2800FEBD64060020B1
:1020900005000600A91C00007FAA0000F0B504009E
:1020A00085B0637A9C46002B04D1200008F012FD15
:1020B00005B0F0BDA37A266F01931023019AF35661
:1020C00000259B1801229A402900F368039202938D
:1020D000029BAB4231DDB068019B6843C018736955
:1020E0004000E77A1A181B5C5078E279012F14D16E
:1020F000571E3F1A18003B004243606F520082187F
:10210000D2189379634500DD6346627B1A4202D0A0
:102110000123AB4019430135DAE7022F07D0032F23
:10212000EAD1277A013FFF1A03003800E4E7571E7F
:10213000FB1A277A013F381ADEE71123C943F35609
:10214000606C994023691940039B19430AF00FFE04
:10215000A27B072AACD8637B0C495B006373531CDA
:10216000DBB290004158A373022A03D808000AF09A
:1021700033FD96E7064B2000236300236363054B82
:10218000E462236414300AF0F7FB91E7B8D2000050
:102190009D200000BFAA000070B50400104B250070
:1021A00008330360FFF728F8200074300AF030FA93
:1021B000200060300AF02CFA2000583008F0C4F9F2
:1021C0002000503008F0C0F9064B14352800636138
:1021D0000AF0C0FB280002F09FFA200070BDC04644
:1021E000D8D2000054D40000F8B500250400324BCA
:1021F0008580083303608571143016000F0002F0EB
:1022000075FA20002D4BE562636125645030FFF7BD
:1022100011F820005830FFF70DF82000603001F071
:10222000EDFF20000423F25E33682667590009B2EF
:1022300074300AF00BFA3368226FE3717368012679
:10224000237210236581A7802561D35691685918A0
:10225000994204DD3000984001330543F8E711232B
:102260000120D356D1685918994206DD02009A40E0
:102270002669013332432261F6E71420FEF7C0FEDF
:10228000226900212A430123060002F0D7FCFF2324
:10229000220063720133A381002348326664A37372
:1022A00020001370A366FEF789FF0123A2792000A6
:1022B0001343A371F8BDC046D8D2000068D4000013
:1022C000F0B5437A040085B0002B04D1200008F05B
:1022D00001FC05B0F0BD0122837A11009C46102359
:1022E000066F0025F356039263449940029129003A
:1022F000F3680193019BAB422CDDB06873696843BE
:1023000060444000E77A1A181B5C5078E279012F8C
:1023100010D1571E3F1A18003B004243606F520015
:102320008218D2189379002B02D0039BAB4019433B
:102330000135DFE7022F07D0032FEED1277A013FC7
:10234000FF1A03003800E8E7571EFB1A277A013FFF
:10235000381AE2E71123C943F356606C99402369A8
:102360001940029B19430AF002FD667AB31EDBB2E4
:10237000FC2B14D8FEF7D0FE0B4B05002363002383
:102380000A4863630A4BFF217043E462236402F04E
:10239000A9FF29004143200014300AF0EDFA637AC6
:1023A000012B00D995E791E7D5AA0000B6030000FC
:1023B000BFAA00001FB5012381881A00684608F0F3
:1023C00018F9012368461A00024908F012F905B00D
:1023D00000BDC046FE0300001FB5030048331A7855
:1023E0000400002A0DD000221A70012381881A00EF
:1023F000684608F0FEF8012368461A00034908F011
:10240000F8F8200074300AF018F91FBDFF0300002F
:1024100010B548300378002B06D00378012B03D089
:102420000121024807F0BEFF10BDC046FF030000B7
:1024300010B501210400062007F0B4FF064B9842B6
:1024400008D148342378002B04D02378012B01D005
:1024500020BFF7E710BDC04616FCFFFF70B50500B2
:10246000141E19DB060048363378002B02D033786F
:10247000012B13D1002328001A00743001F080FFD3
:10248000002C07D02B004A331C80002407234C3536
:102490002C803370200070BD014CFBE7014CF9E744
:1024A00017FCFFFF12FCFFFFF8B50B6805005B8807
:1024B00008001700012B08D1002108F083F8002242
:1024C00001002800FFF7CAFFF8BD002A19DD2E0021
:1024D00048363378002B02D03378012B13D12B00F0
:1024E00000245C331C80043B0100180008F05BF8FA
:1024F0002B004A331F8003234C352C80200033707F
:10250000E2E70248E0E70248DEE7C04617FCFFFFCB
:1025100012FCFFFF73B5079C0500002C1CDB0600B6
:1025200048363078002802D03078012816D1069835
:102530001BB2C0B20090280012B274300AF08DF8BD
:10254000002C07D02B004A331C80002407234C3575
:102550002C803370200076BD014CFBE7014CF9E77D
:1025600017FCFFFF12FCFFFFF7B505000E00171E5A
:1025700026DDFFF74DFF2B0048331B78DCB2002B24
:1025800020D133685B88012B09D12100300008F08D
:1025900019F8220001002800FFF760FFFEBD31009E
:1025A00001A807F0F8FF3A0001A92800FFF77CFF17
:1025B00001A807F0C9FF2800FFF73AFF2000EDE768
:1025C0000148EBE70148E9E717FCFFFF11FCFFFFBB
:1025D000F8B50400171E1DDD060048363378002BC1
:1025E00002D03378012B17D12200E3795632013B18
:1025F000137023000025200054331D80503007F055
:10260000D2FF23004A331F80022328004C34258048
:102610003370F8BD0148FCE70148FAE717FCFFFFFB
:1026200012FCFFFFF7B504000F00161E18DDFFF7C0
:10263000EFFE230048331B78DDB2002B12D13900A6
:1026400001A807F0A8FF320001A92000FFF7C0FF92
:1026500001A807F079FF2000FFF7EAFE2800FEBD81
:102660000148FCE70148FAE717FCFFFF11FCFFFFF8
:10267000FF2902D84172002070470148FCE7C0469C
:1026800017FCFFFF10B50400034B08330360FEF78F
:10269000CBFA200010BDC046F0D2000070B5040097
:1026A000002516000B4BA5800833A5712360E1615E
:1026B0000800012108F0DEF9074BA680A360074B54
:1026C000A57125616561A5612000E360FEF79EFAB2
:1026D000200070BDF0D20000FFFFFF7F02000080ED
:1026E00070B504000121C06908F0B8F9A2688242FF
:1026F00000DD0200E368A260834200DA0300216982
:10270000E360013121614A2917DD9B1A0C4A0D480B
:10271000A3619B1858430C4902F0E4FDC343002514
:10272000DB171840094B6061A360094B200025614D
:10273000E36008F041FB280070BD0648FCE7C04696
:1027400060F0FFFF280A000058860300FFFFFF7FAC
:102750000200008016FCFFFF82B0F0B5040089B0D3
:1027600080680F930E9208F0F7F8E06808F0F4F82C
:102770004B4906A801F0B4FD606808F00CFB059019
:10278000206808F046FBFA20012780000AF02FFAA3
:102790006068FFF721FEFF216068FFF769FF656849
:1027A000404907A8FEF736FD782207A92800FFF761
:1027B00039FF07A807F0C8FE3B4B3C4E7F4203930E
:1027C000A06808F0C5F8002834D0E06808F0C0F828
:1027D00000282FD0206808F01EFB606808F0DDFAA2
:1027E00006A907A8656809F020FF0022304B009277
:1027F00007A9019328001300FFF78CFE07A809F032
:1028000007FFFA20C0000AF0F2F9606808F0C5FA84
:10281000A06808F0A5F8E06808F0A2F805996068DB
:10282000FFF726FF06A809F0F3FE09B0F0BC08BCCC
:1028300002B018472068FFF753FF051E03D002209F
:102840000AF0D5F9F6E7206808F0E3FA01008642BD
:1028500000DD0600039B8B4200DA03910423019301
:102860000023320000932068039B08F0D9FA0490FB
:10287000874210D0606808F090FA0423049A9F1AE7
:102880003FB2606829B2FF233A007430013501F08D
:10289000BBFC052DF5D164200AF0A9F9049F8FE750
:1028A00064DD0000DBDD000002000080FFFFFF7F31
:1028B000DC050000F7B58360089B0500C3601D4B75
:1028C00001601F684260002F32D02820FEF798FB7D
:1028D0000400103007F083FE174B18202360FEF72A
:1028E0008FFB00220600154B002101920560083283
:1028F0000C3000930AF0F9FA08226946301D0AF0FC
:10290000D8FA0F4B002273611223A3803B68E26068
:10291000210038005B68A660226262629847002846
:1029200006D0200007F0C3FD282120000AF07DFA20
:102930002800FEBD64060020220004005927000084
:102940003DAE0000F0B51F0085B00AAB1B78040057
:10295000039300933B000D00160009F02EFF0028A2
:1029600033D0237D082B2DD8236800221900FC3199
:102970008A62A021C9005A50154905205A500138D1
:10298000C046C046C046C046C046C046C046C04617
:10299000C046C046C046C046F1D1236801325A50F5
:1029A000A0210432C9005A5002F0B0FA039B320051
:1029B000009329003B00200009F0FFFE237D013336
:1029C0002375CCE7034805B0F0BD2075FBE7C04692
:1029D000FC0F00000EFCFFFFF0B51F0085B00AAB36
:1029E0001B780400039300933B000D00160009F0D0
:1029F000CCFE002833D0237D082B2DD8236800225D
:102A00001900FC318A62A021C9005A5015490520DD
:102A10005A500138C046C046C046C046C046C046AF
:102A2000C046C046C046C046C046C046F1D1236835
:102A300001325A50A0210432C9005A5002F066FAFD
:102A4000039B3200009329003B00200009F09DFE0B
:102A5000237D01332375CCE7034805B0F0BD207515
:102A6000FBE7C046FC0F00000EFCFFFFF8B50D1E93
:102A70002FD000260227C468002C27D0AA88A3885C
:102A800053403B4220D13A4215D1A368AA689342F1
:102A90001AD12B88002B02D022889A4214D16B883D
:102AA000002B02D062889A420ED1A2880A4B0136CE
:102AB0001343A38008E0A968A06808F0F0FE00288E
:102AC000E7D1AB883B42E0D0646AD5E72000002E16
:102AD00000D10248F8BDC0460080FFFF17FCFFFF91
:102AE000F0B506000D0085B0002959D00127C46853
:102AF000002C23D00221AA8800230A4202D0A388F6
:102B00005B083B40226829688A4211D1A068A96805
:102B1000002B0BD008F0C3FE002809D00421625E10
:102B2000A388002A06DB1F4805B0F0BD8842F5D017
:102B3000646ADDE75B045B0CA380F4E7F0682A8835
:102B40000100031E07D1F56001236846164907F00E
:102B500050FD0020E8E71C88944206D25C6A190008
:102B6000002C0DD02300F6E723001C88944207D1E7
:102B70005F886C88A74203D25C6A1900002CF3D1ED
:102B8000814209D10B889A4204D305D14C886B88C5
:102B90009C4201D96862D6E74B6A6B624D62D3E70B
:102BA0000248C1E716FCFFFFFD03000017FCFFFF12
:102BB000064B10B51A00040008322C330260436043
:102BC0000430FEF731F8200010BDC04608D30000E5
:102BD00008B4024B9C46043808BC6047B12B000087
:102BE00008B4024B9C46043808BC6047B3AF0000F1
:102BF0000C4A002311002C32083110B50381837276
:102C00004260C36003614361438301600400043098
:102C1000FDF7FCFF044B1A68002A00D11C6020005D
:102C200010BDC04608D3000064060020F7B50D00B3
:102C30000126C4680192002C37D023882A889A4242
:102C400001D0002B24D163886A889A4201D0002BDE
:102C50001ED1FDF791FF0123002806D0C022A388D2
:102C60001340C03B5A425341DBB2019A93421AD1FE
:102C70000422A35EA788002B15DB10222900A018D0
:102C80000AF017F940231F4204D0200008F09BF9F6
:102C9000646AD0E7FDF770FF0028F6D021000448F1
:102CA000FEF7EEF8F4E70026F2E73000FEBDC0467E
:102CB000C7AF000008B4024B9C46043808BC60470C
:102CC00055B10000F0B587B001930EAB1B8806002C
:102CD00003930D9B0D000093019B0C9F0292002B10
:102CE0003DD0002F02D1009BDB0738D52820FEF70E
:102CF00087F90400103007F072FC029B2580638086
:102D00001820FEF77DF90500009B08220593019B22
:102D1000002103600C3004970AF0E7F8082204A9A8
:102D2000281D0AF0C6F80F4B02226B61002303999D
:102D3000E3602362636233680A43300021005B680A
:102D4000A560A2809847002807D0200007F0AFFBBD
:102D5000200028210AF069F8034807B0F0BD0348B5
:102D6000FBE7C04693B1000016FCFFFF17FCFFFF16
:102D7000F0B5160000258380164A174B04008571B4
:102D8000026001814681057318688C4689B0A842AB
:102D90001DD0124A05950492C02202926A4604ABE5
:102DA00082CB82C223002A006146FFF78BFFC0223C
:102DB000094B0A49186802926A46069106AB0795C4
:102DC00082CB82C223002A003100FFF77BFF200064
:102DD00009B0F0BD4CD3000064060020BDB2000075
:102DE00030B5002403730123034D05608471818095
:102DF00082734373846030BD64D3000080B584B0B7
:102E000000AFD74A86235B000021D150D54B1A680A
:102E100082235B00D358FB60D34B1B78DBB2033BB0
:102E20005A425341DBB2002B44D0CF4B01221A70DF
:102E3000FB686E22002118000AF057F8C94B1A6887
:102E400082235B00D358C64A1900C84BD150C44AEC
:102E500088235B00D3585A425341DBB2002B00D089
:102E6000F5E7BF4AAA23DB00D3581A00C04B1A600B
:102E7000BF4B1B685A1E9341DBB2002B02D065206A
:102E8000FDF792FCB64B01225A60FA23BB60BB6887
:102E90005A1EBA60DA17D31ADB0FDBB2002B00D050
:102EA000F5E7AF4B01229A60B24B1B685A1CB14B3D
:102EB0001A6051E1AC4B1B78DBB2013B5A425341E3
:102EC000DBB2002B00D1F4E0AB4B1B78012B00D020
:102ED00095E0AA4B1B685A1CA84B1A60A04A802395
:102EE000DB00D358013B5A425341DBB2002B51D097
:102EF000FB685B790F221340DBB2002B4FD0FB68DD
:102F00005B791B071B0FDBB20F331A1C0F23134017
:102F1000DAB2FB680F210A4010005A790F218A4368
:102F2000111C021C0A435A718F4B03221A708C49E0
:102F3000FB688E4A8B508A4AAA23DB00D3581A00BA
:102F40008B4B1A608A4B1B685A1E9341DBB2002BD5
:102F500002D07D20FDF728FC814A88235B000021F8
:102F6000D1507F4B01221A600120FDF709F9FA23A5
:102F70007B607B685A1E7A60DA17D31ADB0FDBB2EC
:102F8000002B00D0F5E70020FDF7FAF8744B012282
:102F90009A60E1E07A4B1B685A1C794B1A607049C1
:102FA000FB68724A8B506E4AAA23DB00D3581A0082
:102FB0006F4B1A606E4B1B685A1E9341DBB2002B9D
:102FC00002D0AA20FDF7F0FB654A80235B000021B8
:102FD000D150634A88235B000021D150604B01220D
:102FE0005A605F4A80235B00D3585A425341DBB298
:102FF000002B00D0F5E75A4B01229A60ACE0584A0A
:103000008023DB00D3585A425341DBB2002B04D05B
:103010005B4B1B685A1C5A4B1A60584B1B685A1C56
:10302000564B1A604E49FB68504A8B504C4AAA23B3
:10303000DB00D3581A004E4B1A604D4B1B685A1ECA
:103040009341DBB2002B02D0BA20FDF7ADFB444A1E
:1030500080235B000021D150414A88235B0000217E
:10306000D1503F4B01225A603D4A8023DB00D358A8
:10307000013B5A425341D9B2394AA923DB00D35804
:103080001A00FB681800FDF777F9FB686E22002133
:10309000180009F02AFF324A80235B00D3585A42B5
:1030A0005341DBB2002B00D0F5E72D4B01229A6093
:1030B00052E02D4B1B78DBB2023B5A425341DBB24C
:1030C000002B49D0284B01221A70264B1A68822304
:1030D0005B00D358224A1900244BD150204A882340
:1030E0005B00D3585A425341DBB2002B00D0F5E7C6
:1030F0001B4AAA23DB00D3581A001D4B1A601C4B35
:103100001B685A1E9341DBB2002B02D0F620FDF75C
:103110004BFB134A88235B000021D150104B012246
:103120005A60184B1B685A1C164B1A600020FDF79A
:1031300027F8FA233B603B685A1E3A60DA17D31A25
:10314000DB0FDBB2002B00D0F5E70120FDF718F80C
:10315000034B01229A60C046BD4604B080BDC04604
:10316000001000407C0600207800002004050000CC
:10317000800600206C0600204E10002078060020FB
:10318000740600207006002073B504000026019329
:10319000284B0D0008330360868086710092C16061
:1031A00001222100103000F03DFA2000210002220F
:1031B000303008F036FA200021000322543008F0A5
:1031C00073FA019B2000A380009B3100E371230070
:1031D000FC33A671268150229E605C3009F085FE8A
:1031E00023002000AC33502231001E80B03009F0A3
:1031F0007CFE2300FE335E802B6828009B69984785
:103200002B6828001B690C4998472B68310028005F
:10321000DB6998472B68280003215B6B98472B6874
:10322000042128001B6B9847FDF790FB034B2000FF
:103230001C6076BD74D3000047B400007C060020FB
:103240007FB506000391FF360400B07814210130E9
:1032500002F02EF96B4602911B7A01937378019A62
:1032600093421AD06E20FDF7CBFE05006E2200219E
:1032700009F03BFE03996E22280009F01AFE02991C
:103280002C3189000D5172B6019BB37062B60020DB
:10329000637A0133637204B070BD0148FBE7C04636
:1032A00013FCFFFF7FB5019083790020DB0700D579
:1032B00089E007F023F8002800D089E0019DFC3563
:1032C000AE68002E08D16E30FDF79AFE04006E2223
:1032D000310009F00AFEAC60AC68002C00D179E046
:1032E00000223D4B01215A608022D20511605A68AC
:1032F000002AFCD000220120384B39495A5058503E
:103300000620384908563849585007200439585083
:1033100008315A50354A1178354A032955D1354973
:10332000995000223449A6205A503449C0005A50BE
:10333000012119500820844665463148314E1D5000
:10334000314D04301D500220304D5851304D5E51EA
:10335000304E043D5E5107262F4D5E512F4D304EAD
:103360005C51304C626022612F4A12241268FC3298
:1033700092685A51802292009C502C4A133C117042
:10338000C22292009C506446C025043A9C50284AB0
:103390007934FF341051AD00545934405451106009
:1033A000FA2259600392039A511E0391002AFADC13
:1033B00001229A60019B9B791A43019B18009A7124
:1033C000FDF724FC002004B070BD1A499950A8E70D
:1033D0001948F8E71948F6E7FC00004000100040E3
:1033E000FC0F0000FBDD00000C0500004E1000206B
:1033F0001C05000074696275240500002C0500009E
:1034000014050000FFFF0000640004023405000002
:103410003C050000211001005405000004050000D7
:10342000FF00FFFFFC1000407C0600207800002019
:1034300000E100E07569627516FCFFFF13FCFFFFF9
:1034400070B5040006F05AFF011E14D1A3790125BE
:10345000180028402B420DD00220084AD067084AA5
:10346000516108490D6151690029FCD001220020F9
:103470009343A37170BD0448FCE7C04604E100E03B
:10348000FC1000400010004016FCFFFF7FB5040058
:103490002E4D2F4B2A781B789A422ED0287828213F
:1034A000013002F005F82600CBB203932B78294AAD
:1034B0009B009B58103601932B7830009B009B5843
:1034C000029308F0A6F8019B1B0CDBB2984204D1D2
:1034D0006B463000198900F0D7F8039B2B70D7E7B3
:1034E0002500B37830352800019308F0CCF8019B13
:1034F000834215D1280008F0A2F8200007F069FFE8
:10350000061E22D02500837810352800019308F08C
:1035100080F8019B8342E3D1280000F0EBF8ECE750
:10352000250054352800B67808F0D7F8864203D134
:10353000280008F0BEF8E0E7200007F05EFF002852
:10354000DBD06E2109F071FCD7E77FBD4F10002062
:103550005010002084060020014B00201970704795
:103560004E10002070B586B002920122274B284EE3
:1035700003911A6101937369002BFCD00025254B40
:10358000254A019975616E20CA50FDF739FD6E22FA
:103590002900040009F0A9FC2048FDF7AFF90F222B
:1035A00083B2E07020001B0A2371029BA5710933CE
:1035B0002370637AE571934363722572029A0399CB
:1035C0006570A57065710A3009F073FC019A144B9F
:1035D000D4500123019A35611360F9330593059B9B
:1035E0005A1E0592002BFADC0123019A9360084BC6
:1035F0001B69002BFBD00025054B20006E211D61AF
:1036000009F013FC280006B070BDC0460010004051
:10361000FC1000401C05000074696275FFFF00008B
:103620000405000070B5040000250D4B85800833AB
:1036300085710360816021001830160007F0EBFFF0
:10364000200021001C3008F020F8064B267325616D
:10365000656120001D70FDF7B1FD200070BDC04602
:103660008CD300005110002070B580250A000100A5
:10367000044CAD00231DDD67143107F0F7FE256013
:1036800070BDC04600E100E070B5050010350A00CD
:103690002900040007F013FF8022144B9200DA6720
:1036A00000281DD003681A00197B0A32090710D5BB
:1036B00052789B7A1202200029001A4307F0D6FEA6
:1036C000041E05D007F0C8FE0C21200009F0ADFB58
:1036D00070BD0122037993431A000223134303713F
:1036E0008022034B92001A60F2E7C04604E100E03A
:1036F00000E100E0F0B5040089B0806807F07DFECD
:103700000600C77A837A3F021F434378050002937D
:1037100083783A00039300932000029B2F490A36D6
:1037200007F04DFF00281CD1A3685B7A0C2B18D83A
:10373000039B20000193029B294A284900933B00E8
:1037400007F04FFF21007278AB7A12021A43200073
:10375000103107F08BFEA37907009B0707D40028E0
:1037600035D16E21280009F060FB09B0F0BD0028BA
:103770002DD10C20FDF744FC0700002321003A0066
:103780007B60BB60143120003D6007F08AFE7278D8
:10379000AB7A12021A431349012304A806F029FF49
:1037A000B3789B0707D020007178AB7A09021943E0
:1037B000183000F019F8B3785B07D6D5200071787F
:1037C000AB7A090219431C3000F01AF8CDE73868CB
:1037D0000028D2D06E2109F028FBCEE72407002074
:1037E00051100020F4F500001FB50A0001236846BF
:1037F000024906F0FEFE05B000BDC046F5F500002A
:10380000F0B5006887B007F000FF3F2203680500AD
:103810001C7B94433BD11A0019780D320D392300DB
:10382000C9B2684608F066F82100684600F096FCC8
:10383000012187B2684600F091FC2300174A86B246
:1038400099005458002C24D0E188B94221D1A18894
:10385000B1421ED10222694602A808F07EF820007B
:1038600002A9083006F09FFE02A806F06DFE0123B3
:1038700032000B4902A806F0BCFE280007F0ECFD60
:1038800028000C2109F0D1FA684608F03AF807B090
:10389000F0BD01330A2BD3D1EFE7C04680070020EB
:1038A000F6F5000010B5002903DB024B196009F0A2
:1038B0002CF810BD7407002070B504001D0004AB87
:1038C0001E8800F0CFFE20000E4B40302360FDF735
:1038D000B1FC2300220001354C331D800023E1217F
:1038E0005832013616800A3AA36463651380538008
:1038F0009381D381013B200063644902FFF7D2FF2B
:10390000200070BD98D10000F7B580277F053E6983
:103910007C690822113C744305002100684609F0C7
:10392000C8FA104B009A9A4219D0009300230193D1
:10393000796928001339714307F0D1FE019A2800F4
:10394000009907F0E4FE2100280007F0C8FE79691D
:103950002200133928007143B30807F0CAFE01980A
:10396000FEBDC046FECA0000F0B50D00ABB00021A0
:103970000D920700302212A81E0009F0B6FA2800A6
:1039800009F0F3FA431C0C93102B00D9B9E0202E58
:1039900000D9B6E02900380007F0E6FE0B900028B9
:1039A00054D129000C9A12A809F083FA32000D991B
:1039B00016A809F07EFA80235B051A695D690B92EF
:1039C000113D6A4338005E690D92FFF79DFF0D9B24
:1039D00030220833002104001EA80F9309F085FA55
:1039E00031000B9B13395943380007F078FE002350
:1039F0000F9E0C930E930C9BA34247DA31003022AA
:103A00001EA809F056FA12A91EA809F0A4FA002867
:103A10002CD13E49380022001091119407F077FE16
:103A20006A46099615AB23CB23C223CB23C223CBF3
:103A300023C23800149B1299139A07F076FE0123D3
:103A40000E930C9B303601330C93D4E70B980D99F1
:103A50003200103009F01FFA302104000B9809F0F1
:103A6000E4F9002C9DD120002BB0F0BD6A460996E8
:103A700021AB23CB23C223CB23C223CB23C23800C9
:103A80001E991F9A209B07F050FEDAE7E64330218B
:103A9000F61726404E430F9B9E190E9B002B1CD100
:103AA0000B9B981E01F094FBA0422CD017490134C7
:103AB000380022001091119407F029FE6A460996F9
:103AC00015AB23CB23C223CB23C223CB23C2380085
:103AD0001299139A149B07F028FE38000D9907F0ED
:103AE000FEFD80235B0559690C230B9A1339634350
:103AF0004A433800110002330D9A07F0FAFD002402
:103B0000B1E7034CAFE7034CADE7C046FECA000087
:103B100017FCFFFF13FCFFFF70B50400A280FA2220
:103B2000002308000D49920008312160A3710C495F
:103B30006061E260A360638207F016FE051E0AD092
:103B40000100200010310222123009F0B2F93021B8
:103B5000280009F06AF9200070BDC046A4D3000017
:103B6000E7DD000030B502258379040087B02B42E1
:103B700004D1FDF74BF8A3791D43A571200007F090
:103B80003BFE00281CD06B46DD1C280007F02AFEF7
:103B90002B78002B17D001A807F022FE0321019AF1
:103BA000D3170B409B189B102382FDF7EFFAE368B5
:103BB000A18818180123A0601A0002A806F019FDB8
:103BC000002007B030BD0122064B1A60064A51683A
:103BD0000029FCD000215160044A126801920122A0
:103BE0005A60DBE700C00040FCC0004008C5004050
:103BF000022802D10122014B1A7070475210002096
:103C000070B5064D04002B78002B04D1044800F059
:103C10004BFC01232B70200070BDC04653100020C8
:103C2000F13B000070B50C0006F068FB002810D0D6
:103C30000023144DA40A2B70200007F0F1FD00288A
:103C400003D00A2008F0D3FFF6E72B78002BFCD036
:103C500070BD02210C4B0D4A99508021C90008000B
:103C60005D58002DFCD0A121C9005C5019580029D5
:103C7000FCD0002199508021C9005A58002AFCD05C
:103C8000E6E7C0465210002000E0014004050000B5
:103C9000F8B50C0015001E0006F030FB002811D00E
:103CA0000023174F3B7032002900200007F0B6FDBB
:103CB000002803D00A2008F09AFFF4E73B78002B95
:103CC000FCD0F8BD01220F490F488C46425080229B
:103CD000D2008358002BFCD080270023FF009E4297
:103CE00007DD9A00A958A150C259002AFCD001331F
:103CF000F5E7002362468350C359002BFCD0E0E770
:103D0000521000200405000000E00140002370B5BF
:103D1000180001241D0009499A005218516C00290D
:103D200004D0210099400843C0B255640133042BEC
:103D3000F1D1034B1B68984770BDC046FC80004022
:103D400078070020014B0020196070477807002099
:103D50001F22037A13401E3A11009940024BD96783
:103D6000C36800205A60704704E100E0C268024B5B
:103D70000020D1507047C0460405000010B5C3793B
:103D80008B420FD90B005133C068FF339B001A5090
:103D90008023C1225B028B409200845823438350CE
:103DA000002010BD0048FCE717FCFFFF30B5C379C9
:103DB00014008B4211D9A825C0688B00C318ED00F0
:103DC0005A5912195A518023C1225B028B4092002A
:103DD000845823438350002030BD0148FCE7C0468F
:103DE00017FCFFFF10B5C3798B420AD98023C2228A
:103DF0005B028B40C06892008458234383500020AC
:103E000010BD0148FCE7C04617FCFFFF092905D893
:103E1000A223C2680020DB00D15070470048FCE7B5
:103E200017FCFFFF70B5040008201E49205600F063
:103E30009FFC0822A256002A20DA0F231340083BD9
:103E400019499B089B005B180321FF251140C900FD
:103E50008D40D869A84340258D4029000143D96190
:103E60001F231A401E3B1900C02091400F4A4000FA
:103E700011501160E2680020136070BD0B49930877
:103E80009B005B180321FF26C0251140C9008E400E
:103E9000AD005859B04340268E403100014359517E
:103EA000DEE7C0460D3D000000ED00E000E100E06F
:103EB00010B50024C371044B0833848084710360FF
:103EC000C160027210BDC046BCD3000010B5040032
:103ED000054B083303601C3006F036FB2000183019
:103EE00006F032FB200010BDFCD30000F0B5837952
:103EF000040091B05B071BD5FDF748F90023226948
:103F0000801A9941994203D1F533FF3398420FD378
:103F1000A068002808D0364B1D8808F02EFC0368E6
:103F2000152229001B6A98470422A3799343A371A1
:103F3000A3799B0759D52F4E3368DB68002B50D0EF
:103F40002D4F3B78032B4CD8294B2C491B8804A8B8
:103F50000193FDF75FF9336804A9DD6808A806F04E
:103F60001AFB08A9280007F02FFC050008A806F096
:103F7000EBFA082302AAD3800198073B063206A970
:103F800007F06CFC002D09D029002022103108A870
:103F900008F08FFF3021280008F047FF3D7802AB82
:103FA000DA88ED0008AB5D19280006A908F073FF58
:103FB000002813D00822280006A908F07AFF3368E9
:103FC00004A9DD6805A806F0E6FA2023280008AA5F
:103FD00005A907F0FFFB05A806F0B6FA04A806F04D
:103FE000B3FA0222A3799343A37111B0F0BDC04686
:103FF000780800207C07002079000020EFDD000019
:1040000070B5002504000A4B858008338571036074
:10401000C1601830FDF70EF920001C30FDF70AF9D9
:10402000044B20001C600123A5606561A37170BD75
:10403000FCD300007C070020002815D00060416000
:104040008260C360046145618661C7614446046261
:104050004C464462544684625C46C46264460463CF
:104060006E46466374468463002A06D0C46B043CE3
:10407000043A25681560B442F9D18C6BA6464E6BA4
:10408000B546002B06D0CC6B043C043B1D68256074
:10409000B442F9D10C6BA446CC6AA3468C6AA24602
:1040A0004C6AA1460C6AA046CF698E694D690C69BD
:1040B000CB688A6808684968704700604160826020
:1040C000C360046145618661C761444604624C4631
:1040D0004462544684625C46C462644604636E462D
:1040E000466374468463C46B043C043925680D60E0
:1040F000B442F9D1C76986694569046970470060AF
:1041000041608260C360046145618661C761444665
:1041100004624C464462544684625C46C46264460F
:1041200004636C4644637446846304697047846B1B
:10413000A646446BA546046BA446C46AA346846A9B
:10414000A246446AA146046AA046C76986694569D1
:104150000469C368826800684168704707B507F062
:10416000D7FB011E09D003789B0706D50422013135
:1041700001A808F09EFE01980EBD0148FCE7C0466C
:1041800017FCFFFF10B50400100048436160A260F7
:1041900000280BDD074B984205DC8000FCF730FF60
:1041A0002060200010BD01204042F7E7002323607B
:1041B000F7E7C046FEFFFF1F4A688B6870B5836053
:1041C000534304000D004260002B12DD0A4A9E009A
:1041D0003000934201DD01204042FCF711FF002333
:1041E0002A682060D158C1500433B342FAD120006C
:1041F00070BD00230360FAE7FEFFFF1F014B036061
:104200007047C04614D4000030B500684488A1420D
:104210000CDA8588AA4209DA002907DB002A05DBC7
:104220006243401880188371002030BD0048FCE7CD
:1042300017FCFFFFF0B507000E001D0085B0002938
:1042400021DD002A1FDD002B1DD004686388039345
:104250008B4200DD0391A3880293934200DD02921A
:10426000002306340193019B029A93420ED0290049
:104270002000039A08F01DFE3B68AD195B88E41826
:10428000019B0133EEE7024805B0F0BD0020FBE7DB
:1042900017FCFFFFF8B504000D0016001F000029F1
:1042A00001DB002A02DA0D4B2360F8BD1000484301
:1042B0000630FCF7A5FE206006F0E8F923685D8073
:1042C0009E80002F06D03B00320029002000FFF71F
:1042D000B1FFEAE7200008F0B0F9E6E714D40000E7
:1042E000F7B507000D1E03D1244B03603800FEBD57
:1042F000002408002600210001940378002B1AD026
:104300003022524294469C446246092A11D90A2B13
:104310000AD1019B361901330193B14200DA310011
:10432000002426000130E8E7002CFBD000240136F1
:10433000F8E70124F6E70126019A380012B209B223
:104340007642FFF7A7FF31000A203B689A1D2C78C0
:10435000002CCBD02300303B092B08D8F343DB17CC
:10436000334043431B19303B1E000135EFE7731CFC
:10437000FBD016700E000132F7E7C04614D40000DF
:10438000F0B5050087B004A816001C000F00FCF76C
:10439000BFFD2B685A88964235DA9B889C4232DAF8
:1043A0001F2F30D9059B01939F422CDC0521203F14
:1043B0004F430499621DCB19019323000392019A84
:1043C0001278029200222C68B7186088B8420DDD7E
:1043D000A1888B420ADAE419102717415843029941
:1043E00024180F40781E87417F42A7710132052AA9
:1043F000E9D1019A013301320192039A9342DED14D
:10440000002007B0F0BD0148FBE7C04617FCFFFFE6
:10441000F7B5036806009F1D5B880D005A1A0192CC
:10442000002919DD0024994203DB08F006F9002079
:1044300013E033689B889C42F9DA79193800019AB5
:1044400008F037FD019B2900F81808F0E8F83368F8
:1044500001345B88FF18ECE70048FEBD17FCFFFF46
:1044600010B50548054C206006F013F92000044AF9
:10447000044908F0D3FC10BD14D40000A8070020A4
:104480000000002011C60000436810B50400002B96
:1044900002D1044808F0DEFA606803681B69984797
:1044A00010BDC04603DE0000014B18607047C046D7
:1044B000AC07002080B2002807D1BFF34F8F034B19
:1044C000034ADA60BFF34F8FFEE7704700ED00E06C
:1044D0000400FA05F0B5224B85B01B78DAB20192E0
:1044E000002B3BD01F4D204E2B685C425C41326854
:1044F000E4B2002A2CD003A808F043F905282BD0F9
:10450000002819D000221100FFF7D4FF002CF2D1AF
:10451000164B03A91B880B80154B1F68380008F049
:1045200032F9052810D000280AD000221100FFF728
:10453000C1FF002CECD1DEE7039833689847E5E72C
:1045400038002B689847F4E7002C07D1019CD2E78C
:10455000002B03D0019CDBE7002CFBD005B0F0BDA5
:1045600054100020B0070020B80700207A0800206F
:10457000BC070020074B10B51B68002B07D09847DD
:10458000002803D000221100FFF794FF10BDFFF7B1
:10459000A1FFFBE7B40700200120054B10B51A78F6
:1045A00050401870034B1B68002B00D0984710BD7B
:1045B00055100020C007002070B504000D00160043
:1045C0000021102208F091FC054B32002900200048
:1045D000236100F08BFA034B20001C6070BDC046C5
:1045E000A0860100C407002070B5054D04002B68AB
:1045F000834203D0016900F031FA2C6070BDC046DF
:10460000C407002010B50400034B083303601C30BE
:1046100000F09CF9200010BD1CD4000070B505000E
:1046200004000E4B0E00083308C528001822002194
:1046300008F05BFC002320003100094AE36123629B
:104640006363A363E3641C30230000F04FF9280088
:10465000310008F028FA200070BDC0461CD40000CC
:1046600027C8000010B5040000F006F8014B200038
:10467000236010BD34D400000C4B70B503600023E0
:1046800043608360C36003624362836396230400D4
:104690009B01051DC363280000F034FB28002200A5
:1046A000034900F0C1FB200070BDC04644D40000A7
:1046B000CFC8000010B50400044B0833036008F0B5
:1046C00049F9200000F028F8200010BD4CD400006B
:1046D00010B50400044B036008F03CF9200000F022
:1046E0001BF8200010BDC04654D40000084B10B584
:1046F00008330360002343608360C360040000F05C
:104700002BF80449206108F0FEF9200010BDC046D6
:1047100074D400002FCA000010B50400034B083306
:10472000036008F091F9200010BDC04674D4000069
:104730000300074A1068C318EFF308818B4205D3C2
:104740000C220120034B40421A6070471360FCE7C3
:1047500008000020881000200048704788D400001E
:1047600010B5024808F0D8F910BDC04688D4000042
:10477000024B8000C01801607047C0464000001026
:104780000848026803210A4302600749074A084BA8
:104790009B1A03DD043BC858D050FBDC054880471A
:1047A000054800472405004078DE00000000002096
:1047B000980000201951000009010000FEE7FEE703
:1047C000FEE7FEE7FEE7FEE701704B1C0AD001237F
:1047D0008B404360044BC360044B0361044B436153
:1047E000044B83607047C046080500500C0500501C
:1047F0001005005014050050F7B5A223A022DB00DD
:10480000D205D358BE220193314B5200995800294A
:104810003FD0C1218900595800293ADA0024E02507
:10482000C0269C50ED00B6022A4BA700F85800287D
:104830002CD0294BE35C002B17D0019B0121E340D6
:104840000B4227D02300A022C133FF339B00D205A7
:104850009B589B039B0F032B1CD0204B1B68E340F2
:104860000B4217D01E4B1B689847A023DB05FF188F
:104870007A5932420AD07A591A490A407A51019A31
:10488000E240D3071FD57A5932437A5101341F2CA5
:10489000CAD1F7BD019B0122E3401342E5D12300B9
:1048A000A021C133FF339B00C9055B589B039B0FBD
:1048B000032BDAD10C4B1B68E3401342D5D0084BD5
:1048C00002211B68D0E78022795992020A43DCE773
:1048D00000600040D007002056100020540800203F
:1048E0004C080020FFFFFCFF5008002030B50400FA
:1048F00008004D1C1CD00F4821600260BE22002021
:104900000D4C5200A0500D4A8D00AB5001220C4BB3
:104910005A54C122802392001B06A350094B0A4C13
:1049200099580C40C02109042143995040221A6033
:1049300030BDC0464C08002000600040D007002079
:104940005610002000E100E0FFFF00FF0021036897
:10495000014A9B0099507047D00700209446A0223E
:10496000F0B50468E020D205A300C0009B181A58D7
:104970001E4D1F4E2A401A5060461E4D32682F6849
:10498000002822D0012919D1A1401143316031689A
:104990002A6801200A43E24002420ED0A021A2224E
:1049A000C905D2008958F132E140FF32014219D0E5
:1049B000C0219858890201439950F0BD0229E6D1DF
:1049C0000120A04038432860E1E7012903D1A1403C
:1049D0008A433260DBE70229D9D10120A040874316
:1049E0002F60D4E780219858E4E7C046FFFFFCFF22
:1049F00054080020500800200368074A9950074ACD
:104A0000FC33196A002902D0002018627047013A6D
:104A1000002AF6D10120F9E71C050000A18601005B
:104A200010B50368002A03D080220220920098501B
:104A300001221C001A62084AFC34E068002806D0F3
:104A40000020A322E060D2009B580B7010BD013AF9
:104A5000002AF2D10120F9E7A186010010B50B4C24
:104A600002680B4BA14205DC0A498160CC21490454
:104A7000D15010BD084CA14204DC0849816080215E
:104A8000C904F5E706498160CD21F9E78FD003001D
:104A900024050000A08601007F1A060090D00300C4
:104AA000801A060070B50400080019001300A02544
:104AB000C026C133FF33F600ED059B005E510300B5
:104AC000C133FF339B005E51A1252368ED005A518D
:104AD000054A98502000FFF7C1FFA0230521226856
:104AE000DB00D15070BDC0460C050000F8B50E00CB
:104AF0001500040000F00AFA264AF1B21378D8B281
:104B0000012B1DD153788B421AD19778EBB29F427B
:104B100016D16073204B19000022FC3123606571AF
:104B200026718A62A021C9005A501C4920005A509F
:104B300001325A502A003100194BFFF7B3FFF8BD7C
:104B4000184BE8B21F78012F09D15F788F4206D148
:104B50009F78874203D102236373134BDBE71778F7
:104B6000002F05D101231370637351709070D1E74A
:104B70001A78002A04D101321A7059709870EAE745
:104B80000A4807F067FF0023FC2223606571267145
:104B90009362FFDE7510002000300040FC0F000023
:104BA000A0860100791000200040004026DE0000B1
:104BB000036800221900FC3110B58A62A021C900E7
:104BC0005A5006495A5001325A5005220421825641
:104BD00041568368FFF766FF10BDC046FC0F00001A
:104BE000036800211A00FC3210B59160013159614F
:104BF000074B9168002905D000240473FFF7D8FF04
:104C0000200010BD013B002BF3D10120F9E7C04685
:104C1000A1860100036810B51900FC318A6A0020E2
:104C2000012A08D1044C1C5988625A610238A40731
:104C300001D40120404210BDC40400000261064AB4
:104C400010B54260054A01738260054A190002608E
:104C500008F06AF810BDC046040500501005005069
:104C600000070050A820012110B5124A124B1488E9
:104C7000C00059601C50548810481C509088A922CC
:104C8000D20098508022082092009850802009324B
:104C9000FF32000398500A4A1078A222D20098509E
:104CA000084A1088084A985000221960FC331A6597
:104CB00010BDC0467200002000A000404405000066
:104CC0007A000020700000204C050000012310B580
:104CD0000A4ADC0014598C4207DD013BDB00D31883
:104CE0005A680168064BCA5010BD0133112BF0D130
:104CF00080210268024B4905D150F5E7A4D4000099
:104D000024050000F8B50F0016000122244BBA401C
:104D10000360A023234CDB05195905000A431A51EF
:104D20008022195912060A430121B1401A511A5919
:104D30008A4396211A511A598901520052081A5170
:104D4000FFF7C4FF002204202B6817495A506C3922
:104D500058500121996019601900FC31CA6013494B
:104D60005A506A6014391F325A5011495F5009185D
:104D70005A501E517B1C03D00321380007F0C4FF9A
:104D8000731C03D00321300007F0BEFF0122094B42
:104D900029001A600848073208F08BF8F8BDC046B1
:104DA00000200040140500006C0500001C050000F8
:104DB0000C0500006008002080100020962310B52C
:104DC000DB00994202DDFFF781FF10BD9E210268E2
:104DD000014BC902D150F8E724050000C1230E4A57
:104DE0009B00D15810B5090603D50C49096A002962
:104DF00008D1D3585B0704D5084B0021DB68002B92
:104E000001D110BD0121064B18680028F9D0054BCF
:104E10001B689847F5E7C04600200040FC20004092
:104E20005C08002058080020034B196043680349C0
:104E30009B00CA507047C046580800205C080020FC
:104E400003681A00FC32106A0128FCD100201062AD
:104E5000014AC9B2995070471C050000A023F0B563
:104E6000274FDB00FA5885B001920022A024FA50A7
:104E7000E023244AE405DB00E658E2507833E158A9
:104E800001250291E250A1238022DB00D205E250ED
:104E90000420E55007F075FFA222D200A358039723
:104EA0009B0F2B4227D0A3582B4224D00120A023B4
:104EB000E0220299DB05D2009E5078329950A0235F
:104EC000039A0199DB00D15005B0F0BD0E4B0420D0
:104ED000EF5007F056FFA123DB00EF50042007F04E
:104EE00050FFA223DB00EB585B00DFD4013C002C19
:104EF000ECD12000DBE7A02513240127ED05F5E721
:104F0000004000400D0600000C050000A023E02139
:104F1000134ADB05C90010B55A5078315A50114B6D
:104F200000221900FC31CA600A62A1211E20C900BA
:104F30005A500D4A0D4C9850CC200D4A40049850C0
:104F4000A2200C4AC00014500B480C4C14500120F5
:104F50005050A0220521D2009950FFF77FFF10BDCD
:104F60000C060000004000400C05000038410040E5
:104F70002405000000F00140140500001C40004022
:104F8000012310B50D4C0E49A36480239B00CB6711
:104F90000C490D4A086D002804D0002008651168EE
:104FA0000131116009490B60A923DB001068E35847
:104FB000010C9BB20004184310BDC0460090004095
:104FC00004E100E0FC9000406408002000E100E003
:104FD000F8B50F4C636C002B0FD000270D4E6764A3
:104FE0003378BB4209D00C4B1D68FFF7C9FF2D1A5F
:104FF000BD4202DC3770FFF7B3FB236D002B05D0F9
:10500000064A13680133136000232365F8BDC046C8
:10501000FC9000407D1000206808002064080020FB
:1050200070B51B4D2878002831D10121194B1A4A3F
:10503000596050608020C005016051680029FCD093
:1050400000221649A2205A5004240121C000D96030
:105050001C5008381A501248C2261A50C12280200B
:105060009200000398508020400298500D4AB600EC
:1050700090590D4C0440C020000220439051C024A0
:10508000802064008000105110601960297070BD8C
:105090007E10002000900040FC000040040500004D
:1050A0004C05000000E100E0FF00FFFF044B10B5DD
:1050B0001B78002B01D1FFF7B3FFFFF761FF10BD95
:1050C0007E100020104B70B51B780400002B01D11E
:1050D000FFF7A6FF0D4D0E4E2B78002B02D0336844
:1050E000A34210D0FFF74CFF201A0A2803DCFFF779
:1050F00047FF0A30040001232B70A823054A3460BF
:10510000DB00A4B2D45070BD7E1000207D100020C2
:10511000680800200090004070B5224C2368DBB284
:10512000012B03D12048026813070DD08022A3234E
:105130000021D205DB00D1501C4B996001319160F8
:105140009A68002AFCD070BD1949F0230A68E0264D
:1051500015001D40324221D1164A12681A420DD163
:10516000154B164A1A608022154B12021A602368EA
:10517000DBB2012BDAD103681B07D7D1F0220B6811
:105180001340402BD2D10B4B1B681342CED180224F
:10519000C1230121D205DB00D150C7E7302DDBD080
:1051A000ECE7C046E00F00F0E40F00F0FC00004028
:1051B000E80F00F0EC0F00F004050040DFFF07C02F
:1051C000186C0040014B18687047C0466C080020FE
:1051D000002243088B4274D303098B425FD3030A36
:1051E0008B4244D3030B8B4228D3030C8B420DD349
:1051F000FF22090212BA030C8B4202D312120902D7
:1052000065D0030B8B4219D300E0090AC30B8B4214
:1052100001D3CB03C01A5241830B8B4201D38B03C2
:10522000C01A5241430B8B4201D34B03C01A524167
:10523000030B8B4201D30B03C01A5241C30A8B42AA
:1052400001D3CB02C01A5241830A8B4201D38B0295
:10525000C01A5241430A8B4201D34B02C01A524139
:10526000030A8B4201D30B02C01A5241CDD2C309AB
:105270008B4201D3CB01C01A524183098B4201D327
:105280008B01C01A524143098B4201D34B01C01A12
:10529000524103098B4201D30B01C01A5241C3088A
:1052A0008B4201D3CB00C01A524183088B4201D3F9
:1052B0008B00C01A524143088B4201D34B00C01AE5
:1052C0005241411A00D20146524110467047FFE751
:1052D00001B5002000F0F0F802BDC0460029F7D06B
:1052E00076E7704703460B437FD4002243088B4286
:1052F00074D303098B425FD3030A8B4244D3030B5D
:105300008B4228D3030C8B420DD3FF22090212BA21
:10531000030C8B4202D31212090265D0030B8B429D
:1053200019D300E0090AC30B8B4201D3CB03C01A87
:105330005241830B8B4201D38B03C01A5241430B62
:105340008B4201D34B03C01A5241030B8B4201D352
:105350000B03C01A5241C30A8B4201D3CB02C01ABD
:105360005241830A8B4201D38B02C01A5241430A35
:105370008B4201D34B02C01A5241030A8B4201D324
:105380000B02C01A5241CDD2C3098B4201D3CB01CB
:10539000C01A524183098B4201D38B01C01A52417A
:1053A00043098B4201D34B01C01A524103098B427E
:1053B00001D30B01C01A5241C3088B4201D3CB0069
:1053C000C01A524183088B4201D38B00C01A52414C
:1053D00043088B4201D34B00C01A5241411A00D2FC
:1053E00001465241104670475DE0CA0F00D0494265
:1053F000031000D34042534000229C4603098B42D5
:105400002DD3030A8B4212D3FC22890112BA030A5C
:105410008B420CD3890192118B4208D389019211DE
:105420008B4204D389013AD0921100E08909C30963
:105430008B4201D3CB01C01A524183098B4201D365
:105440008B01C01A524143098B4201D34B01C01A50
:10545000524103098B4201D30B01C01A5241C308C8
:105460008B4201D3CB00C01A524183088B4201D337
:105470008B00C01A5241D9D243088B4201D34B0052
:10548000C01A5241411A00D20146634652415B1094
:10549000104601D34042002B00D549427047634675
:1054A0005B1000D3404201B5002000F005F802BDBA
:1054B0000029F8D016E770477047C0468446081C9C
:1054C0006146FFE71FB500F053FC002801D400211E
:1054D000C8421FBD10B500F0D7FB4042013010BDDF
:1054E00010B500F045FC002801DB002010BD0120B4
:1054F00010BDC04610B500F03BFC002801DD0020C7
:1055000010BD012010BDC04610B500F0E5FB00281D
:1055100001DC002010BD012010BDC04610B500F018
:10552000DBFB002801DA002010BD012010BDC046C1
:10553000002B11D1002A0FD1002900D1002802D060
:105540000021C943081C07B4024802A14018029078
:1055500003BDC04665FFFFFF03B4684601B502986E
:1055600000F01EF8019B9E4602B00CBC7047C0467E
:105570009E2110B5C905041CFFF7D0FF002803D1F8
:10558000201C00F021FF10BD9E21201CC90500F049
:1055900053FD00F019FF80231B069C466044F2E790
:1055A000F0B557464E464546DE46E0B504000D00D0
:1055B0009246994683B08B4230D82DD0494650460A
:1055C00002F048FD29000600200002F043FD331AD6
:1055D0009846203B9B4633D45A4653469340424616
:1055E0001F00534693401E00AF423AD8AF4200D14D
:1055F00078E05B46A41BBD41002B00DA75E0002279
:1056000000230092019301235A4693400193012302
:1056100042469340009328E08242CFD900220023E3
:10562000009201930C9B002B01D01C605D600098E0
:10563000019903B03CBC90469946A246AB46F0BDEA
:10564000424620239B1A5246DA40414613004A46FE
:105650008A40170042461F43534693401E00AF4204
:10566000C4D900220023009201934346002BD9D0D5
:10567000FB0772081A4346467B080EE0AB4201D195
:10568000A2420CD8A41A9D41012024196D41002189
:10569000013E24184D41002E06D0AB42EED9013E0A
:1056A00024196D41002EF8D1009801995B4600192C
:1056B0006941002B24DB2B005A464446D3402A0084
:1056C000E2401C005B461500002B2ADB26009E40B2
:1056D000330026004746BE403200801A99410090B0
:1056E00001919FE7A342BCD883E7424620230021D3
:1056F0009B1A0022009101920122DA40019286E772
:10570000424620239B1A2A0046469A402300F34033
:10571000444613432A00E2401C005B461500002B60
:10572000D4DA42462F002023260097409B1ADE4001
:105730003B003343CDE7C046F0B54646D6464F461C
:105740004D024202C0B5520A6E0A4700B0463F0EF3
:105750004E00C40FD00094463B008246360EC90F5F
:10576000AD098C426DD0B81B814600284DDD002E5E
:1057700000D188E0FF2F5AD08023DB041D434B4625
:1057800001221B2B0ADC2B004A464946D34020222B
:10579000521A95402A00551EAA411A4353469A1A96
:1057A000530100D4B9E092019609300002F034FCB4
:1057B00005388640874200DDD4E03300C71B202037
:1057C0000137FB40C71BBE403200561EB2410027C6
:1057D0001A43530704D00F231340042B00D0043284
:1057E000530100D49CE07B1CFE2F00D19AE0920173
:1057F000520A9446DBB2D8056346E40718432043B7
:105800001CBC90469946A246F0BD002849D0F31B27
:10581000002F00D0B6E05246002A60D0013B002B9A
:1058200000D1FCE0FF2E00D0B4E00C004246002A7C
:1058300078D08020C00310434202530A9C46FF23C5
:10584000D9E7B91B002971DD002E3FD0FF2FEED024
:105850008023DB041D4301221B2907DC2A002023AF
:10586000CA40591A8D406B1E9D412A435244530130
:1058700053D50137FF2F55D001237B4913405208E0
:105880000A401A43A5E7002D2CD001235B429C4619
:10589000E1444B46002B00D1ADE0FF2F00D06EE776
:1058A000C5E7FE207E1C304260D1002F00D093E07F
:1058B0005246002A00D1B6E0002D9CD0521B500168
:1058C00000D4C3E053460C00EA1A82E7002D09D049
:1058D0000139002900D18BE0FF2FBCD1A7E70C00D4
:1058E00042463700FF2FA2D05202530A9C46FBB219
:1058F00081E7FE210137394265D1002B7ED1002896
:1059000000D1AAE0002D00D175E72A0052440027FB
:10591000530102D5554B01371A40530700D05AE7BF
:10592000D208DFE70022FF23944664E70029E0D095
:10593000F31B002F3ED0FF2E00D177E7802201001D
:10594000D20411438A4601221B2B08DC5246202137
:105950005046DA40CB1A9840431E98410243370024
:10596000521984E7414A3F1A324032E753465E1BE0
:1059700073012DD4002E00D017E70022002400234D
:10598000944638E7FF2E00D14FE780225046D204DC
:105990001043824601221B2B08DC5246202450462D
:1059A000DA40E31A9840431E984102430C00370046
:1059B000AA1AF5E6002893D0013B002B4FD0FF2E0A
:1059C000C1D1424633E7FF2FACD055446A08A4E763
:1059D00053460C00EE1AE8E65346002B28D1002D62
:1059E00000D022E78023DB039C460024FF2302E74C
:1059F0002A0052443BE753465A1BD1E6002800D107
:105A000014E7002D00D112E78023DB031A4200D1F6
:105A10000DE74146194200D009E7424607E70C006E
:105A20003700AA1ABCE6002D13D00C00C446E2E6EB
:105A3000002D00D1FBE68023DB031A4200D1F6E6FD
:105A40004046184200D0F2E60C00EFE6002A00D0F3
:105A500063E7002200249446CDE6C446CBE62A0044
:105A60003700524403E7C046FFFFFF7DFFFFFFFB07
:105A7000F0B54F464646D6464502C0B547000C1C19
:105A80006D0A3F0EC60F002F66D0FF2F6CD000238B
:105A9000EA00802599469A46ED0415437F3F60024F
:105AA0006100430A9846090EE40F002948D0FF29F7
:105AB00010D08022D800D2040243904600207F39C3
:105AC0004A4633007F1A02436C4992008A58634069
:105AD000DBB29746002B6DD10220FF3F33E000235D
