:020000040000FA
:1000000000400020954F0000D14F0000D34F00006A
:1000100000000000000000000000000000000000E0
:10002000000000000000000000000000D54F0000AC
:100030000000000000000000D74F0000D94F000072
:10004000DB4F0000B1370000ED550000DB4F000032
:10005000DB4F0000000000000D500000DB4F0000EF
:1000600035450000E557000075540000DB4F0000E7
:10007000DB4F0000DB4F0000DB4F0000DB4F0000D8
:10008000DB4F0000DB4F0000DB4F0000DB4F0000C8
:10009000DB4F0000C94D0000A54D0000DB4F000004
:1000A000DB4F0000DB4F00000000000000000000FC
:1000B0000000000000000000000000000000000040
:1000C00010B5064C2378002B07D1054B002B02D02E
:1000D000044800E000BF0123237010BDC0000020D1
:1000E000000000007CE50000044B10B5002B03D09D
:1000F0000349044800E000BF10BDC04600000000F6
:10010000C40000207CE50000164B002B00D1144BEE
:100110009D46402292029A1A924600218B460F4633
:100120001348144A121A0DF08BFA0F4B002B00D013
:1001300098470E4B002B00D0984700200021040068
:100140000D000D48002802D00C4800E000BF09F067
:10015000F1FE200029000DF075F809F0D5FEC0462B
:100160000000080000400020000000000000000027
:10017000B8000020FC080020000000000000000083
:1001800010B50400034B036040300AF079FD2000F5
:1001900010BDC046C0D80000F0B5050085B00028ED
:1001A00005D02548002904D124490CF019FF05B0D9
:1001B000F0BD23490CF014FF6C8901262300413364
:1001C000FF330C359BB2029503931E4B9C42EED835
:1001D000029B1D4F1D7839002B006A1032403340BE
:1001E0000092154822000CF0FBFEE910AB103140E4
:1001F000621C33400091104839000CF0F1FE691187
:100200002B113140A21C334000910B4839000CF0F7
:10021000E7FEAB11ED093340E21C009539000648BA
:100220000CF0DEFE029B043401330293039BA4B264
:100230009C42CAD1BBE7C046E0000020E8E10000D4
:10024000F2E10000E70300000CE2000073B518487B
:1002500000F0A0F9174C0321200003F0F5FDC8269B
:100260002000FA2403F080FC00F086F87600640099
:10027000432101A80AF021FD0F4D320001A92800F9
:1002800002F0DCF801A80AF0FBFC200000F0D8FC2A
:10029000202101A80AF011FD320001A9280002F076
:1002A000CDF801A80AF0ECFC200000F0C9FCDFE763
:1002B000DC000020E8040020C801002010B5054C37
:1002C000200000F081F8044A044920000DF052F9A2
:1002D00010BDC046DC00002000000020E10200004C
:1002E000F7231C4A9B0010B5C2501C330400C018F1
:1002F0000AF0C6FCFD239B00E0180AF0C1FC9F2316
:100300009B00E01802F028F984239B00E01801F01C
:100310000DFA2000C530FF3000F042FF20008D3084
:10032000FF3001F069F920006530FF3001F064F919
:100330002000EC3001F09EFE2000D03002F0A4FB43
:100340002000643004F076FD201DFFF719FF200027
:1003500010BDC0462CDB0000A0220823D2050028D7
:1003600005D0A121C900505803435350704701499B
:10037000F9E7C0460C050000A0210823044A10B587
:10038000C905885803438B500020FFF7E5FF10BDD7
:100390001405000070B50B4C0500005900280ED064
:1003A00004F084FC836D9B0709D528590CF09DFD52
:1003B000036813215B6A984764200CF0C4FF0AF0BD
:1003C00029FB70BD140500001423F0B5040097B09C
:1003D000009319221821043003F086FE2200250024
:1003E0006432B43513211000139204F02FFD28005D
:1003F0000BF07BFD2200B83210921E2100221098D3
:100400000BF0E2F82000D03002F05EFB2200EC326C
:1004100011920621594A119801F050FE220000273E
:1004200001236532FF32149200971A0011211498AB
:1004300001F04EF922008D32FF3215920097012310
:1004400002221A21159801F043F926002000C53632
:10045000B530FF361A2302220121FF3002F0F2FBF1
:10046000109904233A22300000F04AFF84229200BF
:10047000A218129205231D22019300922B00320034
:100480001099129801F04AFB96229200119BA01835
:100490001299320001F01CFD99229200A018290047
:1004A0001C2203F04DFF9F229200A61812992222CF
:1004B000300002F05DF8A7229200A018159A149B54
:1004C00000923100119A02F061F91923AB220F93C7
:1004D000013B0E93013B0D93013B0C93013B0B93AE
:1004E000013B0A93013B0993013B0893013B0793AE
:1004F000013B0693013B0593013B0493013B0393AE
:10050000013B0293013B01939200013BA018009331
:100510000822013B07210BF05FF8F7239B00E0184E
:10052000290004F07FF9FF239B00E518082204232B
:100530001349280004F0CEF8124B3A00E0182900C5
:100540001D2303F07DFA104B1398E7500321277009
:100550000CF00DFD2300220020000C499C33A0323A
:100560001C60116057600A4A80305A6102210122E2
:1005700004F0FEFD200017B0F0BDC046C8D8000052
:10058000008000400C0400001405000095030000EA
:1005900049A900000123F0B5057885B006001D408B
:1005A00043D1FD20800500F055FC3300D033180006
:1005B000019300F029FA00F02FF9282000F082FCC6
:1005C000040010300AF0A8FB194B1820236000F03B
:1005D00079FC0700174B0660082229000C300293B3
:1005E00003950DF02DF802A9381D08220DF00CF826
:1005F000114B21007B611223A760E560A380256277
:100600006562019802F0D8F9002806D020000AF0AF
:10061000ECFA282120000CF0B4FF012332780749BE
:1006200013433370064800F0EBFB05B0F0BDC04645
:10063000FD0300009FA900005FA90000002000202A
:1006400008000020BFF34F8F024B034ADA60BFF36C
:100650004F8FFEE700ED00E00400FA05F0B597B01B
:1006600018220021060010A80CF0EAFF132110A8A0
:100670000CF0C6FD032110A80CF06CFE4C4B1B685F
:10068000002B00D10133DBB202934A4A012300213F
:100690000BA804F0DBFE484B9E4200D9002672B640
:1006A000464B64211C68464B3000079305F024FA42
:1006B000052510306843201808900A21300005F005
:1006C0001BFA0A2105F0FEFA1031694361180991FD
:1006D00030000A2105F0F6FA10314D4380236419E9
:1006E0000A9400249B010193029B002B5DD00025FE
:1006F00000272E1F07AB9B190593032C03D18023E2
:1007000000249B01019307AB5B592E4A03936300BE
:10071000D31804930023190006205843049A16188E
:100720007678B4466246039EB25C10269446049ADC
:10073000105C62460641164202D0012098400143F7
:100740000133092BE8D1C9431F4B059A0901194010
:100750001268039B934225D1312F23DC00210BA883
:100760000CF0B1FEFA23159A1199DB0010680142D2
:100770001BD0013B002BF9D1019B01345B0001939D
:10078000FA230137E4B25B009F42B6D10435102D45
:10079000AED1074B1B68002BA6D0029F013FFBB2D6
:1007A0000293A1E7019B1943D9E7FFF74BFFC0462E
:1007B000F8050020F0FF0000E7030000040000201F
:1007C00085E200004FE20000F01F0000F0B50028B5
:1007D0001BDD0F4C421E276811000020BE09FB0FD5
:1007E00073407B403E097D087340BF087B406B40EF
:1007F000DB072B4301251F0040002B401843E94035
:10080000ECD18242E8D32760F0BD0248FCE7C04645
:10081000F405002017FCFFFF0023F0B50121A126FD
:1008200004241F00094D0A480A4A2B60F6000160A3
:10083000576051680029FCD081591B02013C0B43D1
:10084000002CF5D12B6001234360F0BDF40500209E
:1008500000D00040FCD00040F0B585B01F000AABCE
:100860001B880600029115000393002F1DD028203D
:1008700000F028FB6B4604001989039BAAB2009381
:100880003B000AF09BF9336821005B683000984711
:1008900000280BD0002C06D020000AF0A6F9282151
:1008A00020000CF06EFE024800E0024805B0F0BDEA
:1008B00016FCFFFF17FCFFFF0B4B70B51C68002CEC
:1008C00010D0656D00F0C6FBA36C002901D18342F6
:1008D00006D820000AF0C0F8044920000AF0AAF85F
:1008E0002C00ECE770BDC04600060020200600206A
:1008F000F0B593B007932A4B04AC1E6804900591A1
:100900000692002E4AD0274B258867881C68002352
:100910000293002C2ED0636D23480393A36C9AB2EC
:10092000A36C1B0C99B2854214D12048824211D18C
:10093000002B01D0B9420BD1029B002B08D1200023
:100940000AF08AF81A4920000AF074F80123029389
:10095000039CDEE7002A01D09542F9D1002B01D09B
:10096000B942F5D120000AF077F8114920000AF0C9
:1009700061F8EDE70F4BEB18012B0FD910233A006C
:10098000009329000C4B08A80AF018F9336808A94D
:100990009B683000984708A80AF027F913B0F0BD0B
:1009A000FC0500202C060020FE030000FF030000D1
:1009B0002006002002FCFFFFF108000010B572B60F
:1009C0000B4B1C68002C08D020000AF045F80023CF
:1009D000E364084B2000E36310BD62B65C2000F0C6
:1009E00071FA5C22002104000CF02AFEEFE7C046F9
:1009F0002406002000400020024B187801231840F4
:100A00007047C046B8080020F7B50600FFF7F4FFAE
:100A1000051E33D11A4C2660FFF7D0FF194B1A4937
:100A200018600AF007F8FFF7C9FF184B1860184B59
:100A30004363184B8363206800280ED0C027164EEE
:100A40002A00330015490097FFF706FF009733008F
:100A50002A0013492068FFF7FFFE0C2000F032FA4D
:100A60000023838083710F4B03600F4B836000F082
:100A700009FB01230D4A11780B431370F7BDC046E3
:100A8000FC0500203006002020060020280600205B
:100A9000FC3F00201FAB0000F1080000FF03000036
:100AA000FE030000E8D80000B9080000B8080020E4
:100AB000F7B506000D0017000193002802D10024AD
:100AC0002000FEBD0029FAD0FFF778FF041EF6D003
:100AD000074B019A4363066045608760054B002A17
:100AE00000D0054BA3630549200009F0A3FFE7E709
:100AF000FC3F0020E9AA000007AB00002006002010
:100B0000024B1868434258417047C04620060020F7
:100B1000002310B504499C006258002A01D001331B
:100B2000F9E76050100010BD08060020002310B542
:100B3000044A99008C58844201D00133F9E700201F
:100B4000885010BD0806002010B50024084BA200F4
:100B5000D058002802D003685B6898470134062CFF
:100B6000F4D1044B1B68002B00D120BF10BDC04640
:100B70000806002020060020F8B5FFF73DFF0028FA
:100B80001BD0294D2C68E36CDA0717D502263343B6
:100B9000E3640423254F3868C26C1343C364636B5A
:100BA000C36309F07FFF3868416C03F098FE286842
:100BB000C36C334201D003F0CCFEF8BD1C4F1D4E78
:100BC0003A683168002A1ED129602A688A4208D111
:100BD0001B0706D52C60FFF7B7FF3B68002BFAD048
:100BE0002B6029688C42E8D03368994214D1124BAB
:100BF0004B63124B8B63200009F054FF2968626C31
:100C00004B6C20000DE0206DB84203D1606D0028D0
:100C100000D002002A60D8E79C42ECD100221000EC
:100C20004B6C03F01BFEC8E73006002004060020D2
:100C30002006002028060020FC3F00201FAB0000FB
:100C400070B50500FFF7D8FE002803D128000CF08E
:100C50007AFB70BD0C4B1C68E36CDB0706D5FFF715
:100C6000ADFE0A4B1860002800D0040000F0F2F935
:100C70002D18A564200009F0EFFE0549200009F0B9
:100C8000D9FEFFF779FFE4E73006002004060020D4
:100C900000060020F0B51E4B1E4F1C683B6885B057
:100CA00006000391002B30D0FFF7A6FE00282CD0C1
:100CB000E36CDB070ED5FFF781FE174B051E1860AE
:100CC00008D009F0C9FE1549280009F0B3FE2C0030
:100CD000FFF752FF039B20001B043343A36409F07A
:100CE000BBFE20000E4909F0A5FE0E4B0024F318B0
:100CF000012B07D9C0230093039A0B4B31003868AE
:100D0000FFF7AAFD200005B0F0BD084CFAE7C04689
:100D100030060020FC0500200406002020060020EC
:100D20002C06002002FCFFFFF108000016FCFFFF6C
:100D300010B5FFF761FE002809D0054C206809F0C6
:100D40008BFE0449206809F075FEFFF715FF10BD02
:100D50003006002024060020F7B507000D0000280B
:100D60002ED0FFF749FE00282CD00724164E3068FD
:100D7000C36C1C4007D0154A2900380009F083FED7
:100D800000242000FEBD03F0CCFD02213268D36CAC
:100D90001940019103D003218B43D364F1E701246F
:100DA0002343D3642800B8473268D36C1900A143A9
:100DB000D164019C5B07E4D5280009F09CFEE0E7C4
:100DC000034CDEE7034CDCE730060020F7AA000006
:100DD00017FCFFFF16FCFFFF020010B5014B12CB02
:100DE00012C210BD34060020034B1A68034B1A6070
:100DF0007E225A607047C04604000020340600205E
:100E000070B5104D2B78022B18D0814218D90B1ACF
:100E1000072B15D90C00032304431C4010D172B6D4
:100E20002A78094BD200D0509818416009F07DFE15
:100E30002B7801332B7062B6200070BD0348FCE7AD
:100E40000348FAE7B90800203C06002013FCFFFF26
:100E500017FCFFFF70B50021041C04F055FF0028AB
:100E600028D1FE21201C890504F058FF002821D13B
:100E7000043009F083F805000F48401B05F02EFFF1
:100E8000211C05F0CBFB04F07DFF032398430400F5
:100E9000280009F07DF8200009F070F8002804D13E
:100EA000203C002CF7D1054803E00119FFF7A8FF0B
:100EB000002070BD0248FCE70038002013FCFFFF53
:100EC00017FCFFFF70B5060000250C4B1B78AB42EA
:100ED00009DD0B49EB00C918300009F02EFE041E95
:100EE00009D10135F1E7300009F048F8041E02D1BC
:100EF0001420FFF7B3FB200070BDC046B9080020E6
:100F00003C06002070B5002813D00D4B0D491C780D
:100F100000239C4210DDDA00555885420AD28A1817
:100F20005268824206D98023043802681B061343A4
:100F3000036070BD0133ECE709F02AF8F9E7C04619
:100F4000B90800203C06002070B5051E14DD0B4ECC
:100F50000B4C3368002B02D020680CF0B2F8FA2159
:100F600020680024074B89008361C46269433560AF
:100F70000CF0AFF8200070BD0348FCE74C060020E1
:100F80007C0600203110000017FCFFFFF8B5114F60
:100F900006003D68002D0AD13020FFF793FF0400C2
:100FA00003F0AEFF0C4BA5612360E5623C600B4D86
:100FB0002B68002B09D11020FFF784FF04000CF0F0
:100FC000D5F820002C600CF0ABF83000FFF7BCFF28
:100FD000F8BDC0467C0600207CDB000078060020BF
:100FE000014B18687047C0464C06002070B50D4C88
:100FF0002368002B03D00C4B1B68002B02D106206A
:10100000FFF7C4FF20680CF0A2F802000749C317DD
:101010000D684E685219734120680A604B600CF0ED
:101020009CF870BD780600207C060020B8000020E7
:1010300010B5FFF7DBFF0024054BA200D0580028B5
:1010400002D003681B68984701340A2CF4D110BD04
:101050005006002010B5FFF7C9FFFA22034B92009B
:1010600018685968002304F06DFE10BDB800002018
:1010700010B5FFF7BBFF024B1868596810BDC0469A
:10108000B80000200B4B10B51B680400002B03D0E8
:10109000094B1B68002B02D10620FFF777FF0023C6
:1010A000064A99008858002801D00133F9E78C508E
:1010B00010BDC046780600207C06002050060020A7
:1010C000002310B5044A99008C58844201D00133A2
:1010D000F9E70020885010BD5006002010B504002C
:1010E000002902D00B78002B03D1034B2360200092
:1010F00010BD09F0CCFDFAE7F8D80000014B036001
:101100007047C046F8D8000010B50548054C20606F
:1011100009F05DFE044A054920000CF02BFA10BDD1
:10112000F8D80000800600200000002081AC0000FC
:10113000084B73B51C680500002C0AD00100266816
:101140000831082268460CF05FFA0CCD31682000A7
:10115000884773BD8406002010B5054C012120008E
:1011600009F029FE034A044920000CF003FA10BDDF
:10117000880600200000002073AD00000388074AA5
:1011800010B50120934208D0834202D00020DB0733
:1011900003D41E20FFF762FA002010BDFFFF0000FD
:1011A00010B50400034B08330360FFF7BFFC2000B9
:1011B00010BDC04640D90000FA2270B543899200A4
:1011C0005343314A31491400050038348B421BDC4B
:1011D0002F498B4218D82F49083C8B4214D82E49EE
:1011E000083C8B4210D82D49083C8B420CD82C4926
:1011F000083C8B4208D82B49083C8B4204D82A492A
:1012000014008B4200D90834284B2A7B1E1D042A67
:1012100003D89E1C022A00D81E00FA2120688900EB
:1012200004F0E0FB337868812B7300222A21280028
:1012300009F0F2FD002801D01D4870BD10222B21BD
:10124000280009F0E9FD0028F6D101222D2128000F
:1012500009F0E2FD0028EFD101222E21280009F03B
:10126000DBFD0028E8D172780E21280009F0D4FDBA
:101270000028E1D1012223792A211A43280009F00C
:10128000CBFD0028D9D0D7E700D9000000C4090061
:101290000071020080380100204E0000102700007D
:1012A00088130000C4090000E204000065E40000A7
:1012B0000EFCFFFF7FB515000F226A4404001E00DC
:1012C0001170002D16D0002B14DD0123018900932D
:1012D000006B01F0EDFA002802D0074804B070BDA1
:1012E0000090218933002A00206B01F097FA002832
:1012F000F4D0F2E70148F1E70EFCFFFF17FCFFFF17
:10130000F7B50600002501931E4B14360833040080
:10131000036085808571C581058245820F0000923A
:101320002900182230000CF08BF91C2130000BF042
:1013300067FF6B469B880221A3806B461B882200B7
:1013400023811423A5712173A563A58763813E3290
:10135000137827638B43F1310B4013702300957290
:1013600095810135221DD5870833A21DD587200020
:10137000DD87FFF721FF002802D1A3791D43A57166
:101380002000FEBD40D9000030B50425837987B028
:1013900004002B4204D1FFF7BBFBA3791D43A571C9
:1013A000A36AA2691B6800251A4208D106236A466F
:1013B00001212000FFF77EFF051E03D0114D2800FC
:1013C00007B030BD6B46022269469A56207BD20098
:1013D00042431B79228202225BB20978DB0043433D
:1013E00049B2C90041436382A379E1819343A37168
:1013F000200009F01FFD0123A1881A0002A809F0AE
:1014000095FCDCE70EFCFFFFF8B50400FFF7BCFF1E
:10141000C8230E21625E5B00744F9A4252DD2300A6
:101420003E331B789B074DD50125210028003E3116
:101430000B785A08904302000220AA4083431343CA
:101440000B702000FFF7A0FFC8231021625E5B0035
:101450009A4245DD23003E331B785B0740D50125CA
:10146000210028003E310B789A0890438200042026
:10147000834313430B7026002000FFF785FF1222E1
:10148000A35E4836BB4238DA23003E331B781B0785
:1014900033D5210001223E310B78D8088243082041
:1014A000D200834313430B703378032B35D80133B9
:1014B000DBB23370012B00D083E0230000224A33DB
:1014C0001A802AE02000FFF75FFF0E22A35E0025AE
:1014D000BB42B6DA23003E331B789B07A4D5B0E7A6
:1014E0002000FFF751FF1022A35EBB42C3DA2300A6
:1014F0003E331B785B07B2D5BDE72000FFF744FF02
:10150000C8231221625E5B009A4204DD23003E3351
:101510001B781B07BDD5002DC6D13278002A14D008
:101520002100270001254A310B883E3701339BB249
:101530000B803878AC46054051D01D2B05D9634649
:101540009843002338700B803370200009F0DEFCD4
:10155000274A0723904240DDC8252000FFF714FFEB
:101560000E23E25EAD000323AA4236DC2000FFF723
:101570000BFF204E0E23E25E0423B2422DDB20003F
:10158000FFF702FF1023E25E0223AA4225DC2000BF
:10159000FFF7FAFE1023E25E0123B2421DDB2000BA
:1015A000FFF7F2FE1223E25E0523B24215DB2000B4
:1015B000FFF7EAFE1223E25E0623AA420DDC0023B7
:1015C0000BE0042BA9D122003E321178033B0B43E0
:1015D000137000234A3423800B331800F8BD092B05
:1015E000B3D9013A0D803270AFE7C04670FEFFFFFD
:1015F000FF700200E0FCFFFF10B50400034B08334E
:101600000360FFF75DFD200010BDC04658D9000003
:1016100070B5C369C1681A68451D0400EB7F1142AB
:101620004AD0002B4DD1EB7F082B0BD90121A37998
:101630000B4207D10B43A371200009F017FDFFF700
:1016400009FD2062EB7F012B1DD8A379DA071AD59B
:1016500010221340A3710221200009F007FDA31DF1
:10166000DB7F012B0FD1FFF7F5FC0023226A801AE4
:101670009941994203D1144B0321984200D9042186
:10168000200009F0F3FC0322A3791340012B12D1AF
:10169000FFF7E0FC0023226A801A9941994202D1A7
:1016A0000A4B984207D90223A27905211343A3715B
:1016B000200009F0DBFC70BD0B2BB4D80133EB77B5
:1016C000B1E7013BFBE7C046E7030000DB05000094
:1016D000F0B5070000250E0085B002930AAB1B7819
:1016E00008370393104B0400083303600192858090
:1016F00085712900182238000BF0A2FF039A3100EF
:1017000038000BF082FD6B466A469B88127AA380F4
:10171000A31DE671DA77631D25622000DD77FFF7F0
:10172000B1FC200005B0F0BD58D9000010B5040090
:10173000034B08330360FFF7F9F9200010BDC046E2
:10174000C8D900007FB515000F226A4404001E00AE
:101750001170002D16D0002B14DD01230189009398
:10176000C06B01F0A5F8002802D0074804B070BD96
:101770000090218933002A00E06B01F04FF8002827
:10178000F4D0F2E70148F1E70EFCFFFF17FCFFFF82
:10179000002330B585B003AC2170018900930500AA
:1017A00001332200C06B01F083F8002802D0094801
:1017B00005B030BD20802989009002232200E86B0B
:1017C00001F02CF80028F2D1237860781B0218432E
:1017D00000B2EDE70EFCFFFF13B56B46DC1D0023E6
:1017E000220023700133FFF7ADFF002801D12078DC
:1017F00016BD0148FCE7C0460EFCFFFFD0B5040053
:1018000009F076FCE268A369981A06F0B5FE0600B6
:101810000F002369E069C01A06F0AEFE32003B00FB
:1018200007F0F8F90022104B06F0B6F80F4A104BFB
:1018300005F0B0FD06F02CFF0021041C04F05AFA5C
:10184000002804D0201C0B4904F076FB041C201C4B
:1018500006F0CCFE02000B000020074906F00EFB4C
:1018600006F054FED0BDC04600806640EA2E4454C7
:10187000FB2109400000B44300807640F0B505002C
:1018800085B0006C09F0DFFB061C286C09F0D2FB68
:101890000221071C280009F05CFC022103902800AB
:1018A00009F069FC05F0D0F90221041C280009F0B8
:1018B00074FC05F0C9F9051C301C07F06DF90290A5
:1018C000301C07F02BF90190381C07F065F9061C55
:1018D000381C07F023F9071C039805F0B5F9391CEB
:1018E00004F09CFE311C071C201C04F097FE02999A
:1018F00004F094FE011C381C04F01EFB311C071C74
:10190000281C04F08BFE019904F088FE011C381C91
:1019100004F012FB0299061C281C04F07FFE0199BA
:10192000051C201C04F07AFE011C281C04F0A8FFF2
:10193000311C07F073F90D4904F070FE06F056FEF5
:101940000B4A0C4B05F026FD06F0A2FE0021041CFC
:1019500004F0D0F9002804D0201C044904F0ECFA6B
:10196000041C201C05F050F905B0F0BD0000B44384
:10197000EA2E4454FB21194070B5002210210400C6
:1019800009F0A8FB1B4D00282DD1032608212000BB
:10199000FFF722FFA84226D0304226D1FA216389E0
:1019A000890059435023144AD518D058884204D38B
:1019B000D518083B18000830F7D1FA2128688900AB
:1019C00004F010F8A02260811121200009F082FBB0
:1019D000002808D101222B7910211A43200009F098
:1019E00079FB002800D0034870BD6420FFF728F978
:1019F000CCE7C0460EFCFFFF70D900007FB5042580
:101A0000837904002B4218D1022609F071FBA379D7
:101A1000A188B3432B43A37106220123684609F032
:101A200085F9A07903003040AB43A371434258418C
:101A3000034B4042184004B070BD0248FBE7C0466B
:101A400014FCFFFF15FCFFFF10B5837904005A0753
:101A50000DD49B0701D4FFF7D1FF236C2000002B8E
:101A600002D0FFF70BFF10BDFFF7C8FEFBE70148F0
:101A7000F9E7C04615FCFFFF70B5466C86B001ACB7
:101A8000050001916260A360002E0CD00B4905A8EF
:101A9000FFF724FB0C23220005A930000AF065FAA9
:101AA00005A809F0EDF82B000C3307CC07C302237F
:101AB000AA791343AB7106B070BDC0466BE4000059
:101AC000642330B504000281438185B08180FFF733
:101AD00053FF0222A379606C9343A371002814D0B2
:101AE0000D490AF008FA051E0FD001000C22103132
:101AF00001A80BF089FD01992000029A039BFFF7D2
:101B0000BBFF302128000BF03CFD0123A2791343D9
:101B1000A37105B030BDC0466BE40000F7B500937B
:101B200008AB1B880400019309AB1D8800230F003C
:101B300016000D4A8380083283710260C36003611E
:101B400043618361C36103621D21243009F0B5FA4A
:101B5000009BE7632664290020006364019AFFF775
:101B6000AFFF2000FEBDC046C8D9000082B0F0B56E
:101B70000400A5B064202B932A920BF0E4FB04220E
:101B80000C2109A802F010FF2422CC491BA80BF05D
:101B90003BFD052206A811000BF014F9C84907A85F
:101BA00002F0B0FFA06800F081FBA568C54918A845
:101BB000FFF794FA782218A9280000F073FC18A8FF
:101BC00009F05EF86E256420013D0BF0BCFB002D92
:101BD000F9D1A06800F06AFBA06809F087FC012138
:101BE000606809F0A7F901210700606809F0B5F9FC
:101BF00006000A200BF0A7FB0022B34B03929F4282
:101C000010DB013203923A00C8320BDBC8220421F8
:101C100092000391974205DC03220392C82F01DC56
:101C2000013A039200279E420CDB33000137C83390
:101C300008DBC82303379B009E4203DC013FC82E0C
:101C400000DC013F06A80BF0B4F800260323734321
:101C50001BA9CA189078002805D0C95C5278FF23C8
:101C600006A802F0E1FE01360C2EEFD16B463AB227
:101C70000C21595E06A8FF2302F0D6FE0023A068BF
:101C800000931A00743006A90BF0A3F80023049304
:101C90000323049A039853431BAA995C814237D1CA
:101CA000D31805935B78BB4232D1059B9E78002EFA
:101CB0002ED13100206809F04CFA04F0C5FF320043
:101CC000031C290009A80AF037FA3100206809F03E
:101CD00052FA04F0B9FF0122031C290009A80AF0F6
:101CE0002BFA3100206809F058FA04F0ADFF290002
:101CF000031C022209A80AF01FFAFE2303229B05F7
:101D0000290009A80AF018FA0123059AED18937022
:101D1000049B013304930C2BBAD164200BF013FB0A
:101D20000B2D00DC5BE709A80AF0F2F901220100A3
:101D30000CA802F039FE002509A80AF0E9F9A8422A
:101D40003CDD2900002209A80AF0E4F90022061C63
:101D5000290009A80AF0DEF9011C301C04F05EFC21
:101D60002900061C012209A80AF0D4F90122071C47
:101D7000290009A80AF0CEF9011C381C04F04EFC19
:101D8000311C04F0D9F82900061C022209A80AF027
:101D9000C1F902222900071C09A80AF0BBF9011C9D
:101DA000381C04F03BFC311C04F0C6F82900031C6D
:101DB00000220CA80AF0C0F90135BDE709AA1100FC
:101DC000012318A80AF0D3F918A90FA80AF02CFAD1
:101DD00018A80AF0C2F90CAA09A912A801230AF04E
:101DE000C6F9002312AA0FA915A80AF0C0F900220B
:101DF00015A811000AF08EF90022061C012115A871
:101E00000AF088F90022051C022115A80AF082F9BF
:101E1000FC21071C8905301C04F000FC04F0F4FED2
:101E2000FC21060018908905281C04F0F7FB04F03B
:101E3000EBFEFC21050019908905381C04F0EEFB2F
:101E400004F0E2FE2A00030031001A902068FFF738
:101E500013FEA06809F04AFB07A908A8A5680AF0C4
:101E6000A0FF0022194B009208A90193280013003B
:101E700000F0BAFA08A80AF087FFFA2080000BF0F9
:101E800062FAA06809F032FB15A80AF066F912A8F8
:101E90000AF063F90FA80AF060F90CA80AF05DF9DE
:101EA00007A80AF071FF06A80AF06EFF09A80AF059
:101EB00054F925B0F0BC08BC02B0184776E4000025
:101EC0009AE40000DFE40000E0FCFFFFDC05000016
:101ED000F7B583601D4B05001F6801604260002F4D
:101EE00032D02820FEF7EEFF0400103008F014FF77
:101EF000174B18202360FEF7E5FF00220600154B64
:101F000001920560083200210C3000930BF098FB21
:101F100008226946301D0BF077FB0F4B00227361DE
:101F2000C223A3803B68E260A660226262625B68B3
:101F3000210038009847002806D0200008F055FE00
:101F4000282120000BF01DFB2800FEBD8406002088
:101F5000050006006D1B0000BDB10000F0B50400D7
:101F600085B0637A9C46002B04D1200009F051F91A
:101F700005B0F0BDA37A266F01931023019AF356A2
:101F800000259B1801229A402900F36803920293CE
:101F9000029BAB4231DDB368019A6B439B187269B7
:101FA0005B00E77AD3181A785878E379012F14D1B7
:101FB0005F1E3F1A10003A005B004343606F8218B7
:101FC000D3189B79634500DD6346627B1A4202D0D9
:101FD0000123AB4019430135DAE7022F05D15F1E1B
:101FE000BA1A277A013F381AE6E7032FE4D1277A95
:101FF000013FBF1A02003800DEE71123C943F35640
:10200000606C994023691940039B19430BF05BFAFC
:10201000A27B072AACD8637B0C495B006373531C1B
:10202000DBB290004158A373022A03D808000BF0DA
:102030007FF996E7064B2000236300236363054B7B
:10204000E462236414300BF044F891E7E0D9000017
:102050005D1F0000FDB1000010B50400044B0360DB
:102060000BF02FF8200002F061FF200010BDC046E9
:102070007CDB000010B504000E4B08330360FFF753
:102080001FF8200074300AF07FFE200060300AF054
:102090007BFE2000583008F0F3FD2000503008F09F
:1020A000EFFD2000044B14306361FFF7D5FF2000E3
:1020B00010BDC04600DA000090DB0000F8B5002536
:1020C0000400324B8580083303608571143016009C
:1020D0000F0002F015FF20002D4BE56263612564BF
:1020E0005030FFF70BF820005830FFF707F82000BA
:1020F000603002F093FC20000423F25E3368266710
:10210000590009B274300AF05DFE3368226FE37142
:1021100073680126237210236581A7802561D35639
:1021200091685918994204DD300098400133054305
:10213000F8E711230120D356D1685918994206DDDA
:1021400002009A402669013332432261F6E71420E7
:10215000FEF7B8FE226900212A430123060003F09E
:1021600075F9FF23220063720133A38100234832F3
:102170006664A37320001370A366FEF783FF012338
:10218000A27920001343A371F8BDC04600DA000015
:1021900090DB0000F0B5437A85B00400002B04D139
:1021A000200009F036F805B0F0BD0122837A110055
:1021B0009C461023066F0025F35603926344994012
:1021C00002912900F3680193019BAB422CDDB368B7
:1021D00072696B4363445B00E77AD3181A785878C6
:1021E000E379012F10D15F1E3F1A10003A005B0007
:1021F0004343606F8218D3189B79002B02D0039B56
:10220000AB4019430135DFE7022F05D15F1EBA1A33
:10221000277A013F381AEAE7032FE8D1277A013FEE
:10222000BF1A02003800E2E71123C943F356606C7D
:10223000994023691940029B19430BF044F9667ACF
:10224000B31EDBB2FC2B14D8FEF7CAFE0B4B050005
:10225000236300230A4863630A4BFF21E46223647B
:10226000704303F049FC29004143200014300AF078
:1022700030FF637A012B00D995E791E713B2000094
:10228000B6030000FDB100001FB5012381881A00CC
:10229000684608F04BFD012303491A00684608F020
:1022A00045FD05B000BDC046FE0300001FB503009C
:1022B00048331A780400002A0DD000221A70012336
:1022C00081881A00684608F031FD012304491A008C
:1022D000684608F02BFD200074300AF06AFD1FBD2F
:1022E000FF03000010B548300378002B06D00378B8
:1022F000012B03D00121024808F0EDFB10BDC046C0
:10230000FF03000010B501210400062008F0E3FBE4
:10231000064B984208D148342378002B04D0237808
:10232000012B01D020BFF7E710BDC04616FCFFFF10
:1023300070B50600141E19DB050048352B78002BFC
:1023400002D02B78012B13D1002330001A007430F7
:1023500002F028FC002C07D033004A331C800024F4
:1023600007234C3634802B70200070BD014CFBE7F6
:10237000014CF9E717FCFFFF12FCFFFFF8B517004F
:102380000A68050052880B00012A09D100211800B3
:1023900008F0B5FC002201002800FFF7C9FFF8BDD6
:1023A000002F19DD060048363278002A02D0327834
:1023B000012A13D12A00002428005C32190014805D
:1023C000583008F08DFC2B004A331F8003234C3516
:1023D0002C8020003370E2E70148E0E70148DEE7A7
:1023E00017FCFFFF12FCFFFF73B5079C0500002CD4
:1023F0001CDB060048363078002802D030780128EF
:1024000016D106981BB2C0B20090280012B27430E8
:102410000AF0DFFC002C07D02B004A331C8000247C
:1024200007234C352C803370200076BD014CFBE730
:10243000014CF9E717FCFFFF12FCFFFFF7B50500A1
:102440000E00171E26DDFFF74DFF2B0048331C78CA
:10245000E4B2002C20D133685B88012B09D1210024
:10246000300008F04CFC220001002800FFF760FF5C
:10247000FEBD310001A808F02BFC3A0001A928009C
:10248000FFF77CFF01A808F0FBFB2800FFF73AFFED
:102490002000EDE70148EBE70148E9E717FCFFFF03
:1024A00011FCFFFFF8B50400171E1DDD06004836BD
:1024B0003378002B02D03378012B17D12200E37937
:1024C0005632013B137023000025200054331D8039
:1024D000503008F005FC23004A331F8002232800F7
:1024E0004C3425803370F8BD0148FCE70148FAE719
:1024F00017FCFFFF12FCFFFFF7B505000F00161ECB
:1025000018DDFFF7EFFE2B0048331C78E4B2002CF7
:1025100012D1390001A808F0DBFB320001A9280024
:10252000FFF7C0FF01A808F0ABFB2800FFF7EAFEA9
:102530002000FEBD0148FCE70148FAE717FCFFFF59
:1025400011FCFFFFFF2902D84172002070470148AB
:10255000FCE7C04617FCFFFF10B50400034B08332F
:102560000360FEF7E3FA200010BDC04618DA000051
:1025700070B50400002516000B4BA5800833A5712B
:102580002360E1610800012108F013FE074BA680DB
:10259000A360074BA57125616561A561E36020001B
:1025A000FEF7B6FA200070BD18DA0000FFFFFF7FCB
:1025B0000200008070B504000121C06908F0EDFD43
:1025C000A268824200DD0200E368A260834200DA72
:1025D00003002169E360013121614A2917DD9B1A5B
:1025E0000C4A0D48A3619B1858430C4903F084FA28
:1025F000C3430025DB171840094B6061A360094BFA
:102600002561E360200008F080FF280070BD0648C7
:10261000FCE7C04660F0FFFF280A00005886030070
:10262000FFFFFF7F0200008016FCFFFF82B0F0B5C5
:10263000040089B080680F930E9208F02AFDE068CC
:1026400008F027FD4C4906A802F05CFA606808F023
:102650004BFF0590206808F082FFFA2001278000D8
:102660000AF071FE6068FFF721FEFF216068FFF746
:1026700069FF6568414907A8FEF730FD782207A980
:102680002800FFF739FF07A808F0FAFA3C4B7F4211
:1026900004933C4B0393A06808F0F7FC002834D067
:1026A000E06808F0F2FC00282FD0206808F059FFFD
:1026B000606808F01BFF06A907A865680AF071FBAF
:1026C0000022314B009207A9019328001300FFF765
:1026D0008BFE07A80AF058FBFA20C0000AF033FE70
:1026E000606808F003FFA06808F0D8FCE06808F014
:1026F000D5FC05996068FFF725FF06A80AF044FBA2
:1027000009B0F0BC08BC02B018472068FFF752FFC0
:10271000051E03D002200AF016FEF6E7206808F036
:102720001EFF039B0100834200DD0390049B8B424C
:1027300000DA0491042301930023039A0093206894
:10274000049B08F013FF060087420FD0606808F072
:10275000CDFE04239F1B3FB2606829B27430FF2373
:102760003A00013502F060F9052DF5D164200AF038
:10277000EAFD37008FE7C0469AE40000EDE4000070
:1027800002000080FFFFFF7FDC050000F7B58360DB
:10279000089B0500C3601D4B01601F684260002F4D
:1027A00032D02820FEF78EFB0400103008F0B4FA77
:1027B000174B18202360FEF785FB00220600154BFF
:1027C00001920560083200210C3000930AF038FFB6
:1027D00008226946301D0AF017FF0F4B0022736173
:1027E0001223A3803B68E260A660226262625B689B
:1027F000210038009847002806D0200008F0F5F99D
:10280000282120000AF0BDFE2800FEBD840600201D
:10281000220004002D26000089B50000F0B51F003D
:1028200085B00AAB1B780400039300933B000D00B6
:1028300016000AF07AFB002833D0237D082B2DD810
:10284000236800221900FC318A62A021C9005A5075
:10285000154905205A500138C046C046C046C046FA
:10286000C046C046C046C046C046C046C046C04638
:10287000F1D1236801325A50A0210432C9005A50C4
:1028800002F04EFF039B3200009329003B00200022
:102890000AF04BFB237D01332375CCE7034805B0D9
:1028A000F0BD2075FBE7C046FC0F00000EFCFFFFEB
:1028B000F0B51F0085B00AAB1B78040003930093AA
:1028C0003B000D0016000AF018FB002833D0237DD2
:1028D000082B2DD8236800221900FC318A62A02120
:1028E000C9005A50154905205A500138C046C04603
:1028F000C046C046C046C046C046C046C046C046A8
:10290000C046C046F1D1236801325A50A02104329A
:10291000C9005A5002F004FF039B320000932900C3
:102920003B0020000AF0E9FA237D01332375CCE750
:10293000034805B0F0BD2075FBE7C046FC0F000062
:102940000EFCFFFFF8B50D1E30D000260227C4682C
:10295000002C28D0AA88A38853403B4204D13A4295
:1029600004D1AB883B4219D0646AF1E7A968A0683A
:1029700009F060FB0028F4D02B88002B02D02288BD
:102980009A42F1D16B88002B02D062889A42EBD137
:10299000A288074B01361343A380E5E7A368AA6822
:1029A0009342E1D1E8E72000002E00D10148F8BDB4
:1029B0000080FFFF17FCFFFFF0B5060085B00D1E7D
:1029C00059D00127C468002C22D00221AA880023F4
:1029D0000A4202D0A3885B083B40226829688A42E9
:1029E00010D1A068A968002B0AD009F023FB0028A9
:1029F00008D0A3881AB2002A06DB204805B0F0BD33
:102A00008842F6D0646ADEE75B045B0CA380F4E7DF
:102A1000F0682A88002807D1F56001231849684624
:102A200008F084F90020E9E7010003001C889442C3
:102A300006D25C6A1900002C0DD02300F6E72300B3
:102A40001C88944207D15F886C88A74203D25C6AD5
:102A50001900002CF3D1814209D10B889A4204D38A
:102A600005D148886B88984201D96962D4E74B6ADE
:102A70006B624D62D1E70348C0E7C04616FCFFFF1A
:102A8000FD03000017FCFFFF064B10B51A00040001
:102A900008322C33026043600430FEF747F8200010
:102AA00010BDC04630DA000008B4024B9C46043822
:102AB00008BC6047892A000008B4024B9C460438D1
:102AC00008BC6047FFB600000C4A002311002C32FE
:102AD000083110B5038183724260C36003614361B2
:102AE0004383016004000430FEF712F8044B1A68B7
:102AF000002A00D11C60200010BDC04630DA000062
:102B000084060020F7B50E000125C4680192002C50
:102B100036D0238832889A4201D0002B23D1638893
:102B200072889A4201D0002B1DD1FDF765FF012369
:102B3000002806D0C022A3881340C03B5A4253410C
:102B4000DBB2019A934219D1A7883BB2002B15DB67
:102B500010223100A0180AF057FD40231F4204D074
:102B6000200008F0D6FD646AD1E7FDF745FF002894
:102B7000F6D021000348FEF7EFF8F4E70025F2E76E
:102B80002800FEBD13B7000008B4024B9C46043871
:102B900008BC60479FB80000F0B587B001930EAB4A
:102BA0001B88060003930D9B0D000093019B02926E
:102BB0000C9F002B3ED0002F02D1009BDB0739D5A4
:102BC0002820FEF77FF90400103008F0A5F86B46C6
:102BD0001B89258063801820FEF774F90500009B8F
:102BE00008220593019B002103600C3004970AF032
:102BF00027FD082204A9281D0AF006FD0E4B02221B
:102C00006B6100230399E3602362636233680A43C4
:102C1000A560A2805B68210030009847002807D09B
:102C2000200007F0E2FF200028210AF0AAFC034858
:102C300007B0F0BD0248FBE7DDB8000016FCFFFF5F
:102C400017FCFFFFF0B50400160000258380164A2C
:102C5000164B85710260218146810573186889B021
:102C60008C46A8421DD0124A05950492C0220292B9
:102C70006A4604AB82CB82C223002A006146FFF77A
:102C80008BFFC022094B0A49186802926A460691D6
:102C900006AB079582CB82C223002A003100FFF7E2
:102CA0007BFF200009B0F0BD74DA0000840600202C
:102CB00007BA000030B5002403730123034D84716B
:102CC0000560818082734373846030BD8CDA0000BC
:102CD000F0B585B000AFEC4B1B68082213405A1EBC
:102CE0009341DBB2002B00D1E7E0E84AAA23DB00E6
:102CF000D3581A00E64B1A60E54B1B685A1E9341E5
:102D0000DBB2002B04D06623FF331800FDF7A6FCCE
:102D1000DE4A88235B000021D150DC4A86235B0019
:102D20000021D150D94A82235B000021D150D64BDB
:102D30001B681022134006D0D34B1B68012213409E
:102D400001D0012300E00023002B04D0B5235B0059
:102D50001800FDF783FCCC4B1B68102213405A1E51
:102D60009341DBB2002B53D0012007F0E7FDC64BA7
:102D70001B68C84A13405A1E9341DBB2002B04D093
:102D80007023FF331800FDF769FCC049C2239B0084
:102D900001225242CA50BD4AC1239B000821D15092
:102DA000BA4A80239B000021D150B74B1B681822E0
:102DB00093431A00B44B1A60B34B1B6820221A438A
:102DC000B14B1A60B14A80235B000021D150AF4B58
:102DD00001221A60B04B1B68DD68AF4B1B68DB68D3
:102DE0001B6820331C68AC4B1B68DA68AA4B1B6855
:102DF000DB681B682C331B68032110009847030015
:102E0000A64A9B181A0003212800A04700F0C3FC23
:102E10009D4B1B68012213405A1E9341DBB2002BCD
:102E200044D0994B1A6898235B0013405A1E934173
:102E3000DBB2002B04D0C4235B001800FDF70EFCAE
:102E4000924A80235B000021D150904A82235B008C
:102E50000021D1508D49C2239B0001225242CA5009
:102E60008A4AC1239B000A21D150884A80239B00B3
:102E70000121D150884B1A6882235B00D358834AC2
:102E80001900874BD150804B1B68092293431A00CD
:102E90007D4B1A607C4B1B68802292001A437A4B50
:102EA0001A607A4B01225A6000F075FCA623FF33AA
:102EB0001800FDF7D3FB00F06EFC734B1A688023FB
:102EC0009B0013405A1E9341DBB2002B00D15AE104
:102ED0006D4B1A6898235B0013405A1E9341DBB276
:102EE000002B04D0AE23FF331800FDF7B7FB674A71
:102EF00082235B00D3585A1E9341DBB2002B0DD0C6
:102F0000624A82235B000021D1505F4B1B68802204
:102F100012011A435C4B1A6000F03DFC5B4A8623A9
:102F20005B00D3585A1E9341DBB2002B00D12AE13B
:102F30005C4B1B685A1C5B4B1A605B4B1B685A1C32
:102F4000594B1A60504B1B68584A1A404E4B1A6036
:102F50004E4A82235B000021D1504C4A86235B00FD
:102F60000021D150494B01229A604B4B1A688223B1
:102F70005B00D358FB604E4B1B78012B00D0DEE08A
:102F8000424A8023DB00D358013B5A425341DBB213
:102F9000002B00D19CE0FB685B791B071B0FDBB2A9
:102FA000042B01D900F0F6FB424B00221A70364B7D
:102FB0001B68414A1A40344B1A60FB685B790F2248
:102FC0001340DBB2002B21D0FB685B791B071B0F82
:102FD000DBB20F331A1C0F231340DAB2FB680F2148
:102FE0000A4010005A790F218A43111C021C0A431F
:102FF0005A71254B1B68314A1A40234B1A60224BE9
:103000001B682F4A1A43204B1A60BCE01E4B1B68FA
:103010002C4A1A401C4B1A601F4B1B68DD681E4B64
:103020001B68DB681B6820331C681B4B1B68DA6855
:10303000194B1B68DB681B682C331B6802211000CE
:1030400098470600204B1B78DBB21A001F4B52003A
:10305000D35A9B089BB21A0013005B019B1A9B007A
:103060009B181B011800FDF7B1FB0300F318C833D0
:103070001A0002212800A047034B1B68802252013E
:103080001A43014B1A607EE0B80600200010004091
:103090009C060020030A000094060020260200007F
:1030A00004050000B0060020A8060020FFF7FFFF7F
:1030B000BC080020BA080020FFDFFFFFFDFDFFFF76
:1030C00014040000FFFBFFFF9600002074000020A6
:1030D000894B1B68DD68884B1B68DB681B682033E5
:1030E0001C68854B1B68DA68834B1B68DB681B68B0
:1030F0002C331B6802211000984706007F4B1B7879
:10310000DBB21A007E4B5200D35A9B089BB21A00C6
:1031100013005B019B1A9B009B181B011800FDF715
:1031200055FB0300F318774A9B181A000221280068
:10313000A047754B1B685A1C734B1A602BE3734AEC
:103140008023DB00D3585A425341DBB2002B04D01A
:103150006D4B1B685A1C6C4B1A606D4B1B685A1CDC
:103160006B4B1A606949FB686A4A8B50674A802337
:10317000DB00D358013B5A425341DAB2FB681100DD
:103180001800FDF709F8644B1A6880235B001340B0
:103190005A1E9341DBB2002B00D1F3E05E4B1A685C
:1031A0008023DB0013405A1E9341DBB2002B03D077
:1031B0005A4B1800FDF752FA012007F0C1FB564B9D
:1031C0001B68574A13405A1E9341DBB2002B03D0B1
:1031D000544B1800FDF742FA4F4B1B682022134056
:1031E0005A1E9341DBB2002B00D1A3E0002007F070
:1031F000A5FB464A80235B000021D150434AAA2305
:10320000DB00D3581A00484B1A60474B1B680A3B37
:103210005A1E9341DBB2002B03D0444B1800FDF73C
:103220001DFA354B1B68DA68334B1B68DB681B687B
:103230002C331B680121100098473D4B1B68BB6075
:10324000354B1B68202293431A00334B1A60324BD4
:103250001B6880221A43304B1A60284B1B78DBB264
:103260001A1C0F231340DAB2BB680F210A4010006A
:103270005A7A0F218A43111C021C0A435A72BB68F6
:103280005A7A0F210A405A72BB685B791B061B0FE2
:10329000DAB2BB680F210A4010005A790F218A4325
:1032A000111C021C0A435A71BB6805229918487800
:1032B00000242040487099188878002420408870A5
:1032C0009B18DA7800210A40DA701049BB68114A6D
:1032D0008B500120FDF740F8012007F030FB0B4B2D
:1032E00001229A60094A86235B000021D150002008
:1032F00007F026FB4FE2C04694060020960000200F
:1033000074000020C409000098060020001000404E
:10331000B006002004050000B80600206A02000084
:10332000030A00006F0200009C06002075020000E6
:10333000BC060020DE4B1B68802213405A1E9341BE
:10334000DBB2002B1BD0DB4B1B685A1CD94B1A601D
:10335000D94A86235B000021D1500020FCF7FCFFF6
:10336000002007F0ECFAD24B1B68D44A1A40D04B2D
:103370001A60CF4B1B68D24A1A43CD4B1A6000200B
:1033800007F0DEFACA4B1A688023DB0013405A1E8E
:103390009341DBB2002B00D1D5E0C54B1A688023E6
:1033A0005B0013405A1E9341DBB2002B03D0C54B88
:1033B0001800FDF753F9BE4B1B68C34A13405A1E51
:1033C0009341DBB2002B04D0AF239B001800FDF724
:1033D00045F9012007F0B5FAB54B1B688022134070
:1033E0005A1E9341DBB2002B57D0B84B1B685A1CB6
:1033F000B64B1A60B04A86235B000021D1500020F2
:10340000FCF7AAFF002007F09AFAA94B1B68B04A04
:103410001A40A74B1A60A64B1B6805221A43A44BFF
:103420001A60AC4B1B68DE68AA4B1B68DB681B6824
:1034300020331C68A74B1B68DA68A64B1B68DB6847
:103440001B682C331B680221100098470100A14B18
:103450001A6882235B00D3585B791B071B0FDBB212
:103460001A009D4B5343CD189C4B1B78DBB21A00BE
:103470009B4B5200D35A9B089BB21A0013005B016E
:103480009B1A9B009B18DB001800FDF79FF90300B7
:10349000EB181A0002213000A047854B1B68202240
:1034A00013405A1E9341DBB2002B49D0894B1B6855
:1034B000DA68884B1B68DB681B682C331B680121AA
:1034C000100098477A4B1B68202293431A00784BD0
:1034D0001A60774B1B6880221A43754B1A60764A34
:1034E000AA23DB00D3581A007E4B1A607D4B1B6861
:1034F0000A3B5A1E9341DBB2002B03D07A4B1800D3
:10350000FDF7ACF8734B1A6882235B00D3586A4A04
:103510001900764BD1500120FCF71EFF012007F067
:103520000EFA654B01229A60634A86235B000021F4
:10353000D1505F4B1B68802252011A435C4B1A60CA
:10354000002007F0FEF95A4B1A6880235B011340F4
:103550005A1E9341DBB2002B0CD05E4B1B68180047
:1035600008F0F4FA03007B60514B1B68604A1A4074
:103570004F4B1A604E4B1B68042213405A1E934156
:10358000DBB2002B00D106E1012007F0DBF94A4A4B
:1035900086235B000021D150474A80235B00002135
:1035A000D150454A82235B000021D150424A8823F2
:1035B0005B000021D150404B01221A613C4B1B683B
:1035C0004C4A1A403A4B1A60394B1A688023DB0088
:1035D000134006D0364B1B681022134001D0012344
:1035E00000E00023002B00D1AEE028233B603B68C5
:1035F0005A1E3A60DA17D31ADB0FDBB2002B00D069
:10360000F5E72D4AAA23DB00D3581A00354B1A6080
:10361000344B1B685A1E9341DBB2002B03D0364B50
:103620001800FDF71BF8244A88235B00D358013BA0
:103630005A1E9341DBB2002B04D0E1239B001800FB
:10364000FDF70CF81C4A88235B000021D150184B71
:103650001B681D4A13405A1E9341DBB2002B03D056
:10366000264B1800FCF7FAFF1349C2239B000122E6
:103670005242CA50104AC1239B000821D1500E4A21
:1036800080239B000021D1500B4A80235B00002146
:10369000D150094B01221A60FA233B603B685A1E45
:1036A0003A60DA17D31ADB0FDBB2002B28D0F5E72C
:1036B000B8060020B4060020001000407FFEFFFF87
:1036C00005000100BA020000030A0000AC06002059
:1036D0007FFBFFFF94060020C40900009600002035
:1036E000740000209C060020DA020000040500009F
:1036F000FFEFFFFF11FF0F008303000086030000B0
:10370000264B1B68182293431A00244B1A60234B44
:103710001B6820221A43214B1A60214AAA23DB008E
:10372000D3581A001F4B1A601E4B1B680A3B5A1EC7
:103730009341DBB2002B01D1FFF7CDFA1A4B1800F1
:10374000FCF78CFFFFF7C7FA144B1B6808221A43DB
:10375000124B1A60154B1B68DD68144B1B68DB6845
:103760001B6820331C68114B1B68DA680F4B1B6801
:10377000DB681B682C331B6803211000984703008B
:103780001E331A0003212800A047002007F0DAF8B2
:10379000C04600E0C046BD4605B0F0BDB8060020FA
:1037A000001000409C0600209503000094060020B5
:1037B00080B500AF044B1B685A1C034B1A60FFF71F
:1037C00087FAC046BD4680BDA0060020F0B585B092
:1037D00000AF8F4B1B68DA688D4B1B68DB681B687A
:1037E0002C331B680021100098470200894B1A6097
:1037F000894B1B78DBB21A00884B5200D35A1A004F
:1038000013005B019B1A9B009B18DB001A00814B85
:103810001B68D218824B1A60824B1B6805229A42A1
:103820009B415B42DBB2002B09D07F4B1B6880229F
:1038300092011A437C4B1A607A4B00221A607A4B31
:103840001A688023DB0113405A425341DBB2002B3C
:1038500049D0002007F077F86F4B1B78DBB21A00D5
:103860006E4B5200D35A9B089BB21A006F4B5343C6
:103870007B60FA235B003B607B681800FCF7A6FFC7
:1038800003001A003B689B183B60614B1B68DD68B6
:103890005F4B1B68DB681B6820331C685C4B1B6834
:1038A000DA685B4B1B68DB681B682C331B680221E2
:1038B0001000984702003B68D3181A000221280024
:1038C000A047534B1B68D868514B1B68DB681B68CB
:1038D00020331C68524B1B681A000021A0470120AE
:1038E00007F031F890E0012007F02DF84E4B1B68EF
:1038F0004F4A1A404C4B1A604B4B1B684D4A1A43B7
:10390000494B1A60484B1A6880239B0113405A1E8A
:103910009341DBB2002B32D03D4B1B68DD683C4B42
:103920001B68DB681B6820331C68394B1B68DA682E
:10393000374B1B68DB681B682C331B6802211000A7
:1039400098470600FA239B001800FCF73FFF03008E
:10395000F3181A0002212800A0472D4B1B68D868D5
:103960002B4B1B68DB681B6820331C682C4B1B68C7
:103970001A000021A047304B304A1A6042E0264B23
:103980001B78DBB21A00254B5200D35A9B089BB21E
:103990001A00264B5343FB60FA235B00BB60FB68B5
:1039A0001800FCF713FF03001A00BB689B18BB60EC
:1039B000174B1B68DD68164B1B68DB681B682033E0
:1039C0001C68134B1B68DA68114B1B68DB681B68AB
:1039D0002C331B680221100098470200BB68D318E3
:1039E0001A0002212800A047094B1B68D868084B21
:1039F0001B68DB681B6820331C68094B1B681A00B6
:103A00000021A047FFF764F9BD4605B0F0BDC046F0
:103A100094060020900600209600002074000020EC
:103A20008C060020A4060020B8060020B80B000079
:103A3000FF3FFFFF0100020008000020409C000043
:103A4000F7B50400002601932C4B0D0008330360EA
:103A5000868086711700E16001222100103000F09D
:103A6000F9F9200021000222303008F0A5F92000E9
:103A700021000322543008F0E0F96B469B88E7717F
:103A8000A380230050272000FC33A6716672A67223
:103A90003A009E6031005C3009F0D2FD2300200026
:103AA000AC333A0031001E80B03009F0C9FD23006C
:103AB000FE335E802B6828009B6998472B6828009E
:103AC0001B690F4998472B6831002800DB6998472C
:103AD0002B6828005B6B032198472B680421280082
:103AE0001B6B98472B6828005B699847FCF794FE8E
:103AF00002232372034B20001C60FEBD9CDA0000F1
:103B00001DBB000094060020F7B507000191FF37A8
:103B10000500B8781421013002F0D4F8CBB200933C
:103B20007B78CAB20C00934219D06E20FDF7CAF917
:103B300006006E2200212C3409F082FDA4006E22C2
:103B40000199300009F060FD665172B66B461B7832
:103B5000BB7062B60020AB7A0133AB72FEBD014888
:103B6000FCE7C04613FCFFFFF7B583790500002092
:103B7000DB0700D5ABE006F04BFF002800D0AAE041
:103B80002F00FC37BE68002E08D16E30FDF79AF981
:103B900004006E22310009F053FDBC60BB68002BAD
:103BA00000D19AE0002380264D4A4E4C13707600D7
:103BB000237023780A2B08D83000FCF707FE282151
:103BC00002F080F8C9B22170F3E70022464B0121D0
:103BD0005A608022D20511605A68002AFCD0062162
:103BE000424B434A5956434B99500221043A99504B
:103BF000414A1168414A9950414A1168E522D20070
:103C00009950404A1168404A9950404A1168E6224A
:103C1000D20099503E4A1168802212060A433D495B
:103C20005A50A2220321D20099503B4A11783B4AB4
:103C300003294DD13A499950002401260821394AD7
:103C400039489C50394A9C5004329E50384A995009
:103C5000384904329950022237495A50374958504E
:103C6000374804395850252036495850B8683649E5
:103C7000364F5850C021C020354B49005A50800063
:103C80001958394019501A60324B334A5C601C6134
:103C90001168324BEF680B4313603B6821001A6ACE
:103CA00038000192DB6A98472B7A2D4AB3409B5A21
:103CB000FA2292005A4321001218019B38009847BB
:103CC000AB7928001E43AE71FCF722FF2000FEBD39
:103CD00024499950B0E72448F9E72448F7E7C0465B
:103CE000BA080020BB080020FC00004001E50000ED
:103CF0000C05000000100040EC000010240700003C
:103D0000F0000010F40000102C070000F800001074
:103D1000FC00001034070000BC0800201C05000057
:103D20007469627524050000FFFF00002C05000087
:103D30001405000064000402340500003C05000086
:103D4000211001005405000004050000FF00FFFFE2
:103D500000E100E0FC100040B80600200860000010
:103D6000740000207569627516FCFFFF13FCFFFFED
:103D7000304BF7B51A680400120303D51A682E49B0
:103D80000A401A602D4D2E4B2A781B789A422BD070
:103D900028782821013001F095FF2700CBB201934C
:103DA0002B78284A9B009E582B7810379B009B58F5
:103DB0003800009307F0F8FF360CF6B2B04204D199
:103DC0006B463800198800F077F86B461B792B702A
:103DD000D8E7260030363000AF7808F01DF887426B
:103DE00013D1300007F0F6FF200007F0C0FE051EDB
:103DF0001ED0260010368778300007F0D5FF8742A6
:103E0000E7D1300000F08EF8EEE7AE7825005435AB
:103E1000280008F029F8864203D1280008F012F89B
:103E2000E2E7200007F0B7FE6E2109F0AAFBDBE70E
:103E3000F7BDC046B8060020FFFFF7FFBD08002011
:103E4000BE080020C0060020014B002019707047FA
:103E5000BC08002070B5040000250D4B8580083398
:103E600085710360816021001830160007F09EFF05
:103E7000200021001C3007F0D1FF064B267325617E
:103E8000656120001D70FDF7FDF8200070BDC04683
:103E9000B4DA0000BF08002070B580250A000100D8
:103EA000044CAD00231DDD67143107F0ACFE256026
:103EB00070BDC04600E100E070B5050010350A0095
:103EC0002900040007F0C8FE8022144B9200DA6734
:103ED00000281DD002681300117B0A33090710D592
:103EE000917A5A78200012020A43290007F08BFECB
:103EF000041E05D007F07DFE0C21200009F041FBD7
:103F000070BD0122037993431A0002231343037106
:103F10008022034B92001A60F2E7C04604E100E001
:103F200000E100E0F0B504008BB0806807F033FEDC
:103F300006000A367378827A1B0213430393437890
:103F4000324F04938378050005930093039A049BF2
:103F50003900200007F0FEFE00281CD1A3689B7AE0
:103F60000C2B18D8059B39000193049B284A009319
:103F70002000039B07F000FF21007278AB7A120249
:103F80001A431031200007F03EFEA37907009B077B
:103F900007D4002835D16E21280009F0F2FA0BB0C1
:103FA000F0BD00282DD10C20FCF78CFF070000236A
:103FB00021007B60BB603A0014313D60200007F0B7
:103FC0003DFE7278AB7A12021A431249012306A809
:103FD00006F0ACFEB3789B0707D020007178AB7A6F
:103FE00009021943183000F017F8B3785B07D6D5EB
:103FF00020007178AB7A090219431C3000F018F8E0
:10400000CDE76E21386809F0BCFAD0E760070020E0
:10401000BF080020F4F500001FB50A000123034982
:10402000684606F083FE05B000BDC046F5F5000009
:10403000F0B5006887B007F0B3FE3F2203680600C2
:104040001C7B94433BD11A0019780D320D392300A3
:10405000C9B2684608F019F82100684600F090FCE3
:10406000012187B2684600F08BFC2300174A85B215
:1040700099005458002C24D0E188B94221D1A1885C
:10408000A9421ED10222694602A808F02CF820009D
:1040900002A9083006F024FE02A806F0F1FD012373
:1040A0002A000B4902A806F041FE300007F0A1FDEE
:1040B00030000C2109F065FA684607F0EDFF07B003
:1040C000F0BD01330A2BD3D1EFE7C046BC07002077
:1040D000F6F5000010B5002903DB024B196008F06B
:1040E000CBFF10BDB007002070B504001E0004AB6C
:1040F0001D8800F0CFFE20000E4B40302360FCF7FF
:10410000FDFF230001364C33013522001E809D81C6
:104110000023E1214E32A3646365138053809381B1
:10412000D381013B200063644902FFF7D3FF2000E5
:1041300070BDC046C0D80000F7B580277F053D6937
:104140007C690822113C6C4306002100684609F096
:104150005BFA104B009A9A4219D000930023019306
:10416000796930001339694307F080FE019A00999C
:10417000300007F093FE2100300007F077FE7969E8
:10418000AB08133969432200300007F079FE01982B
:10419000FEBDC046FECA0000F0B50D00A9B00D92EC
:1041A00000213022060010A80B9309F049FA2800DC
:1041B00009F086FA431C0C93102B00D9B6E00B9B38
:1041C000202B00D9B2E02900300007F094FE071E32
:1041D00050D129000C9A10A809F016FA0D990B9AE3
:1041E00014A809F011FA80235B051A695F690C9223
:1041F000113F7A4330005D690B92FFF79DFF30223B
:10420000002104001CA809F01BFA290000270C9BC0
:1042100013395943300007F029FE0D9730257D43AF
:104220000B9B0833ED18A74243DA290030221CA863
:1042300009F0EAF910A91CA809F038FA002828D1D9
:104240003C49300022000E910F9407F027FE6A4689
:10425000099513AB23CB23C223CB23C223CB23C289
:104260003000129B1099119A07F026FE01230D933E
:104270000137D3E70D9910300B9A09F0B6F93021C8
:104280000400380009F07DF9002CA2D1200029B0EB
:10429000F0BD6A4609951FAB23CB23C223CB23C2B3
:1042A00023CB23C230001C991D9A1E9B07F004FEED
:1042B000DEE7E5433023ED1725405D430B9B0835D2
:1042C0005D190D9B002B1DD10C9B3021981E01F018
:1042D00089FBA0422CD017490134300022000E91F6
:1042E0000F9407F0DBFD6A46099513AB23CB23C27D
:1042F00023CB23C223CB23C230001099119A129BE7
:1043000007F0DAFD0B99300007F0B0FD80235B0564
:1043100059690C230C9A133963434A430233110041
:1043200030000B9A07F0ACFD0024AFE7024CADE77C
:10433000024CABE7FECA000017FCFFFF13FCFFFFB7
:1043400070B50400A280FA22002308000D499200F3
:1043500008312160A3716061E260A36063820A4951
:1043600007F0C9FD051E0AD001002000103102220D
:10437000123009F049F93021280009F002F9200033
:1043800070BDC046CCDA0000F9E4000030B502256B
:10439000837987B004002B4204D1FCF7B9FBA379E1
:1043A0001D43A571200007F0F2FD00281CD06B46CC
:1043B000DD1C280007F0E1FD2B78002B17D001A8A9
:1043C00007F0D9FD0321019AD3170B409B189B10CE
:1043D0002382FCF73FFEE368A18818180123A06040
:1043E0001A0002A806F0A2FC002007B030BD01228E
:1043F000064B1A60064A51680029FCD00021516022
:10440000044A1268019201225A60DBE700C00040B2
:10441000FCC0004008C50040022802D10122014B27
:104420001A707047C008002070B5064C050023784C
:10443000002B04D1044800F049FC0123237028001C
:1044400070BDC046C10800201944000070B50C00C2
:1044500006F0DEFA002810D00023144DA40A2B70B9
:10446000200007F0A8FD002803D00A2008F06BFF09
:10447000F6E72B78002BFCD070BD02210C4B0D4AC7
:1044800099508021C90008005D58002DFCD0A12161
:10449000C9005C5019580029FCD000219950802196
:1044A000C9005A58002AFCD0E6E7C046C0080020E0
:1044B00000E0014004050000F8B50C0015001E00E6
:1044C00006F0A6FA002811D00023174F3B703200E7
:1044D0002900200007F06DFD002803D00A2008F015
:1044E00032FFF4E73B78002BFCD0F8BD01210F48E8
:1044F0000F4B844619508021C9005A58002AFCD01D
:1045000080270022FF00964207DD91006858605026
:10451000D9590029FCD00132F5E7002261465A50F2
:10452000DA59002AFCD0E0E7C008002004050000AA
:1045300000E00140002370B5180001241D00094966
:104540009A005218516C002904D021009940084368
:10455000C0B255640133042BF1D1034B1B6898475B
:1045600070BDC046FC800040B4070020014B002015
:1045700019607047B40700201F22037A13401E3AC7
:1045800011009940024BD967C36800205A607047F8
:1045900004E100E0C268024B0020D1507047C046E1
:1045A0000405000010B5C3798B420FD90B005133BD
:1045B000C068FF339B001A508023C1225B028B40EE
:1045C0009200845823438350002010BD0048FCE72C
:1045D00017FCFFFF30B5C3798B4211D9A825C068FD
:1045E0008B00C318ED005C59A2185A518023C122D8
:1045F0005B028B409200845823438350002030BDDF
:104600000048FCE717FCFFFF10B5C3798B420AD9BD
:104610008023C2225B028B40C068920084582343EF
:104620008350002010BD0148FCE7C04617FCFFFF87
:10463000092905D8A223C2680020DB00D1507047A9
:104640000048FCE717FCFFFF70B5040008201E4976
:10465000205600F097FC08216156002921DA032535
:104660000F23CAB213402A40AA40FC359540083BAC
:1046700016489B089B001B18D869A8434025954005
:104680002A000243DA6101221F230B401100C020DF
:1046900099400F4B400019501960E36800201A60E0
:1046A00070BD0B4A8B089B009B180322FF26C02578
:1046B0000A40D2009640AD005859B043402696407B
:1046C000320002435A51DEE73545000000ED00E0BC
:1046D00000E100E010B50024C371044B848008336E
:1046E00084710360C160027210BDC046E4DA00004C
:1046F00010B50400054B083303601C3006F0C0FA07
:104700002000183006F0BCFA200010BD24DB0000A9
:10471000F0B5837991B004005B071BD5FCF79AFCD8
:1047200000232269801A9941994203D1F423FF336F
:1047300098420FD9A068002808D0364B1D8808F091
:10474000D4FB036815221B6A290098470422A37929
:104750009343A371A3799B075AD52F4D2B68DB6830
:10476000002B51D02D4B1B78032B4DD8294B2C49B6
:104770001B8804A80193FCF7B1FC2B6804A9DE6830
:1047800008A806F0A5FA08A9300007F0E8FB070022
:1047900008A806F075FA02AB9E1D0823320033808C
:1047A00006A9073B019807F024FC002F09D0390027
:1047B0002022103108A808F027FF3021380008F027
:1047C000E0FE164B32881B7806A9DE0008AB9E1966
:1047D000300008F00AFF002813D0082206A9300094
:1047E00008F012FF2B6804A9DD6805A806F070FA2E
:1047F000202308AA05A9280007F0B7FB05A806F0A2
:104800003FFA04A806F03CFA0222A3799343A3716D
:1048100011B0F0BDB4080020B807002097000020B8
:1048200009E5000070B5002504000A4B85800833B7
:1048300085710360C1601830FCF760FC20001C30FB
:10484000FCF75CFC044BA5601C6001236561200043
:10485000A37170BD24DB0000B8070020002815D02C
:10486000006041608260C360046145618661C76128
:10487000444604624C464462544684625C46C462C8
:10488000644604636E46466374468463002A06D019
:10489000C46B043C043A25681560B442F9D18C6BB2
:1048A000A6464E6BB546002B06D0CC6B043C043BB1
:1048B0001D682560B442F9D10C6BA446CC6AA346AE
:1048C0008C6AA2464C6AA1460C6AA046CF698E69E2
:1048D0004D690C69CB688A68086849687047006050
:1048E00041608260C360046145618661C76144467E
:1048F00004624C464462544684625C46C462644628
:1049000004636E46466374468463C46B043C043996
:1049100025680D60B442F9D1C769866945690469A3
:104920007047006041608260C360046145618661D8
:10493000C761444604624C464462544684625C4605
:10494000C462644604636C464463744684630469C9
:104950007047846BA646446BA546046BA446C46AA4
:10496000A346846AA246446AA146046AA046C7696F
:10497000866945690469C368826800684168704750
:1049800007B507F090FB002809D003789B0706D5F0
:10499000411C042201A808F037FE01980EBD014811
:1049A000FCE7C04617FCFFFF10B582604A430400D5
:1049B0004160002A0ADD074B90009A4201DD012088
:1049C0004042FCF77FFA2060200010BD0023036006
:1049D000FAE7C046FEFFFF1F4A688B6870B5836028
:1049E000534304000D004260002B12DD0A4A9E0072
:1049F0003000934201DD01204042FCF763FA0023BE
:104A000020602A68D158C15004339E42FAD1200058
:104A100070BD00230360FAE7FEFFFF1F014B036038
:104A20007047C0463CDB000030B500684488A142B6
:104A30000CDA8588AA4209DA002907DB002A05DB9F
:104A40005443401800198371002030BD0048FCE732
:104A500017FCFFFFF0B5070085B00E001D00002910
:104A600021DD002A1FDD002B1DD00468638803931D
:104A70008B4200DD0391A3880293934200DD0292F2
:104A8000002306340193019B029A93420EDA290017
:104A90002000039A08F0B8FD3B68AD195B88E41864
:104AA000019B0133EEE7024805B0F0BD0020FBE7B3
:104AB00017FCFFFFF8B504000D0016001F000029C9
:104AC00001DB002A02DA0E4B2360F8BD10004843D8
:104AD0000630FCF7F7F9206006F076F923685D8070
:104AE00023689E80002F06D03B0032002900200062
:104AF000FFF7B0FFE9E7200008F05BF9E5E7C04603
:104B00003CDB0000F7B506000D1E03D1244B03600B
:104B10003000FEBD00200F000400010001903B7832
:104B2000002B1AD03022524294469C446246092AF5
:104B300011D90A2B0AD1019B241801330193A142F8
:104B400000DA2100002004000137E8E70028FBD04C
:104B500001340020F8E70120F6E76A469288300029
:104B600012B209B2FFF7A6FF33680A249A1D012387
:104B70005B42180029780029CAD00F00303F092F66
:104B800007D85F1C00D1002363435B18303B01351D
:104B9000F0E7591CFBD0137001320300F7E7C04661
:104BA0003CDB0000F0B5040087B004A80E000192C1
:104BB0001D00FCF711F9236801995A88914233DAF4
:104BC0009B889D4230DA1F2E2ED9059B00939E4272
:104BD0002ADC05230022203E5E43049B9B1903939D
:104BE0000021039BAE189B5C0293019BCF182368A6
:104BF0005888009087420EDA9888B0420BDDDB19A6
:104C000010270F41009870431B1802980740781E28
:104C100087417F429F7101310529E6D10132052A82
:104C2000DED1002007B0F0BD0048FBE717FCFFFF16
:104C3000F7B50468070063880E1E01931EDD9942D4
:104C400018DA0023063400933B68009A9B889A4246
:104C500012DA019BA1199D1B2A00200008F0D4FC48
:104C60006019310008F097F83B685B88E418009BF6
:104C70000133E8E708F09DF8002000E00048FEBDA1
:104C800017FCFFFF10B50548054C206006F09FF8A3
:104C9000044A0549200008F06DFC10BD3CDB000013
:104CA000E40700200000002089CD0000436810B513
:104CB0000400002B02D1044808F079FA6068036808
:104CC0001B69984710BDC04615E50000014B1860F0
:104CD0007047C046E807002080B2002807D1BFF324
:104CE0004F8F034B034ADA60BFF34F8FFEE77047E5
:104CF00000ED00E00400FA05F0B5254B85B01B7807
:104D0000DBB20093002B18D0224E234F33685A4257
:104D10005A41D2B201923A68002A14D1009C002B69
:104D20000BD021E003983B6898472C0019E028003D
:104D30003368984729E0002C05D005B0F0BD002C61
:104D4000FBD1009C019403A808F0D3F8009C050057
:104D5000052806D00028E5D000221100FFF7BCFF8F
:104D60000024019B002BE6D10C4B03A91B880B8070
:104D70000B4B1D68280008F0BEF80528DFD000287E
:104D8000D5D000221100FFF7A7FF002CECD1D9E706
:104D9000C2080020EC070020F4070020B60800201D
:104DA000F8070020074B10B51B68002B07D0984769
:104DB000002803D000221100FFF78EFF10BDFFF77F
:104DC0009BFFFBE7F00700200120054B10B51A7888
:104DD00050401870034B1B68002B00D0984710BD43
:104DE000C3080020FC07002070B504000D00160069
:104DF0000021102208F024FC054B32002361290019
:104E0000200000F07BFA034B20001C6070BDC04600
:104E1000A08601000008002070B5054D04002B6835
:104E2000834203D0016900F023FA2C6070BDC046B4
:104E30000008002010B50400034B083303601C3049
:104E400000F08EF9200010BD44DB000070B50500B5
:104E500004000E4B0E00083308C52800182200215C
:104E600008F0EEFB002320003100E361236263635E
:104E7000A363E364064A23001C3000F041F92800D4
:104E8000310008F0BDF9200070BDC04644DB0000D1
:104E900097CF000010B5040000F006F8014B200089
:104EA000236010BD5CDB00000C4B70B50360002379
:104EB00043608360C360036243628363962304009C
:104EC0009B01051DC363280000F024FB280022007D
:104ED000034900F0B1FB200070BDC0466CDB000050
:104EE0003FD0000010B50400044B036008F0E9F85F
:104EF000200000F01BF8200010BDC0467CDB000045
:104F0000084B10B508330360002343608360C3601F
:104F1000040000F02BF80449206108F0A1F92000FA
:104F200010BDC0469CDB000089D1000010B5040014
:104F3000034B0833036008F034F9200010BDC0466D
:104F40009CDB00000300074A1068C318EFF30881D8
:104F50008B4205D30C220120034B40421A6070475C
:104F60001360FCE70C000020F808002000487047A0
:104F7000B0DB000010B5024808F07BF910BDC04658
:104F8000B0DB0000024B8000C01801607047C046D3
:104F9000400000100848026803210A4302600749E4
:104FA000074A084B9B1A03DD043BC858D050FBDC72
:104FB00005488047054800472405004088E5000073
:104FC00000000020B80000202D5900000901000059
:104FD000FEE7FEE7FEE7FEE7FEE7FEE701704B1C9B
:104FE0000AD001238B404360044BC360044B036130
:104FF000044B4361044B83607047C0460805005072
:105000000C0500501005005014050050F7B5A22300
:10501000A022DB00D205D358BE220193314B5200AF
:10502000995800293FD0C1218900595800293ADAFE
:105030000024E025C0269C50ED00B6022A4BA700B4
:10504000F85800282CD0294BE35C002B17D0019B8B
:105050000121E3400B4227D02300A022C133FF33BC
:105060009B00D2059B589B039B0F032B1CD0204B0E
:105070001B68E3400B4217D01E4B1B689847A023C8
:10508000DB05FF187A5932420AD07A591A490A4088
:105090007A51019AE240D3071FD57A5932437A51A7
:1050A00001341F2CCAD1F7BD019B0122E3401342FA
:1050B000E5D12300A021C133FF339B00C9055B5814
:1050C0009B039B0F032BDAD10C4B1B68E34013426D
:1050D000D5D0084B02211B68D0E780227959920273
:1050E0000A43DCE7006000400C080020C4080020F0
:1050F0009008002088080020FFFFFCFF8C0800209B
:1051000030B5040008004D1C1CD00F48216002601F
:10511000BE2200200D4C5200A0500D4A8D00AB5015
:1051200001220C4B5A54C122802392001B06A3502B
:10513000094B0A4C99580C40C0210904214399504D
:1051400040221A6030BDC046880800200060004040
:105150000C080020C408002000E100E0FFFF00FF71
:1051600000210368014A9B00995070470C080020F9
:1051700070B5A024E0250068E4058300ED001B194C
:105180005C591F4E34405C511E4D01242E68002A8C
:1051900026D0A14203D181400E432E6006E00229B1
:1051A00004D18440184A11680C4314602A68012114
:1051B000C2400A4204D1144A1268C2400A420ED0C8
:1051C000A021A222C905D2008958F132C140FF3284
:1051D0009858C90711D5C02189020143995070BD63
:1051E000012902D181408E43D7E70229DED18440D4
:1051F00005490A68A2430A60D8E78021ECE7C04667
:10520000FFFFFCFF900800208C0800200368074A7D
:105210009950074AFC33196A002902D0002018620D
:105220007047013A002AF6D10120F9E71C05000079
:10523000A186010010B50368002A03D08022022055
:105240009200985001221C001A62084AFC34E0685F
:10525000002806D00020A322E060D2009B580B70EB
:1052600010BD013A002AF2D10120F9E7A186010020
:1052700010B50B4C02680B4BA14205DC0A4981605A
:10528000CC214904D15010BD084CA14204DC08498E
:1052900081608021C904F5E706498160CD21F9E7E5
:1052A0008FD0030024050000A08601007F1A0600AD
:1052B00090D00300801A060070B504001000A025ED
:1052C000C026C130FF30F600ED05800046510800D1
:1052D000C130FF3080004651A1252068ED004251C9
:1052E000054A815019002000FFF7C2FFA0230521C5
:1052F0002268DB00D15070BD0C050000F8B50E002F
:105300001500040000F00CFA264AF1B21378DBB263
:10531000012B1DD1507888421AD19778E8B2874284
:1053200016D16373204B19000022FC312360657194
:1053300026718A62A021C9005A501C4920005A5087
:1053400001325A502A003100194BFFF7B5FFF8BD62
:10535000184BE8B21F78012F09D15F788F4206D130
:105360009F78874203D102236373134BDBE71778DF
:10537000002F04D10123137051709070D1E71A7877
:10538000002A04D101321A7059709870EBE70B486B
:1053900007F00DFF0023FC222360657126719362E4
:1053A000FFDEC046E308002000300040FC0F000094
:1053B000A0860100E70800200040004038E500001A
:1053C000036800221900FC3110B58A62A021C900CF
:1053D0005A5006495A5001325A5005220421825629
:1053E00041568368FFF768FF10BDC046FC0F000000
:1053F000036800211A00FC3210B591600131596137
:10540000074B9168002905D000240473FFF7D8FFEB
:10541000200010BD013B002BF3D10120F9E7C0466D
:10542000A1860100036810B51900FC318A6A0020CA
:10543000012A08D1044C1C5988625A610238A40719
:1054400001D40120404210BDC40400000261064A9C
:1054500010B54260054A01738260054A1900026076
:1054600008F00EF810BDC0460405005010050050AD
:1054700000070050A820012110B5124A124B1488D1
:10548000C00059601C50548810481C509088A922B4
:10549000D200985080220820920098508020093233
:1054A000FF32000398500A4A1078A222D200985086
:1054B000084A1088084A985000221960FC331A657F
:1054C00010BDC0469000002000A000404405000030
:1054D000980000208E0000204C050000012310B52C
:1054E0000A4ADC0014598C4207DD013BDB00D3186B
:1054F0005A680168064BCA5010BD0133112BF0D118
:1055000080210268024B4905D150F5E7CCDB000051
:1055100024050000F8B50F0016000122244BBA4004
:105520000360A023234CDB05195905000A431A51D7
:105530008022195912060A430121B1401A511A5901
:105540008A4396211A511A598901520052081A5158
:10555000FFF7C4FF002204202B6817495A506C390A
:1055600058500121996019601900FC31CA60134933
:105570005A506A6014391F325A5011495F50091845
:105580005A501E517B1C03D00321380007F068FFDE
:10559000731C03D00321300007F062FF0122094B86
:1055A00029001A600848073208F02EF8F8BDC046F6
:1055B00000200040140500006C0500001C050000E0
:1055C0000C0500009C080020F0080020962310B570
:1055D000DB00994202DDFFF781FF10BD9E210268CA
:1055E000014BC902D150F8E724050000C1230E4A3F
:1055F0009B00D15810B5090603D50C49096A00294A
:1056000008D1D3585B0704D5084B0021DB68002B79
:1056100001D110BD0121064B18680028F9D0054BB7
:105620001B689847F5E7C04600200040FC2000407A
:105630009808002094080020034B19604368034930
:105640009B005A507047C0469408002098080020DC
:1056500003681A00FC32106A0128FCD10020106295
:10566000014AC9B2995070471C050000A023F0B54B
:10567000284FDB00FA5885B001920022A024FA508E
:10568000E023254AE405DB00E658E2507833E15890
:1056900001250291E250A1238022DB00D205E250D5
:1056A0000420E55007F019FFA222D200A358039767
:1056B0009B0F2B4228D0A35813242B4225D0012026
:1056C000A023E0220299DB05D2009E507832995047
:1056D000A023039A0199DB00D15005B0F0BD0F4B18
:1056E0000420EF5007F0F9FEA123DB00EF50042067
:1056F00007F0F3FEA223DB00EB585B00DFD4013C94
:10570000002CECD12000DBE71324A0250127ED05B8
:10571000F5E7C046004000400D0600000C05000003
:10572000A023E021134ADB05C90010B55A50783197
:105730005A50114B00221900FC31CA600A62A121A3
:105740001E20C9005A500D4A0D4C9850CC200D4ACD
:1057500040049850A2200C4AC00014500B480C4C36
:10576000145001205050A0220521D2009950FFF77B
:105770007DFF10BD0C060000004000400C0500003D
:10578000384100402405000000F0014014050000ED
:105790001C400040012310B50D4C0E49A36480232A
:1057A0009B00CB670C490D4A086D002804D00020EF
:1057B000086511680131116009490B60A923DB00FC
:1057C0001068E358010C9BB20004184310BDC0469A
:1057D0000090004004E100E0FC900040A0080020A0
:1057E00000E100E0F8B50F4C636C002B0FD00027F0
:1057F0000D4E67643378BB4209D00C4B1D68FFF730
:10580000C9FF2D1ABD4202DC3770FFF7B3FB236DD1
:10581000002B05D0064A136801331360002323656B
:10582000F8BDC046FC900040EB080020A408002012
:10583000A008002070B51B4D2878002831D1012127
:10584000194B1A4A596050608020C00501605168A8
:105850000029FCD000221649A2205A50042401211C
:10586000C000D9601C5008381A501248C2261A507D
:10587000C12280209200000398508020400298505E
:105880000D4AB60090590D4C0440C0200002204340
:105890009051C02480206400800010511060196075
:1058A000297070BDEC08002000900040FC00004012
:1058B000040500004C05000000E100E0FF00FFFFD0
:1058C000044B10B51B78002B01D1FFF7B3FFFFF796
:1058D00061FF10BDEC080020104B70B51B78040070
:1058E000002B01D1FFF7A6FF0D4D0E4E2B78002B9C
:1058F00002D03368A34210D0FFF74CFF201A0A28C9
:1059000003DCFFF747FF0A30040001232B70A823B4
:10591000054A3460DB00A4B2D45070BDEC0800200E
:10592000EB080020A408002000900040224910B598
:105930000B68DBB2012B0FD1204B1B681B070BD16F
:105940001F4BE0241A68F02310001840224228D18F
:105950001C4A12681A4227D00B68DBB2012B12D105
:10596000164A126812070ED1F021154A12680A4031
:10597000402A08D1134A12680A4204D18021C12268
:10598000C905D2008B508022A3230021D205DB0061
:10599000D1500D4B9960013191609A68002AFCD07A
:1059A00010BD3028D4D0D7E7084B094A1A608022AE
:1059B000084B12021A60CFE7E00F00F0E40F00F08E
:1059C000E80F00F0EC0F00F0FC0000400405004080
:1059D000DFFF07C0186C0040014B18687047C046D5
:1059E000A8080020002243088B4274D303098B428D
:1059F0005FD3030A8B4244D3030B8B4228D3030C9F
:105A00008B420DD3FF22090212BA030C8B4202D340
:105A10001212090265D0030B8B4219D300E0090A68
:105A2000C30B8B4201D3CB03C01A5241830B8B4271
:105A300001D38B03C01A5241430B8B4201D34B035A
:105A4000C01A5241030B8B4201D30B03C01A5241BF
:105A5000C30A8B4201D3CB02C01A5241830A8B4244
:105A600001D38B02C01A5241430A8B4201D34B022D
:105A7000C01A5241030A8B4201D30B02C01A524191
:105A8000CDD2C3098B4201D3CB01C01A5241830945
:105A90008B4201D38B01C01A524143098B4201D37F
:105AA0004B01C01A524103098B4201D30B01C01AAA
:105AB0005241C3088B4201D3CB00C01A5241830824
:105AC0008B4201D38B00C01A524143088B4201D351
:105AD0004B00C01A5241411A00D2014652411046B1
