:020000040000FA
:1000000000400020A5440000E1440000E34400005B
:1000100000000000000000000000000000000000E0
:10002000000000000000000000000000E5440000A7
:100030000000000000000000E7440000E944000068
:10004000EB4400002D2C0000014B0000EB440000AD
:10005000EB440000000000001D450000EB440000E0
:10006000313A0000D94C000089490000EB440000FF
:10007000EB440000EB440000EB440000EB440000C4
:10008000EB440000EB440000EB440000EB440000B4
:10009000EB440000BD42000099420000EB44000028
:1000A000EB440000EB4400000000000000000000F2
:1000B0000000000000000000000000000000000040
:1000C00010B5064C2378002B07D1054B002B02D02E
:1000D000044800E000BF0123237010BDA0000020F1
:1000E0000000000060D20000044B10B5002B03D0CC
:1000F0000349044800E000BF10BDC04600000000F6
:10010000A400002060D20000164B002B00D1144B3D
:100110009D46402292029A1A924600218B460F4633
:100120001348144A121A0CF001FA0F4B002B00D09E
:1001300098470E4B002B00D0984700200021040068
:100140000D000D48002802D00C4800E000BF09F067
:10015000AFF9200029000CF028F809F093F9C04607
:100160000000080000400020000000000000000027
:100170009800002094100020000000000000000003
:1001800010B50400034B0360403009F083FD2000EC
:1001900010BDC046F0C50000002814D0002912D0C0
:1001A000C27A837A12021A43037B41791B041A43F1
:1001B000437B09071B061343034A5B00D318012244
:1001C000090F5B185A7070477808002073B51848FB
:1001D00000F0A0F9174C0121200003F0AFF8C82669
:1001E0002000FA2402F076FF00F086F87600640022
:1001F000522101A809F06AFD0F4D320001A9280023
:1002000002F0CAF801A809F045FD200000F0B4FC96
:10021000202101A809F05AFD320001A9280002F0AE
:10022000BBF801A809F036FD200000F0A5FCDFE7CF
:10023000BC000020C8040020A801002010B5054C17
:10024000200000F081F82000034A04490CF046F930
:1002500010BDC046BC00002000000020610200006C
:10026000F7231C4A9B0010B5C2501C330400C01871
:1002700009F010FDFD239B00E01809F00BFD9F2302
:100280009B00E01802F016F984239B00E01801F0AF
:1002900001FA2000C530FF3000F036FF20008D301D
:1002A000FF3001F061F920006530FF3001F05CF9AA
:1002B0002000EC3001F088FE2000D03002F090FBEE
:1002C0002000643004F030F8201DFFF759FF2000B3
:1002D00010BDC0465CC80000A0220823D20500283B
:1002E00005D0A121C900505803435350704701491C
:1002F000F9E7C0460C050000A0210823044A10B508
:10030000C905885803438B500020FFF7E5FF10BD57
:100310001405000070B50B4D0400405900280ED0A4
:1003200003F044FF836D9B0709D560590BF0CBFDAB
:10033000036813215B6A984764200BF0B8FF09F04B
:1003400085FB70BD140500001423F0B5040097B0C0
:10035000009319221821043003F040F922002500EF
:100360006432B43513211000139203F0E9FF280022
:100370000AF09AFD2200B83210921E210022109835
:100380000AF022F92000D03002F04AFB2200EC32C1
:1003900011920621594A119801F03EFE22000027D1
:1003A00001236532FF32149211211A00149800972C
:1003B00001F044F922008D32FF321592012302220E
:1003C0001A211598009701F039F926002000C5364A
:1003D000B530FF361A2302220121FF3002F0E0FB84
:1003E000109904233A22300000F03EFF842292004C
:1003F000A218129205231D221099019300922B003E
:100400003200129801F040FB96229200119B129943
:10041000A018320001F014FD992292002900A018C2
:100420001C2203F00BFA9F229200A6181299222296
:10043000300002F04BF8A7229200A018159A310064
:10044000149B0092119A02F04DF91923AB220F93DD
:10045000013B0E93013B0D93013B0C93013B0B932E
:10046000013B0A93013B0993013B0893013B07932E
:10047000013B0693013B0593013B0493013B03932E
:10048000013B0293013B01939200013BA0180093B2
:1004900008220721013B0AF09FF8F7239B0029005F
:1004A000E01803F03FFCFF239B00E518082204231B
:1004B0002800134903F08EFB124B3A002900E01884
:1004C0001D2302F079FD104B1398E750032127708C
:1004D0000BF03BFD2300220020000C499C33A0328E
:1004E0001C60116057600A4A02215A618030012263
:1004F00004F0C6F8200017B0F0BDC046F8C50000F3
:10050000008000400C0400001405000015030000EA
:10051000819900000278F0B50123160085B00190A2
:100520001E401A423BD1FD20800500F049FC019F8E
:10053000D037380000F0E2F900F0F0F8282000F0A1
:1005400077FC0400103009F0F0FB164B18202360F4
:1005500000F06EFC0500144B08220293019B310051
:1005600003600C3003960BF0E1FF02A90822281D5E
:100570000BF0D3FF0D4B21006B6112233800A560F7
:10058000E660A3802662666202F0C2F9002806D007
:10059000200009F032FB282120000BF0A6FF05B057
:1005A000F0BDC046FD030000D799000097990000F8
:1005B000BFF34F8F024B034ADA60BFF34F8FFEE762
:1005C00000ED00E00400FA05F0B595B01822002116
:1005D00004000EA80BF0AAFF13210EA80BF0C3FD18
:1005E00003210EA80BF06AFE464B1B68002B00D1BE
:1005F0000133DBB2009300210123434A09A804F030
:10060000AFF9FA239B009C429B411C4072B63F4BC2
:1006100064211D683E4B2000059304F0E1FC052693
:100620001030704328180A210690200004F0D8FCEE
:100630000A2104F0BBFD10317143691820000791B5
:100640000A2104F0B3FD10314E43AD198026002479
:100650000895B601009B002B52D004AD0027032C57
:1006600002D180260024B6016B682A4A02936300F7
:10067000D3180022019258780299095C03911978E5
:100680008C461021604601410398014204D00120AC
:10069000904001990143019101320633092AEAD1C0
:1006A000019B2A68D9431C4B09011940029B9342C4
:1006B00024D1312F22DC002109A80BF0B8FEFA2347
:1006C000139A0F99DB001068014219D0013B002BEF
:1006D000F9D1FA23013401377600E4B25B009F427E
:1006E000BDD1043508ABAB42B8D1064B1B68002B1B
:1006F000B0D0009B013BDBB20093ABE73143DBE7BB
:10070000FFF756FFD8050020F0FF0000040000208E
:100710009CCF000066CF0000F01F000001230C48B2
:1007200070B503600023A12504241E00094AED00D2
:10073000566051680029FCD041591B02013C0B4313
:10074000002CF5D104490B600123436070BDC04605
:1007500000D00040FCD00040D4050020F0B585B0AA
:100760001F000AAB1B880600150002910393002F9F
:100770001DD0282000F05CFB6B4604001989039B08
:10078000AAB200933B0009F022FA3368210030003E
:100790005B68984700280BD0002C06D0200009F099
:1007A0002CFA282120000BF0A0FE024800E00248AD
:1007B00005B0F0BD16FCFFFF17FCFFFF0B4B70B53B
:1007C0001C68002C10D0656D00F0F8FBA36C0029AC
:1007D00001D1834206D8200009F05AF920000449CB
:1007E00009F044F92C00ECE770BDC046E00500209C
:1007F00000060020F0B593B007932A4B04AC1E68A6
:10080000049005910692002E49D0274B25886788D1
:100810001C6800230293002C2DD0636D23480393A2
:10082000A36C190C9AB20B00854214D12048824265
:1008300011D1002901D0B9420BD1029B002B08D164
:10084000200009F025F920001A4909F00FF90123C9
:100850000293039CDFE7002A01D09542F9D10029D9
:1008600001D0BB42F5D1200009F012F92000114956
:1008700009F0FCF8EDE7104BEB18012B0FD9102312
:100880003A002900009308A80C4B09F0A0F933683E
:1008900030009B6808A9984708A809F0AEF913B082
:1008A000F0BDC046DC0500200C060020FE03000061
:1008B000FF0300000006002002FCFFFFF507000018
:1008C00010B572B60B4B1C68002C08D0200009F044
:1008D000DFF80023E364084B2000E36310BD62B639
:1008E0005C2000F0A5FA5C22002104000BF01EFE43
:1008F000EFE7C0460406002000400020F7B51E4C7C
:100900000123227816001E401A4233D11B4D286065
:10091000FFF7D6FF1A4B1B49186009F0A7F8FFF73D
:10092000CFFF194B1860194B4363194B8363286839
:1009300000280FD0C023174F3200174900933B0007
:10094000FFF70CFFC023009332003B0013492868D7
:10095000FFF704FF0C2000F06BFA00238380837103
:100960000F4B03600F4B836000F040FB01232278A4
:1009700013432370F7BDC04648100020DC0500205B
:10098000100600200006002008060020FC3F002082
:10099000299B0000F5070000FF030000FE03000094
:1009A00018C60000BD070000024B1878012318404C
:1009B0007047C04648100020F7B506000D0017002C
:1009C0000193002802D100242000FEBD0029FAD0A6
:1009D000FFF776FF041EF6D0074B019A43630660CB
:1009E000064B45608760002A00D0054B2000054972
:1009F000A36309F03BF8E7E7FC3F0020039B0000FE
:100A0000119B00000006002070B5074B0E0011007E
:100A10001A7805000123100018401A4203D0320052
:100A20002800FFF7C9FF70BD48100020024B18686E
:100A3000434258417047C046000600200300002290
:100A400010B5044994006058002801D00132F9E73C
:100A5000635010BDE8050020002310B5044A99003A
:100A60008C58844201D00133F9E70020885010BD32
:100A7000E805002010B50024084BA200D05800283B
:100A800002D003685B6898470134062CF4D1044B0C
:100A90001B68002B00D120BF10BDC046E805002018
:100AA000000600200122F8B52C4B1B7813421BD006
:100AB0002B4D2C68E36C134217D002263343E364BA
:100AC0000423284F3868C26C1343C364636BC36349
:100AD00008F0F5FF3868416C03F081F92868C36CB1
:100AE000334201D003F0B5F9F8BD1F4F1F4E3A68ED
:100AF0003068002A0AD128601B0712D52C60FFF746
:100B0000B9FF3B68002BFAD02B600AE0216DB94297
:100B100019D1616D002900D1110029602A68824233
:100B2000EAD029688C42DFD0336899420DD1104B4E
:100B30004B63104B8B63200008F0C1FF2968200035
:100B40004B6C626C06E02A60E8E79C42F3D100221D
:100B500010004B6C03F002F9C6E7C04648100020B5
:100B600010060020E40500200006002008060020F2
:100B7000FC3F0020299B000070B5114B04001A783F
:100B800001231A4202D10BF092FB70BD0D4A156889
:100B9000EA6C1A4206D0FFF793FE0B4B1860002850
:100BA00000D0050000F00AFA2418AC64280008F010
:100BB0006FFF2800054908F059FFFFF773FFE4E7CE
:100BC0004810002010060020E4050020E005002069
:100BD000F0B51E4B1E4F1E683B6885B005000391A3
:100BE000002B31D01B4B1A7801231A422CD0F26C07
:100BF0001A420ED0FFF764FE174B041E186008D08F
:100C000008F046FF2000154908F030FF2600FFF7E6
:100C100049FF039B30001B042B43B36408F038FFEB
:100C200030000F4908F022FF0E4B0024EB18012B77
:100C300007D9C023009329000B4B039A3868FFF7AC
:100C40008DFD200005B0F0BD084CFAE7100600202D
:100C5000DC05002048100020E405002000060020EC
:100C60000C06002002FCFFFFF507000016FCFFFF4A
:100C700010B5074B1B78DB0709D5064C206808F038
:100C800007FF0549206808F0F1FEFFF70BFF10BDD4
:100C900048100020100600200406002010B5034B69
:100CA0001B78DB0701D5FFF7E3FF10BD48100020DC
:100CB000F7B505000C00002833D001261B4B1B782C
:100CC000334230D01A4F07233868C26C11001940E4
:100CD00000911A4207D021002800164AFFF794FE1F
:100CE00000252800FEBD03F09CF83A680221D36C71
:100CF0001800084001900B4203D001318B43D364AC
:100D0000EEE73343D3642000A8473A68019DD36CD3
:100D10001900B143D1645B07E3D52000FFF7BEFFA4
:100D2000DFE7054DDDE7054DDBE7C0464810002055
:100D3000100600209D0C000017FCFFFF16FCFFFFB3
:100D4000020010B5014B12CB12C210BD14060020D8
:100D5000034B1A68034B1A607E225A607047C046E4
:100D6000040000201406002070B5114D2B78022BD2
:100D70001AD081421AD90B1A072B17D90B0003433B
:100D800003221C001440134210D172B62A78094B7A
:100D9000D200D0509818416008F0CCFE2B78013377
:100DA0002B7062B6200070BD0348FCE70348FAE7E9
:100DB000491000201C06002013FCFFFF17FCFFFF5A
:100DC00070B50021041C04F013FA002828D1FE217C
:100DD000201C890504F016FA002821D1043008F0FF
:100DE0008BFB05000F48401B05F0D2F9211C04F0D5
:100DF00087FE04F03BFA032398430400280008F020
:100E000085FB200008F078FB002804D1203C002C52
:100E1000F7D1054803E00119FFF7A6FF002070BDD8
:100E20000248FCE70038002013FCFFFF17FCFFFF1F
:100E300070B5050000260C4B1B78B34209DD0B4949
:100E4000F3002800C91808F07DFE041E09D1013600
:100E5000F1E7280008F050FB041E02D11420FFF730
:100E6000B3FB200070BDC046491000201C060020C6
:100E700010B5002811D000220B4B19780B4B914272
:100E80000FDD1C68844209D25C68844206D9802345
:100E9000043802681B061343036010BD0132083397
:100EA000EDE708F033FBF8E7491000201C060020AE
:100EB00070B5051E14DD0B4E0B4C3368002B02D0B1
:100EC00020680BF0A7F8FA2120680024074B89005E
:100ED0008361C462694335600BF0AEF8200070BDD9
:100EE0000348FCE72C0600205C060020990F000058
:100EF00017FCFFFFF8B5114F05003E68002E0AD120
:100F00003020FFF795FF040003F082FA0C4BA66136
:100F10002360E6623C600B4E3368002B09D1102041
:100F2000FFF786FF04000BF0D4F8200034600BF0CC
:100F3000AAF82800FFF7BCFFF8BDC0465C060020F9
:100F4000ACC8000058060020014B18687047C04626
:100F50002C06002070B50D4C2368002B03D00C4BE1
:100F60001B68002B02D10620FFF7C4FF20680BF09E
:100F7000A1F802000749C3170D684E685219734162
:100F800020680A604B600BF09BF870BD580600208B
:100F90005C0600209800002010B5FFF7DBFF00245E
:100FA000054BA200D058002802D003681B68984760
:100FB00001340A2CF4D110BD3006002010B5FFF723
:100FC000C9FFFA22034B920018685968002304F005
:100FD0002DF910BD9800002010B5FFF7BBFF024BA4
:100FE0001868596810BDC046980000200B4B10B51A
:100FF0001B680400002B03D0094B1B68002B02D197
:101000000620FFF777FF0023064A9900885800283A
:1010100001D00133F9E78C5010BDC04658060020BE
:101020005C06002030060020002310B5044A990019
:101030008C58844201D00133F9E70020885010BD5C
:101040003006002010B50400002902D00B78002BD8
:1010500003D1034B2360200010BD08F022FEFAE705
:1010600028C60000014B03607047C04628C6000038
:1010700010B50548054C206008F0B1FE2000044A78
:1010800004490BF02BFA10BD28C6000060060020B2
:1010900000000020959C0000084B73B51D680400FB
:1010A000002D0AD001002E680822083168460BF096
:1010B00034FA0CCC28003168884773BD64060020E0
:1010C00010B5054C0121200008F07DFE2000034AE8
:1010D00003490BF003FA10BD680600200000002051
:1010E000859D0000074A030010B50120934208D0F7
:1010F000834202D00020DB0703D41E20FFF764FAEE
:10110000002010BDFFFF000010B50400034B0833A2
:101110000360FFF7A1FC200010BDC04670C60000B0
:10112000FA2270B5438992005343314A3149150080
:10113000040038358B421BDC2F498B4218D82F49CD
:10114000083D8B4214D82E49083D8B4210D82D49BA
:10115000083D8B420CD82C49083D8B4208D82B49BE
:10116000083D8B4204D82A4915008B4200D9083526
:10117000284B227B1E1D042A03D89E1C022A00D85D
:101180001E00FA212868890003F0A0FE33786081F0
:1011900000222A212000237308F048FE002824D1D1
:1011A00010222B21200008F041FE00281DD1012231
:1011B0002D21200008F03AFE002816D101222E2110
:1011C000200008F033FE00280FD10E212000727895
:1011D00008F02CFE002808D101222B792A212000BA
:1011E0001A4308F023FE002800D00B4870BDC0460B
:1011F00030C6000000C40900007102008038010000
:10120000204E00001027000088130000C4090000D1
:10121000E20400007CD100000EFCFFFF7FB515004A
:101220000F226A4404001E001170002D15D0002BFF
:1012300013DD012301890093006B01F0E5FA00281A
:1012400008D1009033002A002189206B01F092FA26
:10125000002800D0024804B070BD0248FBE7C04639
:101260000EFCFFFF17FCFFFFF7B507000025040089
:1012700001931D4B1437083303600E0000922900C0
:10128000182285808571C581056138000BF04EF903
:101290001C2138000AF067FF019B2200A380009BFD
:1012A0000E21238114236381123BA5712373A5634F
:1012B000A5873E32137826638B43137023000126E3
:1012C0004A331D80231DDE87084B20006364230002
:1012D00048331D70FFF724FFA84202D1A3791E43B3
:1012E000A6712000FEBDC04670C6000001000100CE
:1012F00030B504258379040087B02B4204D1FFF771
:101300009DFBA3791D43A571A36AA2691B680025F3
:101310001A4208D106236A4601212000FFF77EFF0A
:10132000051E03D0124D280007B030BD6B460222C7
:10133000042069469A561856237B92B25A43D2002B
:1013400022820222097880B249B259434343DB002A
:101350006382A379C90093432000E181A37108F05F
:1013600073FD0123A1881A0002A808F0E8FCDAE75F
:101370000EFCFFFFF7B50400FFF7BAFFC8230E21EC
:10138000625E764F5B009A4252DD23003E331B784B
:101390009B074DD50125210028003E310B785A08C6
:1013A000904302000220AA40834313430B702000A5
:1013B000FFF79EFFC8231021625E5B009A4245DD65
:1013C00023003E331B785B0740D501252100280010
:1013D0003E310B789A0890438200042083431343E4
:1013E0000B7026002000FFF783FF1222A35E483611
:1013F000BB4238DA23003E331B781B0733D521006C
:1014000001223E310B78D80882430820D200834362
:1014100013430B703378032B35D80133DBB23370B1
:10142000012B00D084E0230000224A331A802AE0F6
:101430002000FFF75DFF0E22A35E0025BB42B6DA57
:1014400023003E331B789B07A4D5B0E72000FFF7AD
:101450004FFF1022A35EBB42C3DA23003E331B784A
:101460005B07B2D5BDE72000FFF742FFC82312217A
:10147000625E5B009A4204DD23003E331B781B074B
:10148000BDD5002DC6D133780193002B14D0210097
:1014900027004A310B883E3701339BB20B803A78E4
:1014A000012015000540024250D01D2B04D9002315
:1014B00082433A700B803370200008F02DFD284ADB
:1014C0000723904240DDC8252000FFF711FF0E23BF
:1014D000E25EAD000323AA4236DC2000FFF708FFDE
:1014E000204E0E23E25E0423B2422DDB2000FFF7E4
:1014F000FFFE1023E25E0223AA4225DC2000FFF754
:10150000F7FE1023E25E0123B2421DDB2000FFF74D
:10151000EFFE1223E25E0523B24215DB2000FFF747
:10152000E7FE1223E25E0023AA420DDD06330BE044
:10153000042BA8D122003E321178033B0B431370D9
:1015400000234A3423800B331800FEBD092BB3D986
:101550000D80019D013D3570AEE7C04670FEFFFF76
:10156000FF700200E0FCFFFF10B50400034B0833DE
:101570000360FFF759FD200010BDC04688C600007B
:1015800070B5C369C1681A68451D0400EB7F11423C
:1015900021D0002B4ED1A379DA0732D51022134087
:1015A000A3710221200008F06AFDA31DDB7F012B3F
:1015B00027D1FFF703FD0023226A801A994199423F
:1015C00004D1FA2303219B00984200D30421200078
:1015D00008F055FD15E00B2B01D80133EB77EB7FBD
:1015E000082B0BD90121A3790B420AD10B43200010
:1015F000A37108F044FDFFF7E1FC2062EB7F012BB3
:10160000C9D90322A3791340012B12D1FFF7D6FCCD
:101610000023226A801A9941994202D1064B9842CE
:1016200007D90223A279052113432000A37108F0F2
:1016300026FD70BD013BD1E7DB050000F0B50600DB
:1016400000250F00040085B002930AAB1B78083612
:1016500003930F4B29000833036001928580857145
:10166000182230000AF062FF39003000039A0AF0B5
:101670007FFD019B029AA380A31DE771DA77631DAA
:1016800025622000DD77FFF7B1FC200005B0F0BD3A
:1016900088C6000010B50400034B08330360FFF751
:1016A000DBF9200010BDC046F8C600007FB515006C
:1016B0000F226A4404001E001170002D15D0002B6B
:1016C00013DD012301890093C06B01F09DF8002810
:1016D00008D1009033002A002189E06B01F04AF81C
:1016E000002800D0024804B070BD0248FBE7C046A5
:1016F0000EFCFFFF17FCFFFF002330B585B003ACE5
:1017000021700189009305002200C06B013301F0B4
:101710007BF8002802D0094805B030BD20800223A4
:10172000009022002989E86B01F024F80028F2D10A
:10173000237860781B02184300B2EDE70EFCFFFF30
:1017400007B500236A46D37101330732FFF7AEFFB6
:10175000002802D16B46D8790EBD0148FCE7C0468F
:101760000EFCFFFFD0B5040008F0C9FCE268A369D5
:10177000981A06F0CFF906000F002369E069C01A35
:1017800006F0C8F932003B0006F008FD0022104BBD
:1017900005F08CFB0F4A104B05F0A0F806F032FA6A
:1017A0000021041C03F01AFD002804D0201C0B4962
:1017B00003F040FE041C201C06F0DCF902000B00C4
:1017C0000020074905F0DEFD06F06EF9D0BDC046E9
:1017D00000806640EA2E4454FB2109400000B443D7
:1017E00000807640F0B5040085B0006C08F034FC51
:1017F000061C206C08F027FC0221071C200008F0C2
:10180000AFFC02210390200008F0BCFC04F07AFC3D
:1018100002210290200008F0C7FC04F073FC041CB5
:10182000301C06F07DFC051C301C06F03DFC0190D0
:10183000381C06F075FC061C381C06F035FC071C2D
:10184000039804F05FFC391C04F05AF9311C071CA2
:10185000029804F055F9291C04F052F9011C381CB7
:1018600003F0E8FD311C071C201C04F049F9019924
:1018700004F046F9011C381C03F0DCFD291C061C91
:10188000201C04F03DF90199041C029804F038F979
:10189000011C201C04F04EFA311C06F083FC0D499B
:1018A00004F02EF906F066F90B4A0C4B05F016F819
:1018B00006F0A8F90021041C03F090FC002804D0D5
:1018C000201C044903F0B6FD041C201C04F0FAFBA4
:1018D00005B0F0BD0000B443EA2E4454FB2119408A
:1018E00070B500221021040008F0FBFB1B4D0028FE
:1018F00032D1032608212000FFF722FFA8422BD077
:10190000304203D06420FFF737F9F3E7FA21638907
:1019100089005943124B0A221D005035186D884228
:1019200004D31D00083B5035013AF7D2FA2128684C
:10193000890003F0CBFAA02260811121200008F079
:10194000D0FB002808D101222B79102120001A4356
:1019500008F0C7FB002800D0004870BD0EFCFFFF58
:10196000A0C600007FB50425837904002B421BD15B
:10197000022608F0C4FBA3790622B3432B43A371CC
:1019800068460123A18808F0DAF9A3791A003340E8
:10199000581E83415842FB239B001840034BAA4327
:1019A000A271C01804B070BD0148FBE714FCFFFF32
:1019B00015FCFFFF10B5837904005A070DD49B076F
:1019C00001D4FFF7CFFF236C2000002B02D0FFF7DC
:1019D00009FF10BDFFF7C6FEFBE70148F9E7C04667
:1019E00015FCFFFF70B5466C86B001AC0500019197
:1019F0006260A360002E0CD00B4905A8FFF722FB04
:101A00000C232200300005A909F08AFA05A808F085
:101A100041F92B000C3307CC07C30223AA791343E7
:101A2000AB7106B070BDC04682D10000642330B5F2
:101A300004000281438185B08180FFF751FF0222BB
:101A4000A379606C9343A371002814D00D4909F069
:101A500031FA051E0FD001000C22103101A80AF046
:101A60005CFD20000199029A039BFFF7BBFF302128
:101A700028000AF03AFD0123A2791343A37105B0AF
:101A800030BDC04682D10000F7B5019308AB1F8876
:101A900009AB1E88002304000D0000920D4A8380CC
:101AA000083283710260C360036143618361C36173
:101AB00003621D21243008F007FB009B3A002364D9
:101AC000019B31002000E5636364FFF7AFFF200056
:101AD000FEBDC046F8C6000082B0F0B50400A5B057
:101AE00064202B932A920AF0E2FB04220C2109A81D
:101AF00002F0DAF92422CD491BA80AF00EFD0522D6
:101B000006A811000AF048F9C94907A802F07AFAB4
:101B1000A06800F079FBA568C64918A8FFF792FAFB
:101B20007822280018A900F06BFC18A808F0B2F879
:101B30006E256420013D0AF0BAFB002DF9D1A068A2
:101B400000F062FBA06808F0CEFC0121606808F09C
:101B5000F7F901210700606808F005FA06000A207D
:101B60000AF0A5FB0022B44B04929F4210DB013225
:101B700004923A00C8320BDBC8220421920004917F
:101B8000974205DC03220492C82F01DC013A04923B
:101B9000002203929E4210DB012303933300C833DB
:101BA0000BDBC82304329B0003929E4205DC032317
:101BB0000393C82E01DC013B039306A80AF0E3F867
:101BC0001BAF00233E000593B378002B05D0FF2305
:101BD0007278317806A802F0A9F9059B0336013323
:101BE00005930C2BF0D16B460C229A5E6B4606A82F
:101BF0001021595EFF2302F099F90023A0681A0012
:101C00000093743006A90AF0CEF83B002433059304
:101C10003B78049A934234D17B78039A934230D133
:101C2000BE78002E2DD13100206808F099FA04F01A
:101C300069FA3200031C290009A809F05DFA310095
:101C4000206808F09FFA04F05DFA0122031C2900C5
:101C500009A809F051FA3100206808F0A5FA04F04B
:101C600051FA2900031C022209A809F045FAFE23B3
:101C700029009B05032209A809F03EFA0123BB7045
:101C8000ED18059B03379F42C2D164200AF00FFB79
:101C90000B2D00DC59E709A809F01AFA012201000E
:101CA0000CA802F001F9002509A809F011FAA842D0
:101CB0003CDD2900002209A809F00CFA00222900C5
:101CC000061C09A809F006FA011C301C03F018FFD5
:101CD0002900061C012209A809F0FCF901222900AB
:101CE000071C09A809F0F6F9011C381C03F008FFCD
:101CF000311C03F09FFB29000222061C09A809F0F1
:101D0000E9F902222900071C09A809F0E3F9011CDE
:101D1000381C03F0F5FE311C03F08CFB2900031C7A
:101D200000220CA809F0E8F90135BDE709AA110065
:101D3000012318A809F0FBF918A90FA809F055FA12
:101D400018A809F0EAF90CAA09A912A8012309F0B8
:101D5000EEF9002312AA0FA915A809F0E8F900224C
:101D600015A8110009F0B6F90022061C012115A8DA
:101D700009F0B0F90022051C022115A809F0AAF902
:101D8000FC21071C8905301C03F0BAFE04F09AF907
:101D9000FC21060018908905281C03F0B1FE04F010
:101DA00091F9FC21050019908905381C03F0A8FE63
:101DB00004F088F92A00030031001A902068FFF728
:101DC00011FEA06808F08FFB07A908A8A56809F014
:101DD000D2FF0022194B009208A90193280013009A
:101DE00000F0B0FA08A809F0B9FFFA2080000AF064
:101DF0005EFAA06808F077FB15A809F08EF912A822
:101E000009F08BF90FA809F088F90CA809F085F9F9
:101E100007A809F0A3FF06A809F0A0FF09A809F088
:101E20007CF925B0F0BC08BC02B01847E0D1000036
:101E30008DD10000D2D10000E0FCFFFFDC050000E6
:101E4000F7B583601D4B05001F6801604260002FDD
:101E500032D02820FEF7ECFF0400103007F065FFB9
:101E6000174B18202360FEF7E3FF00220600154BF6
:101E700000210192056008320C3000930AF056FBF5
:101E800008226946301D0AF048FB0F4B002273619F
:101E9000C223A3803B68E260210038005B68A66033
:101EA000226262629847002806D0200007F0A5FE53
:101EB000282120000AF019FB2800FEBD640600203E
:101EC00005000600D91A0000CBA10000F0B50400FF
:101ED00085B0637A9C46002B04D1200008F0A0F95D
:101EE00005B0F0BDA37A266F01931023019AF35633
:101EF00000259B1801229A402900F368039202935F
:101F0000029BAB4231DDB068019B6843C018736926
:101F10004000E77A1A181B5C5078E279012F14D13F
:101F2000571E3F1A18003B004243606F5200821850
:101F3000D2189379634500DD6346627B1A4202D072
:101F40000123AB4019430135DAE7022F07D0032FF5
:101F5000EAD1277A013FFF1A03003800E4E7571E51
:101F6000FB1A277A013F381ADEE71123C943F356DB
:101F7000606C994023691940039B19430AF057FA92
:101F8000A27B072AACD8637B0C495B006373531CAC
:101F9000DBB290004158A373022A03D808000AF06C
:101FA0007BF996E7064B2000236300236363054B10
:101FB000E462236414300AF03FF891E710C7000090
:101FC000CD1E00000BA2000070B50400104B2500D0
:101FD00008330360FFF728F82000743009F0BEFED4
:101FE0002000603009F0BAFE2000583007F052FEA1
:101FF0002000503007F04EFE064B14352800636178
:102000000AF008F8280002F019FA200070BDC04656
:1020100030C70000ACC80000F8B500250400324B02
:102020008580083303608571143016000F0002F0BC
:10203000EFF920002D4BE562636125645030FFF716
:1020400011F820005830FFF70DF82000603001F043
:1020500067FF20000423F25E33682667590009B247
:10206000743009F099FE3368226FE37173680126BA
:10207000237210236581A7802561D3569168591872
:10208000994204DD3000984001330543F8E71123FD
:102090000120D356D1685918994206DD02009A40B2
:1020A0002669013332432261F6E71420FEF7C0FEB1
:1020B000226900212A430123060002F051FCFF237C
:1020C000220063720133A381002348326664A37344
:1020D00020001370A366FEF789FF0123A279200078
:1020E0001343A371F8BDC04630C70000C0C800004C
:1020F000F0B5437A040085B0002B04D1200008F02D
:102100008FF805B0F0BD0122837A11009C461023A0
:10211000066F0025F356039263449940029129000B
:10212000F3680193019BAB422CDDB068736968438F
:1021300060444000E77A1A181B5C5078E279012F5E
:1021400010D1571E3F1A18003B004243606F5200E7
:102150008218D2189379002B02D0039BAB4019430D
:102160000135DFE7022F07D0032FEED1277A013F99
:10217000FF1A03003800E8E7571EFB1A277A013FD1
:10218000381AE2E71123C943F356606C994023697A
:102190001940029B19430AF04AF9667AB31EDBB272
:1021A000FC2B14D8FEF7D0FE0B4B05002363002355
:1021B0000A4863630A4BFF217043E462236402F020
:1021C0000FFF290041432000143009F035FF637AE6
:1021D000012B00D995E791E721A20000B60300008A
:1021E0000BA200001FB5012381881A00684607F082
:1021F000A6FD012368461A00024907F0A0FD05B0BC
:1022000000BDC046FE0300001FB5030048331A7826
:102210000400002A0DD000221A70012381881A00C0
:10222000684607F08CFD012368461A00034907F051
:1022300086FD2000743009F0A6FD1FBDFF030000DD
:1022400010B548300378002B06D00378012B03D05B
:102250000121024807F04CFC10BDC046FF030000FE
:1022600010B501210400062007F042FC064B9842FD
:1022700008D148342378002B04D02378012B01D0D7
:1022800020BFF7E710BDC04616FCFFFF70B5050084
:10229000141E19DB060048363378002B02D0337841
:1022A000012B13D1002328001A00743001F0FAFE2C
:1022B000002C07D02B004A331C80002407234C3508
:1022C0002C803370200070BD014CFBE7014CF9E716
:1022D00017FCFFFF12FCFFFFF8B50B6805005B88D9
:1022E00008001700012B08D1002107F011FD002282
:1022F00001002800FFF7CAFFF8BD002A19DD2E00F3
:1023000048363378002B02D03378012B13D12B00C1
:1023100000245C331C80043B0100180007F0E9FC3A
:102320002B004A331F8003234C352C802000337050
:10233000E2E70248E0E70248DEE7C04617FCFFFF9D
:1023400012FCFFFF73B5079C0500002C1CDB060088
:1023500048363078002802D03078012816D1069807
:102360001BB2C0B20090280012B2743009F01BFDFD
:10237000002C07D02B004A331C80002407234C3547
:102380002C803370200076BD014CFBE7014CF9E74F
:1023900017FCFFFF12FCFFFFF7B505000E00171E2C
:1023A00026DDFFF74DFF2B0048331B78DCB2002BF6
:1023B00020D133685B88012B09D12100300007F060
:1023C000A7FC220001002800FFF760FFFEBD3100DE
:1023D00001A807F086FC3A0001A92800FFF77CFF5E
:1023E00001A807F057FC2800FFF73AFF2000EDE7AF
:1023F0000148EBE70148E9E717FCFFFF11FCFFFF8D
:10240000F8B50400171E1DDD060048363378002B92
:1024100002D03378012B17D12200E3795632013BE9
:10242000137023000025200054331D80503007F026
:1024300060FC23004A331F80022328004C3425808F
:102440003370F8BD0148FCE70148FAE717FCFFFFCD
:1024500012FCFFFFF7B504000F00161E18DDFFF792
:10246000EFFE230048331B78DDB2002B12D1390078
:1024700001A807F036FC320001A92000FFF7C0FFD9
:1024800001A807F007FC2000FFF7EAFE2800FEBDC8
:102490000148FCE70148FAE717FCFFFF11FCFFFFCA
:1024A000FF2902D84172002070470148FCE7C0466E
:1024B00017FCFFFF10B50400034B08330360FEF761
:1024C000CBFA200010BDC04648C7000070B504001C
:1024D000002516000B4BA5800833A5712360E16130
:1024E0000800012107F06CFE074BA680A360074B94
:1024F000A57125616561A5612000E360FEF79EFA84
:10250000200070BD48C70000FFFFFF7F0200008071
:1025100070B504000121C06907F046FEA26882423E
:1025200000DD0200E368A260834200DA0300216953
:10253000E360013121614A2917DD9B1A0C4A0D48DD
:10254000A3619B1858430C4902F04AFDC343002580
:10255000DB171840094B6061A360094B200025611F
:10256000E36007F0CFFF280070BD0648FCE7C046D7
:1025700060F0FFFF280A000058860300FFFFFF7F7E
:102580000200008016FCFFFF82B0F0B5040089B0A5
:1025900080680F930E9207F085FDE06807F082FDDA
:1025A0004B4906A801F02EFD606807F09AFF0590E0
:1025B000206807F0D4FFFA200127800009F077FE99
:1025C0006068FFF721FEFF216068FFF769FF65681B
:1025D000404907A8FEF736FD782207A92800FFF733
:1025E00039FF07A807F056FB3B4B3C4E7F42039355
:1025F000A06807F053FD002834D0E06807F04EFDD6
:1026000000282FD0206807F0ACFF606807F06BFF50
:1026100006A907A8656809F0AEFB0022304B0092BE
:1026200007A9019328001300FFF78CFE07A809F003
:1026300095FBFA20C00009F03AFE606807F053FFEE
:10264000A06807F033FDE06807F030FD0599606889
:10265000FFF726FF06A809F081FB09B0F0BC08BC13
:1026600002B018472068FFF753FF051E03D0022071
:1026700009F01DFEF6E7206807F071FF01008642B1
:1026800000DD0600039B8B4200DA039104230193D3
:102690000023320000932068039B07F067FF04903B
:1026A000874210D0606807F01EFF0423049A9F1A27
:1026B0003FB2606829B2FF233A007430013501F05F
:1026C00035FC052DF5D1642009F0F1FD049F8FE75D
:1026D0008DD1000004D2000002000080FFFFFF7FC8
:1026E000DC050000F7B58360089B0500C3601D4B47
:1026F00001601F684260002F32D02820FEF798FB4F
:102700000400103007F011FB174B18202360FEF770
:102710008FFB00220600154B002101920560083254
:102720000C30009309F002FF08226946301D09F0C1
:10273000F4FE0F4B002273611223A3803B68E2601A
:10274000210038005B68A660226262629847002818
:1027500006D0200007F051FA2821200009F0C5FE1C
:102760002800FEBD64060020220004008925000028
:1027700089A50000F0B51F0085B00AAB1B780400E6
:10278000039300933B000D00160009F0BCFB0028EA
:1027900033D0237D082B2DD8236800221900FC316B
:1027A0008A62A021C9005A50154905205A500138A3
:1027B000C046C046C046C046C046C046C046C046E9
:1027C000C046C046C046C046F1D1236801325A50C7
:1027D000A0210432C9005A5002F01CFA039B3200B7
:1027E000009329003B00200009F08DFB237D01337D
:1027F0002375CCE7034805B0F0BD2075FBE7C04664
:10280000FC0F00000EFCFFFFF0B51F0085B00AAB07
:102810001B780400039300933B000D00160009F0A1
:102820005AFB002833D0237D082B2DD823680022A3
:102830001900FC318A62A021C9005A5015490520AF
:102840005A500138C046C046C046C046C046C04681
:10285000C046C046C046C046C046C046F1D1236807
:1028600001325A50A0210432C9005A5002F0D2F964
:10287000039B3200009329003B00200009F02BFB52
:10288000237D01332375CCE7034805B0F0BD2075E7
:10289000FBE7C046FC0F00000EFCFFFFF8B50D1E65
:1028A0002FD000260227C468002C27D0AA88A3882E
:1028B00053403B4220D13A4215D1A368AA689342C3
:1028C0001AD12B88002B02D022889A4214D16B880F
:1028D000002B02D062889A420ED1A2880A4B0136A0
:1028E0001343A38008E0A968A06808F07EFB0028D5
:1028F000E7D1AB883B42E0D0646AD5E72000002EE8
:1029000000D10248F8BDC0460080FFFF17FCFFFF62
:10291000F0B506000D0085B0002959D00127C46824
:10292000002C23D00221AA8800230A4202D0A388C7
:102930005B083B40226829688A4211D1A068A968D7
:10294000002B0BD008F051FB002809D00421625E57
:10295000A388002A06DB1F4805B0F0BD8842F5D0E9
:10296000646ADDE75B045B0CA380F4E7F0682A8807
:102970000100031E07D1F56001236846164907F0E0
:10298000DEF90020E8E71C88944206D25C6A190050
:10299000002C0DD02300F6E723001C88944207D1B9
:1029A0005F886C88A74203D25C6A1900002CF3D1BF
:1029B000814209D10B889A4204D305D14C886B8897
:1029C0009C4201D96862D6E74B6A6B624D62D3E7DD
:1029D0000248C1E716FCFFFFFD03000017FCFFFFE4
:1029E000064B10B51A00040008322C330260436015
:1029F0000430FEF731F8200010BDC04660C700006B
:102A000008B4024B9C46043808BC6047E12900002A
:102A100008B4024B9C46043808BC6047FFA600007F
:102A20000C4A002311002C32083110B50381837247
:102A30004260C3600361436143830160040004306A
:102A4000FDF7FCFF044B1A68002A00D11C6020002F
:102A500010BDC04660C7000064060020F7B50D0039
:102A60000126C4680192002C37D023882A889A4214
:102A700001D0002B24D163886A889A4201D0002BB0
:102A80001ED1FDF791FF0123002806D0C022A388A4
:102A90001340C03B5A425341DBB2019A93421AD1D0
:102AA0000422A35EA788002B15DB10222900A018A2
:102AB00009F033FD40231F4204D0200007F029FE17
:102AC000646AD0E7FDF770FF0028F6D021000448C3
:102AD000FEF7EEF8F4E70026F2E73000FEBDC04650
:102AE00013A7000008B4024B9C46043808BC60479A
:102AF000A1A80000F0B587B001930EAB1B880600BB
:102B000003930D9B0D000093019B0C9F0292002BE1
:102B10003DD0002F02D1009BDB0738D52820FEF7DF
:102B200087F90400103007F000F9029B25806380CC
:102B30001820FEF77DF90500009B08220593019BF4
:102B4000002103600C30049709F0F0FC082204A96E
:102B5000281D09F0E2FC0F4B02226B610023039950
:102B6000E3602362636233680A43300021005B68DC
:102B7000A560A2809847002807D0200007F03DF804
:102B80002000282109F0B1FC034807B0F0BD03483C
:102B9000FBE7C046DFA8000016FCFFFF17FCFFFFA5
:102BA000F0B5160000258380164A174B0400857186
:102BB000026001814681057318688C4689B0A8427D
:102BC0001DD0124A05950492C02202926A4604ABB7
:102BD00082CB82C223002A006146FFF78BFFC0220E
:102BE000094B0A49186802926A46069106AB079596
:102BF00082CB82C223002A003100FFF77BFF200036
:102C000009B0F0BDA4C700006406002009AA0000B6
:102C100030B5002403730123034D05608471818066
:102C200082734373846030BDBCC7000080B584B03C
:102C300000AFD74A86235B000021D150D54B1A68DC
:102C400082235B00D358FB60D34B1B78DBB2033B82
:102C50005A425341DBB2002B44D0CF4B01221A70B1
:102C6000FB686E220021180009F060FCC94B1A684D
:102C700082235B00D358C64A1900C84BD150C44ABE
:102C800088235B00D3585A425341DBB2002B00D05B
:102C9000F5E7BF4AAA23DB00D3581A00C04B1A60DD
:102CA000BF4B1B685A1E9341DBB2002B02D065203C
:102CB000FDF78AFCB64B01225A60FA23BB60BB6861
:102CC0005A1EBA60DA17D31ADB0FDBB2002B00D022
:102CD000F5E7AF4B01229A60B24B1B685A1CB14B0F
:102CE0001A6052E1AC4B1B78DBB2013B5A425341B4
:102CF000DBB2002B00D1F5E0AB4B1B78012B00D0F1
:102D000096E0AA4B1B685A1CA84B1A60A04A802365
:102D1000DB00D358013B5A425341DBB2002B52D067
:102D2000FB685B790F221340DBB2002B50D0FB68AD
:102D30005B791B071B0FDBB20F331A1C0F231340E9
:102D4000DAB2FB680F210A4010005A790F218A433A
:102D5000111C021C0A435A718F4B03221A708C49B2
:102D6000FB688E4A8B508A4AAA23DB00D3581A008C
:102D70008B4B1A608A4B1B685A1E9341DBB2002BA7
:102D800002D07D20FDF720FC814A88235B000021D2
:102D9000D1507F4B01221A600120FDF79DFAFA23E2
:102DA0007B607B685A1E7A60DA17D31ADB0FDBB2BE
:102DB000002B00D0F5E7C0460020FDF78DFA744BDC
:102DC00001229A60E1E07A4B1B685A1C784B1A602A
:102DD0006F49FB68714A8B506D4AAA23DB00D358B8
:102DE0001A006F4B1A606E4B1B685A1E9341DBB280
:102DF000002B02D0AA20FDF7E7FB654A80235B0089
:102E00000021D150624A88235B000021D150604BE1
:102E100001225A605E4A80235B00D3585A425341D4
:102E2000DBB2002B00D0F5E7594B01229A60ACE0F1
:102E3000574A8023DB00D3585A425341DBB2002B60
:102E400004D05B4B1B685A1C594B1A60574B1B68CC
:102E50005A1C564B1A604E49FB68504A8B504C4ADC
:102E6000AA23DB00D3581A004D4B1A604C4B1B6849
:102E70005A1E9341DBB2002B02D0BA20FDF7A4FB0F
:102E8000434A80235B000021D150414A88235B00E4
:102E90000021D1503E4B01225A603D4A8023DB0085
:102EA000D358013B5A425341D9B2394AA923DB00D6
:102EB000D3581A00FB681800FDF76EF9FB686E2204
:102EC0000021180009F032FB314A80235B00D358FF
:102ED0005A425341DBB2002B00D0F5E72C4B0122C4
:102EE0009A6052E02C4B1B78DBB2023B5A425341B2
:102EF000DBB2002B49D0284B01221A70254B1A68EF
:102F000082235B00D358224A1900244BD150204A17
:102F100088235B00D3585A425341DBB2002B00D0C8
:102F2000F5E71B4AAA23DB00D3581A001C4B1A6092
:102F30001B4B1B685A1E9341DBB2002B02D0F620BC
:102F4000FDF742FB124A88235B000021D150104B51
:102F500001225A60174B1B685A1C164B1A6000203E
:102F6000FDF7BAF9FA233B603B685A1E3A60DA175C
:102F7000D31ADB0FDBB2002B00D0F5E70120FDF701
:102F8000ABF9034B01229A60C046BD4604B080BD38
:102F9000001000407C06002078000020040500009E
:102FA000800600206C0600204A10002078060020D1
:102FB000740600207006002073B5040000260193FB
:102FC000284B0D0008330360868086710092C16033
:102FD00001222100103000F0B7F920002100022268
:102FE000303007F0C4FE200021000322543007F0E7
:102FF00001FF019B2000A380009B3100E3712300AF
:10300000FC33A671268150229E605C3009F08EFA56
:1030100023002000AC33502231001E80B03009F074
:1030200085FA2300FE335E802B6828009B69984751
:103030002B6828001B690C4998472B683100280031
:10304000DB6998472B68280003215B6B98472B6846
:10305000042128001B6B9847FDF760FB034B200001
:103060001C6076BDCCC7000093AB00007C0600203E
:103070007FB506000391FF360400B07814210130BB
:1030800002F094F86B4602911B7A01937378019ACF
:1030900093421AD06E20FDF7CBFE05006E22002170
:1030A00009F044FA03996E22280009F036FA0299D1
:1030B0002C3189000D5172B6019BB37062B60020AD
:1030C000637A0133637204B070BD0148FBE7C04608
:1030D00013FCFFFF7FB5019083790020DB0700D54B
:1030E00089E006F0B1FC002800D089E0019DFC35A4
:1030F000AE68002E08D16E30FDF79AFE04006E22F5
:10310000310009F013FAAC60AC68002C00D179E012
:1031100000223D4B01215A608022D20511605A687D
:10312000002AFCD000220120384B39495A5058500F
:103130000620384908563849585007200439585055
:1031400008315A50354A1178354A032955D1354945
:10315000995000223449A6205A503449C0005A5090
:10316000012119500820844665463148314E1D50D2
:10317000314D04301D500220304D5851304D5E51BC
:10318000304E043D5E5107262F4D5E512F4D304E7F
:103190005C51304C626022612F4A12241268FC326A
:1031A00092685A51802292009C502C4A133C117014
:1031B000C22292009C506446C025043A9C50284A82
:1031C0007934FF341051AD005459344054511060DB
:1031D000FA2259600392039A511E0391002AFADCE5
:1031E00001229A60019B9B791A43019B18009A71F6
:1031F000FDF724FC002004B070BD1A499950A8E7DF
:103200001948F8E71948F6E7FC00004000100040B4
:10321000FC0F000024D200000C0500004A10002022
:103220001C05000074696275240500002C0500006F
:1032300014050000FFFF00006400040234050000D4
:103240003C050000211001005405000004050000A9
:10325000FF00FFFFFC1000407C06002078000020EB
:1032600000E100E07569627516FCFFFF13FCFFFFCB
:103270007FB504002E4D2F4B2A781B789A422ED012
:1032800028782821013001F091FF2600CBB203936A
:103290002B78294A9B009B58103601932B783000DD
:1032A0009B009B58029307F05AFD019B1B0CDBB25D
:1032B000984204D16B463000198900F077F8039BDF
:1032C0002B70D7E72500B37830352800019307F03D
:1032D00080FD019B834215D1280007F056FD200098
:1032E00007F01DFC061E22D025008378103528002B
:1032F000019307F034FD019B8342E3D1280000F0E5
:103300008BF8ECE7250054352800B67807F08BFDE4
:10331000864203D1280007F072FDE0E7200007F0A5
:1033200012FC0028DBD06E2109F0DFF8D7E77FBD63
:103330004B1000204C10002084060020014B002080
:10334000197070474A10002070B5040000250D4B1D
:103350008580083385710360816021001830160074
:1033600007F0FFFC200021001C3007F034FD064B65
:1033700026732561656120001D70FDF737FE200072
:1033800070BDC046E4C700004D10002070B5802518
:103390000A000100044CAD00231DDD67143107F065
:1033A0000BFC256070BDC04600E100E070B5050073
:1033B00010350A002900040007F027FC8022144B76
:1033C0009200DA6700281DD003681A00197B0A32C0
:1033D000090710D552789B7A1202200029001A435F
:1033E00007F0EAFB041E05D007F0DCFB0C212000EF
:1033F00009F07BF870BD0122037993431A00022380
:10340000134303718022034B92001A60F2E7C04617
:1034100004E100E000E100E0F0B5040089B080685C
:1034200007F091FB0600C77A837A3F021F43437877
:103430000500029383783A00039300932000029BD7
:103440002F490A3607F061FC00281CD1A3685B7A7B
:103450000C2B18D8039B20000193029B294A284972
:1034600000933B0007F063FC21007278AB7A1202F4
:103470001A432000103107F09FFBA37907009B0738
:1034800007D4002835D16E21280009F02EF809B0A4
:10349000F0BD00282DD10C20FDF7CAFC0700002349
:1034A00021003A007B60BB60143120003D6007F0D2
:1034B0009EFB7278AB7A12021A431349012304A8C7
:1034C00006F03DFCB3789B0707D020007178AB7AFB
:1034D00009021943183000F019F8B3785B07D6D504
:1034E00020007178AB7A090219431C3000F01AF8F9
:1034F000CDE738680028D2D06E2108F0F6FFCEE77D
:10350000240700204D100020F4F500001FB50A002C
:1035100001236846024906F012FC05B000BDC04612
:10352000F5F50000F0B5006887B007F014FC3F2205
:10353000036805001C7B94433BD11A0019780D32B7
:103540000D392300C9B2684607F07AFD21006846AC
:1035500000F096FC012187B2684600F091FC230040
:10356000174A86B299005458002C24D0E188B942F9
:1035700021D1A188B1421ED10222694602A807F0DA
:1035800092FD200002A9083006F0B3FB02A806F065
:1035900081FB012332000B4902A806F0D0FB280072
:1035A00007F000FB28000C2108F09FFF684607F099
:1035B0004EFD07B0F0BD01330A2BD3D1EFE7C04673
:1035C00080070020F6F5000010B5002903DB024B50
:1035D000196008F001FD10BD7407002070B50400EB
:1035E0001D0004AB1E8800F0CFFE20000E4B4030C3
:1035F0002360FDF737FD2300220001354C331D8089
:103600000023E1215832013616800A3AA36463652B
:10361000138053809381D381013B2000636449026E
:10362000FFF7D2FF200070BDF0C50000F7B580277E
:103630007F053E697C690822113C74430500210026
:10364000684608F06AFF104B009A9A4219D000931E
:1036500000230193796928001339714307F0E5FBD2
:10366000019A2800009907F0F8FB2100280007F0D4
:10367000DCFB79692200133928007143B30807F095
:10368000DEFB0198FEBDC046FECA0000F0B50D008D
:10369000ABB000210D920700302212A81E0008F0E6
:1036A00045FF280008F054FF431C0C93102B00D951
:1036B000B9E0202E00D9B6E02900380007F0FAFB67
:1036C0000B90002854D129000C9A12A808F025FF6D
:1036D00032000D9916A808F020FF80235B051A69B7
:1036E0005D690B92113D6A4338005E690D92FFF7E8
:1036F0009DFF0D9B30220833002104001EA80F936C
:1037000008F014FF31000B9B13395943380007F0C0
:103710008CFB00230F9E0C930E930C9BA34247DA65
:10372000310030221EA808F0F8FE12A91EA808F0E9
:1037300005FF00282CD13E49380022001091119439
:1037400007F08BFB6A46099615AB23CB23C223CB2C
:1037500023C223CB23C23800149B1299139A07F07B
:103760008AFB01230E930C9B303601330C93D4E774
:103770000B980D993200103008F0C1FE3021040082
:103780000B9808F0B2FE002C9DD120002BB0F0BDAC
:103790006A46099621AB23CB23C223CB23C223CB7A
:1037A00023C238001E991F9A209B07F064FBDAE7BA
:1037B000E6433021F61726404E430F9B9E190E9B81
:1037C000002B1CD10B9B981E01F080FBA0422CD03B
:1037D00017490134380022001091119407F03DFB85
:1037E0006A46099615AB23CB23C223CB23C223CB36
:1037F00023C238001299139A149B07F03CFB38003F
:103800000D9907F012FB80235B0559690C230B9A75
:10381000133963434A433800110002330D9A07F00D
:103820000EFB0024B1E7034CAFE7034CADE7C04605
:10383000FECA000017FCFFFF13FCFFFF70B5040079
:10384000A280FA22002308000D499200083121606D
:10385000A3710C496061E260A360638207F02AFBF8
:10386000051E0AD00100200010310222123008F09B
:1038700054FE3021280008F038FE200070BDC046FC
:10388000FCC7000010D2000030B502258379040087
:1038900087B02B4204D1FDF7D1F8A3791D43A57160
:1038A000200007F04FFB00281CD06B46DD1C2800D1
:1038B00007F03EFB2B78002B17D001A807F036FB52
:1038C0000321019AD3170B409B189B102382FDF70D
:1038D00075FBE368A18818180123A0601A0002A8EC
:1038E00006F02DFA002007B030BD0122064B1A6009
:1038F000064A51680029FCD000215160044A126830
:10390000019201225A60DBE700C00040FCC0004089
:1039100008C50040022802D10122014B1A707047ED
:103920004E10002070B5064D04002B78002B04D1FA
:10393000044800F04BFC01232B70200070BDC046F2
:103940004F1000201539000070B50C0006F07CF80F
:10395000002810D00023144DA40A2B70200007F07B
:1039600005FB002803D00A2008F0A1FCF6E72B781D
:10397000002BFCD070BD02210C4B0D4A99508021C8
:10398000C90008005D58002DFCD0A121C9005C5081
:1039900019580029FCD0002199508021C9005A589B
:1039A000002AFCD0E6E7C0464E10002000E00140AF
:1039B00004050000F8B50C0015001E0006F044F8E0
:1039C000002811D00023174F3B703200290020003F
:1039D00007F0CAFA002803D00A2008F068FCF4E7D0
:1039E0003B78002BFCD0F8BD01220F490F488C46D4
:1039F00042508022D2008358002BFCD08027002325
:103A0000FF009E4207DD9A00A958A150C259002A22
:103A1000FCD00133F5E7002362468350C359002BE5
:103A2000FCD0E0E74E1000200405000000E001405B
:103A3000002370B5180001241D0009499A0052188E
:103A4000516C002904D0210099400843C0B255644C
:103A50000133042BF1D1034B1B68984770BDC0465E
:103A6000FC80004078070020014B0020196070475F
:103A7000780700201F22037A13401E3A1100994054
:103A8000024BD967C36800205A60704704E100E028
:103A9000C268024B0020D1507047C04604050000A8
:103AA00010B5C3798B420FD90B005133C068FF3377
:103AB0009B001A508023C1225B028B4092008458E5
:103AC00023438350002010BD0048FCE717FCFFFF94
:103AD00030B5C37914008B4211D9A825C0688B007A
:103AE000C318ED005A5912195A518023C1225B02A2
:103AF0008B409200845823438350002030BD0148FE
:103B0000FCE7C04617FCFFFF10B5C3798B420AD90A
:103B10008023C2225B028B40C068920084582343FA
:103B20008350002010BD0148FCE7C04617FCFFFF92
:103B3000092905D8A223C2680020DB00D1507047B4
:103B40000048FCE717FCFFFF70B5040008201E4981
:103B5000205600F09FFC0822A256002A20DA0F23EC
:103B60001340083B19499B089B005B180321FF2564
:103B70001140C9008D40D869A84340258D402900D7
:103B80000143D9611F231A401E3B1900C0209140F8
:103B90000F4A400011501160E2680020136070BDB0
:103BA0000B4993089B005B180321FF26C025114099
:103BB000C9008E40AD005859B04340268E403100B8
:103BC00001435951DEE7C046313A000000ED00E004
:103BD00000E100E010B50024C371044B0833848079
:103BE00084710360C160027210BDC04614C8000039
:103BF00010B50400054B083303601C3006F04AF88A
:103C00002000183006F046F8200010BD54C800000F
:103C1000F0B58379040091B05B071BD5FDF7CEF9B1
:103C200000232269801A9941994203D1F533FF3369
:103C300098420FD3A068002808D0364B1D8808F0A2
:103C400042F90368152229001B6A98470422A379C8
:103C50009343A371A3799B0759D52F4E3368DB6833
:103C6000002B50D02D4F3B78032B4CD8294B2C499F
:103C70001B8804A80193FDF7E5F9336804A9DD6802
:103C800008A806F02EF808A9280007F043F9050057
:103C900008A805F0FFFF082302AAD3800198073B7C
:103CA000063206A907F080F9002D09D0290020224C
:103CB000103108A808F031FC3021280008F015FC6C
:103CC0003D7802ABDA88ED0008AB5D19280006A943
:103CD00008F015FC002813D00822280006A908F0D7
:103CE0001CFC336804A9DD6805A805F0FAFF202351
:103CF000280008AA05A907F013F905A805F0CAFFCE
:103D000004A805F0C7FF0222A3799343A37111B061
:103D1000F0BDC046740800207C0700207900002018
:103D200018D2000070B5002504000A4B85800833C6
:103D300085710360C1601830FDF794F920001C30D4
:103D4000FDF790F9044B20001C600123A56065611C
:103D5000A37170BD54C800007C070020002815D056
:103D6000006041608260C360046145618661C76133
:103D7000444604624C464462544684625C46C462D3
:103D8000644604636E46466374468463002A06D024
:103D9000C46B043C043A25681560B442F9D18C6BBD
:103DA000A6464E6BB546002B06D0CC6B043C043BBC
:103DB0001D682560B442F9D10C6BA446CC6AA346B9
:103DC0008C6AA2464C6AA1460C6AA046CF698E69ED
:103DD0004D690C69CB688A6808684968704700605B
:103DE00041608260C360046145618661C761444689
:103DF00004624C464462544684625C46C462644633
:103E000004636E46466374468463C46B043C0439A1
:103E100025680D60B442F9D1C769866945690469AE
:103E20007047006041608260C360046145618661E3
:103E3000C761444604624C464462544684625C4610
:103E4000C462644604636C464463744684630469D4
:103E50007047846BA646446BA546046BA446C46AAF
:103E6000A346846AA246446AA146046AA046C7697A
:103E7000866945690469C36882680068416870475B
:103E800007B507F0EBF8011E09D003789B0706D5AC
:103E90000422013101A808F040FB01980EBD014841
:103EA000FCE7C04617FCFFFF10B5040010004843B4
:103EB0006160A26000280BDD074B984205DC8000A2
:103EC000FCF7B6FF2060200010BD01204042F7E75C
:103ED00000232360F7E7C046FEFFFF1F4A688B6898
:103EE00070B58360534304000D004260002B12DD67
:103EF0000A4A9E003000934201DD01204042FCF757
:103F000097FF00232A682060D158C1500433B34280
:103F1000FAD1200070BD00230360FAE7FEFFFF1F07
:103F2000014B03607047C0466CC8000030B50068A4
:103F30004488A1420CDA8588AA4209DA002907DB05
:103F4000002A05DB6243401880188371002030BDD1
:103F50000048FCE717FCFFFFF0B507000E001D004E
:103F600085B0002921DD002A1FDD002B1DD004684B
:103F7000638803938B4200DD0391A38802939342ED
:103F800000DD0292002306340193019B029A9342C2
:103F90000ED029002000039A08F0BFFA3B68AD1943
:103FA0005B88E418019B0133EEE7024805B0F0BDE1
:103FB0000020FBE717FCFFFFF8B504000D0016001A
:103FC0001F00002901DB002A02DA0D4B2360F8BD37
:103FD000100048430630FCF72BFF206005F0FCFE84
:103FE00023685D809E80002F06D03B0032002900B0
:103FF0002000FFF7B1FFEAE7200007F0C4FEE6E784
:104000006CC80000F7B507000D1E03D1244B0360F8
:104010003800FEBD0024080026002100019403782A
:10402000002B1AD03022524294469C446246092A00
:1040300011D90A2B0AD1019B361901330193B142E0
:1040400000DA3100002426000130E8E7002CFBD024
:1040500000240136F8E70124F6E70126019A38002A
:1040600012B209B27642FFF7A7FF31000A203B687F
:104070009A1D2C78002CCBD02300303B092B08D87C
:10408000F343DB17334043431B19303B1E0001351C
:10409000EFE7731CFBD016700E000132F7E7C04645
:1040A0006CC80000F0B5050087B004A816001C001D
:1040B0000F00FCF745FE2B685A88964235DA9B883C
:1040C0009C4232DA1F2F30D9059B01939F422CDC92
:1040D0000521203F4F430499621DCB190193230012
:1040E0000392019A1278029200222C68B718608815
:1040F000B8420DDDA1888B420ADAE4191027174176
:104100005843029924180F40781E87417F42A771B7
:104110000132052AE9D1019A013301320192039A51
:104120009342DED1002007B0F0BD0148FBE7C04656
:1041300017FCFFFFF7B5036806009F1D5B880D00A5
:104140005A1A0192002919DD0024994203DB07F075
:104150001AFE002013E033689B889C42F9DA791933
:104160003800019A08F0D9F9019B2900F81807F0E6
:10417000FCFD336801345B88FF18ECE70048FEBDA6
:1041800017FCFFFF10B50548054C206005F027FE21
:104190002000044A044908F0A1F910BD6CC80000D1
:1041A000A8070020000000205DBD0000436810B596
:1041B0000400002B02D1044807F0ACFF60680368DC
:1041C0001B69984710BDC0462CD20000014B1860F7
:1041D0007047C046AC07002080B2002807D1BFF36B
:1041E0004F8F034B034ADA60BFF34F8FFEE77047F0
:1041F00000ED00E00400FA05F0B5224B85B01B7815
:10420000DAB20192002B3BD01F4D204E2B685C424E
:104210005C413268E4B2002A2CD003A807F057FEB4
:1042200005282BD0002819D000221100FFF7D4FF59
:10423000002CF2D1164B03A91B880B80154B1F686D
:10424000380007F046FE052810D000280AD00022CA
:104250001100FFF7C1FF002CECD1DEE703983368B3
:104260009847E5E738002B689847F4E7002C07D11A
:10427000019CD2E7002B03D0019CDBE7002CFBD094
:1042800005B0F0BD50100020B0070020B807002096
:1042900076080020BC070020074B10B51B68002BD8
:1042A00007D09847002803D000221100FFF794FFA1
:1042B00010BDFFF7A1FFFBE7B40700200120054B6D
:1042C00010B51A7850401870034B1B68002B00D0B3
:1042D000984710BD51100020C007002070B50400A1
:1042E0000D0016000021102208F020F9054B3200C5
:1042F00029002000236100F08BFA034B20001C6092
:1043000070BDC046A0860100C407002070B5054DF1
:1043100004002B68834203D0016900F031FA2C605D
:1043200070BDC046C407002010B50400034B08331D
:1043300003601C3000F09CF9200010BD74C8000020
:1043400070B5050004000E4B0E00083308C52800A8
:104350001822002108F0EAF8002320003100094A61
:10436000E36123626363A363E3641C30230000F012
:104370004FF92800310007F0F6FE200070BDC0465E
:1043800074C8000073BF000010B5040000F006F808
:10439000014B2000236010BD8CC800000C4B70B591
:1043A0000360002343608360C360036243628363EE
:1043B000962304009B01051DC363280000F034FB15
:1043C00028002200034900F0C1FB200070BDC04658
:1043D0009CC800009DBF000010B50400044B0833CA
:1043E000036007F017FE200000F028F8200010BD41
:1043F000A4C8000010B50400044B036007F00AFED7
:10440000200000F01BF8200010BDC046ACC8000022
:10441000084B10B508330360002343608360C3601A
:10442000040000F02BF80449206107F0CCFE2000C6
:1044300010BDC046CCC80000EFC0000010B504009D
:10444000034B0833036007F05FFE200010BDC04639
:10445000CCC800000300074A1068C318EFF30881B6
:104460008B4205D30C220120034B40421A60704757
:104470001360FCE70800002084100020004870470B
:10448000E0C8000010B5024807F0A6FE10BDC04607
:10449000E0C80000024B8000C01801607047C046B1
:1044A000400000100848026803210A4302600749DF
:1044B000074A084B9B1A03DD043BC858D050FBDC6D
:1044C0000548804705480047240500406CD200009D
:1044D0000000002098000020214E0000090100008B
:1044E000FEE7FEE7FEE7FEE7FEE7FEE701704B1C96
:1044F0000AD001238B404360044BC360044B03612B
:10450000044B4361044B83607047C046080500506C
:104510000C0500501005005014050050F7B5A223FB
:10452000A022DB00D205D358BE220193314B5200AA
:10453000995800293FD0C1218900595800293ADAF9
:104540000024E025C0269C50ED00B6022A4BA700AF
:10455000F85800282CD0294BE35C002B17D0019B86
:104560000121E3400B4227D02300A022C133FF33B7
:104570009B00D2059B589B039B0F032B1CD0204B09
:104580001B68E3400B4217D01E4B1B689847A023C3
:10459000DB05FF187A5932420AD07A591A490A4083
:1045A0007A51019AE240D3071FD57A5932437A51A2
:1045B00001341F2CCAD1F7BD019B0122E3401342F5
:1045C000E5D12300A021C133FF339B00C9055B580F
:1045D0009B039B0F032BDAD10C4B1B68E340134268
:1045E000D5D0084B02211B68D0E78022795992026E
:1045F0000A43DCE700600040D00700205210002092
:10460000540800204C080020FFFFFCFF5008002049
:1046100030B5040008004D1C1CD00F48216002601A
:10462000BE2200200D4C5200A0500D4A8D00AB5010
:1046300001220C4B5A54C122802392001B06A35026
:10464000094B0A4C99580C40C02109042143995048
:1046500040221A6030BDC0464C0800200060004077
:10466000D00700205210002000E100E0FFFF00FF13
:1046700000210368014A9B0099507047D007002031
:104680009446A022F0B50468E020D205A300C00043
:104690009B181A581E4D1F4E2A401A5060461E4D38
:1046A00032682F68002822D0012919D1A140114376
:1046B000316031682A6801200A43E24002420ED08C
:1046C000A021A222C905D2008958F132E140FF326F
:1046D000014219D0C0219858890201439950F0BD78
:1046E0000229E6D10120A04038432860E1E70129F2
:1046F00003D1A1408A433260DBE70229D9D10120EE
:10470000A04087432F60D4E780219858E4E7C04653
:10471000FFFFFCFF54080020500800200368074AF0
:104720009950074AFC33196A002902D00020186208
:104730007047013A002AF6D10120F9E71C05000074
:10474000A186010010B50368002A03D08022022050
:104750009200985001221C001A62084AFC34E0685A
:10476000002806D00020A322E060D2009B580B70E6
:1047700010BD013A002AF2D10120F9E7A18601001B
:1047800010B50B4C02680B4BA14205DC0A49816055
:10479000CC214904D15010BD084CA14204DC084989
:1047A00081608021C904F5E706498160CD21F9E7E0
:1047B0008FD0030024050000A08601007F1A0600A8
:1047C00090D00300801A060070B50400080019009C
:1047D0001300A025C026C133FF33F600ED059B0072
:1047E0005E510300C133FF339B005E51A125236856
:1047F000ED005A51054A98502000FFF7C1FFA02351
:1048000005212268DB00D15070BDC0460C050000B8
:10481000F8B50E001500040000F0FCF9264AF1B2CC
:104820001378D8B2012B1DD153788B421AD19778C7
:10483000EBB29F4216D16073204B19000022FC316D
:104840002360657126718A62A021C9005A501C49F3
:1048500020005A5001325A502A003100194BFFF7FC
:10486000B3FFF8BD184BE8B21F78012F09D15F786C
:104870008F4206D19F78874203D102236373134B83
:10488000DBE71778002F05D1012313706373517094
:104890009070D1E71A78002A04D101321A70597049
:1048A0009870EAE70A4807F035FC0023FC222360F1
:1048B000657126719362FFDE7110002000300040A8
:1048C000FC0F0000A0860100751000200040004091
:1048D0004FD20000036800221900FC3110B58A6233
:1048E000A021C9005A5006495A5001325A50052297
:1048F0000421825641568368FFF766FF10BDC0460B
:10490000FC0F0000036800211A00FC3210B5916012
:1049100001315961074B9168002905D000240473C7
:10492000FFF7D8FF200010BD013B002BF3D1012081
:10493000F9E7C046A1860100036810B51900FC31F3
:104940008A6A0020012A08D1044C1C5988625A61E5
:104950000238A40701D40120404210BDC404000065
:104960000261064A10B54260054A01738260054A39
:104970001900026007F038FD10BDC0460405005064
:104980001005005000070050A820012110B5124A60
:10499000124B1488C00059601C50548810481C5099
:1049A0009088A922D2009850802208209200985026
:1049B00080200932FF32000398500A4A1078A22260
:1049C000D2009850084A1088084A9850002219606E
:1049D000FC331A6510BDC0467200002000A00040E4
:1049E000440500007A000020700000204C05000003
:1049F000012310B50A4ADC0014598C4207DD013B43
:104A0000DB00D3185A680168064BCA5010BD013349
:104A1000112BF0D180210268024B4905D150F5E7F6
:104A2000FCC8000024050000F8B50F0016000122A4
:104A3000244BBA400360A023234CDB051959050021
:104A40000A431A518022195912060A430121B14022
:104A50001A511A598A4396211A511A59890152003A
:104A600052081A51FFF7C4FF002204202B6817498F
:104A70005A506C3958500121996019601900FC3165
:104A8000CA6013495A506A6014391F325A5011498A
:104A90005F5009185A501E517B1C03D00321380067
:104AA00007F092FC731C03D00321300007F08CFC4C
:104AB0000122094B29001A600848073207F02DFD32
:104AC000F8BDC04600200040140500006C05000041
:104AD0001C0500000C050000600800207C10002070
:104AE000962310B5DB00994202DDFFF781FF10BD70
:104AF0009E210268014BC902D150F8E7240500004D
:104B0000C1230E4A9B00D15810B5090603D50C49A4
:104B1000096A002908D1D3585B0704D5084B002146
:104B2000DB68002B01D110BD0121064B186800285D
:104B3000F9D0054B1B689847F5E7C04600200040B8
:104B4000FC2000405C08002058080020034B19603E
:104B5000436803499B00CA507047C046580800206C
:104B60005C080020A023F0B5274FDB00FA5885B081
:104B700001920022A024FA50E023244AE405DB003D
:104B8000E658E2507833E15801250291E250A12322
:104B90008022DB00D205E2500420E55007F051FCF2
:104BA000A222D200A35803979B0F2B4227D0A358D1
:104BB0002B4224D00120A023E0220299DB05D20061
:104BC0009E5078329950A023039A0199DB00D1506E
:104BD00005B0F0BD0E4B0420EF5007F032FCA123CE
:104BE000DB00EF50042007F02CFCA223DB00EB5885
:104BF0005B00DFD4013C002CECD12000DBE7A025DA
:104C000013240127ED05F5E7004000400D060000E4
:104C10000C050000A023E021134ADB05C90010B5F4
:104C20005A5078315A50114B00221900FC31CA6099
:104C30000A62A1211E20C9005A500D4A0D4C9850FD
:104C4000CC200D4A40049850A2200C4AC0001450B9
:104C50000B480C4C145001205050A0220521D200CA
:104C60009950FFF77FFF10BD0C0600000040004088
:104C70000C050000384100402405000000F0014010
:104C8000140500001C400040012310B50D4C0E49D6
:104C9000A36480239B00CB670C490D4A086D002854
:104CA00004D00020086511680131116009490B60CA
:104CB000A923DB001068E358010C9BB200041843E1
:104CC00010BDC0460090004004E100E0FC900040B0
:104CD0006408002000E100E0F8B50F4C636C002B85
:104CE0000FD000270D4E67643378BB4209D00C4BC0
:104CF0001D68FFF7C9FF2D1ABD4202DC3770FFF7B0
:104D0000C1FB236D002B05D0064A136801331360E5
:104D100000232365F8BDC046FC90004079100020B8
:104D2000680800206408002070B51B4D2878002812
:104D300031D10121194B1A4A596050608020C005B9
:104D4000016051680029FCD000221649A2205A5067
:104D500004240121C000D9601C5008381A501248A0
:104D6000C2261A50C1228020920000039850802051
:104D7000400298500D4AB60090590D4C0440C02096
:104D8000000220439051C024802064008000105114
:104D900010601960297070BD7A10002000900040EA
:104DA000FC000040040500004C05000000E100E0AC
:104DB000FF00FFFF044B10B51B78002B01D1FFF75C
:104DC000B3FFFFF761FF10BD7A100020104B70B5E4
:104DD0001B780400002B01D1FFF7A6FF0D4D0E4EEE
:104DE0002B78002B02D03368A34210D0FFF74CFF82
:104DF000201A0A2803DCFFF747FF0A3004000123CA
:104E00002B70A823054A3460DB00A4B2D45070BDD7
:104E10007A100020791000206808002000900040DF
:104E200070B5224C2368DBB2012B03D12048026805
:104E300013070DD08022A3230021D205DB00D1501F
:104E40001C4B9960013191609A68002AFCD070BDBA
:104E50001949F0230A68E02615001D40324221D18D
:104E6000164A12681A420DD1154B164A1A60802252
:104E7000154B12021A602368DBB2012BDAD10368EA
:104E80001B07D7D1F0220B681340402BD2D10B4B1C
:104E90001B681342CED18022C1230121D205DB0041
:104EA000D150C7E7302DDBD0ECE7C046E00F00F073
:104EB000E40F00F0FC000040E80F00F0EC0F00F001
:104EC00004050040DFFF07C0186C004000224308C3
:104ED0008B4274D303098B425FD3030A8B4244D3C2
:104EE000030B8B4228D3030C8B420DD3FF22090204
:104EF00012BA030C8B4202D31212090265D0030BC3
:104F00008B4219D300E0090AC30B8B4201D3CB03B8
:104F1000C01A5241830B8B4201D38B03C01A5241FA
:104F2000430B8B4201D34B03C01A5241030B8B42FC
:104F300001D30B03C01A5241C30A8B4201D3CB02E7
:104F4000C01A5241830A8B4201D38B02C01A5241CC
:104F5000430A8B4201D34B02C01A5241030A8B42CF
:104F600001D30B02C01A5241CDD2C3098B4201D3E7
:104F7000CB01C01A524183098B4201D38B01C01A65
:104F8000524143098B4201D34B01C01A52410309DC
:104F90008B4201D30B01C01A5241C3088B4201D38B
:104FA000CB00C01A524183088B4201D38B00C01A38
:104FB000524143088B4201D34B00C01A5241411A5F
:104FC00000D20146524110467047FFE701B500206C
:104FD00000F0F0F802BDC0460029F7D076E7704730
:104FE00003460B437FD4002243088B4274D303094A
:104FF0008B425FD3030A8B4244D3030B8B4228D3EB
:10500000030C8B420DD3FF22090212BA030C8B4210
:1050100002D31212090265D0030B8B4219D300E0B0
:10502000090AC30B8B4201D3CB03C01A5241830B35
:105030008B4201D38B03C01A5241430B8B4201D3E5
:105040004B03C01A5241030B8B4201D30B03C01A0E
:105050005241C30A8B4201D3CB02C01A5241830A88
:105060008B4201D38B02C01A5241430A8B4201D3B7
:105070004B02C01A5241030A8B4201D30B02C01AE1
:105080005241CDD2C3098B4201D3CB01C01A524148
:1050900083098B4201D38B01C01A524143098B42D1
:1050A00001D34B01C01A524103098B4201D30B01BA
:1050B000C01A5241C3088B4201D3CB00C01A5241DF
:1050C00083088B4201D38B00C01A524143088B42A4
:1050D00001D34B00C01A5241411A00D2014652413D
:1050E000104670475DE0CA0F00D04942031000D35C
:1050F0004042534000229C4603098B422DD3030AB1
:105100008B4212D3FC22890112BA030A8B420CD3C0
:10511000890192118B4208D3890192118B4204D3E9
:1051200089013AD0921100E08909C3098B4201D369
:10513000CB01C01A524183098B4201D38B01C01AA3
:10514000524143098B4201D34B01C01A524103091A
:105150008B4201D30B01C01A5241C3088B4201D3C9
:10516000CB00C01A524183088B4201D38B00C01A76
:105170005241D9D243088B4201D34B00C01A52414D
:10518000411A00D20146634652415B10104601D3DA
:105190004042002B00D54942704763465B1000D364
:1051A000404201B5002000F005F802BD0029F8D00A
:1051B00016E770477047C0468446081C6146FFE703
:1051C0001FB500F053FC002801D40021C8421FBDC8
:1051D00010B500F0D7FB4042013010BD10B500F013
:1051E00045FC002801DB002010BD012010BDC04699
:1051F00010B500F03BFC002801DD002010BD0120AF
:1052000010BDC04610B500F0E5FB002801DC002011
:1052100010BD012010BDC04610B500F0DBFB00281A
:1052200001DA002010BD012010BDC046002B11D1B5
:10523000002A0FD1002900D1002802D00021C94343
:10524000081C07B4024802A14018029003BDC046E2
:1052500065FFFFFF03B4684601B5029800F01EF831
:10526000019B9E4602B00CBC7047C0469E2110B503
:10527000C905041CFFF7D0FF002803D1201C00F053
:1052800021FF10BD9E21201CC90500F053FD00F038
:1052900019FF80231B069C466044F2E7F0B5574691
:1052A0004E464546DE46E0B504000D00924699465E
:1052B00083B08B4230D82DD04946504602F048FD8D
:1052C00029000600200002F043FD331A9846203BD7
:1052D0009B4633D45A465346934042461F0053469A
:1052E00093401E00AF423AD8AF4200D178E05B460F
:1052F000A41BBD41002B00DA75E0002200230092C0
:10530000019301235A46934001930123424693405F
:10531000009328E08242CFD900220023009201931B
:105320000C9B002B01D01C605D600098019903B0BC
:105330003CBC90469946A246AB46F0BD424620236F
:105340009B1A5246DA40414613004A468A401700EB
:1053500042461F43534693401E00AF42C4D9002229
:105360000023009201934346002BD9D0FB0772081B
:105370001A4346467B080EE0AB4201D1A2420CD84C
:10538000A41A9D41012024196D410021013E2418D9
:105390004D41002E06D0AB42EED9013E24196D419D
:1053A000002EF8D1009801995B4600196941002B45
:1053B00024DB2B005A464446D3402A00E2401C001E
:1053C0005B461500002B2ADB26009E40330026009A
:1053D0004746BE403200801A9941009001919FE7F4
:1053E000A342BCD883E74246202300219B1A002217
:1053F000009101920122DA40019286E74246202381
:105400009B1A2A0046469A402300F3404446134321
:105410002A00E2401C005B461500002BD4DA42460D
:105420002F002023260097409B1ADE403B00334389
:10543000CDE7C046F0B54646D6464F464D0242023D
:10544000C0B5520A6E0A4700B0463F0E4E00C40F68
:10545000D00094463B008246360EC90FAD098C42FF
:105460006DD0B81B814600284DDD002E00D188E0AC
:10547000FF2F5AD08023DB041D434B4601221B2BF8
:105480000ADC2B004A464946D3402022521A954056
:105490002A00551EAA411A4353469A1A530100D4B2
:1054A000B9E092019609300002F034FC05388640DC
:1054B000874200DDD4E03300C71B20200137FB40CA
:1054C000C71BBE403200561EB24100271A43530785
:1054D00004D00F231340042B00D00432530100D416
:1054E0009CE07B1CFE2F00D19AE09201520A944668
:1054F000DBB2D8056346E407184320431CBC904642
:105500009946A246F0BD002849D0F31B002F00D0D9
:10551000B6E05246002A60D0013B002B00D1FCE0EF
:10552000FF2E00D0B4E00C004246002A78D0802044
:10553000C00310434202530A9C46FF23D9E7B91B1C
:10554000002971DD002E3FD0FF2FEED08023DB0439
:105550001D4301221B2907DC2A002023CA40591AB7
:105560008D406B1E9D412A435244530153D5013750
:10557000FF2F55D001237B49134052080A401A439C
:10558000A5E7002D2CD001235B429C46E1444B460D
:10559000002B00D1ADE0FF2F00D06EE7C5E7FE2065
:1055A0007E1C304260D1002F00D093E05246002A8A
:1055B00000D1B6E0002D9CD0521B500100D4C3E0B6
:1055C00053460C00EA1A82E7002D09D00139002960
:1055D00000D18BE0FF2FBCD1A7E70C00424637007B
:1055E000FF2FA2D05202530A9C46FBB281E7FE2154
:1055F0000137394265D1002B7ED1002800D1AAE0C5
:10560000002D00D175E72A0052440027530102D52E
:10561000554B01371A40530700D05AE7D208DFE74D
:105620000022FF23944664E70029E0D0F31B002FFB
:105630003ED0FF2E00D177E780220100D204114333
:105640008A4601221B2B08DC524620215046DA40B4
:10565000CB1A9840431E984102433700521984E701
:10566000414A3F1A324032E753465E1B73012DD444
:10567000002E00D017E7002200240023944638E7CC
:10568000FF2E00D14FE780225046D20410438246BD
:1056900001221B2B08DC524620245046DA40E31A34
:1056A0009840431E984102430C003700AA1AF5E6C1
:1056B000002893D0013B002B4FD0FF2EC1D1424692
:1056C00033E7FF2FACD055446A08A4E753460C00DB
:1056D000EE1AE8E65346002B28D1002D00D022E731
:1056E0008023DB039C460024FF2302E72A00524468
:1056F0003BE753465A1BD1E6002800D114E7002DA2
:1057000000D112E78023DB031A4200D10DE74146A6
:10571000194200D009E7424607E70C003700AA1AF1
:10572000BCE6002D13D00C00C446E2E6002D00D1EB
:10573000FBE68023DB031A4200D1F6E6404618421E
:1057400000D0F2E60C00EFE6002A00D063E700226A
:1057500000249446CDE6C446CBE62A0037005244E6
:1057600003E7C046FFFFFF7DFFFFFFFBF0B54F469D
:105770004646D6464502C0B547000C1C6D0A3F0E92
:10578000C60F002F66D0FF2F6CD00023EA008025C3
:1057900099469A46ED0415437F3F60026100430A33
:1057A0009846090EE40F002948D0FF2910D0802226
:1057B000D800D2040243904600207F394A46330085
:1057C0007F1A02436C4992008A586340DBB29746C5
:1057D000002B6DD10220FF3F33E0002398462600C6
:1057E000454682465346022B00D17FE0032B00D171
:1057F00094E0012B17D038007F3000285FDD6B0765
:1058000004D00F232B40042B00D004352B0103D5EB
:1058100038005A4B80301D40FE2867DCAD016D0A10
:10582000C0B202E01E0000200025C0052843F60794
:1058300030431CBC90469946A246F0BD002B2BD1AC
:1058400001204A4633004E49024392008A58634081
:10585000DBB29746002D13D104239946033B002762
:105860009A469AE7002D05D108239946063BFF2763
:105870009A4692E70C239946093BFF279A468CE704
:10588000280002F047FA7627431F9D4000237F42FD
:1058900099469A463F1A80E7180002F03BFA4246C2
:1058A000431F76219A404942091A9046002085E715
:1058B000FF21032082E71E00FF200025B5E701231A
:1058C0001B1A1B2BAFDC9E372900BD40D9406A1E36
:1058D00095410D436B0704D00F232B40042B00D0C0
:1058E00004356B0144D5012000259EE7FF200025EB
:1058F0009BE780250026FF20ED0396E700239846CE
:105900008020C003054209D04346034206D14546E4
:1059100005436D022600FF206D0A86E78020C00344
:1059200005436D02FF206D0A7FE741466A01480189
:10593000824219D21B210025013F012614006D006F
:105940005200002C01DB904201D8121A3543013974
:105950000029F3D1501E824138007F301E001543CC
:10596000002800DD4BE7AAE71A210125121AE4E717
:10597000AD0100206D0A58E784C90000FFFFFFF762
:10598000C4C9000070B542004E024C0045026D0AC9
:10599000120EC30F760A240EC90FFF2A0FD0FF2C58
:1059A00011D00120A24200D070BDB542FCD18B4283
:1059B0000DD0002AF8D12800451EA841F4E70120A7
:1059C000002DF1D1EBE70120002EEDD1E9E7002019
:1059D000EAE7C046F0B5420046024D024C00C30F54
:1059E000760A120E6D0A240EC80FFF2A1FD0FF2C54
:1059F00010D0002A1FD171427141002C01D1002D1D
:105A00001ED000290ED183421ED00221581E08400C
:105A10000138F0BD002D26D1002AF4D17142714128
:105A20000029F0D00028F4D101204042F1E7002EF7
:105A300019D1FF2CEED0002CE5D1002DE3D1E4E705
:105A40000020002EE5D0E0E7A24205DCEADBAE4212
:105A500002D8E7D30020DCE741424141484202211D
:105A600008400138D5E702204042D2E7F0B54200B5
:105A700046024D024C00C30F760A120E6D0A240E28
:105A8000C80FFF2A0DD0FF2C0FD0002A23D171425E
:105A90007141002C0FD1002D0DD10020002E14D00B
:105AA0000DE0002E10D1FF2C15D1002D0CD1002AB5
:105AB00003D171427141002908D1834210D00221E3
:105AC000581E0840013800E00220F0BD0028FCD13B
:105AD00001204042F9E7002CEFD1002DEDD1EEE797
